:020000040800F2
:10000000281A0020AD010008B5010008B70100085A
:1000100000000000000000000000000000000000E0
:10002000000000000000000000000000B90100080E
:100030000000000000000000BB0100087120000863
:10004000BF01000800000000BF010008BF01000858
:10005000BF010008BF010008BF010008E50C00084F
:1000600000000000BF010008BF010008BF01000838
:10007000BF010008BF010008BF0100080000000028
:10008000B92000080000000000000000BF010008C7
:1000900000000000BF010008BF0100086111000856
:1000A0007D120008BF010008BF010008612500089B
:1000B000BF01000800000000000000000000000078
:1000C00000F002F800F046F80CA030C808382418F8
:1000D0002D18671EA246AB4654465D46AC4201D180
:1000E00000F038F87E460F3EB6460FCC012633426C
:1000F00000D0FB1A3343A246AB461847508A000093
:10010000708A0000103A02D378C878C1FAD8520732
:1001100001D330C830C101D504680C6070470000BD
:100120000023002400250026103A01D378C1FBD813
:10013000520700D330C100D50B60704710B5642959
:1001400002D100F04FF810BD002010BD1FB51FBD3B
:1001500010B510BD00F0E2FB1146FFF7F7FF05F008
:10016000BBFD00F0FAFB03B4FFF7F2FF03BC00F0A5
:10017000FDFB000070B505460C46164602E00FCCAC
:100180000FC5103E102EFAD2082E02D303CC03C5A1
:10019000083E042E07D301CC01C5361F03E02178A9
:1001A0002970641C6D1C761EF9D270BD074880470B
:1001B00007480047FEE7FEE7FEE7FEE7FEE7FEE74B
:1001C00004480549054A064B70470000A92000086D
:1001D000C100000828150020281A00202816002039
:1001E00028160020F7B5002575291068009914A677
:1001F00011D0C046C046002802DA404211A608E0ED
:10020000009909688A0701D50FA602E0490704D5BD
:100210000EA6012501E0C046C046009F00242437F9
:1002200004E000F047FA30313955641C0028F8D159
:100230002B4632462146009800F0E4F9FEBD00004E
:10024000000000002D0000002B0000002000000036
:10025000034670B502460B439B070FD10E4CE601D7
:1002600000E008C208C91D1B9D433542F9D0D9B230
:100270001170521C00290DD01B0AF8E70B78491C9D
:100280001370521C002B05D00B78491C1370521CA4
:10029000002BF3D170BD00000101010130B5441CF9
:1002A00003E00178401C00290DD08107F9D10B4BE8
:1002B000DD0104C8D11A91432940FAD0001B0A0677
:1002C00003D0C01E30BD001B30BD0A0401D0801E0B
:1002D00030BD0902FCD0401E30BD0000010101010B
:1002E000F8B5042A2CD3830712D00B78491C03706D
:1002F000401C521E83070BD00B78491C0370401C16
:10030000521E830704D00B78491C0370401C521EF8
:100310008B079B0F05D0C91ADF002023DE1B08C9FD
:100320000AE0FFF727FFF8BD1D4608C9FD401C463F
:10033000B4402C4310C0121F042AF5D2F308C91A86
:10034000521EF0D40B78491C0370401C521EEAD494
:100350000B78491C0370401C012AE4D40978017011
:10036000F8BD01E004C0091F0429FBD28B0701D5A9
:100370000280801CC90700D00270704700290BD092
:10038000C30702D00270401C491E022904D3830710
:1003900002D50280801C891EE3E70022EEE70022DE
:1003A000DFE7002203098B422CD3030A8B4211D3CF
:1003B00000239C464EE003460B433CD400224308F6
:1003C0008B4231D303098B421CD3030A8B4201D3E6
:1003D00094463FE0C3098B4201D3CB01C01A52417E
:1003E00083098B4201D38B01C01A524143098B42CE
:1003F00001D34B01C01A524103098B4201D30B01B7
:10040000C01A5241C3088B4201D3CB00C01A5241DB
:1004100083088B4201D38B00C01A524143088B42A0
:1004200001D34B00C01A5241411A00D20146524139
:10043000104670475DE0CA0F00D04942031000D358
:10044000404253409C46002203098B422DD3030AAD
:100450008B4212D38901FC2212BA030A8B420CD3BD
:10046000890192118B4208D3890192118B4204D3E6
:1004700089013AD0921100E08909C3098B4201D366
:10048000CB01C01A524183098B4201D38B01C01AA0
:10049000524143098B4201D34B01C01A5241030917
:1004A0008B4201D30B01C01A5241C3088B4201D3C6
:1004B000CB00C01A524183088B4201D38B00C01A73
:1004C0005241D9D243088B4201D34B00C01A52414A
:1004D000411A00D201465241104663465B1001D3D7
:1004E0004042002B00D54942704763465B1000D361
:1004F000404201B50020C046C04602BD704770476B
:1005000070470102C21504D00123DB071943002AFA
:100510000ADB9E239A1A02D40846D0407047FF2275
:1005200041001206914201D900207047C017C04314
:1005300070471F22030C02D10F2200041CD0030EAF
:1005400001D10002083A030F01D10001121F830FED
:1005500001D18000921E002801DB4000521ED2050E
:100560005118021251181922904004D3491C002836
:1005700001D14908490008467047C10FC90700D09A
:100580004042012292071143D3E701218907D0E7B6
:100590004146016049464160514681605946C1600B
:1005A000714601611430F0C069460160001D01B55B
:1005B000C046C04606BC964601C1002070470400F4
:1005C0000D00A06AC046C046616A8D462200280020
:1005D00000D10120116888465168894691688A4691
:1005E000D1688B4611698E461432F0CA704710B537
:1005F00000F08CF9006810BD10B5044600F086F9D3
:10060000046010BDFFB504460D4681B02430009053
:100610002168880604D51022E0699143216000E03A
:100620000120A84201DD471B00E000270498A169D2
:100630007A191018081AA0612078C00602D4204642
:10064000C046C046002608E003986268A168805D45
:100650009047206A401C761C206204988642F3DB97
:100660002078C0060AD52046C046C04606E062682B
:10067000A16830209047206A401C206238467F1EC7
:100680000028F4DC07E000986268A168405D9047AC
:10069000206A401C206228466D1E0028F3DC20469C
:1006A000C046C0462078000602D5022005B0F0BD45
:1006B0000120FBE701468008081A02091018020A07
:1006C0001018020C1018C008820012185200891A63
:1006D00001E0401C0A390A29FBD27047F0B5FF251A
:1006E0002D04C609C209FF2704462E400137CB0955
:1006F0003E4348402A402B400746002A6BD0002B3F
:1007000069D0AA4267D0AB4265D0002800DA3246F1
:100710000125ED0529432C4309022002090AD21ABA
:100720004B0C7F24E31A434C000A7C44E35C7D2499
:100730002404121914145B00A218884201D3521C1D
:1007400000E0400049420C465C4324115C43DB015D
:100750006415E318040A5C43C502200D0C464443AB
:100760006419250A5D432303EC0C0D466543000321
:100770000019EB184C42A34201D35B18401CD4056E
:100780002018002B07D05B00C91804D3401C002997
:1007900001D1400840003F2189048A4209D3002A40
:1007A00008DC1106090F04D0032149074018C00FC7
:1007B000C007F0BD01224100120689187F225206AF
:1007C0009142F6D205214907C84201D59010F0BDEB
:1007D000FF20C005F0BD002F00DA32461648AA42BD
:1007E00007D2AB4205D21902090E17D0F80FC00785
:1007F000F0BDFF2563002D06AB42F9D84900A942A0
:10080000F6D8AB4201D1A942F2D0A94201D10021D0
:1008100001E061004908D0050843F0BD1102090E4E
:10082000FBD0FF200243D005F0BD0A46014610462A
:1008300054E70000626F00000000C07F70B5024600
:1008400001020123C01520249E26DD07002802D0C6
:100850002943002813DB361A002E29DD0846F04014
:10086000A21B01D4914000E04908002906D099401C
:1008700000D3401C002901D14008400070BD000693
:10088000000E01D149004908361A11D40846F0403B
:10089000404200280CDCA21B01D4914000E0490832
:1008A0000029EBD0CA0F490000D11843801A70BD4F
:1008B000FF2150000906884201D9002070BDD017E1
:1008C000C043684070BD000010B5FF22C30D134047
:1008D00009D05A4007D0914205DA5C42A14202DDBC
:1008E000C905081810BDC40FE407002B06D0002A64
:1008F00006D0002902DBFF20C0050443204610BDBE
:100900004102FCD0004810BD0000C07F0048704785
:100910003800002000487047380000207546FFF777
:10092000F9FFAE46050069465346C008C00085463B
:1009300018B020B5FFF744FC60BCB646002600277F
:10094000C0C5C0C5C0C5C0C5C0C5C0C5C0C5C0C57F
:10095000403D490849008D46704710B50446C046E1
:10096000C0462046FFF7FFFB10BD000001491820DC
:10097000ABBEFEE72600020070470000F8B50C464B
:1009800006460D20084F394600F0A0F8054603281A
:1009900007D1388800F042F83080388800F041F8FC
:1009A0002080284601B0F0BD04050020F8B50C46B3
:1009B00006460F20084F394600F088F80546032800
:1009C00007D1388800F0C4F83080388800F0BAF8D1
:1009D0002080284601B0F0BD060500207F21890156
:1009E00008407047E0B5FFF7F9FF034694486946B1
:1009F0000A220A604860514801894289120451184C
:100A00008289012000F0AAF802B080BD80B57B4841
:100A10000021018000F054FD80BDC046000A800125
:100A200070470006000C7047E0B500F015F803466B
:100A3000834869460A220A604860A0203F4A105A4B
:100A4000A221515A09040918A420125A012000F0C9
:100A500085F802B080BDC04680B53221322800D86A
:100A60000846FFF79EFC4006400C80BDBCB5634CB9
:100A700020780021172803D0FF2803D1042022E08A
:100A8000032020E0C1002D4A535C002B17D06C4896
:100A90006B460A251D605860505A5318598809043E
:100AA00009189A88DB88012000F058F801460220D6
:100AB000042907D0032907D12178491C03E0411CF0
:100AC000022000E0FF21217002B0B0BDBCB50C4691
:100AD0005B496A460A2313605160C00017490A5AED
:100AE0000818418809048918FF229143828801204F
:100AF000044D2B4600F058FC032801D129882180A1
:100B000002B0B0BD08050020BCB54D4B6C460A25AF
:100B100025606360C000094B1C5A181843881B04E9
:100B20001C19074D5540C3880B432B408288012078
:100B3000214600F013F802B0B0BDC046E8790008C5
:100B4000FFFF00002D2189010006800C401870472E
:100B50002D218901000A8001401870477FB5144695
:100B6000264DEB8003AA1380AA78D20710D1344A0D
:100B70006B460A261E605A60A2B2AB1D00F014FC40
:100B8000042835D003282AD1A878401CA87027E073
:100B9000099A089B6E4633607260FF229143A2B2AD
:100BA0002B1D00F001FC042822D0032817D1200AB5
:100BB000C0B20021024607E003ACE45CEB181B79ED
:100BC000A34200D1521E491CCBB28342F4D310067B
:100BD00002D0A878401C01E00020C043A870A8788B
:100BE000C0B2FF2803D0062805D3042000E003206C
:100BF0000021A97000E0022004B070BD8401002033
:100C0000BCB50C460E496A460A2313605160C00009
:100C10000C490A5A0818418809048918FF2291438F
:100C200082880220084D2B4600F0BEFB042803D02A
:100C3000032803D1298800E00449218002B0B0BD17
:100C4000B9690008D07600080A050020FEFF000000
:100C500010B505F087FC0B480B4901600B480C49A7
:100C60004160FF2109060B4A13688B430321890762
:100C700059181160002484600721016002F004FD0E
:100C8000204610BD140000200090D00310E000E0CA
:100C9000FFF9000020ED00E080B5816901220A43E0
:100CA000826102F071FC80BD70B515460E460446A7
:100CB000806901218843A061204602F065FC284636
:100CC000304300280CDB1020205EB04208DD1220EB
:100CD000205EA84204DD09208101204602F03AFC92
:100CE00070BD00000848026841680260920603D5A2
:100CF000426FA0239A434267090603D5416FA022A1
:100D0000914341677047C0460C18024070B50D46CC
:100D100004460179C8B20126324682402A4209D0EF
:100D200001F0D6FB032807D0042809D0022818D0E8
:100D300021790CE0491C01E02079411C217106E079
:100D40002079411C21718640206830432060C8B260
:100D50000E28DFD30020207121682060002901D0F7
:100D6000042070BD032070BDB0B5002404E09D00D8
:100D70004D59854203DC641CE3B29342F7D3184615
:100D8000B0BD000001208002054903E000220A7086
:100D9000491C401E0028F9D102480021016070471B
:100DA00050060020C400002084B00025EB43364EDE
:100DB000314624310091019303951C4604F012F84A
:100DC0000098214603F076FF4FE0F06A0290019B05
:100DD0002746039A3E8A70071AD4B00709D4B96827
:100DE000954202D2914202D312E0914201D3A9422C
:100DF0000ED9002808D4B868401B984204D2029942
:100E0000FFF7CFFA039A03467F69A742E2D137E0A2
:100E1000F00710D0F96800290DD0B00708D44819A0
:100E2000BC68051B2846FFF7BCFA601A4019B86079
:100E30000420864309E07869B84208D0B969816125
:100E4000B96948610026BC4205D00F4C06E0002677
:100E50000D4C266302E078690B4C20633E823968B2
:100E600078680022A2628847264603F067FF05469D
:100E70003046283003F0EBFE346B002CA5D1019BEB
:100E80000020014EB06297E7A4000020F0B585B0C5
:100E90000446008A40210091884320826068026BEA
:100EA00003A920469047002800D154E103A9CB882C
:100EB0000F201840C88066687288D50726D0029037
:100EC0001825705F042503AF7D5F1427F75F162197
:100ED0000196715EB94207DD854211DD1A20019E3F
:100EE000305E854208DA36E1854209DA1A20019E31
:100EF000305E854200DD2EE10E200340184603E0FF
:100F0000012102980843019E03A9C880910512D5CA
:100F1000E189414001250D40238A990705D4002D20
:100F200009D002200343238215E102218B4323824F
:100F3000002D00D10FE135460123D105029309D5DB
:100F400001461940002905D1218903AA1180618930
:100F5000518046E0E669002E43D00A21735E0821E5
:100F6000775E510721D4B289872149008A420BD08C
:100F7000B42A11D05A2A18D103A94A88039E4E8058
:100F8000D243BA180A8010E003A94A88039E0A8057
:100F9000F2439A184A8008E00399C943791803AAD2
:100FA00011805188C94359185180218A490718D5A1
:100FB00003A909880AB2002A03DBBA4204DB7A1EBD
:100FC00000E0002203A90A80022103AA525E002A3F
:100FD00004DB9A4205DB591E03AAB9E703A90022E4
:100FE0004A80228A910601D5223500E01C35042171
:100FF00001956B5E012B15DB0A21665E022103ADB4
:10100000695E891B49430827E75F2D882DB2ED1BD8
:101010006D4349195B43994204D2B1B2BBB203ADEF
:1010200069802B80D10718D002230199C95E01295C
:1010300013DB1425655F03AEF35E5B1B5B43122578
:10104000655F368836B2751B6D435B1949438B4229
:1010500003D9029EB243228200E0029EE389014648
:1010600099430D46354083431F4637403E462E4345
:10107000002D00D01030002E04D0002F00D02030E2
:1010800003ADE8809EB288070BD00398608203A866
:101090004088A08203F052FEA061228A0298024397
:1010A0002282B307029931D01046084000282DD083
:1010B00001938A43228203F041FEA169461AA66188
:1010C0004B208500284603F0C1FD86420ED80198CA
:1010D000002804D503A8C18880220A43C280002FBB
:1010E00004D003A8C188009A1143C1806068408879
:1010F000C0070BD0A669C835284603F0A7FD864275
:1011000004D303A8C18880220A43C2800026134D5D
:101110001C3504E0064603AA214600F0E9FE2846F5
:10112000314603F08DFC0028F4D1002504E005468B
:1011300003AA214600F0DCFE2046294603F080FC8D
:101140000028F4D10398208103A841886181049983
:10115000A181C088E08105B0F0BDC0462C0200200E
:10116000F0B5434841698A0717D5424A537C002BA2
:1011700006D05B1E5374DBB2D218927B42620CE045
:10118000137C002B09D0147B002C06D19468651CBD
:101190009560247844625B1E1374012293024C060E
:1011A00019D5344C257B0468002D06D005681C42F7
:1011B00005D0940325432C460CE0950309E0FF2459
:1011C0002404A543056004682B4D254305605503A1
:1011D00004682C4304604C0708D5046A254DAE68AA
:1011E000771CAF6034702C7C641E2C740C060DD5FB
:1011F000204C247C012C01D06A4C00E0684C05682E
:101200002540056014040568254305608C0604D557
:1012100020248461174C00252570CC0607D51024A6
:101220008461144C0425257065786D1C6570194225
:1012300007D083610F4B9A7004241C70DC78641C07
:10124000DC708B0508D5530283610A4B9A70042425
:101250001C701C79641C1C71C90508D511028161C0
:1012600004488270042101704179491C4171F0BD2C
:1012700004540040E401002000040101F0B5464898
:1012800041698A0717D5454A537D002B06D05B1E5E
:101290005375DBB2D218927C42620CE0137D002BB6
:1012A00009D0147C002C06D19468651C95602478C4
:1012B00044625B1E1375012293024C061ED5374D06
:1012C0002E7C0468002E06D006681C4205D09403CC
:1012D0002643344611E095030EE006604124A40243
:1012E0000668264306602C7D022C03D3140605688D
:1012F00025430560550304682C4304604C0708D55A
:10130000046A264DAE68771CAF6034702C7D641E75
:101310002C750C060DD5214C247D012C01D0214CBF
:1013200000E01F4C0568254005601404056825434E
:1013300005608C0604D520248461184C0025257096
:10134000CC0607D510248461144C032525706578DC
:101350006D1C6570194207D08361104B9A7003248D
:101360001C70DC78641CDC708B0508D5530283612B
:101370000A4B9A7003241C701C79641C1C71C905EB
:1013800008D51102816105488270032101704179FD
:10139000491C4171F0BDC0460458004020010020A6
:1013A000FFFFFFFEFFFF00FF7FB5474E7478062C5E
:1013B0000ED8C0467C4424796400A74403410E2320
:1013C000284C5D000120707037480068B06035E03F
:1013D0000024747003F098FA62E003F0A3FA042882
:1013E00004D8012181401920014224D1B0682E493E
:1013F0000968081A02241F2852D303F085FA70786E
:10140000401C47E0042070700224B47048E0264C71
:101410002468B46094B2240A6D46D2B21CC5234A33
:10142000155C234A125C48B2224B1C5C0B0C28460C
:10143000214604F099FA7078401C707002242FE065
:10144000B16819480268511A0329F7D3022474704D
:101450000068B06024E003F065FA042810D000288A
:1014600010D103F04DFA002816D0B078401EB070AD
:101470000006E0D00420E0E70720707004240FE0AD
:101480000620DAE7B06808490968081A02241F280C
:1014900006D30620707003E07078801C70700324FF
:1014A000204604B070BDC046A0000020C47A0008E9
:1014B000C77A0008B88A0008034800210170704705
:1014C0000148002101707047D801002010B5044682
:1014D00005E0016821640021016003F067FB206CD6
:1014E0000028F6D1204601F027FF10BDFEB50446C6
:1014F000828642860186876938071FD41646E069CE
:10150000002802D0407A851C00E002251020205ED1
:10151000123888420EDC1220205E0290801E00B23B
:1015200001902946FEF747FF2B46A16B7A0706D4A8
:10153000814204DC2046314600F066F8FEBD132EE1
:101540000ADCE06B0128F9DBC01AC1178843E063AD
:10155000204602F019F8FEBD029A10461438B04237
:101560000CDDD00F10184210E06B964211DA012802
:101570000199E3DB884218DC0020E8E75943019831
:10158000081AE16B8142D9DAC9188142DFDC0846CA
:10159000DDE74B43019D591B8842CFDA6A009A1A56
:1015A000904200DA4119E163D2E7401ACFE770B503
:1015B000017E090726D5818E93B2994222D00BB2C3
:1015C000C469C16B002C02D0647AA41C00E0022420
:1015D0009B1ACB18C3631225455F866B6643B41C08
:1015E000651BAB421C4600DB6C1E002C01DBAB42D2
:1015F00003DBE3179C43C46323468286994201D0F0
:1016000001F0C2FF70BD0000F8B50446C0690028B3
:1016100002D0407A821C00E00222E06B40181146A2
:10162000FEF7C9FE002837DB0546A06B854233DA9A
:101630002046403029460EE0227ED20705D182881E
:101640000123002904D09A4303E0002902D106E0D7
:101650001A438280491E00680028EDD103E081888A
:1016600001224A408280204601F08EFF00270B4E67
:101670000CE0074603F0CEF9002807D044608560EF
:10168000912189000180384603F02EFA3046394610
:1016900003F0D6F90028ECD1F8BDC046ED320008C1
:1016A00080B5037E1B0712D53023C35E591ACB17B2
:1016B000C918594004290ADC3221415E891ACB1726
:1016C000C9185940042902DC1146FFF79DFF80BD6F
:1016D000B0B54D4C6178012917D0002918D1217877
:1016E00001252A468A4002421ED0084600F0DAFD53
:1016F0000146022004291ED0032914D12178491C57
:1017000021706178491C6170B0BD02206070B0BD6D
:10171000002060702178142909D32070A169A0618C
:10172000002906D00420B0BD6570481C207002203E
:10173000B0BD0320B0BD21784A1C22706278521CD3
:1017400062708D40A1692943A161B0BDB0B50C465E
:10175000450000F0C7FB0543A907890E054A51184B
:10176000620002439007000F09580348FFF7CEFAC2
:10177000B0BDC0464C7800080C05002080B504F0D0
:101780007FF90020C04380BD10B56D2000210BE023
:1017900060684088800702D5208A400602D520462E
:1017A000FFF774FB6D20214602F0C0FF04460028BD
:1017B000EED110BD00220A60024608CA002B02D0FA
:1017C0001368104600E0134619600160704700007E
:1017D000B0B50D4D2879002803D0002028710220D3
:1017E000B0BDA91D2A4608320024204600F088FC1E
:1017F000042802D0032802D0F1E72C81EC8028795C
:10180000401C28710320B0BD0802002080B50120D3
:1018100001F0ECFD80BD000080B503480078012890
:1018200001D004F0A5FD80BDF80A002080B505F0C8
:1018300051F800F07DFF80BDF8B5B04E70780328F8
:1018400064D8C046784400794000874401511E3274
:101850000020307031480078002859D00120002144
:10186000FFF774FF0328F9D101200146FFF76EFF4F
:101870000328F9D1642002F011F800F053F8002099
:10188000012103F03BFF244830E001200021FFF755
:101890005DFF0328F9D101200146FFF757FF032818
:1018A000F9D100F03FF80020012103F027FF1A488A
:1018B000308000F027F91948007801214140184F85
:1018C00038880843002823D003F05AF90020012467
:1018D0002146FFF73BFF0328F8D10025284629467B
:1018E000FFF734FF0328F8D13D80200230800FE05D
:1018F000002030700A490A88002A09D0074A127865
:10190000002A05D008800220707001E000203070AD
:10191000002001B0F0BDC046010300000B02002012
:101920009E000020F0B589B0FFF72CFA03F078F99B
:1019300050A002F095FC03F0FDFE4F480024214624
:1019400003F0FCFE4D4908680D464D4902F0C8F908
:1019500002AE4C4930468847FF27377201974A4804
:1019600003904A4805904A4802902868214632462A
:1019700003F006FC474DA862434803904648059093
:10198000464802903D4800682146324603F0F8FB85
:10199000686302AE30463B4988473772404803903F
:1019A00040A005900A200290344F38683F4B2146F2
:1019B00032469847E8633E4803903EA00590414870
:1019C0000290386821463246234603F019FCE8624B
:1019D00002AE30462B498847019830723A4803904E
:1019E0003A4805903A4802903868214632462F4FCF
:1019F000B8476861344803902748059035480290FD
:101A00001E48006821463246B8473B46A8612E482A
:101A1000039031A0059034480290184F3868214651
:101A200032469847E86128480390D54805902F48EA
:101A300002903868214632461C4B9847286222485B
:101A40000390CF4805902A480290386821463246D4
:101A5000164B984728614035284603F01FF8284662
:101A600003F0EAFA38680221322202F059F92046DE
:101A700009B0F0BD55313100CC790008BC00002020
:101A8000FFFF00006558000864001E00438B00083B
:101A90000A001801940200203E8B00088200180101
:101AA0009600140046696C65733A0000A551000861
:101AB000DC008C004E616D65206F66206C6973746C
:101AC000203100000A001400DC001400368B0008EE
:101AD0000A00AA000A00BE004E6F742073656C6590
:101AE00063746564000000000A00D2000A00E6008A
:101AF0000A00FA00954800787047C046940200201A
:101B000000207047F0B585B0904F384640300A2429
:101B1000214602F069FF7862018801256E02324693
:101B2000403291421BD1B96A42688A420FD1F86AA9
:101B300003F08CFD386338892843388138890421C3
:101B4000014339813889402101433981786A796BB1
:101B50004068884203D13889082101433981388996
:101B600040064FD53889402188433881388980061E
:101B700005D5F86A0021CA43754903F0B3FB7869BB
:101B80003989C90603D40021CA4375A102E00021A6
:101B9000CA4370A103F00AFE38898007049610D565
:101BA000B8690021CD4372492A4603F0FFFDFE6962
:101BB000F86A03F063FD01463046049E2A4603F0AE
:101BC000F5FD388900071DD53889082188433881FB
:101BD000786903943C460027FD436649664E2A46D1
:101BE000B047A06965492A46B047206A64492A4639
:101BF000B047206962492A46B047049E6760678003
:101C00002746039CB86BAE49884200D29BE0002275
:101C1000BA6338893042049206D0FA807A713889E2
:101C200058490140398148E078793B280CD100219E
:101C30007971B8793B280BD10021B971F879632803
:101C40000AD10021F97109E0411C7971BF7906E0E0
:101C5000401CB871074602E0401CF8710F4602971D
:101C60000391C8B22146FEF79CFB0646464DE87339
:101C7000F8B22146FEF795FB074628733348C07932
:101C800001902146FEF78DFB687266430399891B1C
:101C9000297467430299C91B697360430199081A43
:101CA000A8720935284604F0EDFD284F386A002156
:101CB000CA43294603F07AFD049AB8783B280BD131
:101CC000BA70F8783B280BD10022FA703879632873
:101CD00009D100223A7108E0421CBA70FD7805E093
:101CE000451CFD7002E0401C3871154602950392B8
:101CF000D0B22146FEF755FB064623488671E8B26E
:101D00002146FEF74EFB05461F48C5703F79384611
:101D10002146FEF746FB1C4A107066430399891B57
:101D2000D17165430299491B11714443381B5070AE
:101D30001046144604F0A6FD044800690499CA43FD
:101D4000214603F033FD002005B0F0BD94020020D1
:101D500016060020436F6E666967204F4B00000037
:101D6000436F6E666967206661696C656400000098
:101D7000438B0008368B0008AD5700083E8B0008E7
:101D80002D8B0008FFFD000000000020F8B54A4838
:101D9000007801287AD0D84D2888C0072ED028880E
:101DA000400709D5288804218843288004F034FCA2
:101DB00004F0BCFC01F0C4FE2888C0061ED53F48D4
:101DC000006802F0B5FDCB4CE08002F021FD608898
:101DD00003F0D0FE03F050FF04F0ECFC2888012152
:101DE000884328802888802101432980288802216F
:101DF00001432980288840210143298028888007C1
:101E00001FD5BC4EF0682E49884204D37069401C2F
:101E100070610020F060706A7169814211D3012401
:101E20002002284F3860204601F030FD200638603F
:101E30000020706104F0F0FB04F078FC708803F07F
:101E400099FE2888000722D4288880061ED5A94E2E
:101E500030780024214600F0D7FC00280BD104F094
:101E6000DBFB317819480622082300F0EBFD2888B7
:101E70004021014329803078322805D334702888E6
:101E8000202188432880F8BD401C3070F8BD0E48E2
:101E90000121016028881021884328802888022198
:101EA00088432880288880218843288028884021EA
:101EB0000143298001F028F8F80A0020C40200201C
:101EC000E703000018000050180400501606002018
:101ED00080B503F031FE8848018820220A43028041
:101EE00080BDC046014800787047C04614050020F8
:101EF000F8B516460D46044602F08CFDF188F02236
:101F00000A4000281CD0002A14D1E268002A11D10E
:101F1000227A12070ED42A89338893420AD16A8919
:101F20007388934206D10F220B461340EF89174066
:101F3000BB422CD0A268CB0709D1530709D50FE0CB
:101F4000E06802430120C0031043E060F8BD93073E
:101F500006D40B061B0F1AD001231A40002A16D0F4
:101F60006A68528801231A401B02D2180280328804
:101F7000428072888280B288C280E2681143018107
:101F80000021E160E969C160204602F0ADFDF8BDC5
:101F900080B503F0FDFE80BD80B503F03DFDFFF789
:101FA0008BFAFEF733FD80BD1CB5084C0120694655
:101FB000086000200C210B23224600F051F9C11EBD
:101FC0000129F3D84842484102B010BD2800002042
:101FD00001207047012070470120704701207047A1
:101FE0000120704770B5204E3078022821D001289A
:101FF00006D0002835D17078012834D10120307006
:10200000FFF7ECFF0546FFF7E5FF0446FFF7CCFFBF
:10201000002D03D0002C01D000207070FFF7D8FFF6
:10202000FFF7DAFFFFF7DCFF022030700F4800688F
:102030007060B078012802D10020B07012E0FFF784
:1020400059FD002803D1FFF74DFF002809D0706823
:1020500006490968081AFF21F631884203D3012096
:1020600000E00020307070BD00020020A0000020C1
:102070000B488168491C81600A490A682021114087
:102080000288914202D141800A4600E042880180E4
:10209000818882808A43C1881143C1807047C046CD
:1020A00098000020100000500120C006014908607F
:1020B0007047C04608ED00E00D480168C90715D01B
:1020C0000121C94301600B488168491E81600A49AA
:1020D0000988090603D4094A0021116005E007496F
:1020E0000A68521C0A60C168491CC1607047C0463A
:1020F00010040040500100209C020020CC0200206F
:10210000FEB50E46524C617803290CD81746C046DE
:102110007944097949008F440109325301206070E4
:102120000020207272E0002060706FE002970025AE
:1021300069460D60224608320127FF23394600F028
:102140008FF8042864D03346022603287CD1607AB5
:10215000A17A09020818E17A0A048018217B09068D
:10216000401860600320010511407A05914223D098
:102170003A05914220D01D8002990D8062E00296BE
:10218000002569460D60224608320226FF233146AB
:1021900000F066F804283FD0032855D1617AA07A70
:1021A00000024018606003200A460240032A3ED124
:1021B0000907890F03293ED16078401C607043E015
:1021C0000296002569460D60224608320326FF2349
:1021D000314600F045F8042824D0032816D1607A4F
:1021E000A17A09020818E17A09044118227B120633
:1021F0008A186260174A02400A205043029A1080EF
:102200000803800D3221414339800EE002261BE095
:1022100035800298058002E0029805803D80657057
:10222000032611E0029805803D8065700CE002995C
:102230000D803D8006E04900074A515A029A1180FC
:102240000649398065700646304603B0F0BDC04689
:102250008C010020FF030000C479000888130000EF
:10226000FEB51446C9000D4A555A52185188090442
:102270004919FF25A9439288089DFF2B02D01B0214
:10228000D2B2D218064B6E460A27376073602943D4
:102290002346FFF789F803B0F0BDC0460C7900086B
:1022A000B969000870B5132814D8C046784400797D
:1022B000400087440911181B22292F363C42494F00
:1022C000607F8FA5B7C0D4DE012100200246FEF753
:1022D0001BFC70BD042070BD0120C103052000223D
:1022E000FEF712FC70BDFEF7C1FB70BD7248C088DE
:1022F000C82800D2DDE0C820DBE00120C2030520B1
:102300000021FEF701FC70BD002001220146FEF70E
:10231000FBFB70BD684A911D08320020FFF7F0FEFC
:1023200070BD65490A310020FEF76AFC70BD624944
:102330000C310120FEF764FC70BD5F4908460E3089
:102340001031FEF71BFB70BD5B4912310220FEF716
:1023500057FC70BD584A0024D4611389594801784C
:10236000002B0B4600D02346D288002A00D0194605
:102370004170032070BD504AD38952490C78012026
:10238000822B034600D323469589504EB54200D890
:1023900023469469A5056D0F00D003464B700320BA
:1023A000630605D4D388002B02D01289002A7BD182
:1023B000022223E0404A0020D0611389414801787D
:1023C000002B0B4600D00123D288002A00D01946EA
:1023D00041702EE0384A0023D361908939493A4C44
:1023E000A04200D30B7814890320002C044600D0AF
:1023F0001C46D288002A024600D022464A7070BD90
:102400002D48017E490614D4C1886439C2696432FA
:102410008A4200DC1146C161002946DB274A91420D
:1024200044DC45E0244C6089A189490801F0F0FAB8
:102430002062032070BD0B20C2011F4881690B463A
:10244000134093422CD0428983891343428A1A4312
:10245000002A25D08905490FEBD1008C22E0164CCB
:102460002046143021461631FEF7A0FA0121A17052
:1024700070BD11498A7E0320520715D48A78012A3B
:1024800012D100228A708B8A0D4CA34200D90122FE
:10249000CA700C4A1278022A06D30022CA7070BD94
:1024A00019200001FEF79EFA70BD0022C26111469C
:1024B00088B2FEF7B9FA70BD08020020540B000084
:1024C00070170000120000200820000035210000D5
:1024D00080B50D280DD8C046784400794000874467
:1024E000060A0E101416191C1F22262B2F3400204A
:1024F00002E0042080BD012004F06AF92AE00020F7
:1025000000E0012004F08CF924E0002015E01348DD
:1025100004210AE0012040040BE00120000408E04F
:102520000E48012101E00D480221016012E0012066
:1025300080040A4908600DE0012004F073F909E005
:10254000054800218170012103E0034801218170C9
:1025500000214170032080BD0002002018040050BB
:10256000B0B54448C16989064FD5016A08221143B4
:1025700001628169114381613F490B69022B09D8CE
:10258000CA18406A1073022B01D1087B4870581C8E
:102590000861B0BD036A1024234303620368234328
:1025A00003600B695B1C0B610D79446A0B78ED07C6
:1025B00014D1334AD454FF2B14D10A790423134382
:1025C0000B710A79F72313400B7100220A700A89F4
:1025D000521C0A810A790123134315E0274DEC545C
:1025E000FF2B02D05A1C0A700FE00B7913430B71BA
:1025F0000A79FB2313400B7100220A700A89521CCE
:102600000A810A79FE2313400B71C169C90630D5CE
:10261000016A10221143016201689143016016486A
:10262000017920220A43027102790121114004221A
:1026300008230029144600D01C460579254305715E
:10264000002901D0D14300E0D94302790A40027148
:10265000017881700289521C02814281FF23DB4391
:1026600092B21202D21851184161017940220A43F4
:102670000271B0BD0038014038010020F90B002084
:10268000F90A0020F8B5EC4C02E0012001F0FEF858
:102690002725605D0128F8D00126665500F036FA3E
:1026A000F007E64F3860C72000F004FAF003386006
:1026B00000F00EFA0A2001F0E9F800206055F8BD9C
:1026C000F8B50446DC4E02E0012001F0DFF82727D0
:1026D000F05D0128F8D00125F55500F0F9F93069D1
:1026E000009000F013FAE807D4490860202000F0B9
:1026F000E1F9009844433078092802D3200E00F015
:10270000D9F9200CC0B2CE498847200AC0B2CC49C2
:102710008847CB49E0B28847E803C849086000F021
:10272000D7F9284601F0B2F80020F055F8BDC046B0
:10273000FEB52725DE4E01247455204601F0A6F88B
:10274000E003F1490860642001F0A0F800F010F9FE
:1027500080B22B49431880220021092B0295019158
:102760000BD8C0467B441B795B009F440415191DA0
:102770002125292C303434700CE0224BC318062B51
:1027800008463AD87B441B795B009F4403070B0F34
:1027900013172700022221E00220307004221DE0DE
:1027A00003203070082219E004203070102215E058
:1027B00005203070202211E00620307040220DE00C
:1027C000072030700AE008203070220206E009205D
:1027D0003070620202E00A203070A202100123036E
:1027E00027027781970121041502F5603361334692
:1027F000143387C32046029D0199715503B0F0BD83
:10280000EFBFFFFFEFCFFFFFF0B5C9B0089106465D
:10281000F04F02E0012001F039F82724385D01284B
:10282000F8D0012038550490050209A82946FDF783
:10283000B6FD386946430899421A90B20695691C5C
:10284000884205D31106000A002900D0401C0490DC
:10285000089835180023069E0795019548E00296D2
:102860000393089201200590C007DB4908600B2004
:1028700000F020F93878092803D30798000E00F0FB
:1028800019F9079E300CC0B2D4490F468847300A68
:10289000C0B2B847E8B2B84700252846B8470899FB
:1028A0000F46194807400698874200D302990891BD
:1028B0008EB209A86422314603F0B8FE0598C00321
:1028C000C5490860A8B2B04205D209A9085C6D1CD0
:1028D000FF28F7D012E00698079909180791FF2002
:1028E000C0433818039B5B1C089E0246B94F019DEC
:1028F00098B204998142B2D8012001E00020B54F7E
:102900000021395549B0F0BDFFFF0000FEB50D466E
:102910000290B04E02E0012000F0B8FF2727F05DE2
:102920000128F8D00120F0550190C007AA4908609D
:102930000B2000F0BFF83078092802D3280E00F0F1
:10294000B9F8280CC0B2A54CA047280AC0B2A047CD
:10295000E8B2A04700252846A047A520A047029935
:1029600008700198C0039C490860F555FEBDC0463B
:10297000F8B50127F807984908609F20974DA847A8
:10298000A5242046A84700902046A8470646204692
:10299000A847F903904A11600099090432025118BE
:1029A000081801B0F0BDC046F0B585B0049301929F
:1029B0000C460390874D02E0012000F067FF2727B7
:1029C000E85D0128F8D00120E8556E890290C00723
:1029D000814908600B2000F06DF80499481EB04250
:1029E00000D33146019A8818B04200D9B11A049137
:1029F0007443A4182878092802D3200E00F05AF84E
:102A0000200CC0B2754EB047200AC0B2B047E0B249
:102A1000B04700242046B047049881B2642203984E
:102A200003F004FE0298C1036B4A116000F02EFF10
:102A3000EC5505B0F0BDC046FC0C0020180000505D
:102A4000B52A0008F8B51C4605465E1E614B18699C
:102A5000864200D30446A6188642009200D9841A02
:102A600041435E8908463146FDF79BFC07460098C6
:102A70003146FDF796FCC71946430098861B284649
:102A8000394632462346FFF78FFF52484089801B64
:102A90002D18241A7F1C0026002CF0DCF8BDC0463F
:102AA00080B54C490A6950434989FDF77AFC80BDDD
:102AB000FC0C00201CB501A908706C46012264239F
:102AC0000846214603F0EEFD207802B010BD00005C
:102AD000F8B50124204600F0D9FEE0073E4D2860FD
:102AE0000520FFF7E7FF3B4EA520FFF7E3FF242774
:102AF000F0550124204600F0C9FEF05DC007F3D177
:102B0000E0032860F8BDC04618000050B0B50124AD
:102B1000E007314D28600620FFF7CCFFE003286076
:102B2000204600F0B3FEB0BDF0B585B01C46029261
:102B300001910490274D02E0012000F0A7FE272715
:102B4000E85D0128F8D000940126EE556C89FFF766
:102B5000BFFFFFF7DBFF0396F007009E1E490860EA
:102B60000220FFF7A7FF029AB018A31AA042194645
:102B700000D83146002E184600D008468118A142E0
:102B800000D8034600936889019941438C1828783E
:102B9000092802D3200EFFF78DFF200CC0B20F4E84
:102BA000B047200AC0B2B047E0B2B047009881B247
:102BB0006422049803F058FD039CE0030649086072
:102BC000FFF786FF204600F061FE0020E85505B0C3
:102BD000F0BDC046FC0C002018000050B52A0008CB
:102BE00070B50D460446E6485C30214602F03AF8DE
:102BF00009480026E660206102202A5E288801B28A
:102C0000204600F027F806202A5E0420295E204690
:102C100000F028F9F04370BD030003007047000086
:102C2000B0B50446D64D28463C300021C94302F0D9
:102C300041F828465C30214602F023F83C20285E0B
:102C40003E21695E884201DA401CA887B0BDC046BB
:102C500070477047F8B516460D4604461220225EAE
:102C6000A7680A20385E9119814200DD861A31B2C8
:102C70000023002900DC1E4600931021615E08231A
:102C8000FF5E4B19BB4200DD7D1A801B2BB2002B6F
:102C900000DC009D00B27B1B1BB2994201DC82422A
:102CA00008DD994200DB1946824200DB02462046DD
:102CB00000F0D8F8A8B2A189814203D1B0B2E1896D
:102CC000814204D0607E800702D4E681A581F8BDF0
:102CD00000272046394602F09DFD384600F086FB6D
:102CE000E681A581F943204602F094FDF8BD00007D
:102CF00070B50446E74E30463C300021C94301F030
:102D0000D9FF35465C352846214601F0BAFF2846F2
:102D1000214601F0A7FF3C20305E3E21715E8842D3
:102D200001DA401CB087204600F02EFC70BDC04682
:102D3000F0B58BB00446856949482840A061A805D4
:102D400006D56068C16800296BD02046884784E0BA
:102D5000280400D481E00120460210200A90205E61
:102D600005900E200790205E04900C200990235EB1
:102D700012200890275EA268C64DA98868460760A1
:102D8000416010461946049A059B01F033F95C3501
:102D9000069642E0A86930423FD0A868A168884200
:102DA0003BD1099FE35F0A99615ECA18E95F8A42D5
:102DB00033DD079FE65F089AA25E05969219069E8C
:102DC000EF5FBA4229DD0A9AAA5E049252189A422B
:102DD00023DB089AAA5E0392D219059B9A421CDB58
:102DE00005976A68D768002F02D02846B84714E0D4
:102DF00089B20291059989B2059104998FB203991C
:102E00008BB2EA8A69461BB20B604A60029909B22A
:102E1000059A12B23BB201F0EDF82D68002DB9D140
:102E20001BE0280419D51020205E0A900E20235E96
:102E30000C20225E1220265EA168E78A6846C0C088
:102E4000084611461A460A9B01F0D4F8E80104D45A
:102E500060680169002900D077E70BB0F0BDC0467B
:102E6000FF3FFFFEF8B504460E20205EA3680A254A
:102E70005D5F8618AE4200DD2A1A15B20320032DCD
:102E800000DC02460C25655F08269B5F6E189E429B
:102E900000DD591B0BB2032B00DC014616B28AB2CF
:102EA000208A904203D1B2B2638A934205D00FB216
:102EB000617E890702D466822782F8BD00B287420C
:102EC00003DB1220205E86420EDA002520462946CA
:102ED00002F0A0FC284600F089FA66822782E943C6
:102EE000204602F097FCF8BD66822782204600F05B
:102EF0004BFBF8BDBFF34F8F084809490160BFF392
:102F00004F8F00BFFDE7C046BFF34F8F0348044912
:102F10000160BFF34F8F00BFFDE7C0460CED00E03E
:102F20000400FA0510B5F04CA169814200D010BD33
:102F30006720002101F0E8FBA06110BD10B50F482B
:102F40004088C00703D10D48002101F0FDFB7D2022
:102F5000C00001F0DDFE6720002105E000212046D1
:102F600000F0BEFE6720214601F0E0FB0446002889
:102F7000F4D1DD480121417010BDC04688770008BA
:102F8000A4000020B0B504460025C583427703772E
:102F900005624161203001F05AFE204601F016FA28
:102FA0002562B0BDF0B585B007460826835F0A24C8
:102FB000005F694608600025384629462A4601F028
:102FC00005F904973846294600F08AFEC64840783D
:102FD000002832D10498805FC117890E41188E11E4
:102FE000002E00D101263101049A125F511ACA0F36
:102FF0008918491003917101401AC10F40184510FA
:10300000124C16E060882188A288E3886F467343DB
:103010001BB23B600E4B7B60724313B27143491984
:1030200009B27043039A801802B2049800F0E2FFDC
:103030000834064880308442E4D3EB49886900288C
:1030400001D10498886105B0F0BDC0468C780008B5
:10305000FFFF000010B5E44C01E001F0B9FB20696E
:103060000028FAD110BDC046E0B5DF48806801A94C
:1030700001600830FDF78CFA8CBDC04610B5DA4C03
:10308000A068A830A060FFF7EFFFA068A838A06094
:1030900010BDC046A4000020F8B515460C46406996
:1030A000FDF776FA002800D0F8BD002D51D0254656
:1030B000183565612846FDF76BFA002806D0CA4826
:1030C000C068C1680069884701F06AFE002000906E
:1030D0000320C643C44FF87800280BD0C248876C41
:1030E0006846C11B3A1D2846FDF7FAF8E519BE4FA0
:1030F000B83509E0B86C311AA268A2185518021D3B
:1031000069462846FDF7ECF8616900916846281A7F
:103110007A6C08E0D30703D00B681B180B6000998A
:10312000091D00915208002AF4D161690A468032D3
:1031300000923A6C84310AE0D30705D0B300CB1873
:103140000C331D682D181D6052080091091D002ABE
:10315000F2D160690121FDF732FAC04670470000E4
:1031600080B5F8481C3001F0D9FE80BD80B5022042
:103170000449085E002804DBF1488169014801F038
:10318000E3FA80BDE87700081CB5C16141684B884F
:103190001B0703D5038A20241C4304828B6A114633
:1031A0009847002811D0E748818D090309B2C91357
:1031B000FF2400290AD119216A4611601C3000221F
:1031C000D343044901F046FE00E0002460B202B09F
:1031D00010BDC0468917000880B5018A04220A4341
:1031E0000282FDF753FE80BD80B5012081020248B6
:1031F00002C001F0DBFC80BD5006002080B5FFF767
:10320000F3FF00F001F880BDF0B5DBB0E74F182008
:10321000F86600257D66FD643D657D673D6702209B
:10322000B86606A8B8602948B867FFF727FFFFF718
:103230001BFFB968A820059008580B683D647D64A1
:103240000490984201D8284600E00120F8700498C4
:103250001E1A0831019503951A46029327E0059836
:103260000C580868041BA831B4421ED11F2D07D882
:103270000124AC40039B234303937B64029B0AE03D
:103280002C46203C3B460127A740019C3C431F465F
:10329000029B01943C64049C9C4202D9824202D964
:1032A00002E0824200D310460246A4396D1C282D4C
:1032B000D5D10498984201D8D01A00E0981AB86481
:1032C00038466430F8605BB0F0BDC046580A002054
:1032D00010B5E94C0021012002046262A16201F0F4
:1032E000B5FCE06210BDC046A4000020BCB51D4680
:1032F0001446432292026B461A6022462B4600F087
:1033000057F9002811D0E168002900D1084901626D
:103310002169002900D16969416261698162A169FD
:10332000002901D103490968C16202B0B0BDC0469D
:103330002C8B00081C00002010B50446012001025F
:10334000A06902468A43A261810406D521210902AF
:103350008843A061206A01F029FC204601F036FB79
:1033600010BD0000B0B54820C44C00222252226497
:103370000748A063A287254638350649284601F04C
:1033800097FB1C3403222846214601F0E3FAB0BD26
:103390000000FF7F5D4F000880B5417E890702D5A0
:1033A000426A816A904780BD70B500281BD00E46E6
:1033B00004460025294602F02DFA304600F016F8A2
:1033C000AD48806B0068C1682046884760688168A6
:1033D000002901D020468847A069A561C00402D514
:1033E000204601F0E3FB70BDA4000020F0B585B0DD
:1033F0000446A14FB87800285AD0012C08D0002CE0
:103400000DD138463C300021C94301F053FC06E0A1
:1034100038463C30002101F04DFC002848D02120E6
:10342000420203940292B878C00743D0B878FE21D4
:103430000140B9703D465C352D68002DF3D0A86978
:103440001040012399038842F6D1102004932B5E8B
:103450000E202A5E0C20295E12202C5EA8683E46B3
:103460006F463C60039C374600F0B0FEB86B0068C6
:10347000016928468847A8680821435E0A21415E01
:103480006A46116000210A4600F0A0FE0499029AE3
:10349000012CD1D1B8780843B870784801F0C2FC4B
:1034A0003C20385E3E21795E884201DA401CB887B4
:1034B00005B0F0BDB87880073FD5B878FD21014050
:1034C000B9703D465C352D68002DF3D0A8691040D9
:1034D0009042F8D110202B5E0E202A5E0C20295E2F
:1034E00012202C5EA8686E463460039C00F06EFECD
:1034F000B86B0068016928468847A8680821435EC0
:103500000A21415E6A46116000210A4600F05EFE13
:10351000029A012CD7D1002D01D13D465C352D6892
:10352000002D0AD0A86910409042F4D1B878022149
:103530000143B970514801F075FC012CB0D9B7E7CF
:10354000A40000202C02002080B500F083F8FFF7D3
:1035500009FF80BDF8B50C4605460027094E09E075
:10356000074601F057FA002804D045600480384629
:1035700001F0BAFA3046394601F062FA0028EFD17C
:10358000F8BDC046ED32000880B581698A050BD5CB
:1035900001229203114381613748817802220A4354
:1035A0008270364801F03EFC80BDC046A400002079
:1035B000F8B51E460746069D002902D00C468D61CF
:1035C0000BE00092706801F0B1FA00282BD004469D
:1035D000012000030543A561009A6660A7601448B6
:1035E0000088A082244DA888E082686BE061716841
:1035F000212906D32046203020391646FCF7CFFE7D
:103600003246A86B00688368204611469847002818
:1036100001D0254608E0607E0025C00604D520467E
:1036200001F0C4FA00E00025284601B0F0BDC04614
:103630001800002010B5104C01E001F09BFDE06D7A
:103640000028FAD1A06B0068406880470B4801F061
:1036500065FC10BD1CB5084C0022DB48E063E26548
:10366000226606480282D34369460B60044901F092
:10367000F1FB0448A0631CBDA40000202C02002024
:103680000D18000824780008F0B585B0534801688B
:103690000F22049211430160514D0720A861286850
:1036A00050490140296090016968014369605520D3
:1036B0004003A9680143A9603320410629626621BD
:1036C000696203239902AA680A43AA6005221707C0
:1036D000144601923A688A433A600293D906B96166
:1036E000D9027A680A437A60E105BA680A43BA6087
:1036F0004003796A014379620122009250033968DC
:1037000081433960384EB2613068AA218843306005
:1037100011200390C001296881432960A9680143F1
:10372000A9600024204603F053F83F208001296857
:103730000143296029688143296039682B4A114077
:1037400039601521CB012A681A432A602C62274A66
:10375000521C3B6813433B603268C0239A4332607B
:1037600032684023134333600822B2612A68204B39
:1037700013402B60C9062A680A432A60696A696295
:10378000019EB1052A680A432A604030A861009A68
:10379000D006A861029C2004396881433960100476
:1037A000396801433960049B180312490A6882434F
:1037B0000A609804396881433960F004396801432C
:1037C00039602005F9688143F960A004B9680143B4
:1037D000B96003980001786205B0F0BD3410024072
:1037E00000040050D5FFDFFF000C0050FFFFFF3F3B
:1037F000FFFF3F0000080050F8B527498B6ACA6AEE
:1038000014461C43002C0CD1CC69002C01D020188C
:1038100005E001256D02F24E37882F433780641E84
:10382000CC61012B07D1002A05D18A88CB6993424C
:1038300009D0801A11E0002B0FD1012A0DD18A88FE
:10384000CB69934208D100228A8001225202E44BC4
:103850001C8814431C8000E08018096B012901D1E9
:1038600000F0C2F901B0F0BDB0B53224064D08E059
:1038700000212046FEF7C8FF002800D0012028556F
:10388000641CCE2CF4D1B0BD4805002002498860EC
:1038900088680028FCD170475001002003498A68DD
:1038A0008B689B1A8342FBD97047C0469800002062
:1038B000F8B50C4605460D4E374610E0002D02D0F7
:1038C0003868A8420AD1002C02D07868A04205D1FD
:1038D000386800F00DF8002038607860103701205B
:1038E000400230188742E9D3F8BDC04604030020E7
:1038F0008188C9070AD10121818001820221425EAB
:10390000018809B2914201DA491C01807047000028
:10391000BCB514460A460146586C6D466B605F4B59
:103920002B60234602F05CFC02B0B0BD70B50446CB
:103930004E250498455F8D4223DC5225455F8D421C
:103940001FDD4C25465F1519B5421ADD5025455F30
:10395000A54216DDA64202DDA41BA2183446812B27
:103960000FD3C18584854821415A8187D1B261181E
:10397000A94200DD2A1BD1B26118491E818601F0DF
:1039800079FF70BD10B504462C20205E2421615EB5
:10399000884218DB2821615E884214DA2E20205EDE
:1039A0002621615E88420EDB2A21615E88420ADAA6
:1039B00005482063204600F055FE204600F046FEF4
:1039C000204600F095FE10BD0100010070B50D46C7
:1039D0000446884209D2264605E002F01DFE304624
:1039E000FEF76EFE761CAE42F7D9AC4204D102F06F
:1039F00013FE2046FEF764FE70BD000080B5FEF7A2
:103A000041FE7748018820220A43028080BDC046DB
:103A100070B50A4604460B49042510462A46FDF7B0
:103A2000A3F90646084920462A46FDF79DF91421C8
:103A3000414306484018B10040580549884200DB20
:103A4000084670BD5C7700084C770008E8760008EF
:103A50002E09000070B504463220255E3020265E17
:103A6000204600F0FFFD6E43754203E0204600F063
:103A7000EDFD6D1C002DF9D1204600F039FE70BD22
:103A8000BCB514460A460146586C6D466B60034B44
:103A90002B60234602F0A4FB02B0B0BD2D39000814
:103AA00010B50020C443641C00212046FEF7ACFE84
:103AB0000028F8D0A0B210BDFCB50092C58B00273D
:103AC0003E4601970AE0036A9C5B8C4204D80C1BBB
:103AD0009B195A88944205D318367F1CAF42F2D303
:103AE000019B01E000980480184602B0F0BDFEB5CD
:103AF0000246408D02900320C04301900026082515
:103B000000960DE0D36A5F1901984400385B884243
:103B100004D8081A3C196488A04206D30C35761CD8
:103B200002988642EED3009807E05959019A920014
:103B3000BA18D2684000105A081803B0F0BD00004F
:103B4000FEB501242004234D2860E0022860224EA7
:103B500030680006FCD52046FFF798FE02F05CFDB9
:103B6000200728602003019000251C4FBD4227D864
:103B700019204003291802AC2046FEF7C7FE012198
:103B8000204602F0DDFD6D1C30684006EED50020B9
:103B9000012102F0D5FD1248018810220A4302805B
:103BA0000C48019901600F4801684022914301606F
:103BB0000168802399430160016811430160FEBDE3
:103BC0000448019901600648018810229143018050
:103BD000FEBDC0461804005010080050E8F60A0068
:103BE0009C02002000380040FEB50446264D2946C0
:103BF000FCF7D7FB01AE70716843241A234D2046B1
:103C00002946FCF7CEFB30716843241A7D20C5009D
:103C100020462946FCF7C5FBF07000956843241A3E
:103C2000642720463946FCF7BCFBB0707843251A60
:103C30000A2428462146FCF7B4FB70706043281A1A
:103C40003070002007E001A9095C002902D0611A48
:103C500001AA1154401C0628F5D101A841790A4A4D
:103C60004A430179094B4B439918C278009B53434F
:103C7000C91882785743C919427854430919007802
:103C8000081803B0F0BDC046A08601001027000050
:103C9000F0B501231B029B1A0C0AF8252C405C434B
:103CA000060A2E40521C564335191F24E4022C40AC
:103CB000CD08FC2635405D43C708374057437D1982
:103CC0006D093F2676012E403419C900C9B2594307
:103CD000C000C0B2504340180004C00E2018F0BD10
:103CE000F8B50D460446203000F0B1FF0026E6622C
:103CF000A5870820255E25860A20275E6786204640
:103D000000F0B0FC7D436D4202E000F09FFC6D1CB2
:103D10002046002DF9D100F0EBFC2662F8BD000032
:103D2000F8B516460F46054604462034204600F0F6
:103D30008EFF2E64AF85012F0FD1B0B27D21C90057
:103D400088420ED01049884213D10A20285E0821EB
:103D5000695E81420BDB00200AE0284600F0AAFAE7
:103D60000EE00A20285E0821695E8142F3DB5A20BA
:103D70002864284600F09EFA0020A9686862A962BB
:103D800000202060F8BDC046E9030000F0B585B012
:103D90000492012B4DDB0A9E012E4ADB1D460F4685
:103DA00004460B98039020462030029000F04FFF0D
:103DB0000499E185A7850398A0877819401E039090
:103DC00000B2C01B72180E46551E02281EDB01925F
:103DD0000398A086204601F04DFDB0B2A9B2814201
:103DE00024D00398A086E585A785204601F042FDF2
:103DF00028B2801B022819DBA7850198851EE5865D
:103E0000761CE685204602F09BFD08E0E58620460C
:103E100002F096FDB8B2039989B2814206D0E586D8
:103E2000E6850398A085204602F08AFD00200299CD
:103E3000086005B0F0BDF0B585B01E4614460F46CB
:103E400005462030009000F002FF0B98A8870A98E2
:103E5000E886AE86EC85AF85844203D1284601F022
:103E600009FD59E03B46B74203D1284602F068FD00
:103E700052E00027FA430121A0420492039200DBA2
:103E800003919E4200DB0491A04201DB001B00E095
:103E9000201A01B29E4201DBF01A00E0981B06B224
:103EA0008E421EDA70000290471A781A01900024A0
:103EB00013E00E462846FFF765FD38B20028029849
:103EC00004DBA88D04994018A8850198E98D039A10
:103ED0008918E985C719641C314620B28842E8DD9B
:103EE0001AE048000290841BA01B019011E02846B4
:103EF000FFF748FDA88D04994018A88520B2002836
:103F0000029804DBE88D03994018E88501980419AC
:103F10007F1C38B2B042EADD00200099086005B08D
:103F2000F0BD0000F0B589B00892044610980690E4
:103F300000285AD007911E46129F0E9D2046203021
:103F400000F085FE780707D4AD1E089B5B1CB61EEB
:103F5000079A521C294602E0079A2946089B4E20E0
:103F600023524C2022520D460893591852202152B8
:103F70000596079296195022A65230233B40102BEB
:103F80000ED00698427A202B01D1881A07E029B278
:103F9000491C891ACA0F89184908089840180890BE
:103FA000119A0F9D03231F40022F0AD0012F0AD11F
:103FB000059800B2401CC30FC0184008079B191891
:103FC00002E0314600E007994823E2520698606417
:103FD0006A46D460064B9360002660C209B2089A14
:103FE00012B23B4602F058F8266209B0F0BDC04656
:103FF00011390008F8B51E4614460F460546203014
:10400000009000F024FE0798A887069868862E8600
:10401000EC85AF852421695EB94204DDA985F219DA
:10402000561A2E860F462621695EA14204DDE985D7
:104030000019401A688600E0214632B2D3192822BE
:10404000AA5E934202DD92B2D61B2E8602B25318AC
:104050002A22AA5E934202DD90B2401A688631B2EB
:10406000012905DB00B2012802DB2846FFF7F2FC3C
:10407000002000990860F8BDF0B58BB00746129893
:10408000002800D19EE016460D460690109C38464A
:10409000203007900A9300F0DAFD0A9B09947C8691
:1040A0003B86FE85BD852420395EA94218462A46F6
:1040B00004DDB9855819401A38860A460895262124
:1040C0007B5EB342099D2946344604DDFB85A91970
:1040D000C91A79861C46354603B29E182823FB5E12
:1040E0009E4202DD98B2801A38860AB213192A223B
:1040F000BA5E934202DD91B2091B798600B20128B3
:104100005DDB08B201285ADB2C46159E14980590F9
:10411000B8873846FFF79EFC700708D4099A921EAC
:10412000641C0A9DAD1E089B5B1C069803E0069864
:10413000089B0A9D099A4E217C524C217B52099280
:10414000A1185222B95208930A955D195022BD5206
:1041500030233340102B0CD0427A202B01D18C1A03
:1041600007E0099909B2491C891ACA0F8918490838
:104170006418139A1199099103231E40022E0BD043
:10418000012E08D10A9B1BB25D1CEB0FEB185B08DC
:10419000089DED1800E0089D4A230599F95248232F
:1041A000FA5278646A46D760074B936000235360E5
:1041B0000999116029B222B2334601F06DFF002047
:1041C000079908600BB0F0BD813A0008F8B51F46AA
:1041D00016460D460446203000F039FD0820205ECA
:1041E0000699002E00DA891909B2002D00DA7F192C
:1041F00001290CDB3AB2012A09DBEB179D4385420A
:1042000005DAF3179E430A23E35E9E4204DB6389CB
:1042100000252E462A462946E684A58400272762E3
:1042200089190EB21FB2BE4200DC0B4663855119DC
:104230000AB2824200DC08462085F8BD80B5002223
:1042400000F001F880BD10B504460020002C06D017
:10425000002904D000230846214601F0FBFE10BDD2
:10426000F8B5044610480668002E01D10F4E0660CE
:10427000374607E07D682968204601F0F5FD0028F3
:104280000FD13F68002FF5D1094F07E075686968C5
:10429000204601F0E9FD002803D13668002EF5D153
:1042A0003D46284601B0F0BD48060020B08A00080F
:1042B0000C85000870B504462C20205E022815D01D
:1042C00001281AD000283AD14020205CA17B8142ED
:1042D00035D0D94E032833D20125E8043060D848C0
:1042E0000570102002F014FC284633E0206C65288D
:1042F0001DD36420206401211DE04020205AA189A3
:1043000081421CD087214900F64D88422CD05A2882
:1043100034D0B42841D0002811D10120C104296033
:10432000F8490870362002F0F3FB48203EE0C0B2A6
:104330000121002800D00904F14A1160E07370BD2A
:10434000FDD10120C1043160EE490870102002F057
:10435000DFFB002002F0D8FB08203060E948002194
:104360000170206CA07370BD0120C1042960E54973
:104370000870362002F0CCFB282008E00120C104A0
:104380002960E0490870362002F0C2FBE82002F004
:10439000BBFB05208101F0200DE00120C104296054
:1043A000D8490870362002F0B3FB882002F0ACFB3D
:1043B00005208001F02108222A60D24A00231370D0
:1043C00021816081206CA08170BDC046F0B58FB0A6
:1043D000099000210A914161012779049348016005
:1043E0000D460891924E3846B047924840240460EA
:1043F0003846B047B8058F490860C14E3560384629
:1044000002F0E6F90A200C908949884702253560B8
:104410000D958848046038468549884708200E90E5
:104420003060089830601424844E2046B047B44869
:1044300005602046B0473446F804B1490860B148E9
:104440000770A94E38463D460B97B04705200690A9
:10445000A0472820B047CF20B0473746A34E0A9C3C
:104460002046B0478320B0473020B047ED20B84702
:1044700064200890B0470320B0471220B047812045
:10448000B047E820B8478520B0472846B047792094
:10449000B047CB20B8473920B0472C20B047204642
:1044A000B0473420B0470D98B047F720B8472020D8
:1044B000B047EA20B8472046B0472046B047C02062
:1044C000B84726252846B047C120B8471120079095
:1044D000B047C520B8473520B0473E20B047C72079
:1044E000B847BE20B0473620B8474820B0473A20EA
:1044F0000490B8475520B047B120B8472046B04790
:104500001B20B047F220B8470E98B0472846B8475E
:104510000B98B047E020B8471F200390B0471A20FF
:10452000B04718200190B0470C9C2046B0470F20A0
:10453000B0470620B0474520B0478720B04732201B
:104540000590B0472046B047072402942046B04764
:104550000D98B0472046B047069C2046B0470A9DBC
:104560002846B047E120B8472846B0472520B04745
:1045700027200D90B0472046B0471020B0470920B3
:10458000B047049F3846B0477820B0474D20B04729
:104590002046B0470198B0470D20B0473820B047BB
:1045A0003846B0470398B0472A204F4FB8472846AF
:1045B000B0472846B0472846B047EF20B0472B20E9
:1045C000B8473C462846B0472846B0470B9F384678
:1045D000B0473F20B047B720A0470298B047B62069
:1045E000A0470C98B0478220B0470D98B0472846A6
:1045F000B0470798A047089E3046104CA047292096
:10460000394988473046A0473D490E9808603D48E3
:10461000057038040860099A0598107409480A4919
:104620009160D060E8430FB0F0BDC0461804005060
:104630009D38000818000050180C0050114D00085B
:10464000F80A002000000364F000400110B50446A1
:104650003D20205C02F058FA3C20205C02F054FA25
:1046600010BD0000F8B504460120C104244A1160C1
:10467000244908702A201C4988472C25605F000ABD
:1046800080B21A4FB847605DB8473026A05F615FBF
:104690000818401E000A80B2B847A05D615D081886
:1046A000401EC0B2B8472B200F4988472E26A05F76
:1046B000000A80B2B847A05DB8473227E05FA15F2B
:1046C0000818401E000A80B208498847E05DA15DD5
:1046D0000818401EC0B20549884728460249884745
:1046E000F8BDC046180C0050116B0008096B00089B
:1046F0000348082101600348002101707047C0464B
:10470000180C0050F80A002010B50246E14810309D
:10471000002306E044682488944202D18B4203D0EF
:104720005B1C00680028F5D110BDC046002901D1EE
:10473000EC4910310968002903D04A681288824286
:10474000F8D108467047C046FEB502910446F648C7
:1047500010300026374608E04168A14200D1761C9F
:1047600022880988914200D17F1C00680028F3D17B
:10477000606800F0DBF905460020002D26D001908E
:1047800061682846FBF70BFE6C60A068002808D023
:1047900000902846029932463B46009EB0470028CA
:1047A00010D0E1490869002801D0486901E00846B5
:1047B000103005604D61E168002901D02846884726
:1047C000284603E0284600F0F1F9019803B0F0BD57
:1047D00010B500281BD00446F0480269A2420BD055
:1047E00011461268002A09D0A242F9D122680A6053
:1047F000002A03D1416101E021680161606801691B
:10480000002901D020468847204600F0CFF910BD8E
:10481000F0B587B006030027B8B2311806AC2046C1
:10482000FEF774F87F1C20780A28F5D10020039049
:104830000090044603E0E1B204AA5054641CB8B2EC
:1048400031180398072832D006AD2846FEF75EF8E7
:104850007F1C2878014630390929ECD90A28EED185
:104860000196039880001449081818300290E5B2A8
:1048700004AE14E030780F2404406D1E2846FBF788
:104880007CFE01460D4802F041FAFBF73AFE604318
:10489000029A11684018106000203070761C002DBC
:1048A000E8D10398401C0390019E0098C1E702489C
:1048B000418007B0F0BDC0465001002000002041FB
:1048C0000C49C8680C4A1268121A0878042A09D3DD
:1048D000012807D1032008700848026801239A4381
:1048E000026003E0FE220240022A01D1002008708B
:1048F0007047C04620010020A00000200058004062
:104900000A4880787047C0460548016801229143F3
:104910000160064900230B70016811430160704774
:1049200000540040014800787047C046E401002070
:10493000B0B50546002408E000212046FDF764FFDD
:10494000AC4201D1002802D0641C312CF4D9A0B2B1
:10495000B0BD0000F8B50023002833D00D46002973
:1049600030D014460646B8481C3000F070F90020DC
:10497000494A11460EE00B68B34202D14F68AF427C
:104980001BD0002B0B4600D00023002800D003468C
:104990001031184601235F02D719B942EBD3002822
:1049A00004D00021066045608460C1600021A64AF1
:1049B000D161002806D1034604E08C600020F7494D
:1049C000C861FF2358B201B0F0BDC04670B50446BF
:1049D000F24E30461C3000F03AF9002528462146B8
:1049E000FEF766FFF56170BD10B5044680680028CB
:1049F00001D0002010BDA08801229043A080204655
:104A000000F058F9002801D1044600E01034204697
:104A100010BD0000B0B50446F14D28461C3000F032
:104A200016F9206881888A0702D00020E861B0BDAD
:104A30000222114381800021E9611030B0BDC046DF
:104A400070B5002823D00D460446F54E30461C3084
:104A500000F0FDF81049002D08460FD02868002806
:104A600005D08288930702D502239A4382801035AD
:104A7000284603E04368A34207D0103001225202C7
:104A80008B1800229842F5D31046F26170BD0020C9
:104A900070BDC046A4000020040300200021018254
:104AA0008160024A4280018081807047FF7F000060
:104AB000F8B5002814D016460D460446E44F384693
:104AC0001C3000F0C4F82046FEF712FFA560E66037
:104AD000002D03D0A08801218843A0800020F86128
:104AE000F8BDC046A4000020B0B50446D84D284605
:104AF0001C3000F0ACF821688A68002A06D000203B
:104B00008880E861C86810319047B0BD0120888076
:104B100002200A5E088800B2904201DA401C088038
:104B20000020E861B0BDC046A400002010B50028F8
:104B30000FD0C31D03208343384C0020024604E0FD
:104B40000C689C4207D20C1D0A4621680029F7D147
:104B500010BD002010BD18460830844201D24868BC
:104B600006E0E01AC8500B60C8184B684360486004
:104B7000002A01D0121D00E0284A1060081D10BD57
:104B800080B5F5480178012907D100210170FEF7B1
:104B900051FDFEF7E5FAFEF75DFA80BDA4000020A6
:104BA00081B00098401C0090FBE7000010B5002881
:104BB00033D0011F194B002205E00368C418A1423D
:104BC00006D0031D024618680028F6D1084609E001
:104BD0000968C9180160002A01D0111D00E00F49C1
:104BE00042680A600D4B002205E00368C418A14228
:104BF00005D00B1D0A4619680029F6D109E00C689A
:104C0000E3180360002A01D0121D00E0034A49683E
:104C1000116002490A684260086010BD4C0600201D
:104C200010B5CD4C207800280DD101202070FEF762
:104C3000E5FA0020E061FEF74BFBFEF77FF9FEF797
:104C400095FAFEF781FC10BDA4000020704710B556
:104C5000044601E000F0C6F820680028FAD10120DF
:104C6000206010BD00290BD000220A60024608CA4D
:104C7000002B02D01368104600E013461960016053
:104C80007047002915D00268002A12D08A420CD041
:104C900013461268002A0CD08A42F9D10A681A60B9
:104CA00042688A4203D1436001E00A680260002042
:104CB00008607047F8B50D460446002904D0681C0A
:104CC00004D10025EE4319E02E4617E02846FFF7F1
:104CD000BDFF002801D0064600E0012600F02EF8B6
:104CE00005460BE0701C07D00027002E0DD000F009
:104CF00025F8401BB04208D200F074F8208800B2BA
:104D00000028EFDD401E2080FF2778B201B0F0BD03
:104D1000B0B5002811D0411C02D100F063F8FCE7C7
:104D2000FFF794FF044600F009F8054600F05AF832
:104D300000F004F8401BA042F8D3B0BD01488068E1
:104D40007047C0469800002070B51D46582901D212
:104D5000582605E00E460446002801D0002006E053
:104D60003046FFF7E3FE002815D0044601200499E1
:104D70006060A660E5602161AE4EF56830464C305B
:104D80002946FCF717FDF4600020C243284621465F
:104D9000FEF782F900E00024204670BDA400002048
:104DA000B0B5A44DEC6820616068042101436160E6
:104DB00009210140012904D1284654302146FCF73D
:104DC000F9FCE96C002907D00868E960E864002272
:104DD0002046FEF761F9B0BD0020E860FFF7E0FE75
:104DE000A4000020B0B5934D03E001686965FFF7AA
:104DF000DDFE686D0028F8D1E86C00280FD0EC6863
:104E000028464C302146FCF7D5FCE96C002901D03E
:104E10000868E864E96000222046FEF73DF9B0BD6D
:104E2000A4000020B0B50446F44D28462830FFF712
:104E30000EFF208A0421014321822420285E26219E
:104E4000695E884201DA401CA8840020A862B0BDD7
:104E5000A4000020FEB5029316460F460446E74D17
:104E600028462830FFF7F3FE286A002809D10020E1
:104E7000694608600120C1022648274BFFF764FFFE
:104E80002862208A00070DD56069A04208D0A16978
:104E90008161A1694861286BA04203D1606900E08B
:104EA000002028630898276066600299002901D0D5
:104EB000092100E008212182421C08D0FFF7C6FE2C
:104EC000E060FFF73BFFE1680818A06005E0002004
:104ED000C043E060022001432182286B002806D0F5
:104EE00060618069A06144616069183003E02C63EF
:104EF000A461204614300460208A800707D424204F
:104F0000285E2621695E884201DA401CA8840020C0
:104F1000A862FEBD240D0020A90D0008B0B504460E
:104F2000B64D28462830FFF792FE208A00070FD59D
:104F30006069A04208D0A1698161A1694861286BBC
:104F4000A04203D1606900E0002028630020208295
:104F50000020A862B0BDC046A4000020F8B50888B3
:104F6000012290431302984263D1A4485C3041234C
:104F70001B04002423E0CD688668AE421FD18569FA
:104F8000AE051CD52E461E409E423AD00C25455FEC
:104F900002268E5FAE4212DB1027C75F7D19B54235
:104FA0000DDD0E25455F04268E5FAE4207DB12271E
:104FB000C75F7D19B542054600DC25462C460068D2
:104FC0000028D8D1002C34D02120C302A069054686
:104FD0001D409D422DD10B89DB062AD59205104339
:104FE000A06160688569002D23D0A0894A88101AC5
:104FF00003B2E0898988081A02B220461946A847F8
:1050000017E00B899B0602D44268146A04E09205FB
:10501000954385614268D469002C0AD082894B8807
:105020009A1A13B2C2898988891A0AB21946A04706
:10503000F8BDF8BDA400002080B502490022FFF7AA
:1050400089FC80BDED320008F0B58DB006464068A1
:105050005349884200D089E0B069010502D4F16A61
:105060000C3105E0F16AC00701D1091D00E01431DF
:1050700006918D883E4832222946FEF709FE0990A6
:105080000024192220462946FEF702FE0890FF2040
:105090000004778A39B2FBF78EF92246079023463F
:1050A0001CE0308A0A90180C1746C2B20898099979
:1050B0000B93FEF7EDFD6946EA1912B20A604860EB
:1050C0000A982018801E03B221B20C98FEF7B3FE96
:1050D0000B9B3A4607981B187A1C778AF589B48986
:1050E000B0680C9038B211B28142DADB308A0B9092
:1050F000F0690A90326A0698018809913946074694
:1051000001236846491E09B206C00A99016009993F
:105110004160836021B22AB20B98401E03B20C9802
:10512000FEF700FF0E20325EB068318AB389748AC0
:105130007D886F461419641E24B230C75918491E61
:1051400009B20B46FEF777FE0C20315EB068338A59
:10515000728AF489069D6D886E46A218521E12B29C
:1051600024C6CB189B1E1BB2FEF765FE0DB0F0BD2A
:10517000FFFF000080B50021FEF716F980BD00009A
:10518000B0B51446064BFEF7B1F80546002804D02A
:1051900008202156284600F03DFB2846B0BDC046F9
:1051A000A07A000870B514460D4606460420105E2D
:1051B000002806DC1148416BE068FFF73FF8801CCF
:1051C000A0800620205E002807DC0C48406B0028E9
:1051D00001D0407A00E00020E0803E4B3046294676
:1051E0002246FEF783F80546002804D00820215601
:1051F000284600F00FFB284670BDC046A4000020E2
:1052000070B51E461446584BFEF770F80546002848
:1052100012D00020A863E86328646864A869002E9F
:1052200002D001210843A86114210143A96108208B
:105230002156284600F0EEFA284670BDF0B58DB034
:1052400004464068234A904241D1A2690C201205CD
:10525000024600D50422E76ABA5A0A92102208923E
:10526000A25E0C920E220692A25E0B92205E099024
:1052700012200790235EA668E569226A3F88C9B2BA
:1052800068460360426085600A9AC26007614161B6
:10529000304609990B9A0C9BFEF7EEFEA069C107F8
:1052A00015D00121C9020842069A104600D00620F6
:1052B000E16A0D5A0898235EA25E0C20215E0798D1
:1052C000265EA0686C4626606560FEF75FFD0DB047
:1052D000F0BDC046CC7A000880B50021FFF7AEFFD4
:1052E00080BD0000F8B504460025EF434068F94B47
:1052F000984235D1002A14D008460E46FAF7CEFF60
:1053000000900D30FFF712FC002829D031460646E8
:1053100007460C370098421C3846FAF7E1FF394639
:1053200007E00C200E46FFF701FC31460646002838
:1053300016D07560B160A06B002804D1207EC00734
:1053400001D10120B080204640303146FFF78AFC71
:10535000A06B401CA0632046FEF716F9A06B471E09
:10536000384601B0F0BDC046F07A0008F0B591B003
:1053700007464068D749884200D062E1BD69E80627
:1053800000D45EE12805FC6A01D5201D01E020461D
:105390000C300990F869002802D0407A801C00E0A7
:1053A0000220109028070FD412203E5EB01E1099E4
:1053B000FBF701F8398A0A91690754D4B96B814225
:1053C00051DC0A98801EA5E0BE6B398A881F0A90BE
:1053D000012E00DA9FE01222BD5E10984643701B3A
:1053E000801E012800DA96E00D92AAB2BB680C93E9
:1053F000FB890F93BB8924880E906846521E12B217
:1054000014C0C818001F01B20F98401C02B202233A
:105410000F930C98FEF7EEFDA81E40433146FAF7B5
:10542000CAFF06460120C043801B0D99795E4118D2
:10543000F86B48430E99FAF7BEFF0146B8680E9024
:105440003B8ABC89FA8909984588684636B2066065
:105450004560501802B2E018001F01B20E980F9B71
:10546000FEF7C8FD57E0B6B2B8680F90F8890E9005
:10547000BD892188099880888022FEF709FC694649
:10548000B21E12B20A6048600A984019113801B27F
:105490000E98401C02B210236B4C0F98A047B868BE
:1054A000B9897A8AFB89099C65886E469A18921E8A
:1054B00012B224C60A9A5118123909B25A1C12B2F1
:1054C0000B46FEF7B8FCB868FA89B989A3886D461F
:1054D0000A262E606B600A9D0E3D691809B2921D66
:1054E00012B23346584CA047BC68788A0F90FB89AB
:1054F000BA8909988188684606604160A81801B297
:105500000F981818103802B2204633464E4DA8475F
:105510000A9813380A90F86B1099491E3C4640349B
:10552000109A02E0814203DA89182468002CF9D12C
:105530001020385E0F900E203B5E0C203A5E122049
:1055400008903D5EB96809984688684660C008467C
:1055500011461A460F9BFEF719FCB8683B8AFA8978
:10556000B9897D8AAD1E2DB26E463560491C09B2DF
:10557000521C12B29B1E1BB2FEF728FEF86B10994C
:10558000FAF719FF0120401A0A99491F099A121DBA
:10559000079209B20691109E3AE0881E85423CDAD5
:1055A000A088C007079900D1F96AB8680E90B88939
:1055B000FA890B880F9369460E604B6051190AB245
:1055C0000A990BB2411C09B20E98FEF713FDB86898
:1055D0000E90B8890D90F8890C90A368F8690B902B
:1055E0000998028800216846066043600B9B83602F
:1055F000C2600F9A026141610C98401902B20D9885
:10560000801D01B20E98069BFEF736FDA81924688E
:105610000899795E05B2002CBFD1491EA94210DD60
:10562000B868BC89FA89FB6A1B886E46491B09B2B7
:105630000AC651190AB20A990BB2611C09B2FEF7E7
:10564000D9FC11B0F0BDC046F53F000810B50146C9
:105650000022D0434B681F4CA3420BD10B7EDB07CB
:1056600008D1403103E08B88DB0704D1521C096864
:105670000029F8D110BD104610BDC046B0B5054692
:10568000406800241349884209D12846FFF7DEFF0D
:10569000002804DB0146284600F004F804462046B2
:1056A000B0BDC04610B50246002000290EDB53688D
:1056B000084CA3420AD1936B8B4207DD403202E0D3
:1056C000002904D0491E1268002AF9D110BD906843
:1056D00010BDC046F07A000880B581698A050BD5F7
:1056E00001229203114381615C48817802220A43BE
:1056F00082700020FDF77AFE80BDC04670B50C4672
:105700000546564E5C3610E0002D02D0B068A84227
:105710000BD1B069810508D5002C03D10121C90343
:105720000843B0613046FDF72FFF3668002EEBD1FD
:1057300070BDC046494948637047C04670B50028EF
:1057400001D0044600E00F4C002915D0434D5C35D4
:10575000154E0EE0A87EC00703D03068E96A81428A
:1057600003D02846FFF7B8FF03E02846214600F0A3
:105770000BF82D68002DEDD120880B490C603749BE
:10578000888070BD6C77000880B5827ED2070AD011
:10579000002901D104490968C1620A88C282898846
:1057A0008182FDF7F1FE80BD1C000020F8B50D469A
:1057B00004468069C10329D5164601214F0381049F
:1057C00008D5B843A061206A002803D0FFF7EEF99E
:1057D0000F4820620E48002D14D02978002911D0DE
:1057E000002E0ED02846FAF759FD401CFFF79EF90F
:1057F000002807D0A1693943A1612946FAF728FD9D
:1058000000E0284620622046FDF7BEFEF8BDC046F7
:105810002C8B000810B501231C028269144000295A
:105820000BD0002C19D1C32109020A4382610B4815
:10583000817802220A4382700CE0002C0DD0C32133
:1058400009028A4303218903511881610348817841
:10585000194381700248FFF7E5FA10BDA40000204B
:105860002C020020002102E000224254491C1C2985
:10587000FAD1704710B504462C20225E3420205EF9
:10588000904204DAA286A0852286114601E00146F4
:1058900010462E22A25E2623E35E9A4225DB2A23AF
:1058A000E35E9A4221DA2422A25E904201DAA285C6
:1058B00010462822A25E914201DB511EA1860AB247
:1058C000824212DB01226286491C081A2086204689
:1058D000FEF7C8FE2046FEF7B9FE208E401E208649
:1058E0000004F7D12046FEF703FF10BD10B51B4C96
:1058F0006375A2742174039921750299A160110A3C
:10590000E1744000607400F003F8FF2010BDC04651
:10591000F0B51248002181700122027010490B6815
:105920003C4C1C400C60067C057D447D477C0B682C
:105930003B43002E00D16419E4B2240423430B60DE
:105940000B1F1C68F62525431D6052030B6813438B
:105950000B6004490968C160F0BDC0462001002009
:1059600004580040A0000020FEB5029104462349DF
:105970000E68012086430E60FF263603204F3D68E7
:1059800035433D60022C36D80A9D0095099D01954E
:10599000089E64B2A4001BA52C593D6825403D60BB
:1059A0000C6804430C601A4C66741D0AE573A373FB
:1059B00052006273029F2773009B2374019BA360B4
:1059C0000023A37020704B68124D1D404D60237C56
:1059D000D4B24A682243002F00D1F618F3B21B0458
:1059E0001A434A600A68F62313430B6042034B686C
:1059F00013434B6000E0002003B0F0BD00540040B2
:105A000000040050FFFFFAFFFFFFFAFFFFAFFFFFA8
:105A1000E401002000F800FE01204105534A13680C
:105A20000B43136013490A6882430A6002030B6840
:105A300093430B600A69104B13430B6142040B68DC
:105A400093430B604A68244B13404B600A6802433F
:105A50000A600F2212020B6813430B60FF21090634
:105A6000064A13688B43C10759181160C0051C49C9
:105A70000860704700540040261E84F014E400E0E3
:105A800001208105394A13680B43136010490A68E5
:105A900082430A6002030B6813430B600A690D4BD3
:105AA00013430B6142040B6893430B604A680A4B33
:105AB00013404B600A6802430A6008490A68C02321
:105AC00013433F2293430B6000060549086070476B
:105AD00000580040130F42F0FFF7FFFC18E400E00D
