:020000040800F2
:10000000800E00208901000891010008930100087A
:1000100000000000000000000000000000000000E0
:100020000000000000000000000000009501000832
:10003000000000000000000097010008AD05000866
:100040009B010008000000009B0100089B010008C4
:100050009B0100089B0100089B0100089B01000810
:10006000000000009B0100089B0100089B010008A4
:100070009B0100089B0100089B0100080000000094
:100080009B0100089B0100089B0100089B010008E0
:100090009B0100089B0100089B0100089B010008D0
:1000A0009B0100089B0100089B0100089B010008C0
:1000B0009B0100089B01000800F002F800F039F8ED
:1000C0000CA030C8083824182D18671EA246AB466D
:1000D00054465D46AC4201D100F02BF87E460F3EFF
:1000E000B6460FCC0126334200D0FB1A3343A2465A
:1000F000AB46184790110000A01100000023002417
:1001000000250026103A01D378C1FBD8520700D34E
:1001100030C100D50B6070471FB50098019900F001
:100120007AF900F0B9F81FBD10B5002000F011F900
:1001300010BD00F033F91146FFF7EEFF00F0C8FDE7
:1001400000F0C3F903B4FFF7EFFF03BC00F0BEFDFE
:1001500070B505460C46164602E00FCC0FC5103EA2
:10016000102EFAD2082E02D303CC03C5083E042E6B
:1001700007D301CC01C5361F03E021782970641C28
:100180006D1C761EF9D270BD0748804707480047AE
:10019000FEE7FEE7FEE7FEE7FEE7FEE70448054967
:1001A000054A064B70470000C1050008B900000869
:1001B00080080020800E0020800A0020800A002095
:1001C000704710B50B460146184600F078F810BD90
:1001D000F8B5042A2CD3830712D00B78491C03707E
:1001E000401C521E83070BD00B78491C0370401C27
:1001F000521E830704D00B78491C0370401C521E0A
:100200008B079B0F05D0C91ADF002023DE1B08C90E
:100210000AE0FFF79DFFF8BD1D4608C9FD401C46DA
:10022000B4402C4310C0121F042AF5D2F308C91A97
:10023000521EF0D40B78491C0370401C521EEAD4A5
:100240000B78491C0370401C012AE4D40978017022
:10025000F8BD01E004C0091F0429FBD28B0701D5BA
:100260000280801CC90700D00270704700290BD0A3
:10027000C30702D00270401C491E022904D3830721
:1002800002D50280801C891EE3E70022EEE70022EF
:10029000DFE770477047704770B5064C7C44064DE9
:1002A0007D4404E02046016808188047241DAC42C4
:1002B000F8D170BDF40F0000F40F00007047F8B5DE
:1002C000074615460E46102000F012F8040009D02B
:1002D0006760A660E56000F007F8016821600460CF
:1002E0000020F8BD0120F8BD00487047380000200C
:1002F00070B5064600F072F8056830460B30C40849
:10030000E400B44201D8002070BD68682A46002885
:1003100018D00168A14211D30B46214608318B4207
:1003200008D3436801194B6003681B1B0B605160C5
:10033000046001E041685160001D70BD02464068E4
:100340000028E6D12146284600F050F80028DCD1EC
:1003500070BDF8B50646FFF7C7FF0090054615E0EB
:10036000002E02D0E068B0420FD1206828600098CB
:10037000A168076860688847204600F080F8009808
:100380000068B84202D00098E8E725462C68002CA7
:10039000E6D1F8BD00487047000000207546FFF721
:1003A000F9FFAE46050069465346C008C0008546C1
:1003B00018B020B5FFF7F2FE60BCB6460026002755
:1003C000C0C5C0C5C0C5C0C5C0C5C0C5C0C5C0C505
:1003D000403D490849008D4670470000004870477D
:1003E00008000020704770477047704738B50446D2
:1003F0000A4600206946C046C046002805D002468D
:100400002046009900F069F8012038BD10B50120A0
:1004100000F083F810BDF8B5C046C0460546002080
:100420000C461020C0460646A819A0420DD93246F7
:1004300069460020C046C046070001D100F06DF8B3
:100440000098A04200D00546C419FFF7C7FFF61D6B
:1004500007460560F008C0004619284600F008F875
:10046000B44204D031463868A21B00F036F8F8BD1B
:10047000002101604160806070471020704770B5B6
:100480000446051FFFF7AAFF0068002C1AD0446835
:1004900001E020466468002C01D0AC42F9D3016829
:1004A0000A18AA4204D12A6805468918016000E0AA
:1004B000456028684119A14205D1616869602168D9
:1004C0004018286070BD6C6070BD10B50446C04611
:1004D000C0462046FFF736FE10BD10B50346406803
:1004E00001E003464068002801D08842F9D318682B
:1004F000C3188B4206D0CB1CD808C000001D411A7F
:10050000521A0146081D0A60FFF7B9FF10BD10B569
:10051000002801D000F0DAFB10BD10B500F01EF885
:10052000FFF7F5FF10BD70B505460C460A2000E048
:100530006D1C00F0CCFB002D06D028780028F7D1E8
:1005400002E0641C00F0C3FB002C02D020780028DD
:10055000F7D10A2000F0BBFB70BD000010B50128E8
:1005600005D0002103A0FFF7DEFF012010BD09A187
:10057000F8E7000053494752544D454D3A204F7516
:1005800074206F662068656170206D656D6F72798B
:10059000000000003A2048656170206D656D6F7243
:1005A0007920636F727275707465640080B503485A
:1005B0000168491C016000F017FB80BD780800202D
:1005C0000120C006154908607047C04680B500F09C
:1005D0006BFB80BD80B5012080020E490A68824312
:1005E0000A60EFF3108072B60B4A5068116881F30D
:1005F00008880A490A60421C05D1094A50681368F4
:1006000083F308880A60411C01D0804780BD00F058
:1006100095F8C046140400500018000808ED00E0EA
:1006200000380008F0B583B001900122130430496E
:100630000C1F25681D42FBD125686D03FCD40D6895
:10064000002D05D50D460C3D2A4E2E602A4E2E60FB
:1006500026682A48064326600F6802200090074358
:100660000F603F27FF000198050A3D400E68BE431A
:1006700075190D600D681D430D6025681D42FCD184
:1006800025681E48054325600D68009885430D6068
:1006900002AD00262E802D88ED0A22D1D0020090D6
:1006A0000F6817430F6002AF3E880725AE4314481A
:1006B00085192E696D693F8801983E503E18756016
:1006C00025681D42FCD12568154325600D689543BA
:1006D0000D60029D083502AE358035880098854250
:1006E000DED3D0070A6802430A6003B0F0BDC046FB
:1006F0001420024023016745AB89EFCDFB83000046
:100700006400002010B5054C0548606000F00AF850
:100710000020A0600720206010BDC04610E000E06F
:100720007F3E0000FF20000603490A688243032041
:10073000800710180860704720ED00E0BFF34F8F6E
:10074000034804490160BFF34F8F00BFFDE7C04677
:100750000CED00E00400FA0570B5002917D00D4D2E
:1007600000220D4B03E0521C8A4225460BD0845CCC
:100770006C40082502E034466D1EF4D06608E4079C
:10078000F9D05E40F7E7E04300BA000C70BD0020EE
:1007900070BDC046FFFF00000884000009480168E2
:1007A000032211430160100507490A6882430A6069
:1007B000012002050B6813430B6080024A698243E3
:1007C0004A6170473410024000040050F0B5B5B0E3
:1007D000009316460D46074609ACB0212046FFF7A8
:1007E00056FD80213846224600F0C2F8012E08D07E
:1007F000002E4BD109A90A22284600F069F835B02D
:10080000F0BD009E002E41D0002008900790069079
:1008100005902878697809020818A978EA78120200
:1008200051180904081801902879697909020818F3
:10083000A979EA7912025118090408180290287A55
:10084000697A09020818A97AEA7A12025118090489
:1008500008180390287B697B09020818A97BEA7BAA
:100860001202511809040818049009A90A222846FE
:1008700000F02EF81024284631462246234600F088
:1008800067F801A930462246FFF7A2FC35B0F0BD5B
:1008900010B581B003796A46537003781370037AF8
:1008A0009370037BD37001235C1A03231C40145DF7
:1008B00004710224641A1C40145D04725C1A1C400A
:1008C000145D047349421940515C017001B010BDC0
:1008D000F0B581B016460C460546100109182846A9
:1008E00000F016F8022E08D3761EF7B23801211850
:1008F000284600F0E7F8012FF6D80020215C2A5C9A
:100900004A402A54401C1028F8D101B0F0BD000024
:1009100010B5044600200A5C235C53402354401C5D
:100920001028F8D1601C0121FFF7B2FFA01C0221A2
:10093000FFF7AEFFE01C0321FFF7AAFF0020A94943
:10094000225C8A5C2254401C1028F9D110BDC0469C
:1009500010B5884200D81346002B08D00A780478D6
:10096000544004705B1E401C491C002BF6D110BD86
:10097000F0B589B0134607920D460146EA081846BD
:10098000FFF726FC68090190C1B288001C30C0B294
:100990000490059188426DD900200390059C019F29
:1009A0003B463CE008AD284602961E4600F06CF837
:1009B0006878314B185C6870A878185CA870E87883
:1009C000185CE870039AD0B22CA1085C2978595CB5
:1009D00041402970019836183546029E521C0392F8
:1009E0000598201A8000079B195C1818427812029B
:1009F00051188278C07800028018000440180899C5
:100A0000414006981954080CB070080EF070080A9E
:100A100070707F1CFCB20498A0422B462AD9A50016
:100A200007982E18301F01784278120251188278E8
:100A3000C07800028018000440180890D8B2F9B2BB
:100A400081420695AED005981D460828C8D10720DA
:100A500020400428C4D108A80178074A515C0170DD
:100A60004178515C41708178515C8170C178515CF2
:100A7000C170B5E709B0F0BD82100008010204089A
:100A8000102040801B360000017842780270827886
:100A9000C37883704270C170704770B500231C46E4
:100AA00045B2ED09154046006E4001250D406D42EE
:100AB00005406B40651C4908072C30462C46EFD397
:100AC000D8B270BDF0B58FB00024025D0B5D53400D
:100AD0000BAA1355641C102CF7D1029000260BA80A
:100AE0008119CD788A780A9213466B400093805D15
:100AF0004A78079201460446089051400191084601
:100B00005840C1B209201B273A460397FFF7C5FF9B
:100B1000069020460A994840C1B2042420463A462D
:100B2000FFF7BBFF099007986840C1B220463A46DC
:100B3000FFF7B3FF04460698444027466F400898E5
:100B40004540E9B202200590039D2A46FFF7A5FF24
:100B50007840029989190491C870099F06994F40FD
:100B600009970A9847400098C1B205982A46FFF7AE
:100B700094FF78400499887007994C400A98414046
:100B8000C9B2059D2846039F3A46FFF786FF60409D
:100B9000049948700898099C44400198C1B22846BD
:100BA0003A46FFF77AFF604002998855361D102EAD
:100BB00095D1029C601C0121FFF76AFEA01C022156
:100BC000FFF766FEE01C0321FFF762FE00200549E7
:100BD00023461A5C8A5C1A54401C1028F9D10FB0C5
:100BE000F0BDC046821100082D480168491C016013
:100BF0007047C046B0B52A490A680C4BD2180F4B53
:100C00001C68A4060CD40C689442F9D91C68002214
:100C10000121A40706D55C68022525435D6001E03B
:100C20009A68002102700846B0BDC04688130000D3
:100C300002490A685206FCD5C86070471C3801405A
:100C400070B50146854803680122134303600F23F2
:100C50009B04052425072E689E432E60E3042E681E
:100C60001E432E6011231B016E6A1E436E629203A7
:100C7000C3681343C360064800F000F90549C86023
:100C80002003886008680D2202430A6070BDC046D8
:100C90000024F40000380140014900220A60704736
:100CA000600000207047000010B5054C2046FFF79B
:100CB000F3FF0448044A2146FFF783FA10BDC046FB
:100CC00076080020A50C000800000008FEE7704729
:100CD0008AB0FFF775FCFFF715FD60480168012534
:100CE00029430160FFF75AFDA9025D4E306801916A
:100CF000084330604B200002FFF7A2FF812007016C
:100D0000002404940295039709E0BA20FFF790FFAE
:100D1000C220FFF78DFF029D2C46514E039F09A86C
:100D200004990170FFF766FF002803D0E007F6D1B1
:100D3000FFF750FC0120800231688143316009A82F
:100D40000078BA282C46EAD109A8FFF753FF0028FB
:100D50002C46E4D109A80078FB2801D1FFF73AFC22
:100D600009A80078BF282C46D9D13F4D28463F49D5
:100D7000FFF78DFABF1C00243D4E03E07F1E6D1C63
:100D8000002F17D0E00715D12846FFF733FF0028C2
:100D9000BBD12878BA28F1D105AE0020307030469A
:100DA000FFF728FF3178324E4A1E91410C4304432D
:100DB0000028E3D0E007A8D1039F2B4DE85B000497
:100DC00004BA2848811C2846FFF7C6FC84423BD160
:100DD000002408940794069405942919012205AB70
:100DE0003046FFF7F3FC1034A4B2BC42F5D32C8894
:100DF00000202880A81C1B49FFF7AEFC210409BA7B
:100E00002A46C2258142164E15D1D0789178090222
:100E10000818184988420ED130680199084330609B
:100E2000506800BA3B21C902884204D812494018D0
:100E3000FFF7F8FBC125BA20FFF7FAFE2846FFF7B7
:100E4000F7FE029D2C466AE7BA20FFF7F1FEC220AA
:100E5000FFF7EEFE029D2C46014E60E73410024083
:100E6000140400500E080000640000201208000066
:100E700072100008717A00000038000843088B42A5
:100E80001AD3002203098B4279D3030A8B425ED323
:100E9000030B8B4242D3030C8B4227D30902FF2260
:100EA00012BA030C8B4202D31212090203D0030BB5
:100EB0008B4233D31AE0D3E0411A8041401C704783
:100EC00003460B4371D443088B42F5D30022030938
:100ED0008B4254D3030A8B4239D3030B8B421DD36D
:100EE000030C8B4202D394466EE0090AC30B8B427B
:100EF00001D3CB03C01A5241830B8B4201D38B0326
:100F0000C01A5241430B8B4201D34B03C01A5241CA
:100F1000030B8B4201D30B03C01A5241C30A8B420D
:100F200001D3CB02C01A5241830A8B4201D38B02F8
:100F3000C01A5241430A8B4201D34B02C01A52419C
:100F4000030A8B4201D30B02C01A5241CDD2C3090E
:100F50008B4201D3CB01C01A524183098B4201D38A
:100F60008B01C01A524143098B4201D34B01C01A75
:100F7000524103098B4201D30B01C01A5241C308ED
:100F80008B4201D3CB00C01A524183088B4201D35C
:100F90008B00C01A524143088B4201D34B00C01A48
:100FA0005241411A524110007047CA0F00D04942C5
:100FB000031000D34042534000229C4603098B4259
:100FC0002DD3030A8B4212D38901FC2212BA030AE1
:100FD0008B420CD3890192118B4208D38901921163
:100FE0008B4204D3890137D0921100E08909C309EB
:100FF0008B4201D3CB01C01A524183098B4201D3EA
:101000008B01C01A524143098B4201D34B01C01AD4
:10101000524103098B4201D30B01C01A5241C3084C
:101020008B4201D3CB00C01A524183088B4201D3BB
:101030008B00C01A5241D9D243088B4201D34B00D6
:10104000C01A5241411A00D201465241104663462D
:101050005B1000D34042704763465B1000D34042B0
:1010600001B50021004201D0C9430846C046C04630
:1010700002BDC878EA3C37AA588C8C1CE15D66A892
:10108000B0BD637C777BF26B6FC53001672BFED7F9
:10109000AB76CA82C97DFA5947F0ADD4A2AF9CA401
:1010A00072C0B7FD9326363FF7CC34A5E5F171D871
:1010B000311504C723C31896059A071280E2EB275F
:1010C000B27509832C1A1B6E5AA0523BD6B329E382
:1010D0002F8453D100ED20FCB15B6ACBBE394A4C62
:1010E00058CFD0EFAAFB434D338545F9027F503CE2
:1010F0009FA851A3408F929D38F5BCB6DA2110FF0E
:10110000F3D2CD0C13EC5F974417C4A77E3D645D0A
:10111000197360814FDC222A908846EEB814DE5E97
:101120000BDBE0323A0A4906245CC2D3AC629195EB
:10113000E479E7C8376D8DD54EA96C56F4EA657A27
:10114000AE08BA78252E1CA6B4C6E8DD741F4BBDC8
:101150008B8A703EB5664803F60E613557B986C175
:101160001D9EE1F8981169D98E949B1E87E9CE5592
:1011700028DF8CA1890DBFE6426841992D0FB0543C
:10118000BB1652096AD53036A538BF40A39E81F3FD
:10119000D7FB7CE339829B2FFF87348E4344C4DE28
:1011A000E9CB547B9432A6C2233DEE4C950B42FA18
:1011B000C34E082EA16628D924B2765BA2496D8B56
:1011C000D12572F8F66486689816D4A45CCC5D6567
:1011D000B6926C704850FDEDB9DA5E154657A78D92
:1011E0009D8490D8AB008CBCD30AF7E45805B8B303
:1011F0004506D02C1E8FCA3F0F02C1AFBD0301139D
:101200008A6B3A9111414F67DCEA97F2CFCEF0B486
:10121000E67396AC7422E7AD3585E2F937E81C75C4
:10122000DF6E47F11A711D29C5896FB7620EAA18C2
:10123000BE1BFC563E4BC6D279209ADBC0FE78CD51
:101240005AF41FDDA8338807C731B112105927801F
:10125000EC5F60517FA919B54A0D2DE57A9F93C9BE
:101260009CEFA0E03B4DAE2AF5B0C8EBBB3C8353EE
:101270009961172B047EBA77D626E169146355214C
:101280000C7D00009812000800000020800E000075
:08129000FC00000839F3FFFF28
:04000005080000B936
:00000001FF
