:020000040800F2
:20000000800E0020890100089101000893010008000000000000000000000000000000006A
:2000200000000000000000000000000095010008000000000000000097010008AD050008C8
:200040009B010008000000009B0100089B0100089B0100089B0100089B0100089B01000824
:20006000000000009B0100089B0100089B0100089B0100089B0100089B01000800000000A8
:200080009B0100089B0100089B0100089B0100089B0100089B0100089B0100089B01000840
:2000A0009B0100089B0100089B0100089B0100089B0100089B01000800F002F800F039F85D
:2000C0000CA030C8083824182D18671EA246AB4654465D46AC4201D100F02BF87E460F3E3C
:2000E000B6460FCC0126334200D0FB1A3343A246AB46184790110000A01100000023002461
:2001000000250026103A01D378C1FBD8520700D330C100D50B6070471FB50098019900F060
:200120007AF900F0B9F81FBD10B5002000F011F910BD00F033F91146FFF7EEFF00F0C8FD18
:2001400000F0C3F903B4FFF7EFFF03BC00F0BEFD70B505460C46164602E00FCC0FC5103EF1
:20016000102EFAD2082E02D303CC03C5083E042E07D301CC01C5361F03E021782970641C04
:200180006D1C761EF9D270BD0748804707480047FEE7FEE7FEE7FEE7FEE7FEE704480549A6
:2001A000054A064B70470000C1050008B900000880080020800E0020800A0020800A0020AF
:2001C000704710B50B460146184600F078F810BDF8B5042A2CD3830712D00B78491C0370DF
:2001E000401C521E83070BD00B78491C0370401C521E830704D00B78491C0370401C521E22
:200200008B079B0F05D0C91ADF002023DE1B08C90AE0FFF79DFFF8BD1D4608C9FD401C46FA
:20022000B4402C4310C0121F042AF5D2F308C91A521EF0D40B78491C0370401C521EEAD46E
:200240000B78491C0370401C012AE4D409780170F8BD01E004C0091F0429FBD28B0701D52E
:200260000280801CC90700D00270704700290BD0C30702D00270401C491E022904D3830736
:2002800002D50280801C891EE3E70022EEE70022DFE770477047704770B5064C7C44064D6A
:2002A0007D4404E02046016808188047241DAC42F8D170BDF40F0000F40F00007047F8B554
:2002C000074615460E46102000F012F8040009D06760A660E56000F007F8016821600460CC
:2002E0000020F8BD0120F8BD004870473800002070B5064600F072F8056830460B30C40847
:20030000E400B44201D8002070BD68682A46002818D00168A14211D30B46214608318B429F
:2003200008D3436801194B6003681B1B0B605160046001E041685160001D70BD02464068DC
:200340000028E6D12146284600F050F80028DCD170BDF8B50646FFF7C7FF0090054615E02A
:20036000002E02D0E068B0420FD1206828600098A168076860688847204600F080F8009846
:200380000068B84202D00098E8E725462C68002CE6D1F8BD00487047000000207546FFF75B
:2003A000F9FFAE46050069465346C008C000854618B020B5FFF7F2FE60BCB64600260027C9
:2003C000C0C5C0C5C0C5C0C5C0C5C0C5C0C5C0C5403D490849008D46704700000048704755
:2003E00008000020704770477047704738B504460A4600206946C046C046002805D0024652
:200400002046009900F069F8012038BD10B5012000F083F810BDF8B5C046C0460546002034
:200420000C461020C0460646A819A0420DD9324669460020C046C046070001D100F06DF8DE
:200440000098A04200D00546C419FFF7C7FFF61D07460560F008C0004619284600F008F834
:20046000B44204D031463868A21B00F036F8F8BD002101604160806070471020704770B545
:200480000446051FFFF7AAFF0068002C1AD0446801E020466468002C01D0AC42F9D30168F2
:2004A0000A18AA4204D12A6805468918016000E0456028684119A14205D161686960216837
:2004C0004018286070BD6C6070BD10B50446C046C0462046FFF736FE10BD10B503464068E8
:2004E00001E003464068002801D08842F9D31868C3188B4206D0CB1CD808C000001D411A9E
:20050000521A0146081D0A60FFF7B9FF10BD10B5002801D000F0DAFB10BD10B500F01EF803
:20052000FFF7F5FF10BD70B505460C460A2000E06D1C00F0CCFB002D06D028780028F7D165
:2005400002E0641C00F0C3FB002C02D020780028F7D10A2000F0BBFB70BD000010B501281A
:2005600005D0002103A0FFF7DEFF012010BD09A1F8E7000053494752544D454D3A204F7512
:2005800074206F662068656170206D656D6F7279000000003A2048656170206D656D6F7263
:2005A0007920636F727275707465640080B503480168491C016000F017FB80BD780800203C
:2005C0000120C006154908607047C04680B500F06BFB80BD80B5012080020E490A68824383
:2005E0000A60EFF3108072B60B4A5068116881F308880A490A60421C05D1094A50681368F6
:2006000083F308880A60411C01D0804780BD00F095F8C046140400500018000808ED00E058
:2006200000380008F0B583B001900122130430490C1F25681D42FBD125686D03FCD40D6839
:20064000002D05D50D460C3D2A4E2E602A4E2E6026682A48064326600F68022000900743A9
:200660000F603F27FF000198050A3D400E68BE4375190D600D681D430D6025681D42FCD114
:2006800025681E48054325600D68009885430D6002AD00262E802D88ED0A22D1D0020090D4
:2006A0000F6817430F6002AF3E880725AE43144885192E696D693F8801983E503E187560E6
:2006C00025681D42FCD12568154325600D6895430D60029D083502AE3580358800988542E0
:2006E000DED3D0070A6802430A6003B0F0BDC0461420024023016745AB89EFCDFB83000037
:200700006400002010B5054C0548606000F00AF80020A0600720206010BDC04610E000E0D6
:200720007F3E0000FF20000603490A6882430320800710180860704720ED00E0BFF34F8FE6
:20074000034804490160BFF34F8F00BFFDE7C0460CED00E00400FA0570B5002917D00D4DFC
:2007600000220D4B03E0521C8A4225460BD0845C6C40082502E034466D1EF4D06608E407DF
:20078000F9D05E40F7E7E04300BA000C70BD002070BDC046FFFF0000088400000948016867
:2007A000032211430160100507490A6882430A60012002050B6813430B6080024A69824303
:2007C0004A6170473410024000040050F0B5B5B0009316460D46074609ACB0212046FFF762
:2007E00056FD80213846224600F0C2F8012E08D0002E4BD109A90A22284600F069F835B0A2
:20080000F0BD009E002E41D0002008900790069005902878697809020818A978EA78120291
:2008200051180904081801902879697909020818A979EA7912025118090408180290287A80
:20084000697A09020818A97AEA7A12025118090408180390287B697B09020818A97BEA7B8B
:200860001202511809040818049009A90A22284600F02EF81024284631462246234600F0FE
:2008800067F801A930462246FFF7A2FC35B0F0BD10B581B003796A46537003781370037AEB
:2008A0009370037BD37001235C1A03231C40145D04710224641A1C40145D04725C1A1C40B9
:2008C000145D047349421940515C017001B010BDF0B581B016460C46054610010918284641
:2008E00000F016F8022E08D3761EF7B238012118284600F0E7F8012FF6D80020215C2A5CE2
:200900004A402A54401C1028F8D101B0F0BD000010B5044600200A5C235C53402354401C9A
:200920001028F8D1601C0121FFF7B2FFA01C0221FFF7AEFFE01C0321FFF7AAFF0020A9491E
:20094000225C8A5C2254401C1028F9D110BDC04610B5884200D81346002B08D00A780478CB
:20096000544004705B1E401C491C002BF6D110BDF0B589B0134607920D460146EA081846BC
:20098000FFF726FC68090190C1B288001C30C0B20490059188426DD900200390059C019F56
:2009A0003B463CE008AD284602961E4600F06CF86878314B185C6870A878185CA870E87873
:2009C000185CE870039AD0B22CA1085C2978595C41402970019836183546029E521C039286
:2009E0000598201A8000079B195C18184278120251188278C0780002801800044018089959
:200A0000414006981954080CB070080EF070080A70707F1CFCB20498A0422B462AD9A500CE
:200A200007982E18301F01784278120251188278C07800028018000440180890D8B2F9B2DD
:200A400081420695AED005981D460828C8D1072020400428C4D108A80178074A515C017011
:200A60004178515C41708178515C8170C178515CC170B5E709B0F0BD821000080102040806
:200A8000102040801B3600000178427802708278C37883704270C170704770B500231C4604
:200AA00045B2ED09154046006E4001250D406D4205406B40651C4908072C30462C46EFD33F
:200AC000D8B270BDF0B58FB00024025D0B5D53400BAA1355641C102CF7D1029000260BA8F1
:200AE0008119CD788A780A9213466B400093805D4A78079201460446089051400191084610
:200B00005840C1B209201B273A460397FFF7C5FF069020460A994840C1B2042420463A46E3
:200B2000FFF7BBFF099007986840C1B220463A46FFF7B3FF04460698444027466F400898FC
:200B40004540E9B202200590039D2A46FFF7A5FF7840029989190491C870099F06994F407C
:200B600009970A9847400098C1B205982A46FFF794FF78400499887007994C400A9841406F
:200B8000C9B2059D2846039F3A46FFF786FF6040049948700898099C44400198C1B22846F5
:200BA0003A46FFF77AFF604002998855361D102E95D1029C601C0121FFF76AFEA01C0221BE
:200BC000FFF766FEE01C0321FFF762FE0020054923461A5C8A5C1A54401C1028F9D10FB087
:200BE000F0BDC046821100082D480168491C01607047C046B0B52A490A680C4BD2180F4B61
:200C00001C68A4060CD40C689442F9D91C6800220121A40706D55C68022525435D6001E06B
:200C20009A68002102700846B0BDC0468813000002490A685206FCD5C86070471C38014069
:200C400070B50146854803680122134303600F239B04052425072E689E432E60E3042E686C
:200C60001E432E6011231B016E6A1E436E629203C3681343C360064800F000F90549C86046
:200C80002003886008680D2202430A6070BDC0460024F40000380140014900220A607047AA
:200CA000600000207047000010B5054C2046FFF7F3FF0448044A2146FFF783FA10BDC04652
:200CC00076080020A50C000800000008FEE770478AB0FFF775FCFFF715FD60480168012539
:200CE00029430160FFF75AFDA9025D4E30680191084330604B200002FFF7A2FF81200701D2
:200D0000002404940295039709E0BA20FFF790FFC220FFF78DFF029D2C46514E039F09A837
:200D200004990170FFF766FF002803D0E007F6D1FFF750FC0120800231688143316009A81D
:200D40000078BA282C46EAD109A8FFF753FF00282C46E4D109A80078FB2801D1FFF73AFC7A
:200D600009A80078BF282C46D9D13F4D28463F49FFF78DFABF1C00243D4E03E07F1E6D1CB5
:200D8000002F17D0E00715D12846FFF733FF0028BBD12878BA28F1D105AE002030703046F9
:200DA000FFF728FF3178324E4A1E91410C4304430028E3D0E007A8D1039F2B4DE85B000481
:200DC00004BA2848811C2846FFF7C6FC84423BD1002408940794069405942919012205ABAD
:200DE0003046FFF7F3FC1034A4B2BC42F5D32C8800202880A81C1B49FFF7AEFC210409BA0C
:200E00002A46C2258142164E15D1D078917809020818184988420ED13068019908433060DB
:200E2000506800BA3B21C902884204D812494018FFF7F8FBC125BA20FFF7FAFE2846FFF7C5
:200E4000F7FE029D2C466AE7BA20FFF7F1FEC220FFF7EEFE029D2C46014E60E7341002408B
:200E6000140400500E080000640000201208000072100008717A00000038000843088B4289
:200E80001AD3002203098B4279D3030A8B425ED3030B8B4242D3030C8B4227D30902FF2221
:200EA00012BA030C8B4202D31212090203D0030B8B4233D31AE0D3E0411A8041401C7047F6
:200EC00003460B4371D443088B42F5D3002203098B4254D3030A8B4239D3030B8B421DD383
:200EE000030C8B4202D394466EE0090AC30B8B4201D3CB03C01A5241830B8B4201D38B039F
:200F0000C01A5241430B8B4201D34B03C01A5241030B8B4201D30B03C01A5241C30A8B42F6
:200F200001D3CB02C01A5241830A8B4201D38B02C01A5241430A8B4201D34B02C01A5241D3
:200F4000030A8B4201D30B02C01A5241CDD2C3098B4201D3CB01C01A524183098B4201D3F7
:200F60008B01C01A524143098B4201D34B01C01A524103098B4201D30B01C01A5241C308E1
:200F80008B4201D3CB00C01A524183088B4201D38B00C01A524143088B4201D34B00C01A43
:200FA0005241411A524110007047CA0F00D04942031000D34042534000229C4603098B42DD
:200FC0002DD3030A8B4212D38901FC2212BA030A8B420CD3890192118B4208D38901921123
:200FE0008B4204D3890137D0921100E08909C3098B4201D3CB01C01A524183098B4201D3D4
:201000008B01C01A524143098B4201D34B01C01A524103098B4201D30B01C01A5241C30840
:201020008B4201D3CB00C01A524183088B4201D38B00C01A5241D9D243088B4201D34B00D1
:20104000C01A5241411A00D201465241104663465B1000D34042704763465B1000D340423D
:2010600001B50021004201D0C9430846C046C04602BDC878EA3C37AA588C8C1CE15D66A842
:20108000B0BD637C777BF26B6FC53001672BFED7AB76CA82C97DFA5947F0ADD4A2AF9CA49A
:2010A00072C0B7FD9326363FF7CC34A5E5F171D8311504C723C31896059A071280E2EB2790
:2010C000B27509832C1A1B6E5AA0523BD6B329E32F8453D100ED20FCB15B6ACBBE394A4CC4
:2010E00058CFD0EFAAFB434D338545F9027F503C9FA851A3408F929D38F5BCB6DA2110FFF0
:20110000F3D2CD0C13EC5F974417C4A77E3D645D197360814FDC222A908846EEB814DE5EC2
:201120000BDBE0323A0A4906245CC2D3AC629195E479E7C8376D8DD54EA96C56F4EA657A53
:20114000AE08BA78252E1CA6B4C6E8DD741F4BBD8B8A703EB5664803F60E613557B986C19E
:201160001D9EE1F8981169D98E949B1E87E9CE5528DF8CA1890DBFE6426841992D0FB0544F
:20118000BB1652096AD53036A538BF40A39E81F3D7FB7CE339829B2FFF87348E4344C4DEC6
:2011A000E9CB547B9432A6C2233DEE4C950B42FAC34E082EA16628D924B2765BA2496D8B2F
:2011C000D12572F8F66486689816D4A45CCC5D65B6926C704850FDEDB9DA5E154657A78DDA
:2011E0009D8490D8AB008CBCD30AF7E45805B8B34506D02C1E8FCA3F0F02C1AFBD030113A1
:201200008A6B3A9111414F67DCEA97F2CFCEF0B4E67396AC7422E7AD3585E2F937E81C756C
:20122000DF6E47F11A711D29C5896FB7620EAA18BE1BFC563E4BC6D279209ADBC0FE78CD55
:201240005AF41FDDA8338807C731B11210592780EC5F60517FA919B54A0D2DE57A9F93C93F
:201260009CEFA0E03B4DAE2AF5B0C8EBBB3C83539961172B047EBA77D626E16914635521BC
:181280000C7D00009812000800000020800E0000FC00000839F3FFFF3F
:20180000D015002079190008811900088319000800000000000000000000000000000000E3
:2018200000000000000000000000000085190008000000000000000087190008E51E00084F
:201840008B190008000000008B1900088B1900088B1900088B1900088B1900088B190008D4
:20186000000000008B1900088B1900088B1900088B1900088B1900088B1900080000000060
:201880008B1900088B1900088B1900088B1900088B1900088B1900088B1900088B190008E8
:2018A0008B1900088B1900088B1900088B1900088B1900088B19000800F002F800F030F81E
:2018C0000CA030C8083824182D18671EA246AB4654465D46AC4201D100F022F87E460F3E2D
:2018E000B6460FCC0126334200D0FB1A3343A246AB461847FC1B00000C1C0000002300245C
:2019000000250026103A01D378C1FBD8520700D330C100D50B6070471FB51FBD10B510BDFC
:2019200000F0CAF91146FFF7F7FF00F0ADFE00F0E2F903B4FFF7F2FF03BC00F041FE0000BF
:2019400070B505460C46164602E00FCC0FC5103E102EFAD2082E02D303CC03C5083E042E66
:2019600007D301CC01C5361F03E021782970641C6D1C761EF9D270BD07488047074800474F
:20198000FEE7FEE7FEE7FEE7FEE7FEE704480549054A064B70470000F51E0008B918000804
:2019A000D00F0020D0150020D0110020D01100207047000030B5441C03E00178401C002944
:2019C0000DD08107F9D10B4BDD0104C8D11A91432940FAD0001B0A0603D0C01E30BD001B02
:2019E00030BD0A0401D0801E30BD0902FCD0401E30BD000001010101F8B5042A2CD3830706
:201A000012D00B78491C0370401C521E83070BD00B78491C0370401C521E830704D00B7850
:201A2000491C0370401C521E8B079B0F05D0C91ADF002023DE1B08C90AE0FFF781FFF8BD0D
:201A40001D4608C9FD401C46B4402C4310C0121F042AF5D2F308C91A521EF0D40B78491C60
:201A60000370401C521EEAD40B78491C0370401C012AE4D409780170F8BD01E004C0091F5B
:201A80000429FBD28B0701D50280801CC90700D00270704700290BD0C30702D00270401C8F
:201AA000491E022904D3830702D50280801C891EE3E70022EEE70022DFE70000024670B581
:201AC0000A4392072AD11E4DEE0104C808C9541B9443344017D0D0B2D9B2401A21060143BB
:201AE00010D190B299B2401A210401430AD110021902000A090A401A2102014302D1100EDE
:201B0000190E401A70BD9A42DFD010BA19BA884201D9012070BD0020C04370BD02780B78B0
:201B2000401C491C002A09D09A4207D102780B78401C491C002A01D09A42EFD0D01A70BDC2
:201B400001010101002203098B422CD3030A8B4211D300239C464EE003460B433CD40022CD
:201B600043088B4231D303098B421CD3030A8B4201D394463FE0C3098B4201D3CB01C01AC7
:201B8000524183098B4201D38B01C01A524143098B4201D34B01C01A524103098B4201D339
:201BA0000B01C01A5241C3088B4201D3CB00C01A524183088B4201D38B00C01A5241430899
:201BC0008B4201D34B00C01A5241411A00D201465241104670475DE0CA0F00D04942031014
:201BE00000D3404253409C46002203098B422DD3030A8B4212D38901FC2212BA030A8B4213
:201C00000CD3890192118B4208D3890192118B4204D389013AD0921100E08909C3098B42FD
:201C200001D3CB01C01A524183098B4201D38B01C01A524143098B4201D34B01C01A5241CB
:201C400003098B4201D30B01C01A5241C3088B4201D3CB00C01A524183088B4201D38B0003
:201C6000C01A5241D9D243088B4201D34B00C01A5241411A00D201465241104663465B1037
:201C800001D34042002B00D54942704763465B1000D3404201B50549002802DC491C08408C
:201CA00000E00846C046C04602BD00BFFFFFFF7F7047704770477047754600F025F8AE4658
:201CC000050069465346C008C000854618B020B5FFF75CFE60BCB64600260027C0C5C0C508
:201CE000C0C5C0C5C0C5C0C5C0C5C0C5403D490849008D46704710B50446C046C0462046A4
:201D0000FFF717FE10BD00000048704700000020FEB51E4617460D460446006D0290204656
:201D20000C304C210191FFF7C6FE20460ECD0EC001218802E06002982065029108023818A7
:201D400020626762089F30463946FFF7B2FE63486065032535400420401B002D009000D0DD
:201D60003F1A28213846FFF7EDFEE062002D01D000983618A662204601F046F8002806D49D
:201D80000B980199029A625460640020FEBD2063FEBDC046F0B585B00F460446406D4F4913
:201DA00088420ED14C20205C00280DD01D4616463846FFF7FFFD112809D31E4820631E4DF5
:201DC00035E01C4D0C3531E01A4D24352EE0029504A920463A4600F0EDFD002819D403AA9F
:201DE0002046394601F0AEF8002815D41620864303A80188049A029800902046334601F08B
:201E000003F905460498002D0BD40021816185880DE0054620630AE0054604200499095EAB
:201E200001E00421415E204600F070FE256328B205B0F0BDCCD8FFFFCCD80000F8B5164626
:201E40000546406D254A904211D14C20285C00280FD01C466A46284600F042FE204F002829
:201E600034D40098818B090708D4BC1C03E01C4C01E01B4C18342C632046F8BD8268012C52
:201E800004DB511C02D115372F6324E081690B19934204D22246334601F0FEF80FE0541A63
:201EA000012CF0DB2246334601F0F6F839461531884204D10098816909198161DCE7002895
:201EC00004D4009881690919816101E0286304461537BC42D0D10024CEE7C04615030920E3
:201EE000D8D8FFFF02480168491C01607047C046CC0F00200120C006424908607047C0466C
:201F000070B501210B062C4802689A4302604A0604681442FCD10C04056825430560274CB0
:201F20000568641C02D04E043540F9D0002C01D0244C00E0224CC5682543C56004681C4312
:201F4000046003681342FCD00907C2680A43C2601D490A6802231A430A607F21090282688F
:201F60008A438260816819438160416B07220A4342631648042181610168154A0A400260EC
:201F8000052109070B68134A13400B601523DB0104681C43046084681C4384600F231B03BB
:201FA000046A9C430462036A0362501C0A6802430A60094870BDC046001002400000F0FF4A
:201FC0000208022003100220002002400004005015F0DFFFFFFFFF3F0090D00380B5EFF351
:201FE000108072B606494868421C06D00A6882F30888044A1160804780BD00F0EFF8C046DF
:202000000038000808ED00E0F0B587B001900292D00700D0D7E00D460120039006046B4F81
:2020200038683042FCD17D2084003868400307D50A2000F0C7FA641E2004F6D100F0CEF8E3
:202040007868002805D538460838614901606149016039686048014339607A6802210A4352
:202060007A603F22D200019B1B0A13407C689443E2187A607A6832437A603A683242FCD19C
:202080003A6802433A6078688843786006A90020088006A90988029A914200D38EE0796814
:2020A000039A1143796006A90A8805905219D2790492049A1302059C0493120E23029A1852
:2020C00005920A88049B059C0594521992791A430492049A1302059C0493120E23029A18B3
:2020E00005920A88049B059C0594521952791A430492049A1302059C0493120E23029A18D3
:2021000005920A88049B059C0594521912791A430492049A1302059C0493120E23029A18F2
:2021200005920A88049B059C05945219D2781A430492049A1302059C0493120E23029A1813
:2021400005920A88049B059C0594521992781A430492049A1302059C0493120E23029A1833
:2021600005920A88049B059C0594521952781A430492049A1302059C0493120E23029A1853
:2021800005920A88049B059C0594AA5C1A430492059A049B0988019C0B5109194A6039680F
:2021A0003142FCD13968039A114339607968914379600699083106AA11806AE70398C0075A
:2021C00079680143796007B0F0BDC0461020024023016745AB89EFCDFB830000BFF34F8F57
:2021E000034804490160BFF34F8F00BFFDE7C0460CED00E00400FA05F0B5B5B01D46164608
:202200000091074609ACB0212046FFF754FC80213846224600F098F8012E07D0002E25D17D
:2022200009A90A22009800F041F81FE0002D1DD02C460020089007900690059001AE102714
:202240003046009D29463A46FFF7D6FB09A90A22284600F02BF8284621463A463B4600F090
:2022600063F8204631463A46FFF7C6FB35B0F0BD18B503796A46537003781370037A937023
:20228000037BD37001235C1A03231C40145D04710224641A1C40145D04725C1A1C40145D51
:2022A000047349421940515C017018BD70B516460C46054610010918284600F015F8F0B273
:2022C000012807D9761EF0B200012118284600F0E1F8F4E70020102805D0215C2A5C4A40B9
:2022E0002A54401CF7E770BDB0B504460020102805D00A5C235C53402354401CF7E7601C78
:202300000121AD4DA847A01C0221A847E01C0321A8470020A949102804D0225C8A5C2254DD
:20232000401CF8E7B0BDC04610B5884208D8134606E00A78047854400470491C401C5B1E01
:20234000002BF6D110BD0000F0B58BB013460D460146EA0809931846FFF74EFB6909C8B2D4
:20236000059080001C30C0B20390002002900D4601910491E9B2039888426BD98A0009985C
:2023800007921718381F027843781B029A188378C0780002C01800048018020E060C030A42
:2023A000049CE4B2A142089719D1DBB22A4C0A92E35C2A46029DECB228A73F5D5F40264C74
:2023C0000A9BE35C0693019BD3180493C0B2205C0A90F0B2235C6D1C0295154614E0059CA9
:2023E000082C0ED107240C40042C0AD11A4CA25C0A92F2B2A25C0692DAB2A35CC0B2275C8E
:2024000002E0069607460A920598081A8000099C215C20184278120251188278C078000251
:202420008018000440180A990906069AD2B212045118DAB212028918FAB2891841400798A5
:202440002154080C089A9070080ED070080A50706D1C8FE70BB0F0BDF03200080102040889
:20246000102040801B36000070B500231C46072B0DD845B2ED09154046006E4001250D40B1
:202480006D4205406C405B1C49083046EFE7E0B270BD0000F0B58FB009900020102807D01D
:2024A000099A125C0B5C53400BAA1354401CF5E70021102967D00BA80A910A994118CE789C
:2024C0008F783B460597734002930A9A805C4A780692014604460790514003910846584083
:2024E000C1B209201B252A46324B9847314B049020467840C1B2042420462A461F46984751
:20250000089006987040C1B220462A46B8470446049844402746774007984640F1B202260F
:2025200030462A46234B984778400A99099A51180191C870089F04994F40089705984740A1
:202540000298C1B230462A461A4B98477840019FB8700698444005994840C1B230462A4623
:20256000144B9847604078700798089C44400398C1B230462A460F4B98470A996040099ABB
:202580005054091D95E7099D681C01210A4CA047A81C0221A047E81C0321A047002007491F
:2025A000099B102804D01A5C8A5C1A54401CF8E70FB0F0BD6924000871220008F03300089F
:2025C000FEE7000081B005490A6800920A68009B1B189A42FAD301B07047C046CC0F002041
:2025E00070B500251E4C00F03FF8FF2803D10A20FFF7E8FFF7E780070AD46D1CA54207D86C
:2026000000F088F9062000F0BBF900F069F9EAE700F080F9C72000F0B3F900F061F9002501
:20262000104EA8087D2809D2012080023168414031603220FFF7C6FF6D1CF2E7002500F03A
:2026400013F8FF2803D13220FFF7BCFFF7E7C00705D03220FFF7B6FF3235A542EFD970BDB7
:20266000B80B0000140400501CB500F053F9052000F086F9002000F083F901AC207000F0D5
:202680002FF920781CBD0000F0B58FB0814D284618388149016062B6FFF732FC7F4880493A
:2026A0004160FF2109062A688A430324A1075118296000258560072101607A48006840032A
:2026C00000D5E5E000F036F977480168214301602005764A1168814311600120009000050B
:2026E000116801431160506971490840506100F037FA0E956F4A10790DA9087050790CA98E
:20270000087090790BA908706B4C6CA108262046324601952B46FFF73DFB01460EAA0423E1
:2027200020460391FFF78AFB002801D5FFF756FC0EA8007840B20028039A04D4FFF74EFCE1
:2027400000200FB0F0BD0DA800780EA9497881420BD10CA800780EA98978814205D10BA879
:2027600000780EA9C9788142E8D0564F564D584C114602960129E1DB4C4B58694C4A10406F
:202780005861BB1D4C482A46FFF758FB012864DB2878BA2802D06878BF285ED100260A96E3
:2027A000099608960796B6B2B81C864208D2A819811C012207AB4948FFF71EFD1036F2E76D
:2027C00069880020688049BA06AA11803F49029EB8420ED02A18127951403246002A06D0E6
:2027E0004B08C90700D063401946521EF6E7401CEEE7C84340BA05A90880A88840BA04AA53
:202800001080098806A802880020914222D104A90988304A91421DD1E97909042A891204C8
:2028200012BA5118AA79120689183B22D202914210D8009EB0021D4B5A6902435A612648B2
:20284000081829461231F202FFF7DEFB0198401C01903046039900288CD10198000600D156
:202860006CE70020C043286068600EAC60782871A0786871E078A87108220E482946FFF720
:20288000C3FB2078C00700D158E7FFF7A9FE55E7FFF7A4FC20ED00E00018000810E000E0BF
:2028A000FFF90000102002403410024000040050FFFBFFFFF8FF01087408002066772E62D3
:2028C000660000000E08000060000020FFFF000008840000717A000000380008E03200082D
:2028E00081B0334801680906FCD40121C903104A116001684905890F01D04168F9E77D20E5
:2029000000900098002802D00098401EF8E701B07047C04626480168C904890FFBD10168E1
:202920000906FCD40120C007014908607047C04618000050012041060E4A1160BFF34F8F38
:20294000BFF36F8F00030C490A6802430A600B48002101604160C121890002680A43026054
:202960001721090242680A434260016840220A430260704780E100E0401002400030014006
:202980000B490A68520600D54A680A689207FCD508710868C007FCD008790A681206FCD45F
:2029A0000022042A02D24B68521CFAE77047C04608300140F0B587B00D4604461F20C743F9
:2029C000002A03910094059217D0104600F0B6F80490A36AE46A194624312246002A10D01E
:2029E00078004018008C002804D10888022801D3401E08802831521EF0E7A36AE46A0020EF
:202A0000049038461F30069002931946203104200190C043061D0022944219D078004018EE
:202A2000808C002811D10598002803D00868049B984223D0B0B28B888342154600D3069D01
:202A4000834200D3334606951E462831521CE3E7069F781C0ED028207843029E3418059931
:202A6000002909D03118086A2031049A9042039D08D01CE019482CE0039D23E0CC19174612
:202A8000039D029E282078433218938C002B0ED00697908924320109009F39830F2101409F
:202AA000481EF8610C48834209D2181D08E0049808602820784330180199818402E0001D59
:202AC0001080069F2C60282078433018791C8180002007B0F0BDC046FBFF0000E9D8FFFF11
:202AE00010B50346144801290DDB2C241C5F8C4209DB28244C43996A6118283911608988A3
:202B0000002901D0002010BD801C10BD02460A4801290DDB2C23D35E8B4209DB28234B43AF
:202B2000916A591824390A88002A02D0002008807047801C7047C046E6D8FFFF10B50022E3
:202B40000649102A08D8835C002B05D021244C435C40521C2146F4E7084610BD05150000D8
:202B600010B588B00E48042101600024079406940C480590FFF7B4FE3220FFF723FD039493
:202B80000920C00102900848019080200090074805A9074A074BFFF7BBF808B010BDC046D4
:202BA000180400509D320008CC08002074080020CC0D00204C0D0020F0B595B01746C2685F
:202BC0001190056A0F2F08DB491C8CB2A24208D908462103079100270AE008030790084651
:202BE00006E05907002000290790074600D59FE00E900F2454431F9810901E9E1D980C9042
:202C00001C980B901B9814901A981290042018400490022018400A90012003400F930390FD
:202C200000020990002005950D96012C7EDB00287CD1F817400E3818C2117F218843404234
:202C400013900020002856D1002A54DC069210020799401811990B680A6A089009999847BC
:202C6000109A1399791849006D1800283CD10E2F3ADC1399C9197F2936DC0F98002803D02D
:202C80002888129988422AD10D9900290E9800D00880002A00D017601499002944D00A9949
:202CA0000029129900D129880B9A00920C9A019282B211983B46149EB0471F49411801295C
:202CC00037D8B749491C8842109A08D111980368026A089809999847109A002829D4AD1CFA
:202CE000641E7F1C0020C0E7139980391391069A521C059DA6E71199C9680E9A521C0E9219
:202D000092B20027914200D80E97914201D8079704E0039B1B03079EF6180796914284D88F
:202D20000499002981D003E0002002E0002800D49B4815B0F0BDC04657270000F0B58BB0E2
:202D4000044609A803800AAE3280E269258B07AF059708AF04970396002B00D11846029067
:202D6000104801900091012320462946FFF724FF01468B48814201D0084600E0463000284D
:202D80000DD4109A08A90988002A05D00D01079B5D196D1C158000E0079BE36121830BB0FE
:202DA000F0BDC046A92D00087CB50C46110159184D1C29040B0A066805216A461846B04738
:202DC000002820D468460088A0421BD10798694649880088814215D1684600798322024075
:202DE000802A0FD1002905D121B2002902D54021084007D006990020002904D0AAB209884E
:202E0000914200D17E487CBDF0B58DB004460CA9002008800121069109020891794F0797C3
:202E2000064680B2E16881423CD9000308994018001F236802210AAA9847002867D40AA882
:202E400000883649884202D10CA8008807E0079880B26C4988422DD10CA800880790000387
:202E600008994018801E2368022109AA984700284DD40C98401C0CA90880B2B209A909884E
:202E80008A42324600D80A465E4B994200D01646BAB28A423A4600D30A465A4B9942C0D02B
:202EA0001746BEE7380408D1B0B25649884204D100200CE03A4D2F352AE0B8B2B1B2081A6B
:202EC0000699C903884201DB781C00E0701C079A4221605290B24B49884202D0304D2735E0
:202EE00016E000256563A563E5630BA805900CA80490039502950848019000952046294695
:202F00002A462B46FFF758FE2549884200D0054628460DB0F0BDC046212F000829040000CE
:202F2000002906D0374A914205D1002B07D1343002E03C3000E038300168491C01603048C4
:202F40007047C04670B588B015460446C269068B06A8059007A804900023039302910F48CD
:202F60000190009320463146FFF726FE01460C48814201D0084600E0463000280CD407A9AB
:202F80000988002D05D00B01069AD3185B1C2B8000E0069AE261218308B070BDA52F0008BD
:202FA000A8D8FFFFB0B588B0154C002905D0154DA94202D009B2002902D4204608B0B0BD33
:202FC00011015918491C03680804000A1E216A469847002812D4684640880028EDD16846A2
:202FE0000079C2210140C029E7D10C9869460D31FEF764FD0028E0D10024DEE70446DCE7DD
:20300000AAD8FFFFFFFF0000F0B58BB01D4614460E460746036808021E2103AA984700288C
:2030200030D4300900033107C90E0818801E3B680221019502AD2A469847A681276000215A
:2030400061612182E6810199A1830599A16029880DB2E5800F4A03A90B79D90703D1190616
:2030600003D4093211E0511C10E099070CD4D11D002D0BD50424234008D103A9498800296B
:2030800000D01046014601E00832114608460BB0F0BDC046E3D8FFFFF0B591B00993144600
:2030A0000D460746FB2128460491FEF74BFD3946064662193B680020C4430B935B6A1F463C
:2030C0001E370197039308330293069407940C9108920D95AA4200D8DBE0B7B2712F01D234
:2030E000002506E0384671387C21FEF72BFD0C99451CACB2079880B2A04249D0002C04D0B4
:20310000088AA04205D1C88900E088890EA908800FE0C8880EA900910121C9030143002308
:203120000B982246FFF70AFE002800D5B1E00EA800880B990B684A6A0002012109029847E1
:20314000002800D5A5E003980179C80700D084E0080600D484E0880700D584E04E480B30F6
:20316000490700D595E006210C9A515E069B994200DD8EE003998878C97809020818A04288
:2031800000D084E00D98506115820E98D0810795002C0A960ED0B0B2712805D3713F7C21B1
:2031A0003846FEF7CFFC0F4608997800029A15180D9F04E0780001990D180D9F0899CC1B9F
:2031C0003846049E3146FEF7BDFC0A46701A844200D304460C988068C01B844200D30446A3
:2031E000002C099F42D02888069989B2884240D0010741D001218903884240D805920B99A1
:203200000B68060205250FAA30462946984700283FD40FA80079C1071FD1010620D58107E5
:2032200021D440072DD50A9880B20FA9498881422AD12E43059830180B990B6821463A46E1
:203240009847002825D40D9D65190C994D613F1909970A9E761C089A3BE70F48401D18E051
:203260000D480D3015E00C480C3012E00A480E300FE00948801C0CE00748401C09E006480B
:2032800007E00548801D04E00348C01C01E00248001D11B0F0BDC046DFD8FFFFF8B51446DA
:2032A0000D460646FFF736FB0B200C4FB847300CC0B2B847300AC0B2B847F0B2B8470020AA
:2032C000B847002D06D00020FFF75AFB2070641C6D1EF6E7FFF704FB0020F8BD812900088D
:2032E000C878EA3C37AA588C8C1CE15D66A8B0BD637C777BF26B6FC53001672BFED7AB7627
:20330000CA82C97DFA5947F0ADD4A2AF9CA472C0B7FD9326363FF7CC34A5E5F171D831156A
:2033200004C723C31896059A071280E2EB27B27509832C1A1B6E5AA0523BD6B329E32F84B1
:2033400053D100ED20FCB15B6ACBBE394A4C58CFD0EFAAFB434D338545F9027F503C9FA80D
:2033600051A3408F929D38F5BCB6DA2110FFF3D2CD0C13EC5F974417C4A77E3D645D197351
:2033800060814FDC222A908846EEB814DE5E0BDBE0323A0A4906245CC2D3AC629195E47950
:2033A000E7C8376D8DD54EA96C56F4EA657AAE08BA78252E1CA6B4C6E8DD741F4BBD8B8AF6
:2033C000703EB5664803F60E613557B986C11D9EE1F8981169D98E949B1E87E9CE5528DFF4
:2033E0008CA1890DBFE6426841992D0FB054BB1652096AD53036A538BF40A39E81F3D7FB6D
:203400007CE339829B2FFF87348E4344C4DEE9CB547B9432A6C2233DEE4C950B42FAC34E1F
:20342000082EA16628D924B2765BA2496D8BD12572F8F66486689816D4A45CCC5D65B692C4
:203440006C704850FDEDB9DA5E154657A78D9D8490D8AB008CBCD30AF7E45805B8B34506F0
:20346000D02C1E8FCA3F0F02C1AFBD0301138A6B3A9111414F67DCEA97F2CFCEF0B4E67394
:2034800096AC7422E7AD3585E2F937E81C75DF6E47F11A711D29C5896FB7620EAA18BE1BA6
:2034A000FC563E4BC6D279209ADBC0FE78CD5AF41FDDA8338807C731B11210592780EC5FBE
:2034C00060517FA919B54A0D2DE57A9F93C99CEFA0E03B4DAE2AF5B0C8EBBB3C83539961DD
:2034E000172B047EBA77D626E169146355210C7D0035000800000020D0150000FC180008BD
:2038000078370020C1390008C9390008CB39000800000000000000000000000000000000C1
:20382000000000000000000000000000CD3900080000000000000000CF39000839800008A9
:20384000D339000800000000D3390008D3390008D3390008D3390008D3390008695A000825
:2038600000000000D3390008D3390008D3390008D3390008D3390008D339000800000000D0
:20388000CD8000081D810008D3390008D3390008D3390008D3390008D33900088D600008D4
:2038A000ED610008D3390008D33900082586000895860008D339000800F002F800F054F87A
:2038C0000CA030C8083824182D18671EA246AB4654465D46AC4201D100F046F87E460F3EE9
:2038E000B6460FCC0126334200D0FB1A3343A246AB46184790470100B0470100103A02D3D3
:2039000078C878C1FAD8520701D330C830C101D504680C607047000000230024002500264F
:20392000103A01D378C1FBD8520700D330C100D50B60704710B5642902D100F09BF810BDD4
:20394000782902D100F0CCF810BD002010BD1FB501F04EFC04000020002110F0F1FA401CEA
:2039600060601FBD10B510BD01F0F0FB1146FFF7EEFF0BF099F801F011FC03B4FFF7F2FFDB
:2039800003BC05F019FE000070B505460C46164602E00FCC0FC5103E102EFAD2082E02D34A
:2039A00003CC03C5083E042E07D301CC01C5361F03E021782970641C6D1C761EF9D270BD8C
:2039C0000748804707480047FEE7FEE7FEE7FEE7FEE7FEE704480549054A064B70470000EC
:2039E000BD800008B938000878250020783700207827002078270020704700000FB41CB534
:203A0000074B06AA7B4469460090059800F0B3FD0020694600F0C2FD1CBC08BC04B018473C
:203A2000950B000070B5044685690068C10601D5302600E02026C00707D070BD62683046FD
:203A4000A1689047206A401C20626D1EF6D570BD70B5044685690078C00707D170BD626830
:203A6000A16820209047206A401C20626D1EF6D570BD0000F7B5002575291068009914A601
:203A800011D0C046C046002802DA404211A608E0009909688A0701D50FA602E0490704D5E3
:203AA0000EA6012501E0C046C046009F0024243704E001F0EFF830313955641C0028F8D105
:203AC0002B4632462146009800F0F7FCFEBD0000000000002D0000002B00000020000000E8
:203AE00070B504460D4621461068C046C0462188090502D50F4A7A4402E00E4A7A440E323C
:203B000023460021243305E006070009360F965D5E54491C0028F7D120780023000705D5EE
:203B2000702D03D0002901D002231132204600F0C4FC70BD22050100F3B50446002081B005
:203B400020622046E168884700287AD0252802D06268A16871E0E1682046002588470646C1
:203B60000020E0610746A0612A2E0AD0304610F0E0F9002827D0B8000019303E0090866140
:203B800019E00298BA00121902C8916102902046E1688847012F064617D1E06900281FDA13
:203BA000202085431CE000980A218069484300998019303888612046E1688847064610F07D
:203BC000B8F90028EFD1012F0AD02E2E08D12046E16888470646202005437F1C022FC3DB51
:203BE000A069002803DA4042A06101200543E80701D010208543002E23D0304641381928C2
:203C000003D80120C00205432036204625603146029A1546FFF78EFE00280BD0012806D06B
:203C2000ED1DE808C000083002908AE709E02D1D029586E762683046A1689047206A401C52
:203C40007EE7206AFEBD00000FB400B58DB010A909900B900020C04300910A9000200C900E
:203C6000074878440690074878446A4607900F9909A800F05DFE0DB008BC04B01847000019
:203C8000EF0C0000090D00000EB5044615460E4612A000F0F5FF204600F0F2FF15A000F0D5
:203CA000EFFF304600F0ECFF14A000F0E9FF6C460020E0720A20A0720A3407E00A2128461B
:203CC00000F0D4F930310546641E2170002DF5DC204600F0D5FF00F0C9FF00002A2A2A20EA
:203CE000617373657274696F6E206661696C65643A2000002C2066696C6520002C206C69E0
:203D00006E652000401ECAB24178401C8A4202D00029F9D100207047034670B502460B4355
:203D20009B070FD10E4CE60100E008C208C91D1B9D433542F9D0D9B21170521C00290DD06D
:203D40001B0AF8E70B78491C1370521C002B05D00B78491C1370521C002BF3D170BD000091
:203D60000101010130B5441C03E00178401C00290DD08107F9D10B4BDD0104C8D11A91432B
:203D80002940FAD0001B0A0603D0C01E30BD001B30BD0A0401D0801E30BD0902FCD0401E80
:203DA00030BD0000010101010346F0B50B439B072DD1244DEF01042A29D308C810C95E1B89
:203DC0009E43121F3E4017D0D8B2E1B2401A3106014310D198B2A1B2401A310401430AD14E
:203DE00018022102000A090A401A3102014302D1180E210E401AF0BDA342DCD018BA21BA2B
:203E0000884201D90120F0BD0020C043F0BD002A01D10020F0BD03780C78401C491C002BAC
:203E20000DD0A3420BD1521E09D003780C78401C491C002B03D0A34201D1521EEBD1181BC7
:203E4000F0BD000001010101421E5378521C002BFBD10B78491C1370521C002BF9D170479C
:203E6000F8B5042A2CD3830712D00B78491C0370401C521E83070BD00B78491C0370401CB9
:203E8000521E830704D00B78491C0370401C521E8B079B0F05D0C91ADF002023DE1B08C94D
:203EA0000AE0FFF771FDF8BD1D4608C9FD401C46B4402C4310C0121F042AF5D2F308C91AF5
:203EC000521EF0D40B78491C0370401C521EEAD40B78491C0370401C012AE4D4097801703D
:203EE000F8BDD2B210B513029A1813049A1800F00EF810BD01E004C0091F0429FBD28B0718
:203F000001D50280801CC90700D00270704700290BD0C30702D00270401C491E022904D30D
:203F2000830702D50280801C891EE3E70022EEE70022DFE7F8B507460B46394619438907FC
:203F400013D1164CE601042A0FD302CB0D1B8D43354202D102C0121FF5E7CBB20370401CFA
:203F6000521E002B13D0090AF7E7002A14D01978521E5B1C0170401C002908D0002A0BD079
:203F80001978521E5B1C0170401C0029EDD1002A02D01146FFF7CAFF3846F8BD01010101AC
:203FA00082078B079A423FD170B5920F0AD0032402780B78401C491C002A33D09A4231D16A
:203FC0002042F5D1214EF40104C808C9951B9543254018D19A420FD104C808C9951B954301
:203FE000254010D19A4207D104C808C9951B9543254008D19A42E7D012BA1BBA01209A4233
:2040000000D2404270BD12BA1BBA2DBA18241000E0401900E140401A05D12E00E64002D19A
:20402000083CF4D1D01A70BD02780B78401C491C002A09D09A4207D102780B78401C491C2D
:20404000002A01D09A42EFD0D01A704701010101002203098B4273D3030A8B4258D3030BD1
:204060008B423CD3030C8B4221D312E003460B437FD4002243088B4274D303098B425FD32C
:20408000030A8B4244D3030B8B4228D3030C8B420DD30902FF2212BA030C8B4202D31212D0
:2040A000090265D0030B8B4219D300E0090AC30B8B4201D3CB03C01A5241830B8B4201D32D
:2040C0008B03C01A5241430B8B4201D34B03C01A5241030B8B4201D30B03C01A5241C30A44
:2040E0008B4201D3CB02C01A5241830A8B4201D38B02C01A5241430A8B4201D34B02C01AA8
:204100005241030A8B4201D30B02C01A5241CDD2C3098B4201D3CB01C01A524183098B4246
:2041200001D38B01C01A524143098B4201D34B01C01A524103098B4201D30B01C01A5241E6
:20414000C3088B4201D3CB00C01A524183088B4201D38B00C01A524143088B4201D34B0060
:20416000C01A5241411A00D201465241104670475DE0CA0F00D04942031000D34042534052
:204180009C46002203098B422DD3030A8B4212D38901FC2212BA030A8B420CD38901921129
:2041A0008B4208D3890192118B4204D389013AD0921100E08909C3098B4201D3CB01C01ACA
:2041C000524183098B4201D38B01C01A524143098B4201D34B01C01A524103098B4201D3D3
:2041E0000B01C01A5241C3088B4201D3CB00C01A524183088B4201D38B00C01A5241D9D2D3
:2042000043088B4201D34B00C01A5241411A00D201465241104663465B1001D34042002B08
:2042200000D54942704763465B1000D3404201B50449002802DC491C084000E00846C04614
:20424000C04602BDFFFFFF7F7047704770470000F0B5FF252D04C609C209FF2704462E4086
:204260000137CB093E4348402A402B400746002A6BD0002B69D0AA4267D0AB4265D00028D1
:2042800000DA32460125ED0529432C4309022002090AD21A4B0C7F24E31A434C000A7C445D
:2042A000E35C7D242404121914145B00A218884201D3521C00E0400049420C465C432411B1
:2042C0005C43DB016415E318040A5C43C502200D0C4644436419250A5D432303EC0C0D46B8
:2042E000654300030019EB184C42A34201D35B18401CD4052018002B07D05B00C91804D3BB
:20430000401C002901D1400840003F2189048A4209D3002A08DC1106090F04D003214907A4
:204320004018C00FC007F0BD01224100120689187F2252069142F6D205214907C84201D5DB
:204340009010F0BDFF20C005F0BD002F00DA32461648AA4207D2AB4205D21902090E17D0FE
:20436000F80FC007F0BDFF2563002D06AB42F9D84900A942F6D8AB4201D1A942F2D0A942F1
:2043800001D1002101E061004908D0050843F0BD1102090EFBD0FF200243D005F0BD0A469F
:2043A0000146104654E70000A2FD00000000C07F10B501469E240002CA15A307002A02D0F2
:2043C0001843002A04DBA21A002A0CDDD04010BD1206120E01D140004008A21A03D4D04098
:2043E00040420028F3DDFF2248001206904201D9002010BDC817C043584010BD1F22030C92
:2044000002D10F2200041CD0030E01D10002083A030F01D10001121F830F01D18000921ED7
:20442000002801DB4000521ED2055118021251181922904004D3491C002801D14908490030
:2044400008467047C10FC90700D04042012292071143D3E701218907D0E7414601604946BB
:204460004160514681605946C160714601611430F0C069460160001D01B5C046C04606BCA5
:20448000964601C10020704704000D00A06AC046C046616A8D462200280000D1012011682D
:2044A00088465168894691688A46D1688B4611698E461432F0CA70477047FFB504460D46C6
:2044C00081B0243000902168880604D51022E0699143216000E00120A84201DD471B00E0FC
:2044E00000270498A1697A191018081AA0612078C00602D42046FFF795FA002608E0039849
:204500006268A168805D9047206A401C761C206204988642F3DB2078C0060AD52046FFF74F
:2045200081FA06E06268A16830209047206A401C206238467F1E0028F4DC07E0009862685C
:20454000A168405D9047206A401C206228466D1E0028F3DC2046FFF77BFA2078000602D540
:20456000022005B0F0BD0120FBE7000001694A1C02610878704700B58FB00291002105910C
:204580000549019379440391114604906846FFF7D3FA0FB000BD0000E5FFFFFF0A6810703C
:2045A000521C0A607047FFB51C460025ED4385B00020009001909F685E68A16906986D1C8D
:2045C00088470290216A88470028F6D10298401C0CD0032040028643002F19DD700614D5AD
:2045E00002982B2809D02D280FD103E00020C04309B0F0BD012080020643A16906986D1C37
:2046000088477F1E002F029002DD0298302803D00798002828D024E00120A1694002064350
:204620006D1C06987F1E8847002F029003DD782805D0582803D00798002810D011E0079847
:20464000002801D010280CD10120A169400286436D1C06987F1E88470290102000E00820B9
:204660000790C017039016E00A20F9E70120039B40020643079A019900987F1E00F01EFB76
:20468000029AD3178018594101910090A16906986D1C88470290002F06DD0799029800F072
:2046A0002EFB00280290E1DAE16906988847B00502D40120C0439BE7F00710D1700610D541
:2046C000700505D50098019B002241429A4101E0019A00992068031D2360006806C02846FB
:2046E00086E72068011D21600068019A0099F5E7FFB51D460027FF4383B05C680020019086
:204700009E68A96904987F1C88470090296A88470028F6D10098401C0CD00320400284439E
:20472000002E19DD600614D500982B2809D02D280FD103E00020C04307B0F0BD0120800200
:204740000443A96904987F1C8847761E002E009002DD0098302803D00598002825D035E037
:204760000120A96940020443761E04987F1C8847002E009003DD782805D0582803D00598E0
:20478000002810D022E00598002801D010281DD10120A96940028443761E04987F1C88477D
:2047A0000090102002E0082000E00A2005900DE00121059A49020C430199761E5143081866
:2047C0000190A96904987F1C88470090002E05DD0599009800F093FA0028E9DAE969049804
:2047E0008847A00502D40120C043A5E7E00722D1600611D56005019800D5404229680A1D8C
:204800002A600968220501D5087014E0220701D5088010E008600EE02868011D29600068C8
:20482000210502D50199017005E02107019901D5018000E0016038467EE7FFB5144683B00D
:204840000020002600905068019091699768049888470C9905460698084305D009E0A16934
:204860000498761C88470546216A284688470028F5D1681C03D00198C00704D017E0002098
:20488000C04307B0F0BD2068011D2160006800900DE00198C00704D1009805700098401C6F
:2048A0000090A169761C04987F1E88470546002F1CDD681C1AD0069800280FD0E817C00E71
:2048C0004019411140098A000699400151182A1A0968012090400142DBD107E00C980028C9
:2048E000D7D12846216A88470028D2D0E169049888470C98002807D1002E05DD0198C007B5
:2049000002D1009800210170A068B84204DD0C98002804D0002F02D00120C043B1E73046E4
:20492000AFE7000002685118137801601846704710B5D160054979445161054979441162DC
:2049400000211161114600F0E9F910BDEBFFFFFFAD0300004268002A08D001680B78491C39
:20496000002B03D0521E06C0184670470121C160881E70474268002A0BD0C3680168002BE0
:2049800007D183688B4204D0491E521C06C0002070470020C0437047FFB5144687B0002002
:2049A000019050680390976800200290064604900590916908988847109905460A980843AB
:2049C00005D009E0A1690898761C88470546216A284688470028F5D1681C03D00398C00754
:2049E00004D02CE00020C0430BB0F0BD2068011D21600068019022E004AA6846E9B200F043
:204A00005DFB411C07D0801C09D0002002900398C00707D00DE0E1690898884746E00120BD
:204A2000029007E068460188019801800198801C01907F1EA1690898761C88470546002FC4
:204A40001CDD681C1AD00A9800280FD0E817C00E4019411140098A000A99400151182A1A6A
:204A60000968012090400142C6D107E010980028C2D12846216A88470028BDD0E169089849
:204A800088470298002811D11098002806D1002E04DD0398C00701D101990880A068B84295
:204AA00004DD1098002804D0002F02D00120C0439AE7304698E7FFB5144685B000200090E3
:204AC0005068019096680020029005460390916906988847109907460898084305D009E0F9
:204AE000A16906986D1C88470746216A384688470028F5D1781C03D00198C00704D01CE00C
:204B00000020C04309B0F0BD2068011D21600068009012E00198C00709D1B9B2009802AA12
:204B200000F0EDFA411C34D0009908180090A1696D1C0698761E88470746002E14DD781C60
:204B400012D00898002807D03B460F9A0E9900F0A5FA0028DED107E010980028DAD13846BD
:204B6000216A88470028D5D0E169069888471098002806D1002D04DD0198C00701D10099D7
:204B80000870A068B04204DD1098002804D0002E02D00120C043B5E72846B3E7FFB5144648
:204BA00083B000273D4650680190916996680498884700900E990698084305D009E0A16984
:204BC00004986D1C88470090216A009888470028F5D10098401C03D00198C00704D014E082
:204BE0000020C04307B0F0BD2068011D216007680BE00198C00702D100983880BF1CA16945
:204C00006D1C0498761E88470090002E15DD0098401C12D00698002807D0009B0D9A0C9902
:204C200000F03CFA0028E4D107E00E980028E0D1216A009888470028DBD0E1690498884791
:204C40000E98002805D1002D03DD0198C00700D13880A068B04204DD0E98002804D0002E0F
:204C600002D00120C043BDE72846BBE710B5002000F066FAFEF776FE012004F09DFC10BD71
:204C800010B5044602E0641C04F097FC20780028F9D110BD01468008081A02091018020A95
:204CA0001018020C1018C008820012185200891A01E0401C0A390A29FBD2704743435143DC
:204CC00030B55C18010C130C0D4692B25D4380B251432C19054655430A0C09044D196241FE
:204CE0005843010C00044019514130BD10B5044600F04CFA0068005DC007C00F10BD3A2861
:204D000000D23038202302469A43412A01D310463738884201D30020C0437047F3B50C467B
:204D20008FB000200C90012000260E9008460C3003906269039801219047051E2ED0252DA4
:204D40002DD0216A8847002818D06269039801219047216A88470028F7D16269411E03987E
:204D6000904700E0761CA1690F988847216A88470028F7D1E1690F988847DAE7A1690F98EE
:204D80008847A842074601D1761CD2E7E1690F9888477F1C02D10C98002877D06BE1626998
:204DA000039800273D46394690472A280CD16269039801219047012506E00A214F433F18AA
:204DC000303FEBD4102005436269039801219047014630390A2903D2AC498F42DEDCECE7C3
:204DE000E90600D4AA4F6C280AD04C2810D0682824D06A282ED074280CD07A280AD00DE040
:204E000062690398012190476C2823D004211CE0202005436269039801219047A760652810
:204E200065604FD026DC582839D01ADC452849D012DC252834D04128B0D143E062690398D5
:204E400001219047682802D008210D43E6E70120C002DEE70220DCE7462833D047289DD1D6
:204E600030E05B2870D061282CD063286CD0642894D161E06F284FD009DC662822D0672837
:204E800020D0692826D06E2817D12EE0EFE070284DD073286FD075284ED078280DD154E044
:204EA000A1690F9888472528054600D16CE7E1690F9888476D1C00D16DE7DCE00A224CE034
:204EC0000A2252E0012023466A460F99C043C046C046C5E040212846234608436060A807EC
:204EE00001D5002239E000223FE0E80700D020E72068011D21600068290501D5067018E792
:204F0000290701D5068014E7A90703D5F117066041600EE706600CE74021284623460843A2
:204F20006060A80701D5082217E008221DE0594928460840606016E0402128462346084353
:204F40006060A807BCD5B9E715E04021284608436060A80707D52346102201200F99C043F0
:204F6000FFF721FB7CE01022234601200F99C043FFF7BEFB74E0002163280B460191009139
:204F800002910D9102D05B2807D03BE0E80601D40120A0600120009034E0E06801210D90E9
:204FA0006269039890475E2807D101200190E06801210D906269039890472169002906D1D6
:204FC0000B4604AA8F00491C0829D351FADB002851D02169002926D00298401C029062696F
:204FE0000398012190475D28F1D10198002808D0002004AB8100401C5A58D24308285A50F0
:20500000F8DB04AB2069002820791CD04007029A00980D9B0092224602901F480F991DD528
:20502000FFF7BCFD1CE0C117C90E09184A114909930004AA9A184901411A1368012088404C
:2050400003431360CBE74007224613480F9902D5FFF7A2FC04E0FFF7F0FB01E0FFF72BFD04
:2050600000280ADA401C06D10E98002803D00020C04311B0F0BD0C98FBE7E90702D10C99D1
:20508000491C0C91361800200E9052E6CCCCCC0CFFFFFF7FF1F7FFFFFEFFFFFF10B509E04F
:2050A0000488801C9C4205D1002A01D0002010BD012010BD491EF3D2104610BDF8B51646E6
:2050C0000C46054600F062F80368FF200230C05C012805D0185D00280ED001202C80F8BD16
:2050E000FF333246214604331868C71868460023B84700992980F8BD0020C043F8BDF8B5BD
:2051000016460C46054600F041F80368FF200230C05C012807D0FF2C0FD8185D00280CD00A
:2051200001202C70F8BDFF333246214608331868C71828460023B847F8BD0020C043F8BD35
:2051400010B500F039F800F031F810BD754600F04BF8AE46050069465346C008C000854601
:2051600018B020B5FEF736FC60BCB64600260027C0C5C0C5C0C5C0C5C0C5C0C5C0C5C0C5DE
:20518000403D490849008D467047000010B500F02FF8001D10BD00BFA9ED000010B5044644
:2051A000C046C0462046FEF7E8FB10BD10B5002801D004F001FA10BD10B5002102A000F0E6
:2051C0001BF8012010BD0000534947414252543A2041626E6F726D616C207465726D696E8D
:2051E0006174696F6E0000000048704718010020004870473801002070B505460C460A2018
:2052000000E06D1C04F0D9F9002D06D028780028F7D102E0641C04F0D0F9002C02D0207817
:205220000028F7D10A2004F0C8F970BDB0B582B01C4D287802281BD0012821D000282BD17F
:20524000E8480A21009101904420E7490A5A4020085A40314988090409180120002300F073
:205260004FF9032400281AD12878401C287016E001F030F90024204600F058FA2C700EE0B2
:205280001120094900F0B2F90324002807D107480178491C017002E0002028700324204604
:2052A00002B0B0BD780100202D5200084D00002010B582B0154C2078012809D000281ED139
:2052C000012000F033FA01F019F92078401C2070DA480A21009101904420C3490A5A462060
:2052E0000B5A4020085A4031498809040918012000F006F9002804D0032002B010BD032046
:2053000000E000200021217002B010BD79010020F0B581B00C4606460D20094F394600F05A
:20532000A7F80546002807D1388800F049F83080388800F048F82080284601B0F0BDC04680
:205340007C030020F0B581B00C4606460F20094F394600F08DF80546002807D1388800F0C4
:20536000C9F83080388800F0BFF82080284601B0F0BDC0467E0300207F2189010840704719
:2053800080B582B0FFF7F8FF0346C8480A2100910190954801894289120451188289012036
:2053A00000F0AEF802B080BD80B50448012101702E480021017001F087F880BDE814002083
:2053C000000A800170470006000C704780B582B000F012F80346B5480A2100910190A0200E
:2053E000814A105AA0325188090409189288012000F086F802B080BD80B53221322800D84D
:2054000008460EF09BFC4006400C80BD10B582B0164C20780021172803D0FF2803D1052096
:2054200021E008461FE0C1006F4A535C002B16D09E480A2300930190505A531859880904AA
:2054400009189A88DB88012000F05AF801460320052907D0002907D12178491C03E0411C95
:20546000032000E0FF21217002B010BD79100020B0B582B00C468D490A2200920191C00081
:2054800059490A5A0818418809048918FF22914382880120054D2B4600F060FF002801D044
:2054A00002B0B0BD2988218002B0B0BD80030020B0B582B07D4B0A2400940193C0004A4BAF
:2054C0001C5A181843881B041C19064D5540C3880B432B4082880120214600F011F802B0DE
:2054E000B0BDC046FFFF00002D2189010006800C401870472D218901000A80014018704750
:20550000F0B583B015462A4A138002AA1380294E3278D2070FD1654A0A2300930192AAB2DA
:20552000234B00F01BFF05283AD0002830D13078401C30702CE0099A089B00930192FF2256
:205540009143AAB21C4C234600F008FF052827D000281DD1290AC9B200290ED000250A46EF
:205560002B4603E05B1CDDB2A94207D902AF7F5D655DBD42F6D1521EF4E70A46110602D06D
:205580003178491C01E00021C9433170052806D03078FF2801D1002002E0062804D305207E
:2055A0000021317003B0F0BD032003B0F0BDC04684030020860300208203002080B582B0E4
:2055C0000B463A490A2200920191C00006490A5A081841880904891882880120FFF790FFED
:2055E00002B080BDDD360108306C0108B0B582B02B4C2268002A04D08A4203D0042002B0F0
:20560000B0BD216027498A69274D2A6001222A70094B18808A8BAA80296824480A25009592
:205620000190022000F09AFE052801D00028E6D10021216002B0B0BD88030020DD360108CA
:20564000F0B583B00C46164E3168002904D0914203D0042003B0F0BD3260C00011490A58EE
:20566000114B1A6000271F70081882889A8019680E480A230093019002200D4D2B4600F055
:205680006DFE052806D0002807D137602988218003B0F0BD37600749218003B0F0BDC04665
:2056A000CC03002084400108C4030020DD360108AC030020FEFF000080B509F0CBFE04481C
:2056C0000449016002F0A8FC04F020F8002080BD200000200090D00310B5052109070A680D
:2056E00000281BD00F4802400A60FF20A6300A6802430A604A68132082434A60CA683023A5
:205700009A43CA60CA6810241443CC608A681A438A60886111200002086210BD024802437E
:205720000A6010BD00FCFFFFFF0300000F210A0405490B6893430B60002804D00520400491
:205740000A6802430A6070470004005080B5816901220A43826103F08DFE80BD70B5154670
:205760000E460446806901218843A061204603F081FE284630430CD41020205EB04208DD96
:205780001220205EA84204DD09208101204603F04DFE70BD1B4801681B4A914223D30021F7
:2057A0000160AA480178002901D0491E06E03B210170A5480278002A16D0511E0170A848C2
:2057C0000178002901D0491E06E03B210170A3480278002A0FD0511E0170012040030B4936
:2057E0000A8802430A8070470170954801780029DBD16321E2E70170964801780029E2D104
:205800006321E9E778110020E703000000070020F0B585B0194D2C7800F012FC844214D0EE
:2058200000F00EFC801EC1B2042904D840B2800014A1085800E0124817490C68174907F068
:2058400019FE0146204608F081FA154E3288154F388890420BD06C4613A12046FEF7CEF89C
:20586000134800680021CA43214608F06FFD00F0E7FB28703088388005B0F0BDED0400201F
:20588000964C01088C5F0108DE6501083A590108E852010844460108C8070020EA7F01080A
:2058A0008E100020580400202534642525200000DC070020B0B51048006810A10024224622
:2058C00008F044FD0F4800680F49224608F03EFD0E4800680E49224608F038FD5C48006827
:2058E0000C4D2946224608F031FD5E4800682946224608F02BFDB0BDE0070020496E697445
:20590000204F4B00E4070020FA7F0108E8070020ED7F0108E17F010810B504460A210EF01B
:205920000DFA88490A6882420AD10920C04350430119064800680022D24308F073FC10BD84
:20594000824A01231370086010BDC046FC07002080B506480178002906D00022027004489B
:205960000068044908F0F2FC80BDC046EE040020E00700204F000020F0B583B030480078F9
:2059800002900A2421460EF0D9F907462D48077005462D480078019021460EF0CFF9064695
:2059A000E8702A480578284621460EF0C7F9254A907167430299C91B517066430199891BCC
:2059C00011716043281AD071104615460DF0CAFD1F48006800220292294608F0B7FC1D48A6
:2059E0000078019021460EF0A9F905461A4F38701A480078009021460EF0A0F90646F8701F
:205A000017480778384621460EF098F9124A907165430199491B517066430099891B117108
:205A20004443381BD071104614460DF09BFD0D4800682146029A08F089FC03B0F0BDC04663
:205A4000E506002031000020E6060020E7060020EC0700203F1C002081000020401C002026
:205A6000411C0020F007002080B501208006074908600748016820220A430260416880220A
:205A80000A43426003F0B2F880BDC046180400500C18024080B5014602483022FEF74AFA14
:205AA00080BDC046D8030020B0B50D4604460AE020790121814022680A432260401C2071FA
:205AC000207906280FD220792946C140C907F5D002F07AFD002804D00528E9D00328EFD14A
:205AE00008E02079EAE70021217120682160002800D00520C0B2B0BD10B5854801780A0780
:205B00000FD5F722114001700E490A68521C0A2353430D4C2488A34203D20C4B01241C7005
:205B20000A6001784A070BD5FB221140017005480168002904D0054A01231370491E016001
:205B400010BDC046C0030020AA040020EA04002010B50023002A07D09C000C59844203DC24
:205B60005B1C9342F8D31346D8B210BD80B50120C1020348FEF7DAF902480021016080BD29
:205B8000680800206408002084B000200390C7433E4C3F4D019706E01F4603963B4C3C4D56
:205BA000204607F05DFD07F05BFE3748394607F0B5FD07F003FE0646204607F044FD2D68C0
:205BC000002D5ED0334800680290019B2C46039A02E06469AC42DFD0278A78071BD4B80720
:205BE0000DD4964206D3A168914201D3B14212D9964204D2A16891420DD2B1420BD900281D
:205C0000E7D4A068801B9842E3D202990EF096F8039A0346DDE7F8070ED0E16800290BD09C
:205C2000B80706D48D19A068281AFEF711FA681AA0600420874311E06069A0420BD0A169EA
:205C400081616069A16948610027A54206D160690F49086002E000270D480760278225687D
:205C600064680A4F384607F0FBFC2046A84707F0A5FD0646384607F0E6FC05480568002D1B
:205C8000A0D10396019F89E76C2500205C1100206C110020341C0020B0B51A480A2107F0B6
:205CA00015FB194A1060018809239B01994227D1164909684068401A43424341144801782D
:205CC00001240C401C43F0230B40E3180224114D2D6812685268AA4200D00C40E318042423
:205CE0000D4D2D68AA4200D00C401B1908240B4D2D68AA4201D0214000E021465918017019
:205D0000B0BDC0463008002070110020B8070020B4030020BC070020C0070020C4070020AC
:205D2000F0B585B00446008A40210291884320826068026B03A92046904700281ED003AA73
:205D4000D0880F210140D18065686E88F20728D01822AA5E0192042203AFBA5E1427EF5F27
:205D60002B46162500935D5FBD4209DD019B9A4212DD1A21009D695E8A4209DA05B0F0BD2C
:205D8000019B9A4208DA1A21009D695E8A42F5DC0E210840014602E001200143009D03A820
:205DA000C180B0052BD4F00506D503A8C088C00702D1A06803906CE0E769002F69D0384674
:205DC00005F033FC0190384605F02AFC034670073ED41E46384605F026FC872149008842EF
:205DE00023D0B428334629D05A2831D103A84188039A4280C943019A5118018028E003A8C7
:205E0000C088E289424001211140208A820706D40029C8D002210843208205B0F0BD022276
:205E2000904320820029A9D0BDE703A84188039A0180D14333467118418009E00398C043B7
:205E40000199081803A908804888C04318184880208A40071DD503A8008800B2002807D4BE
:205E60000199884207DB0846481E03A9088002E003A800210180022003A9085E002805D490
:205E8000984206DB581E03A9488002E003A800214180208A810601D5223500E01C3504213A
:205EA000695E012917DB0A22A25E02232F4603ADEB5E9E1A76430823E35E2D882DB2ED1AC8
:205EC0006D43751949438D423D4604D291B29AB203AB59801A80C10716D00222A95E01291D
:205EE00012DB1423E35E03ADAA5ED21A52431223E35E2D882DB2EB1A5B43D21849438A4215
:205F000002D901218843208203A8C288E089114681439043CB0703D010231A4303ABDA808E
:205F2000012506462E4004D003AAD38820271F43D78087B288070AD00398608203A8408813
:205F4000A08207F03BFCA061208A28432082BF072ED0208AC1072BD0A843208207F02EFC5A
:205F6000A169451AA5614B208000019007F06AFB85420DD8002F04D503A8C18880220A4343
:205F8000C280002E04D003A8C188029A1143C18060684088C0070BD0A5690198C83007F0D0
:205FA00051FB854204D303A8C18880220A43C2801648002107F0B6F900280DD00546134EFC
:205FC00003AA2846214601F0D1FE3046294607F0A9F905460028F3D10021204607F0A2F9B1
:205FE00000280CD0054603AA2846214601F0BEFE2046294607F096F905460028F3D10398F6
:206000000499A060E16005B0F0BDC0463C04002009490B6818490978FE220A4007490978F8
:206020001B0601D402231943022A01D004221143C9B2405C7047C04610000050900400208A
:206040000D480078FE210140022905D10B4800880A2803D20120704706207047142801D26C
:2060600002207047322801D2032070475A2801D305207047042070474C0000208E10002009
:20608000014800787047C0465606002070B54D4841698A0718D54C4A5379002B06D05B1E48
:2060A0005371DBB2D218927842620DE01379002B0AD01478002C07D1444C25686E1C2660BC
:2060C0002C785B1E13714462012293024C062ED44C0748D40C0652D48C0660D4CC0665D4F5
:2060E000194209D03B4C0425257083613B4B1A703B4B1C78641C1C708B050AD55302354CC8
:20610000042525708361354B1A70364B1C78641C1C70C9050AD511022E4B04241C708161E3
:206120002E48027030480178491C017070BD0468254D2D78002D06D005681C4205D09403C6
:2061400025432C460CE0950309E0FF242404A543056004681E4D25430560550304682C4389
:2061600004604C07B6D5194C25686E1C2660046A2C70154C25796D1E25710C06ACD5124CC0
:206180002479012C01D06E4C00E06C4C05682540056014040568254305608C069ED50D4C2B
:2061A0000025257020248461CC0699D5094C0425257010248461084C25786D1C2570194226
:2061C00090D199E7045400407310002068110020000401016C100020D70300206A100020D4
:2061E000D5030020D1030020D303002070B5504841698A0718D54F4A5379002B06D05B1EF9
:206200005371DBB2D218927842620DE01379002B0AD01478002C07D1474C25686E1C266057
:206220002C785B1E13714462012293024C062ED44C074DD40C0657D48C0665D4CC066AD47F
:20624000194209D03F4C0325257083613F4B1A703F4B1C78641C1C708B050AD55302394C57
:20626000032525708361394B1A703A4B1C78641C1C70C9050AD51102324B03241C70816178
:206280003248027034480178491C017070BD0468284D2E78002E06D006681C4205D0940357
:2062A0002643344611E095030EE006604124A4020668264306602C79022C03D314060568A6
:2062C00025430560550304682C4304604C07B1D5194C25686E1C2660046A2C70154C257976
:2062E0006D1E25710C06A7D5124C2479012C01D0134C00E0114C056825400560140405689E
:20630000254305608C0699D50E4C0025257020248461CC0694D50B4C03252570102484610B
:20632000094C25786D1C257019428BD194E7C046045800406D10002064110020FFFFFFFE4C
:20634000FFFF00FF6B100020D603002068100020D4030020D0030020D2030020F0B583B05D
:20636000504E3578062D19D8AC0001A73C59A7468D630008A9630008C3630008DF63000854
:20638000ED63000821640008496400084848006846490860681C307003247FE0002030700A
:2063A00006F0DCFA012479E04048026840490B689A1A0324032A71D36A1C3270096801605F
:2063C0006CE006F0D9FA042851D801218140192001424CD03078401C307003245EE0324855
:2063E00002210170681C3070032457E0304C24682E4D2C6094B2240AD2B200AD1CC52D4A7B
:20640000155C2D4A125C48B22C4B1C5C0B0C2846214608F085F83078401C307003243DE0F4
:2064200006F0AAFA042813D0002815D106F090FA00282AD01C480178491E0170080629D047
:2064400004203070032429E0681C3070052425E006203070032421E0144800681449096876
:20646000081A03241F2819D30620307016E00F4800680F490968081A03241F280ED306F0F5
:206480006DFA3078401C307008E03078801C3070002403E03078401C30700324204603B03A
:2064A000F0BDC046200400202804002024040020C0040020546D0108576D01085C7E0108F3
:2064C00080B500F001F880BD01480021017070472904002010B501204105064A13680B433D
:2064E0001360054B1C6884431C6010688843106010BDC0463C1002400054004080B508F03D
:20650000D7F880BD10B504462034204605F07BFB002802D0204605F02FFB10BDF0B58DB00D
:20652000064612200790305E0B901020375EF0890C90B0890A9007F0F5FB05463446203470
:20654000204605F060FB00282FD00A9A099506200694235EBB4235DAF81AC10F401847103E
:20656000D519380409990B9C0DD0B0680094019111B20C9A12B20A951D463BB204F014FE6B
:2065800009992B460A9DB068328A00940191E91809B20893DB19D21A13B20C9A12B204F0ED
:2065A00003FE00200590224618E0B0680B99009101950A9909B20C9A12B23B4604F0F4FDB4
:2065C0000DB0F0BDBB4204DDD81BC10F4018401000E000200590089715460B9A2820345EFA
:2065E000944229DA0798305E001BC10F401847100C9BDB1938040C930BD00E20325EB068D4
:2066000039B200910999019129B2089B04F0CCFD0C9BB068718AE219891A09B20091099F43
:20662000019719190AB229B2089B04F0BDFD394600200B902F460BE02F46944204DDA01A28
:20664000C10F4018401000E000200B9014460999069D284605F078FDB0680B9909B2059A9A
:2066600012B2089B00930194029203913AB20C990BB2294604F0DCFF0DB0F0BD80B588B000
:206680000948008801B2B1486A4600F0F5FF002801D008B080BD019816210DF04FFB17497C
:2066A000088008B080BDC04618040020F0B581B0114B00255D609D60DD60104C20880028A1
:2066C00016D000252F460095B8B21E4600F00EF933467068009E5E6099689E60DA68DE60B4
:2066E000401A401C504345197F1C20888742EBD30348056001B0F0BDA0140020AA04002079
:20670000CC040020B0B5044605464035284606F0ADFF002806D006F03BFF284606F0A6FFD3
:206720000028F8D1204602F057FDB0BDF0B583B00446828642860186876938071DD415465B
:206740001020205E1238884213DCE0690021009105F03EF9801C01B21220265EB01E00B2DC
:20676000019002910DF00CFBA16B7A0707D4814205DC2046294600F069F803B0F0BD132D1F
:206780000CDCE06B01280299F7DB401AC1178843E063204602F06EFE03B0F0BD304614380A
:2067A000A8420CDDF00F30184210E06B954212DA01280199E1DB401AEADC0098E8E7029ABD
:2067C00051430198081AE16B8142D6DA89188142DEDC0846DCE7029B4B43019D591B884275
:2067E000CBDA6A009A1A904200DA4119E163D0E7F0B581B00446007E000725D51546A08EAD
:2068000091B2884220D006B2E76BE0690021009105F0DEF8711B7918E1631222A25E801C7A
:20682000A36B4343981A801C814201DB401EE063E06B002801D50098E063A586E06B8742D3
:2068400002D0204602F016FE01B0F0BD70B50D460446C069002105F0BBF8E16B4A19801C9D
:2068600001B210460DF08CFA002825D40546A06B854221DA206C002817D0A26901210A4041
:206880002B4605E0002B0DD05B1E006800280CD0002AF7D18688002B01D08E4300E00E43B7
:2068A0008680F1E782884A408280204602F0E2FD2046294608F012FD70BD80B5037E1B074C
:2068C00012D53023C35E591ACB17C918594004290ADC3221415E891ACB17C918594004295D
:2068E00002DC1146FFF7B2FF80BD000070B505F027FF164C164908220023204600F0B8FF24
:20690000144E306005F0D6FE0546308801B2204600F040FE284670BDB0B505F011FF0B481A
:206920000B490822002300F0A3FF0A4D286005F0C1FE0446002802D105F034FF044628882A
:2069400001B2024800F026FE2046B0BD14070020930400200C07002010B5234C2078062834
:2069600018D8C0467844007940008744030A161D262D3200012020701D48016880220A43AE
:20698000026008F0C7F8002829D11B48FFF740FB207024E00020207021E0032020701448D4
:2069A000016880220A43026008F0B4F8002816D11048FFF72DFB207011E0FEF737FC002823
:2069C0000DD1052020700AE00848FFF721FB207005E0FEF76DFC002801D10020207007480C
:2069E00000780749087010BD4D000020246D010810180240146D01081C6D01084C00002091
:206A0000BC04002010B514460A468168C068091810462246FDF724FA204610BD0020C043CF
:206A2000704710B514468268C06810182246FDF717FA204610BD0000B0B5214C2278012A0F
:206A400016D0002A17D11F4D2978C840C00721D0084601F065FC0321052822D0002817D17E
:206A60002878401C28702078401C2070C8B2B0BD501C207012E00020207012490A78132A5F
:206A80000CD30870104A11681060002900D00521C8B2B0BD501C2070481C28700321C8B2C0
:206AA000B0BD2878421C2A702278521C2270012282400548036813430360C8B2B0BDC046F4
:206AC000390400203804002094100020F0B581B00E490E5C142070430D4A1718274800784E
:206AE000085C80003C580B4D28462146FEF7DCFF0028F9D1B0003C58064D28462146FEF7CE
:206B0000D3FF0028F9D1002001B0F0BD0C6D0108544201080C04002080B507F085FE002013
:206B2000C04380BD10B56D20002105F03BFD002813D0044609E02046FFF7F2F86D202146FD
:206B400005F030FD0446002807D0606840888007F1D5208A4006EED4F0E710BDB0B5074DDE
:206B60002A78002901D1824300E00243072414402046FFF7ABFF2C70B0BDC0465B0400207B
:206B800000220A60024608CA002B02D01368104600E013461960016070470000024800214C
:206BA000016041607047C046E014002001460068002802D002680A607047002070470000F7
:206BC00010B582B0274C207804280BD87844007940008744022702301400002000900D2117
:206BE000234A24E0642819D0652836D11E48002101801E4801802170052002B010BD0020D7
:206C000000900E211A4AFF2301F068FB0146032005291ED0002923D164211BE00020207008
:206C200002B010BD0120009000200C21114A0B2301F054FB04E000200C490B4A01F07EFAF7
:206C400001460320052904D0002909D12178491C00E06521217002B010BD0020207003207E
:206C600002B010BD71040020D4040020320400205D0400208A000020B0B5314D28780428D8
:206C800013D8C04678440079400087440232163E2200052030492C4AFEF7D2FC01460320D8
:206CA000052945D000293FD0B0BD64281ED0652841D1002028700520B0BD01202449224A8F
:206CC000FEF7BEFC01460320052931D000292BD0EAE70B201B49FEF7CBFB01460320052995
:206CE00026D00029E0D164212970B0BD00202870B0BD00201749144AFEF7A2FC0146032039
:206D0000052915D000290FD0CEE702200D4C0E4A2146FEF795FC01460320052908D000294A
:206D2000C2D12188094A11802978491C2970B0BD65212970B0BD002028700320B0BDC0464D
:206D4000720400202E1C002015EB00088E100020D2140020901000208C10002080B5012095
:206D600002F094FA80BD0000024800780249085C7047C0464D000020B842010870B57D20F6
:206D8000C20022480068831821480178E74C2568AB4203D2012905D1002102E0002901D162
:206DA000012101701B49097800292ED01A490378002B04D10B78012B01D102230370174BDB
:206DC0001B78174D2B70174D2D68AA182468A2421BD2154A14789C4217D0144C1D196C1E39
:206DE0002478252C10D1AD1E2E78442E01D101260E70252C08D12C78542C05D100240C70A7
:206E00000178022900D10470137070BD881000205A040020F1050020F0040020E91400205C
:206E2000EB14002084100020EA140020F1040020B0B543480078002802D1424900220A70C2
:206E4000404C217808296DD87944097949008F4404091421495A696C7100002869D001208F
:206E60002070B0BD04200121FFF778FE09F028FE00F07AFB02F052FD51E038483AA10822E8
:206E8000002300F0F5FC3449086000F04DFB03202070B0BD00F060FBFFF770FF2A48007817
:206EA00000280BD02C48008801B22C4800F072FB04200021FFF752FE072020702349086831
:206EC000234A13681B1A264DAB4203D31368254D5B190B601168081A1E49884229D20420A8
:206EE0002070B0BD00F038FBFFF748FF00F00AFB00281ED01848008801B2184800F04AFBFA
:206F000005202070B0BD00F027FBFFF737FF0F4800680F490968081A0E49884209D9022042
:206F20002070B0BD0020207003E007480078002803D0B0BD00202070B0BD08202070B0BD50
:206F4000EC040020FA1B00209104002024000020C0040020A0860100180400201407002071
:206F6000410D0300C0F2FCFF667265712E706C73000000000B480078401F022801D30020A0
:206F8000704701207047C046064800780149085C7047C046BF42010802480078C11E4842F6
:206FA00048417047FA1B002070470000B0B5904D28780A2810D8C046784400794000874463
:206FC000050F1B2840525A6171786F005C48007800280FD10020B0BD002028700020B0BDBF
:206FE00058480188002974D055490978002970D000210180022069E0022001242146FFF7C2
:20700000ADFD00F0DDF84D4804700A2006F0C0FB2FE0FEF7FDFBFFF7BFFF002867D047487F
:2070200001780022027044480278531E9A410A4301211140017058D003F0E4FC0420287009
:2070400055E0FFF7A9FF002813D003F0E1FC05285CD000285CD1364800680021CA43354942
:2070600006F0EAFE54E0FEF7D3FBFFF795FF0028B0D003202AE000F067F802200021FFF754
:207080006DFD0DE02748006827490978002901D00821297025490968081AC0087C2899D837
:2070A000012013E0092028701D48016820220A4302601C4800681C490978002905D01B4928
:2070C0000968081AC0087C2884D80A2028700020B0BD1448006815490968081A7D21C900EA
:2070E000884200D876E70720F0E700F08DF81448007801214140134802880A4300D169E754
:2071000006212970002101800020B0BD032028700948002101700A2006F03AFB0020B0BD00
:207120000C180240B003002092040020C0040020FC070020E8060020EB040020EA0400202E
:20714000EC0400205206002080B506F00BFA002080BD000070B5FEF709FD06F05DFA13A0FA
:2071600004F0F6FF07F0AAF811480024214607F0ABF8104E3068104903F0CEFE02F0E6FC2D
:2071800002F062FE02F06AFD02F040FD0B4D284606F0FAF8284606F0A9FC3068022132224F
