:020000040800F2
:20000000800E0020890100089101000893010008000000000000000000000000000000006A
:20002000000000000000000000000000950100080000000000000000970100084D06000827
:200040009B010008000000009B0100089B0100089B0100089B0100089B0100089B01000824
:20006000000000009B0100089B0100089B0100089B0100089B0100089B01000800000000A8
:200080009B0100089B0100089B0100089B0100089B0100089B0100089B0100089B01000840
:2000A0009B0100089B0100089B0100089B0100089B0100089B01000800F002F800F039F85D
:2000C0000CA030C8083824182D18671EA246AB4654465D46AC4201D100F02BF87E460F3E3C
:2000E000B6460FCC0126334200D0FB1A3343A246AB46184724120000341200000023002437
:2001000000250026103A01D378C1FBD8520700D330C100D50B6070471FB50098019900F060
:20012000CAF900F009F91FBD10B5002000F061F910BD00F083F91146FFF7EEFF00F0FCFDA3
:2001400000F013FA03B4FFF7EFFF03BC00F0F2FD70B505460C46164602E00FCC0FC5103E6C
:20016000102EFAD2082E02D303CC03C5083E042E07D301CC01C5361F03E021782970641C04
:200180006D1C761EF9D270BD0748804707480047FEE7FEE7FEE7FEE7FEE7FEE704480549A6
:2001A000054A064B7047000061060008B900000880080020800E0020800A0020800A00200E
:2001C000704710B50B460146184600F0C8F810BD0346F0B50B439B072DD1244DEF01042AC5
:2001E00029D308C810C95E1B9E43121F3E4017D0D8B2E1B2401A3106014310D198B2A1B2FA
:20020000401A310401430AD118022102000A090A401A3102014302D1180E210E401AF0BDD6
:20022000A342DCD018BA21BA884201D90120F0BD0020C043F0BD002A01D10020F0BD0378FA
:200240000C78401C491C002B0DD0A3420BD1521E09D003780C78401C491C002B03D0A342A4
:2002600001D1521EEBD1181BF0BD000001010101F8B5042A2CD3830712D00B78491C0370FB
:20028000401C521E83070BD00B78491C0370401C521E830704D00B78491C0370401C521E81
:2002A0008B079B0F05D0C91ADF002023DE1B08C90AE0FFF74DFFF8BD1D4608C9FD401C46AA
:2002C000B4402C4310C0121F042AF5D2F308C91A521EF0D40B78491C0370401C521EEAD4CE
:2002E0000B78491C0370401C012AE4D409780170F8BD01E004C0091F0429FBD28B0701D58E
:200300000280801CC90700D00270704700290BD0C30702D00270401C491E022904D3830795
:2003200002D50280801C891EE3E70022EEE70022DFE770477047704770B5064C7C44064DC9
:200340007D4404E02046016808188047241DAC42F8D170BDE80F0000E80F00007047F8B5CB
:20036000074615460E46102000F012F8040009D06760A660E56000F007F80168216004602B
:200380000020F8BD0120F8BD004870473800002070B5064600F072F8056830460B30C408A6
:2003A000E400B44201D8002070BD68682A46002818D00168A14211D30B46214608318B42FF
:2003C00008D3436801194B6003681B1B0B605160046001E041685160001D70BD024640683C
:2003E0000028E6D12146284600F050F80028DCD170BDF8B50646FFF7C7FF0090054615E08A
:20040000002E02D0E068B0420FD1206828600098A168076860688847204600F080F80098A5
:200420000068B84202D00098E8E725462C68002CE6D1F8BD00487047000000207546FFF7BA
:20044000F9FFAE46050069465346C008C000854618B020B5FFF7A2FE60BCB6460026002778
:20046000C0C5C0C5C0C5C0C5C0C5C0C5C0C5C0C5403D490849008D467047000000487047B4
:2004800008000020704770477047704738B504460A4600206946C046C046002805D00246B1
:2004A0002046009900F069F8012038BD10B5012000F083F810BDF8B5C046C0460546002094
:2004C0000C461020C0460646A819A0420DD9324669460020C046C046070001D100F06DF83E
:2004E0000098A04200D00546C419FFF7C7FFF61D07460560F008C0004619284600F008F894
:20050000B44204D031463868A21B00F036F8F8BD002101604160806070471020704770B5A4
:200520000446051FFFF7AAFF0068002C1AD0446801E020466468002C01D0AC42F9D3016851
:200540000A18AA4204D12A6805468918016000E0456028684119A14205D161686960216896
:200560004018286070BD6C6070BD10B50446C046C0462046FFF7E6FD10BD10B50346406898
:2005800001E003464068002801D08842F9D31868C3188B4206D0CB1CD808C000001D411AFD
:2005A000521A0146081D0A60FFF7B9FF10BD10B5002801D000F0BEFB10BD10B500F01EF87F
:2005C000FFF7F5FF10BD70B505460C460A2000E06D1C00F0B0FB002D06D028780028F7D1E1
:2005E00002E0641C00F0A7FB002C02D020780028F7D10A2000F09FFB70BD000010B50128B2
:2006000005D0002103A0FFF7DEFF012010BD09A1F8E7000053494752544D454D3A204F7571
:2006200074206F662068656170206D656D6F7279000000003A2048656170206D656D6F72C2
:200640007920636F727275707465640080B503480168491C016000F0FBFA80BD78080020B8
:200660000120C0060F4908607047C04680B500F04FFB80BD80B50120800208490A6882430A
:200680000A60EFF3108072B605484168026882F30888044A1060884780BDC04614040050B9
:2006A0000018000808ED00E0F0B584B0009101900292D3075DD1012005042F4B1E1F37682E
:2006C0002F42FBD137687F03FCD41F68002F05D519460C39294F0F60294F0F6037682949D9
:2006E0000F4337601F68022427431F603F27FF0001990A0A3A4039461F688F43BF181F60C0
:200700001F682F431F6037682F42FCD137681D490F4337601F68A7431F6003A900270F8044
:200720000F88029A974220D21F6807431F6003AF3C880722944300990A1952680C593F8853
:2007400001997C507C18626032682A42FCD13268024332601A6882431A60039A083203AC52
:2007600022802288029CA242DED3C00719680143196004B0F0BDC046142002402301674548
:20078000AB89EFCDFB83000010B5054C0548606000F00AF80020A0600720206010BDC0463C
:2007A00010E000E07F3E0000FF20000603490A6882430320800710180860704720ED00E026
:2007C00070B5002917D00D4D00220D4B03E0521C8A4225460BD0845C6C40082502E0344698
:2007E0006D1EF4D06608E407F9D05E40F7E7E04300BA000C70BD002070BDC046FFFF0000A5
:200800000884000009480168032211430160100507490A6882430A60012002050B681343C1
:200820000B6080024A6982434A6170473410024000040050F0B5B5B0009316460D4607467E
:2008400009ACB0212046FFF772FD80213846224600F0C2F8012E08D0002E4BD109A90A22E7
:20086000284600F069F835B0F0BD009E002E41D00020089007900690059028786978090244
:200880000818A978EA78120251180904081801902879697909020818A979EA7912025118CA
:2008A000090408180290287A697A09020818A97AEA7A12025118090408180390287B697B7E
:2008C00009020818A97BEA7B1202511809040818049009A90A22284600F02EF81024284622
:2008E00031462246234600F067F801A930462246FFF7BEFC35B0F0BD10B581B003796A4675
:20090000537003781370037A9370037BD37001235C1A03231C40145D04710224641A1C40D3
:20092000145D04725C1A1C40145D047349421940515C017001B010BDF0B581B016460C4612
:20094000054610010918284600F016F8022E08D3761EF7B238012118284600F0E7F8012F87
:20096000F6D80020215C2A5C4A402A54401C1028F8D101B0F0BD000010B5044600200A5C2E
:20098000235C53402354401C1028F8D1601C0121FFF7B2FFA01C0221FFF7AEFFE01C03218A
:2009A000FFF7AAFF0020A949225C8A5C2254401C1028F9D110BDC04610B5884200D81346BB
:2009C000002B08D00A780478544004705B1E401C491C002BF6D110BDF0B589B01346079245
:2009E0000D460146EA081846FFF742FC68090190C1B288001C30C0B20490059188426DD9E4
:200A000000200390059C019F3B463CE008AD284602961E4600F06CF86878314B185C68702A
:200A2000A878185CA870E878185CE870039AD0B22CA1085C2978595C414029700198361837
:200A40003546029E521C03920598201A8000079B195C18184278120251188278C07800026F
:200A60008018000440180899414006981954080CB070080EF070080A70707F1CFCB20498D4
:200A8000A0422B462AD9A50007982E18301F01784278120251188278C078000280180004A7
:200AA00040180890D8B2F9B281420695AED005981D460828C8D1072020400428C4D108A874
:200AC0000178074A515C01704178515C41708178515C8170C178515CC170B5E709B0F0BD67
:200AE0001611000801020408102040801B3600000178427802708278C37883704270C170C7
:200B0000704770B500231C4645B2ED09154046006E4001250D406D4205406B40651C49085A
:200B2000072C30462C46EFD3D8B270BDF0B58FB00024025D0B5D53400BAA1355641C102CE6
:200B4000F7D1029000260BA88119CD788A780A9213466B400093805D4A7807920146044685
:200B600008905140019108465840C1B209201B273A460397FFF7C5FF069020460A994840FB
:200B8000C1B2042420463A46FFF7BBFF099007986840C1B220463A46FFF7B3FF044606985B
:200BA000444027466F4008984540E9B202200590039D2A46FFF7A5FF7840029989190491EA
:200BC000C870099F06994F4009970A9847400098C1B205982A46FFF794FF78400499887050
:200BE00007994C400A984140C9B2059D2846039F3A46FFF786FF6040049948700898099C44
:200C000044400198C1B228463A46FFF77AFF604002998855361D102E95D1029C601C01219C
:200C2000FFF76AFEA01C0221FFF766FEE01C0321FFF762FE0020054923461A5C8A5C1A5406
:200C4000401C1028F9D10FB0F0BDC046161200082D480168491C01607047C046B0B52A495B
:200C60000A680C4BD2180F4B1C68A4060CD40C689442F9D91C6800220121A40706D55C682B
:200C8000022525435D6001E09A68002102700846B0BDC0468813000002490A685206FCD550
:200CA000C86070471C38014070B501468C4803680122134303600F239B04052425072E687D
:200CC0009E432E60E3042E681E432E6011231B016E6A1E436E629203C3681343C360064859
:200CE00000F016F90549C8602003886008680D2202430A6070BDC0460024F4000038014062
:200D0000014900220A607047600000207047000010B5054C2046FFF7F3FF0448044A2146AA
:200D2000FFF74FFA10BDC046760800200D0D000800000008FEE770478AB0FFF791FCFFF78A
:200D400023FD67480168012739430160FFF75AFDB902644A1068019108431060624C63A129
:200D60000E222046FFF734FA4542454100280AD105A90020887388810790069005900F22E4
:200D80002046FFF791FC4B200002FFF78DFFF8020290812000010490039707E0BA20FFF768
:200DA0007BFFC220FFF778FF039F3D4609A800260670FFF753FF002803D0E807F6D1FFF709
:200DC00059FC01208002474A11688143116009A80078BA283D46E9D109A8FFF73FFF002887
:200DE0003D46E3D109A80078FB2801D1FFF742FC09A80078BF283D46D8D1404D28464049AA
:200E0000FFF795FA0498871C03E07F1E6D1C002F16D0F00714D12846FFF720FF0028BDD1DB
:200E20002878BA28F1D105AC002020702046FFF715FF21784A1E91410E4306430028E4D054
:200E4000F007ABD1049D2D4E705B000404BA029910313046FFF7B4FC84429FD10024089488
:200E6000079406940594274F3119012205AB3846FFF7E0FC1034A4B2AC42F5D33488002095
:200E80003080B01C02990E31FFF79AFC210409BAC22581421BD1F078B178090208181A49D3
:200EA000884214D10F4A1068019908431060706800BA3B21C9028842039F09D813494018A3
:200EC00010363146029AFFF7EFFBC12500E0039FBA20FFF7E1FE2846FFF7DEFE3D4665E7B3
:200EE0003410024014040050F0FF01087A6572644067656E657261746F72000064000020CC
:200F00001208000006110008717A00000018000843088B421AD3002203098B4279D3030A34
:200F20008B425ED3030B8B4242D3030C8B4227D30902FF2212BA030C8B4202D31212090215
:200F400003D0030B8B4233D31AE0D3E0411A8041401C704703460B4371D443088B42F5D345
:200F6000002203098B4254D3030A8B4239D3030B8B421DD3030C8B4202D394466EE0090AB2
:200F8000C30B8B4201D3CB03C01A5241830B8B4201D38B03C01A5241430B8B4201D34B0340
:200FA000C01A5241030B8B4201D30B03C01A5241C30A8B4201D3CB02C01A5241830A8B4298
:200FC00001D38B02C01A5241430A8B4201D34B02C01A5241030A8B4201D30B02C01A524173
:200FE000CDD2C3098B4201D3CB01C01A524183098B4201D38B01C01A524143098B4201D399
:201000004B01C01A524103098B4201D30B01C01A5241C3088B4201D3CB00C01A52418308C2
:201020008B4201D38B00C01A524143088B4201D34B00C01A5241411A524110007047CA0FE5
:2010400000D04942031000D34042534000229C4603098B422DD3030A8B4212D38901FC22F6
:2010600012BA030A8B420CD3890192118B4208D3890192118B4204D3890137D0921100E031
:201080008909C3098B4201D3CB01C01A524183098B4201D38B01C01A524143098B4201D305
:2010A0004B01C01A524103098B4201D30B01C01A5241C3088B4201D3CB00C01A5241830822
:2010C0008B4201D38B00C01A5241D9D243088B4201D34B00C01A5241411A00D20146524121
:2010E000104663465B1000D34042704763465B1000D3404201B50021004201D0C9430846CD
:20110000C046C04602BDC878EA3C37AA588C8C1CE15D66A8B0BD637C777BF26B6FC53001E5
:20112000672BFED7AB76CA82C97DFA5947F0ADD4A2AF9CA472C0B7FD9326363FF7CC34A549
:20114000E5F171D8311504C723C31896059A071280E2EB27B27509832C1A1B6E5AA0523B96
:20116000D6B329E32F8453D100ED20FCB15B6ACBBE394A4C58CFD0EFAAFB434D338545F91B
:20118000027F503C9FA851A3408F929D38F5BCB6DA2110FFF3D2CD0C13EC5F974417C4A707
:2011A0007E3D645D197360814FDC222A908846EEB814DE5E0BDBE0323A0A4906245CC2D3DB
:2011C000AC629195E479E7C8376D8DD54EA96C56F4EA657AAE08BA78252E1CA6B4C6E8DD17
:2011E000741F4BBD8B8A703EB5664803F60E613557B986C11D9EE1F8981169D98E949B1EE0
:2012000087E9CE5528DF8CA1890DBFE6426841992D0FB054BB1652096AD53036A538BF405B
:20122000A39E81F3D7FB7CE339829B2FFF87348E4344C4DEE9CB547B9432A6C2233DEE4C87
:20124000950B42FAC34E082EA16628D924B2765BA2496D8BD12572F8F66486689816D4A40B
:201260005CCC5D65B6926C704850FDEDB9DA5E154657A78D9D8490D8AB008CBCD30AF7E4D3
:201280005805B8B34506D02C1E8FCA3F0F02C1AFBD0301138A6B3A9111414F67DCEA97F21D
:2012A000CFCEF0B4E67396AC7422E7AD3585E2F937E81C75DF6E47F11A711D29C5896FB719
:2012C000620EAA18BE1BFC563E4BC6D279209ADBC0FE78CD5AF41FDDA8338807C731B11210
:2012E00010592780EC5F60517FA919B54A0D2DE57A9F93C99CEFA0E03B4DAE2AF5B0C8EB4B
:20130000BB3C83539961172B047EBA77D626E169146355210C7D00002C13000800000020EE
:0C132000800E0000FC00000845F3FFFFF9
:20180000E0350020B5190008BD190008BF19000800000000000000000000000000000000FF
:20182000000000000000000000000000C11900080000000000000000C3190008E95F000892
:20184000C719000800000000C7190008C7190008C7190008C7190008C7190008B539000822
:2018600000000000C7190008C7190008C7190008C7190008C7190008C719000800000000F8
:201880007D600008CD600008C7190008C7190008C7190008C7190008C7190008FD3F000862
:2018A0005D410008C7190008C719000841660008C7190008C719000800F002F800F04FF812
:2018C0000CA030C8083824182D18671EA246AB4654465D46AC4201D100F041F87E460F3E0E
:2018E000B6460FCC0126334200D0FB1A3343A246AB461847103C0100303C0100103A02D309
:2019000078C878C1FAD8520701D330C830C101D504680C607047000000230024002500266F
:20192000103A01D378C1FBD8520700D330C100D50B60704710B5642902D100F095F810BDFA
:20194000002010BD1FB501F00BFC0400002000210FF05AFE401C60601FBD10B510BD01F0B7
:20196000ADFB1146FFF7EEFF0AF054FD01F0CEFB03B4FFF7F2FF03BC05F038FD70B5054689
:201980000C46164602E00FCC0FC5103E102EFAD2082E02D303CC03C5083E042E07D301CCEF
:2019A00001C5361F03E021782970641C6D1C761EF9D270BD0748804707480047FEE7FEE7EC
:2019C000FEE7FEE7FEE7FEE704480549054A064B704700006D600008B9180008E0230020B1
:2019E000E0350020E0250020E0250020704700000FB41CB5074B06AA7B4469460090059880
:201A000000F071FD0020694600F080FD1CBC08BC04B01847110B000070B50446856900689C
:201A2000C10601D5302600E02026C00707D070BD62683046A1689047206A401C20626D1EAF
:201A4000F6D570BD70B5044685690078C00707D170BD6268A16820209047206A401C20629B
:201A60006D1EF6D570BD0000F7B5002575291068009914A611D0C046C046002802DA404236
:201A800011A608E0009909688A0701D50FA602E0490704D50EA6012501E0C046C046009F10
:201AA0000024243704E001F0ADF830313955641C0028F8D12B4632462146009800F0B5FC44
:201AC000FEBD0000000000002D0000002B00000020000000F3B50446002081B020622046A8
:201AE000E168884700287AD0252802D06268A16871E0E16820460025884706460020E061C9
:201B00000746A0612A2E0AD030460FF076FD002827D0B8000019303E0090866119E00298F5
:201B2000BA00121902C8916102902046E1688847012F064617D1E06900281FDA202085431E
:201B40001CE000980A218069484300998019303888612046E168884706460FF04EFD002893
:201B6000EFD1012F0AD02E2E08D12046E16888470646202005437F1C022FC3DBA069002879
:201B800003DA4042A06101200543E80701D010208543002E23D030464138192803D8012077
:201BA000C00205432036204625603146029A1546FFF7C0FE00280BD0012806D0ED1DE808BC
:201BC000C000083002908AE709E02D1D029586E762683046A1689047206A401C7EE7206ADE
:201BE000FEBD00000FB400B58DB010A909900B900020C04300910A9000200C900748784473
:201C00000690074878446A4607900F9909A800F047FE0DB008BC04B018470000C30C0000EB
:201C2000DD0C00000EB5044615460E4612A000F0DFFF204600F0DCFF15A000F0D9FF30465B
:201C400000F0D6FF14A000F0D3FF6C460020E0720A20A0720A3407E00A21284600F0D4F96E
:201C600030310546641E2170002DF5DC204600F0BFFF00F0B3FF00002A2A2A2061737365A7
:201C80007274696F6E206661696C65643A2000002C2066696C6520002C206C696E65200019
:201CA000401ECAB24178401C8A4202D00029F9D100207047034670B502460B439B070FD147
:201CC0000E4CE60100E008C208C91D1B9D433542F9D0D9B21170521C00290DD01B0AF8E76C
:201CE0000B78491C1370521C002B05D00B78491C1370521C002BF3D170BD00000101010112
:201D000030B5441C03E00178401C00290DD08107F9D10B4BDD0104C8D11A91432940FAD07C
:201D2000001B0A0603D0C01E30BD001B30BD0A0401D0801E30BD0902FCD0401E30BD000046
:201D4000010101010346F0B50B439B072DD1244DEF01042A29D308C810C95E1B9E43121FE4
:201D60003E4017D0D8B2E1B2401A3106014310D198B2A1B2401A310401430AD118022102A3
:201D8000000A090A401A3102014302D1180E210E401AF0BDA342DCD018BA21BA884201D944
:201DA0000120F0BD0020C043F0BD002A01D10020F0BD03780C78401C491C002B0DD0A3420F
:201DC0000BD1521E09D003780C78401C491C002B03D0A34201D1521EEBD1181BF0BD00005D
:201DE00001010101421E5378521C002BFBD10B78491C1370521C002BF9D17047F8B5042AEF
:201E00002CD3830712D00B78491C0370401C521E83070BD00B78491C0370401C521E83071A
:201E200004D00B78491C0370401C521E8B079B0F05D0C91ADF002023DE1B08C90AE0FFF7E7
:201E40009DFDF8BD1D4608C9FD401C46B4402C4310C0121F042AF5D2F308C91A521EF0D4F5
:201E60000B78491C0370401C521EEAD40B78491C0370401C012AE4D409780170F8BDD2B2B8
:201E800010B513029A1813049A1800F00EF810BD01E004C0091F0429FBD28B0701D5028079
:201EA000801CC90700D00270704700290BD0C30702D00270401C491E022904D3830702D585
:201EC0000280801C891EE3E70022EEE70022DFE7F8B507460B4639461943890713D1164C98
:201EE000E601042A0FD302CB0D1B8D43354202D102C0121FF5E7CBB20370401C521E002B26
:201F000013D0090AF7E7002A14D01978521E5B1C0170401C002908D0002A0BD01978521E93
:201F20005B1C0170401C0029EDD1002A02D01146FFF7CAFF3846F8BD0101010182078B0712
:201F40009A423FD170B5920F0AD0032402780B78401C491C002A33D09A4231D12042F5D1DD
:201F6000214EF40104C808C9951B9543254018D19A420FD104C808C9951B9543254010D163
:201F80009A4207D104C808C9951B9543254008D19A42E7D012BA1BBA01209A4200D24042A5
:201FA00070BD12BA1BBA2DBA18241000E0401900E140401A05D12E00E64002D1083CF4D166
:201FC000D01A70BD02780B78401C491C002A09D09A4207D102780B78401C491C002A01D0BC
:201FE0009A42EFD0D01A704701010101002203098B4273D3030A8B4258D3030B8B423CD371
:20200000030C8B4221D312E003460B437FD4002243088B4274D303098B425FD3030A8B42AE
:2020200044D3030B8B4228D3030C8B420DD30902FF2212BA030C8B4202D31212090265D0EA
:20204000030B8B4219D300E0090AC30B8B4201D3CB03C01A5241830B8B4201D38B03C01A85
:202060005241430B8B4201D34B03C01A5241030B8B4201D30B03C01A5241C30A8B4201D38B
:20208000CB02C01A5241830A8B4201D38B02C01A5241430A8B4201D34B02C01A5241030A29
:2020A0008B4201D30B02C01A5241CDD2C3098B4201D3CB01C01A524183098B4201D38B0107
:2020C000C01A524143098B4201D34B01C01A524103098B4201D30B01C01A5241C3088B422F
:2020E00001D3CB00C01A524183088B4201D38B00C01A524143088B4201D34B00C01A52410C
:20210000411A00D201465241104670475DE0CA0F00D04942031000D3404253409C4600223B
:2021200003098B422DD3030A8B4212D38901FC2212BA030A8B420CD3890192118B4208D305
:20214000890192118B4204D389013AD0921100E08909C3098B4201D3CB01C01A52418309D3
:202160008B4201D38B01C01A524143098B4201D34B01C01A524103098B4201D30B01C01A8C
:202180005241C3088B4201D3CB00C01A524183088B4201D38B00C01A5241D9D243088B4221
:2021A00001D34B00C01A5241411A00D201465241104663465B1001D34042002B00D5494241
:2021C000704763465B1000D3404201B50020C046C04602BD7047704770470000F0B5FF2550
:2021E0002D04C609C209FF2704462E400137CB093E4348402A402B400746002A6BD0002B6F
:2022000069D0AA4267D0AB4265D0002800DA32460125ED0529432C4309022002090AD21AA7
:202220004B0C7F24E31A434C000A7C44E35C7D242404121914145B00A218884201D3521CD2
:2022400000E0400049420C465C4324115C43DB016415E318040A5C43C502200D0C46444344
:202260006419250A5D432303EC0C0D46654300030019EB184C42A34201D35B18401CD405EB
:202280002018002B07D05B00C91804D3401C002901D1400840003F2189048A4209D3002A53
:2022A00008DC1106090F04D0032149074018C00FC007F0BD01224100120689187F22520612
:2022C0009142F6D205214907C84201D59010F0BDFF20C005F0BD002F00DA32461648AA4264
:2022E00007D2AB4205D21902090E17D0F80FC007F0BDFF2563002D06AB42F9D84900A94201
:20230000F6D8AB4201D1A942F2D0A94201D1002101E061004908D0050843F0BD1102090E1B
:20232000FBD0FF200243D005F0BD0A460146104654E70000B6F400000000C07F0102C21501
:2023400004D00123DB071943002A0ADB9E239A1A02D40846D0407047FF224100120691428B
:2023600001D900207047C017C04370471F22030C02D10F2200041CD0030E01D10002083AB0
:20238000030F01D10001121F830F01D18000921E002801DB4000521ED20551180212511822
:2023A0001922904004D3491C002801D14908490008467047C10FC90700D04042012292078F
:2023C0001143D3E701218907D0E74146016049464160514681605946C160714601611430D9
:2023E000F0C069460160001D01B5C046C04606BC964601C10020704704000D00A06AC046E6
:20240000C046616A8D462200280000D10120116888465168894691688A46D1688B461169C0
:202420008E461432F0CA70477047FFB504460D4681B0243000902168880604D51022E06989
:202440009143216000E00120A84201DD471B00E000270498A1697A191018081AA0612078D9
:20246000C00602D42046FFF7D7FA002608E003986268A168805D9047206A401C761C206269
:2024800004988642F3DB2078C0060AD52046FFF7C3FA06E06268A16830209047206A401CEE
:2024A000206238467F1E0028F4DC07E000986268A168405D9047206A401C206228466D1E60
:2024C0000028F3DC2046FFF7BDFA2078000602D5022005B0F0BD0120FBE7000001694A1C26
:2024E00002610878704700B58FB00291002105910549019379440391114604906846FFF742
:20250000E9FA0FB000BD0000E5FFFFFF0A681070521C0A607047FFB51C460025ED4385B059
:202520000020009001909F685E68A16906986D1C88470290216A88470028F6D10298401CBC
:202540000CD0032040028643002F19DD700614D502982B2809D02D280FD103E00020C043EC
:2025600009B0F0BD012080020643A16906986D1C88477F1E002F029002DD0298302803D007
:202580000798002828D024E00120A169400206436D1C06987F1E8847002F029003DD7828EE
:2025A00005D0582803D00798002810D011E00798002801D010280CD10120A1694002864378
:2025C0006D1C06987F1E88470290102000E008200790C017039016E00A20F9E70120039BDE
:2025E00040020643079A019900987F1E00F01EFB029AD3178018594101910090A169069855
:202600006D1C88470290002F06DD0799029800F02EFB00280290E1DAE16906988847B0058A
:2026200002D40120C0439BE7F00710D1700610D5700505D50098019B002241429A4101E007
:20264000019A00992068031D2360006806C0284686E72068011D21600068019A0099F5E773
:20266000FFB51D460027FF4383B05C68002001909E68A96904987F1C88470090296A884722
:202680000028F6D10098401C0CD0032040028443002E19DD600614D500982B2809D02D28C3
:2026A0000FD103E00020C04307B0F0BD012080020443A96904987F1C8847761E002E00907C
:2026C00002DD0098302803D00598002825D035E00120A96940020443761E04987F1C884733
:2026E000002E009003DD782805D0582803D00598002810D022E00598002801D010281DD111
:202700000120A96940028443761E04987F1C88470090102002E0082000E00A2005900DE08D
:202720000121059A49020C430199761E514308180190A96904987F1C88470090002E05DD13
:202740000599009800F093FA0028E9DAE96904988847A00502D40120C043A5E7E00722D119
:20276000600611D56005019800D5404229680A1D2A600968220501D5087014E0220701D59D
:20278000088010E008600EE02868011D29600068210502D50199017005E02107019901D547
:2027A000018000E0016038467EE7FFB5144683B0002000260090506801909169976804987F
:2027C00088470C9905460698084305D009E0A1690498761C88470546216A28468847002851
:2027E000F5D1681C03D00198C00704D017E00020C04307B0F0BD2068011D216000680090EB
:202800000DE00198C00704D1009805700098401C0090A169761C04987F1E88470546002FE7
:202820001CDD681C1AD0069800280FD0E817C00E4019411140098A000699400151182A1AB4
:202840000968012090400142DBD107E00C980028D7D12846216A88470028D2D0E169049854
:2028600088470C98002807D1002E05DD0198C00702D1009800210170A068B84204DD0C98F1
:20288000002804D0002F02D00120C043B1E73046AFE700000268511813780160184670479F
:2028A00010B5D16005497944516105497944116200211161114600F0E9F910BDEBFFFFFF76
:2028C000AD0300004268002A08D001680B78491C002B03D0521E06C0184670470121C160BF
:2028E000881E70474268002A0BD0C3680168002B07D183688B4204D0491E521C06C00020EE
:2029000070470020C0437047FFB5144687B000200190506803909768002002900646049054
:202920000590916908988847109905460A98084305D009E0A1690898761C88470546216A19
:20294000284688470028F5D1681C03D00398C00704D02CE00020C0430BB0F0BD2068011D82
:2029600021600068019022E004AA6846E9B200F05DFB411C07D0801C09D0002002900398A6
:20298000C00707D00DE0E1690898884746E00120029007E068460188019801800198801CAD
:2029A00001907F1EA1690898761C88470546002F1CDD681C1AD00A9800280FD0E817C00E87
:2029C0004019411140098A000A99400151182A1A0968012090400142C6D107E010980028F5
:2029E000C2D12846216A88470028BDD0E169089888470298002811D11098002806D1002E95
:202A000004DD0398C00701D101990880A068B84204DD1098002804D0002F02D00120C043D3
:202A20009AE7304698E7FFB5144685B000200090506801909668002002900546039091695C
:202A400006988847109907460898084305D009E0A16906986D1C88470746216A3846884745
:202A60000028F5D1781C03D00198C00704D01CE00020C04309B0F0BD2068011D21600068B9
:202A8000009012E00198C00709D1B9B2009802AA00F0EDFA411C34D0009908180090A16940
:202AA0006D1C0698761E88470746002E14DD781C12D00898002807D03B460F9A0E9900F04A
:202AC000A5FA0028DED107E010980028DAD13846216A88470028D5D0E1690698884710981A
:202AE000002806D1002D04DD0198C00701D100990870A068B04204DD1098002804D0002ED9
:202B000002D00120C043B5E72846B3E7FFB5144683B000273D465068019091699668049853
:202B2000884700900E990698084305D009E0A16904986D1C88470090216A00988847002840
:202B4000F5D10098401C03D00198C00704D014E00020C04307B0F0BD2068011D21600768A3
:202B60000BE00198C00702D100983880BF1CA1696D1C0498761E88470090002E15DD009832
:202B8000401C12D00698002807D0009B0D9A0C9900F03CFA0028E4D107E00E980028E0D10A
:202BA000216A009888470028DBD0E169049888470E98002805D1002D03DD0198C00700D1B9
:202BC0003880A068B04204DD0E98002804D0002E02D00120C043BDE72846BBE710B5002003
:202BE00000F066FAFEF7B9FE012004F0FFFB10BD10B5044602E0641C04F0F9FB20780028E4
:202C0000F9D110BD01468008081A02091018020A1018020C1018C008820012185200891A26
:202C200001E0401C0A390A29FBD270474343514330B55C18010C130C0D4692B25D4380B255
:202C400051432C19054655430A0C09044D1962415843010C00044019514130BD10B50446F9
:202C600000F04CFA0068005DC007C00F10BD3A2800D23038202302469A43412A01D310465D
:202C80003738884201D30020C0437047F3B50C468FB000200C90012000260E9008460C30E9
:202CA00003906269039801219047051E2ED0252D2DD0216A8847002818D0626903980121C0
:202CC0009047216A88470028F7D16269411E0398904700E0761CA1690F988847216A8847EB
:202CE0000028F7D1E1690F988847DAE7A1690F988847A842074601D1761CD2E7E1690F989E
:202D000088477F1C02D10C98002877D06BE16269039800273D46394690472A280CD16269B7
:202D2000039801219047012506E00A214F433F18303FEBD4102005436269039801219047DA
:202D4000014630390A2903D2AC498F42DEDCECE7E90600D4AA4F6C280AD04C2810D068285A
:202D600024D06A282ED074280CD07A280AD00DE062690398012190476C2823D004211CE0E7
:202D8000202005436269039801219047A760652865604FD026DC582839D01ADC452849D0CD
:202DA00012DC252834D04128B0D143E06269039801219047682802D008210D43E6E701209F
:202DC000C002DEE70220DCE7462833D047289DD130E05B2870D061282CD063286CD064288E
:202DE00094D161E06F284FD009DC662822D0672820D0692826D06E2817D12EE0EFE0702819
:202E00004DD073286FD075284ED078280DD154E0A1690F9888472528054600D16CE7E169C8
:202E20000F9888476D1C00D16DE7DCE00A224CE00A2252E0012023466A460F99C043C04611
:202E4000C046C5E040212846234608436060A80701D5002239E000223FE0E80700D020E7BD
:202E60002068011D21600068290501D5067018E7290701D5068014E7A90703D5F1170660CD
:202E800041600EE706600CE740212846234608436060A80701D5082217E008221DE0594991
:202EA00028460840606016E040212846234608436060A807BCD5B9E715E040212846084374
:202EC0006060A80707D52346102201200F99C043FFF721FB7CE01022234601200F99C0436B
:202EE000FFF7BEFB74E0002163280B460191009102910D9102D05B2807D03BE0E80601D474
:202F00000120A0600120009034E0E06801210D906269039890475E2807D101200190E0682F
:202F200001210D906269039890472169002906D10B4604AA8F00491C0829D351FADB0028C6
:202F400051D02169002926D00298401C029062690398012190475D28F1D10198002808D0E0
:202F6000002004AB8100401C5A58D24308285A50F8DB04AB2069002820791CD04007029A69
:202F800000980D9B0092224602901F480F991DD5FFF7BCFD1CE0C117C90E09184A1149093C
:202FA000930004AA9A184901411A13680120884003431360CBE74007224613480F9902D521
:202FC000FFF7A2FC04E0FFF7F0FB01E0FFF72BFD00280ADA401C06D10E98002803D0002099
:202FE000C04311B0F0BD0C98FBE7E90702D10C99491C0C91361800200E9052E6CCCCCC0CBC
:20300000FFFFFF7FF1F7FFFFFEFFFFFF10B509E00488801C9C4205D1002A01D0002010BDE1
:20302000012010BD491EF3D2104610BDF8B516460C46054600F062F80368FF200230C05C8B
:20304000012805D0185D00280ED001202C80F8BDFF333246214604331868C71868460023FD
:20306000B84700992980F8BD0020C043F8BDF8B516460C46054600F041F80368FF200230F7
:20308000C05C012807D0FF2C0FD8185D00280CD001202C70F8BDFF3332462146083318684B
:2030A000C71828460023B847F8BD0020C043F8BD10B500F039F800F031F810BD754600F09D
:2030C0004BF8AE46050069465346C008C000854618B020B5FEF778FC60BCB64600260027AE
:2030E000C0C5C0C5C0C5C0C5C0C5C0C5C0C5C0C5403D490849008D467047000010B500F052
:203100002FF8001D10BD00BF01E5000010B50446C046C0462046FEF72BFC10BD10B50028A2
:2031200001D004F063F910BD10B5002102A000F01BF8012010BD0000534947414252543AE2
:203140002041626E6F726D616C207465726D696E6174696F6E000000004870470001002039
:20316000004870472001002070B505460C460A2000E06D1C04F03BF9002D06D028780028C7
:20318000F7D102E0641C04F032F9002C02D020780028F7D10A2004F02AF970BDB0B582B05B
:2031A0001D4D287802281CD0012822D000282CD1E64869460A220A6048604020AB4A105AD5
:2031C0004221515A090409184420125A0120002300F05CF9032400281AD12878401C28708C
:2031E00016E001F02FF90024204600F02DFA2C700EE01120094900F0ABF90324002807D157
:2032000007480178491C017002E0002028700324204602B0B0BDC046600100209D3100086D
:203220003700002010B582B0164C2078012809D000281FD1012000F007FA01F017F9207881
:20324000401C2070D74869460A220A6048604020864B185A4221595A0904091844201A5AB7
:2032600046201B5A012000F011F9002804D0032002B010BD032000E000200021217002B033
:2032800010BDC04661010020F0B581B00C4606460D20094F394600F0ADF80546002807D181
:2032A000388800F04BF83080388800F04AF82080284601B0F0BDC04664030020F0B581B0AA
:2032C0000C4606460F20094F394600F093F80546002807D1388800F0D3F83080388800F0A9
:2032E000C9F82080284601B0F0BDC046660300207F2189010840704780B582B0FFF7F8FF95
:203300000346C64869460A220A604860574801894289120451188289012000F0B7F802B079
:2033200080BDC04680B504480121017030480021017001F081F880BD50130020000A800177
:2033400070470006000C704780B582B000F014F80346B24869460A220A604860A020434A0D
:20336000105AA221515A09040918A420125A012000F08CF802B080BD80B53221322800D8D9
:2033800008460EF043F84006400C80BDB0B582B0174C20780021172803D0FF2803D10520F2
:2033A00022E0084620E0C100304A535C002B17D09A486B460A251D605860505A53185988D4
:2033C000090409189A88DB88012000F05FF801460320052907D0002907D12178491C03E081
:2033E000411C032000E0FF21217002B0B0BDC046ED0E0020B0B582B00C4688496A460A23E5
:2034000013605160C00019490A5A0818418809048918FF22914382880120064D2B4600F097
:2034200055FF002801D002B0B0BD2988218002B0B0BDC04668030020B0B582B0774B6C4613
:203440000A2525606360C000084B1C5A181843881B041C19064D5540C3880B432B40828827
:203460000120214600F012F802B0B0BDC8420108FFFF00002D2189010006800C4018704721
:203480002D218901000A800140187047F0B583B015462B4A138002AA13802A4E3278D20745
:2034A00010D15E4A6B460A241C605A60AAB2244B00F00CFF05283BD0002830D13078401C43
:2034C00030702DE0099A089B6C4623606260FF27B943AAB21C4C234600F0F8FE052827D0A9
:2034E00000281CD1290AC9B2002911D000250A462B4602AF7F5D655DBD4200D1521E5B1C13
:20350000DDB28D42F5D3110604D03178491C03E0377004E00021C9433170052805D03078A6
:20352000C0B2FF2803D0062806D3052000E000200021317003B0F0BD032003B0F0BDC04648
:203540006C0300206E0300206A030020F50D010870B582B02E4C2268002A03D08A4202D0BD
:2035600004201BE021602B498A692B4D2A6001222A700B4B18808A8BAA80296827486D46A5
:203580000A262E606860022000F0A0FE052801D0002803D10021216002B070BD02B070BD9B
:2035A00070030020F50D0108F0B583B00C46184E3168002904D0914203D0042003B0F0BD1D
:2035C0003260C00013490A58134B1A600818828800271F709A80196810486B460A251D60D3
:2035E000586002200E4D2B4600F070FE052807D000280AD1288820803760384603B0F0BDFB
:203600000848208000203060052003B0F0BDC046B003002024170108A8030020F50D010892
:2036200094030020FEFF000080B509F0A9FB04480449016002F0C8FC03F01CFF002080BDE9
:20364000200000200090D0030F210A0405490B6893430B60002804D0052040040A6802436B
:203660000A6070470004005080B5816901220A43826103F017FE80BD70B515460E46044600
:20368000806901218843A061204603F00BFE2846304300280CDB1020205EB04208DD12204A
:2036A000205EA84204DD09208101204603F0D8FD70BD00001B4801681B4A914223D30021A0
:2036C0000160B5480178002901D0491E06E03B210170B0480278002A16D0511E0170B348A2
:2036E0000178002901D0491E06E03B210170AE480278002A0FD0511E0170012040030B492C
:203700000A8802430A8070470170A04801780029DBD16321E2E70170A14801780029E2D1EE
:203720006321E9E7E00F0020E703000074050020F0B585B0244D2C7800F03AFC84422AD0CE
:2037400000F036FC801E04280BD8C0467844007940008744020A0E1216001C4804682148D9
:2037600012E01A48046820480EE0184804681C480AE016480468194806E0144804681648E2
:2037800002E0124804681248124907F075FB0146204607F0EBFF154E3288154F38889042C4
:2037A0000BD06C4613A12046FEF722F9134800680021CA43214608F0F9FA00F0F9FB287093
:2037C0003088388005B0F0BDD50400203C060020DC1C01086854010880290108D22F01083A
:2037E000763C0108243601082E230108FA0E00203C0400202533642525000000500600204D
:20380000B0B51048006810A10024224608F0CEFA0F4800680F49224608F0C8FA0E4800688F
:203820000E49224608F0C2FA5C4800680C4D2946224608F0BBFA5E4800682946224608F04F
:20384000B5FAB0BD54060020496E6974204F4B0058060020785401085C0600206B540108E7
:203860005F54010810B504460A210DF0CFFD8B490A6882420AD10920C0435043011906487D
:2038800000680022D24308F0FDF910BD854A01231370086010BDC0467006002080B5064804
:2038A0000178002906D00022027004480068044908F07CFA80BDC046D604002054060020D6
:2038C00039000020F0B583B03048007802900A2421460DF09BFD07462D48077005462D4812
:2038E0000078019021460DF091FD0646E8702A480578284621460DF089FD254A90716743C8
:203900000299C91B517066430199891B11716043281AD071104615460DF0DEF91F48006884
:2039200000220292294608F041FA1D480078019021460DF06BFD05461A4F38701A480078BF
:20394000009021460DF062FD0646F87017480778384621460DF05AFD124A907165430199AA
:20396000491B517066430099891B11714443381BD071104614460DF0AFF90D480068214626
:20398000029A08F013FA03B0F0BDC046590500202D0000205A0500205B05002060060020D0
:2039A000A71A00206B000020A81A0020A91A00206406002080B50120800607490860074869
:2039C000016820220A430260416880220A43426003F032F880BDC046180400500C18024021
:2039E00080B5014602483022FEF772FA80BDC046BC03002070B50D46044620790126314633
:203A00008140294208D002F0E9FD002807D0052807D003280CD116E0401C207109E020795A
:203A200004E020798640216831432160401C20712079C0B20628E0D3002121712068216030
:203A4000002800D00520C0B270BD000010B5894801780A0711D5F722114001700F490B68FE
:203A60005A1C002B05D00A2353430D4C2488A34203D20C4B01241C700A6001784A070BD532
:203A8000FB221140017005480168002904D0054A01231370491E016010BDC046A40300203C
:203AA0008E040020D204002010B50023002A06D09C000C59844202DC5B1C9342F8D3D8B230
:203AC00010BD000080B50120C1020348FEF7FCF902480021016080BDDC060020D8060020C2
:203AE00084B000200390C7433E4C3F4D019704E03C4C204607F0B8FA3B4D07F0B3FB3848FF
:203B0000394607F00FFB07F05DFB0646204607F09EFA2D68002D13D15FE0278225686468AE
:203B2000304F384607F0A0FA2046A84707F04AFB0646384607F08BFA2B480568002D4CD0F7
:203B40002A4800680290019B2C46039A278A78071AD4B80709D4A168964202D2914202D337
:203B600012E0914201D3B1420ED9002808D4A068801B984204D202990DF048FC039A0346B9
:203B80006469AC42E2D125E0F80710D0E16800290DD0B80708D48819A568461B3046FEF76F
:203BA00025FA681A8019A06004208743B5E76069A0420BD0A16981616069A169486100272C
:203BC000A542AAD1606908490860A6E7002706480760A2E71F4603968AE70396019F87E7F9
:203BE000D4230020C40F0020D40F00209C1A0020B0B51D480A2107F07FF81C4A1060018820
:203C000009239B0199422ED1194909684068401A434243411748017801240C401C43F02369
:203C20000B40E31802240C401B19134C246812685268141B654265416C001C430F4B1B6855
:203C4000D31A5D425D41AB0004250D401D432B190B4C2468121B54425441E20008240C40E0
:203C60001443E1180170B0BDA4060020D80F00202C0600209C030020300600203406002084
:203C800038060020F0B585B00446008A40210291884320826068026B03A920469047002871
:203CA00075D003AAD0880F210140D18065686E88F20727D01822AA5E0192042203AFBA5E80
:203CC0001427EF5F2B46162500935D5FBD4208DD019B9A4211DD1A21009D695E8A4256DB7A
:203CE00007E0019B9A4208DA1A21009D695E8A424DDC0E210840014602E001200143009D4D
:203D000003A8C180B0052DD4F00508D503A8C088C00704D1208903A90880608966E0E76944
:203D2000002F68D0384605F0CAF90190384605F0C1F9034670073FD41E46384605F0BDF9C8
:203D400087214900884224D0B42833462AD05A2832D103A84188039A4280C943019A5118FD
:203D6000018029E003A8C088E289424001211140208A820706D40029C6D00221084320828A
:203D800005B0F0BD0222904320820029BCD105B0F0BD03A84188039A0180D1433346711868
:203DA000418009E00398C0430199081803A908804888C04318184880208A40071BD503A876
:203DC000008800B2002805DB0199884205DB0846481E00E0002003A90880022003A9085E41
:203DE000002805DB984206DB581E03A9488002E003A800214180208A810601D5223500E069
:203E00001C350421695E012917DB0A22A25E02232F4603ADEB5E9E1A76430823E35E2D88F8
:203E20002DB2ED1A6D43751949438D423D4604D291B29AB203AB59801A80C10716D0022228
:203E4000A95E012912DB1423E35E03ADAA5ED21A52431223E35E2D882DB2EB1A5B43D218FC
:203E600049438A4202D901218843208203A8C288E089114681439043CB0703D010231A43FF
:203E800003ABDA80012506462E40002E04D003AAD38820271F43D78087B288070AD00398F3
:203EA000608203A84088A08207F08CF9A061208A28432082BF072ED0208AC1072BD0A8433B
:203EC000208207F07FF9A169451AA5614B208000019007F0BBF885420DD8002F04D503A8DD
:203EE000C18880220A43C280002E04D003A8C188029A1143C18060684088C0070BD0A569E1
:203F00000198C83007F0A2F8854204D303A8C18880220A43C2801948002106F019FF002804
:203F20000DD00546154E03AA2846214601F0FCFE3046294606F00CFF05460028F3D100214B
:203F4000204606F005FF00280CD0054603AA2846214601F0E9FE2046294606F0F9FE05464B
:203F60000028F3D10398208103A8418861810499A181C088E08105B0F0BDC04620040020AF
:203F800010B509490978094A1368174A1478FE2222401B0601D402231943022A01D00422B2
:203FA0001143C9B2405C10BD74040020100000500D480078FE210140022905D10B480088C8
:203FC0000A2803D20120704706207047142801D202207047322801D2032070475A2801D3E0
:203FE000052070470420704736000020FA0E0020014800787047C046DA040020F0B54D48D6
:2040000041698A0718D54C4A5379002B06D05B1E5371DBB2D218927842620DE01379002B0F
:204020000AD01478002C07D1444C25686E1C26602C7844625B1E1371012293024C062ED496
:204040004C0748D40C0652D48C0660D4CC0665D4194209D083613D4B1A703A4B04241C7085
:204060003B4B1C78641C1C708B050AD553028361364B1A70334B04241C70364B1C78641CA0
:204080001C70C9050AD511028161304802702D480421017030480178491C0170F0BD264C17
:2040A00025780468002D06D005681C4205D0940325432C460CE0950309E0FF242404A54343
:2040C000056004681E4D25430560550304682C4304604C07B6D5046A184D2E68771C2F60D7
:2040E0003470154C25796D1E25710C06ACD5124C2479012C01D06E4C00E06C4C056825404C
:20410000056014040568254305608C069ED5202484610C4C00252570CC0699D5102484614F
:20412000084C04252570084C25786D1C2570194290D199E704540040E70E0020D00F002076
:2041400000040101E00E0020BB030020DE0E0020B9030020B5030020B7030020F0B5504896
:2041600041698A0718D54F4A5379002B06D05B1E5371DBB2D218927842620DE01379002BAB
:204180000AD01478002C07D1474C25686E1C26602C7844625B1E1371012293024C062ED432
:2041A0004C074DD40C0657D48C0665D4CC066AD4194209D08361414B1A703E4B03241C7009
:2041C0003F4B1C78641C1C708B050AD5530283613A4B1A70374B03241C703A4B1C78641C30
:2041E0001C70C9050AD5110281613448027031480321017034480178491C0170F0BD294DA7
:204200002E780468002E06D006681C4205D094032643344611E095030EE006604124A40285
:204220000668264306602C79022C03D31406056825430560550304682C4304604C07B1D5D4
:20424000046A194D2E68771C2F603470154C25796D1E25710C06A7D5124C2479012C01D087
:20426000134C00E0114C05682540056014040568254305608C0699D5202484610D4C002572
:204280002570CC0694D5102484610A4C03252570094C25786D1C257019428BD194E7C046DA
:2042A00004580040E10E0020CC0F0020FFFFFFFEFFFF00FFDF0E0020BA030020DC0E00206C
:2042C000B8030020B4030020B6030020F0B583B0504E3578062D19D8AC0001A73C59A74636
:2042E000FD42000819430008334300084F4300085D43000891430008B9430008484800687B
:2043000046490860681C307003247FE00020307006F0BCF8012479E04048026840490B6826
:204320009A1A0324032A71D36A1C3270096801606CE006F0B9F8042851D8012181401920D3
:2043400001424CD03078401C307003245EE0324802210170681C3070032457E0304C24685D
:204360002E4D2C6094B2240A6D46D2B21CC52D4A155C2D4A125C48B22C4B1C5C0B0C28466F
:20438000214607F0FDFD3078401C307003243DE006F08AF8042813D0002815D106F070F8EA
:2043A00000282AD01C480178491E0170080629D004203070032429E0681C3070052425E0D9
:2043C00006203070032421E01448006814490968081A03241F2819D30620307016E00F48CE
:2043E00000680F490968081A03241F280ED306F04DF83078401C307008E03078801C307070
:20440000002403E03078401C30700324204603B0F0BDC046040400200C040020080400207A
:20442000A4040020DC430108DF430108E453010880B500F001F880BD014800210170704734
:204440000D04002010B501204105064A13680B431360054B1C6884431C60106888431060A9
:2044600010BDC0463C1002400054004080B507F0F5FD80BD10B504462034204605F039F9FC
:20448000002802D0204605F0EDF810BDF0B58DB0064612200690305E0B901020375EF089B8
:2044A0000C90B0890A9007F04DF9054634462034204605F01EF9002834D00A9A0895062032
:2044C0000594235EBB423ADAF81AC10F40184710D41938040B9D099307940ED0B06804908E
:2044E000684605600899416011B20C9A12B23BB2049804F09FFB099B079CB0680A90308A70
:2045000069460D60089A4A60E11809B2DB19C21A13B20C9C22B20A9804F08CFB002004909D
:20452000234619E0B06869460B9A24C10A9909B20C9A12B23B4604F07DFB0DB0F0BDBB42AC
:2045400004DDD81BC10F4018401000E000200490099707920C9B0B9D2820345EAC422CDA25
:204560000698305E001BC10F40181A464710DA190C923804079D0BD00E20325EB068694644
:204580003BB20B60089B4B6029B2099B04F052FBB068718A6A46E319C91A09B21160089F40
:2045A00057600C9909190AB229B2099B04F042FB394600200B902F460BE0079FAC4204DD02
:2045C000601BC10F4018401000E000200B902C460899059D284605F033FBB0680B9909B290
:2045E0006A46049B1BB2099E166054609360D1603AB20C990BB2294604F064FD0DB0F0BD2E
:2046000080B588B00948008801B2B9486A4601F015F8002801D008B080BD019816210CF038
:20462000F5FE1749088008B080BDC046FC030020F0B581B0114B00255D609D60DD60104CDB
:204640002088002816D000252F460095B8B21E4600F01EF933467068009E5E6099689E60F4
:20466000DA68DE60401C401A504345197F1C20888742EBD30348056001B0F0BD0813002000
:204680008E040020B0040020B0B5044605464035284606F0EFFC002806D006F079FC2846FF
:2046A00006F0E8FC0028F8D1204602F0AFFCB0BDF0B583B004468286428601868769380717
:2046C0001DD415461020205E1238884213DCE0690021009104F0F0FE801C01B21220265EFB
:2046E000B01E00B2019002910CF0B2FEA16B7A0707D4814205DC2046294600F07AF803B074
:20470000F0BD132D0CDCE06B01280299F7DB401AC1178843E063204602F0C4FD03B0F0BD2A
:2047200030461438A8420CDDF00F30184210E06B954217DA01280199E1DB884223DC009858
:2047400022E0029A51430198081AE16B8142D6DA8918814200DC0846E063204602F0A2FDE5
:2047600003B0F0BD029B4B43019D591B8842C6DA6A009A1A904200DA4119E163204602F072
:2047800091FD03B0F0BD401AE063204602F08AFD03B0F0BDF0B581B00446007E000726D5AF
:2047A0001546A08E91B2884221D007B2E66BE069002104F081FE791B7118E1631222A25EF6
:2047C000801CA36B4343981C821A9142084600DB501E002801DB914202DBC1178843E06355
:2047E000A586E06B864202D0204602F05BFD01B0F0BD70B50D460446C069002104F05CFE41
:20480000E16B4A19801C01B210460CF021FE002825DB0546A06B854221DA206C002817D04E
:20482000A26901210A402B46002A04D18688002B04D08E4303E0002B02D106E00E43868095
:204840005B1E00680028EFD102E082884A408280204602F027FD2046294608F0DDF970BDCB
:2048600080B5037E1B0712D53023C35E591ACB17C918594004290ADC3221415E891ACB17AC
:20488000C9185940042902DC1146FFF7B2FF80BD70B505F0EFFC164C1649082200232046DF
:2048A00000F0CCFF144E306005F09AFC0546308801B2204600F04AFE284670BDB0B505F077
:2048C000D9FC0B480B490822002300F0B7FF0A4D286005F085FC0446002802D105F0FCFCE2
:2048E0000446288801B2024800F030FE2046B0BD88050020770400208005002010B5234CAF
:204900002078062818D8C0467844007940008744030A161D262D32001E48016880220A4318
:2049200002600120207007F0A9FD002829D11B48FFF726FB207024E00020207021E0154889
:20494000016880220A4302600320207007F096FD002816D11048FFF713FB207011E0FEF77F
:204960001DFC00280DD1052020700AE00848FFF707FB207005E0FEF755FC002801D100205C
:204980002070074800780749087010BD37000020BC43010810180240AC430108B44301086A
:2049A00036000020A004002010B514460A468168C068091810462246FDF720FA204610BD3D
:2049C0000020C043704710B514468268C06810182246FDF713FA204610BD000070B5244C73
:2049E0002278012A18D0002A1BD1224D2978012633468B40034226D0084601F067FC032178
:204A0000052827D0002819D12878401C28702078401C2070C8B270BD501C20700321C8B207
:204A200070BD0020207013490A78132A08D30870114A11681060002900D00521C8B270BD21
:204A40000321C8B270BD501C2070481C28700321C8B270BD2878421C2A702278521C227096
:204A600086400548026832430260C8B270BDC0461D0400201C040020000F0020F0B581B0AF
:204A80000E490E5C142070430D4A171826480078085C80003C580B4D28462146FEF7AAFFBF
:204AA0000028F9D1B0003C58064D28462146FEF7A1FF0028F9D1002001B0F0BDA4430108A3
:204AC000F4180108F003002080B507F083FB0020C04380BD10B56D20002105F0EDFA00282D
:204AE00011D0044660684088800702D5208A400602D52046FFF7C6F86D20214605F0DCFAFD
:204B000004460028EED110BDB0B5074D2A78002901D1824300E00243072414402046FFF77C
:204B2000ADFF2C70B0BDC0463E04002000220A60024608CA002B02D01368104600E01346AB
:204B4000196001607047000002480021016041607047C0464813002001460068002801D077
:204B600002680A607047000010B582B03C4C2078052830D878440079400087440230154493
:204B800028560020694608600D21384A0B2301F07BFB01460320052950D0002943D121788D
:204BA000491C217002B010BD0020694608600D212E4A0B2301F068FB01460320052941D078
:204BC000002930D12178491C217002B010BD0020207002B010BD00202070032023E0012077
:204BE0006946086000200C21214A0B2301F04CFB01460320052929D0002914D12178491CE3
:204C0000217002B010BD00201749164A01F06EFA0146032005291DD0002904D12178491CCA
:204C2000217002B010BD02B010BD0E48002101800D4801802170052002B010BD052121702B
:204C400002B010BD0521217002B010BD0521217002B010BD2178891C217002B010BDC04615
:204C600054040020BE04002016040020400400207400002010B5394C2078042816D8C046A6
:204C8000784400794000874402381947280005203849354AFEF788FC0146032005294ED0BE
:204CA00000294BD12178491C217010BD642821D0652840D100202070052010BD01202B4901
:204CC000294AFEF771FC0146032005293AD0002934D12178491C217010BD0B202049FEF74A
:204CE00089FB0146032005292FD0002926D16421217010BD0020207010BD00201C491A4A30
:204D0000FEF752FC01460320052921D0002915D12178491C217010BD02201249124AFEF78E
:204D200043FC01460320052915D0002906D12178491C217010BD00202070032010BD652135
:204D4000217010BD6521217010BD6521217010BD6521217010BD6521217010BD55040020EC
:204D6000961A0020FA0E00207DC400083A130020FC0E0020F80E002080B5012002F0A0F954
:204D800080BD0000024800780249085C7047C0463700002058190108B0B542480078002848
:204DA00010D0414C2078082810D8C0467844007940008744040E19264E5D6F6B7000012029
:204DC0002070B0BD384800210170B0BD00202070B0BD04200121FFF797FE09F019FA00F06D
:204DE0009DFB02202070B0BD344838A10822002300F024FD3049086000F070FB032020705A
:204E0000B0BD00F083FB2948007800280BD02A48008801B2294800F099FB04200021FFF7EE
:204E200073FE0720207026490868214A1060214A13681B1A234DAB4203D31368224D5B19E4
:204E40000B601168081AC0087C2823D804202070B0BD00F05BFB00F02FFB00281AD01648F4
:204E6000008801B2154800F071FB05202070B0BD00F04CFB0E4800680E490968081A7D219F
:204E8000C900884206D902202070B0BD07480078002803D0B0BD00202070B0BD082020707D
:204EA000B0BDC046D4040020621A002075040020B8040020A4040020FC03002088050020E2
:204EC000B4040020D107000030F8FFFF667265712E706C73000000000B480078401F02287D
:204EE00001D30020704701207047C046064800780149085C7047C0465F19010802480078B5
:204F0000C11E484248417047621A002070470000B0B59F4D28780A2813D8C046784400794C
:204F200040008744051121314C5E6872848B9B006B480078002800D1B6E00220287000203C
:204F4000B0BD00202870AFE066480188002900D188E063490978002900D183E000210180D8
:204F6000022028700020B0BD022001242146FFF7CBFD00F0F5F8594804700A2006F00CF967
:204F8000032028700020B0BDFEF7D2FBFFF7B6FF00287AD05149087800220A704E490B781A
:204FA0000122002B144600D11C46204310400870002868D003F05EFA0420287065E0FFF749
:204FC0009DFF00285BD003F05BFA05286ED000286ED13F4800680021CA433E4906F03EFCF4
:204FE00066E0FEF7A5FBFFF789FF00285CD0032028700020B0BD00F077F802200021FFF724
:2050000083FD012028700020B0BD2E4800682E490978002901D0082129702C490968081A30
:20502000C0087C2840D8012028700020B0BD2448016820220A43026009202870214800684E
:2050400021490978002905D020490968081AC0087C2829D80A2028700020B0BD01202870F6
:205060000020B0BD1748006818490968081A7D21C900884218D9072028700020B0BD032057
:2050800028700020B0BD00F08FF81548007801214140144802880A43002A05D0062129700A
:2050A000002101800020B0BD0020B0BD032028700948002101700A2006F06EF80020B0BD83
:2050C0000C1802409803002076040020A4040020700600205C050020D3040020D204002049
:2050E000D4040020D804002080B505F03BFF002080BD000070B5FEF7E5FC05F091FF13A0C8
:2051000004F0A2FD06F00AFE11480024214606F00BFE104E3068104903F03EFC02F02CFB86
:2051200002F0A8FC02F0B0FB02F086FB0B4D284605F044FE284606F0E7F930680221322279
:2051400003F050FC03F096F9204670BD55313100C01A010800040020FFFF0000A406002075
:2051600010B53C48002404700448047004480480FEF7A8FCFFF7BEFF204610BDD504002046
:205180003C040020024800780249085C7047C046611A00206819010880B502480AF06EFF76
:2051A000002080BDC5C80008B0B5FEF721FDFEF71FFF032812D0012835D100F015FE2548C6
:2051C0000478FEF715FF844201D0FEF719FBFFF795FE002827D0FEF739FC24E01D4D2C78C6
:2051E000FEF706FF844205D01B4800681B49002206F0DCFD00F05EFEC34C2088800504D49A
:205200002D78FEF7F5FE85420DD0BB480088FEF729FB134800681349002206F0C7FD208816
:20522000114901402180FEF7E3FE0A490870FEF735FBB5480188890405D501880B4A0A4057
:205240000280FEF73FFB0A480178F0220A4002700020B0BD3F040020580600207D540108BC
:205260005C06002077040020FFFD0000FFDF00009C030020F0B581B06E480078012801D179
:2052800001B0F0BD6C4E3078032800D992E0810001A251588F46C046A9520008BD53000815
:2052A000B1520008E5520008401C307001B0F0BD012420462146FFF727FC06F045FF07F00E
:2052C00051FE03F0C3F9614D28884027384328802888C00600D582E069A000F077FD34702A
:2052E00001B0F0BD55480168554A914205D355490A68521C0A6000210160FEF7DBF9524833
:205300000168504802688A4227D30024046002F0A9F907F027FE4D480088800519D54C4800
:2053200001884C4D2888401C82B28A4200D32046288080B248490988884201D107F076FD04
:205340002888FFF7BBFA07F093FC07F0ABFC07F01BF806F0B7FF0BF049FA3C4C20880007A3
:2053600003D4FFF7CBFD00288AD120880821884320802088102188432080208802218843FF
:20538000208020888021884320800124002520462946FFF7B9FB314805703148057031489B
:2053A0000570314805703148057031480570347001B0F0BD0020307001B0F0BD234801889A
:2053C000C90700D15CE70188012291430180FFF795FD002828D00220307001B0F0BD1D4CB7
:2053E00020881D49088007F021FD2088FFF766FA07F03EFC07F056FC06F064FF06F0C4FF78
:205400000BF0F4F9288880210143298028880221014329800320307028883843288015A05B
:2054200000F0D4FC01B0F0BD19A000F0CFFC01B0F0BDC04654130020DA0400203805002094
:20544000E70300003C05002040050020740500208E040020E40F0020E60F0020A81A002047
:20546000A91A0020A71A00205B0500205A05002059050020436F6E666967204F4B000000DB
:20548000436F6E666967206661696C6564000000D0A1616E277420706C6179207768656EAE
:2054A00020636F6D6D00000080B506F04DFE09480021017080BDC04606480078022801D3C0
:2054C0000020704701207047024800780249085C7047C046DA0400207319010880B5FFF731
:2054E0008FF8FFF7A5F880BD034908800648018801220A4302807047E40F0020024801881B
:2055000008220A43028070477405002080B502F0D7FD0BF061FA002080BD0000B0B582B0FD
:205520000024684604600A21064B2046224602F08FFD054D287002F091FB2870204602B055
:20554000B0BDC046603B000053050020B0B50D460446416E5048B84A914211D15C21615C8B
:2055600000290CD02046294608F0D8F8002807DB2046294608F0BAF8002801DBB0BD183047
:205580002063B0BD01684A6E4348AB4B9A4206D15C228A5C002A01D00020704718300863DD
:2055A0007047C046006B704710B50446426E3A48EF4B9A420AD15C22A25C002A05D02046F9
:2055C00008F0ACF8002801DB10BD1830206310BDF0B581B00446406EF44988420AD15C209A
:2055E000205C00280BD01448401C20630020C04301B0F0BD1048C01C206301B0F0BDE06813
:20560000002812D025464235002637462E80B9B2204607F055FF00280AD17F1CB8B2E168E0
:205620008142F3D8002001B0F0BD002001B0F0BD0148206301B0F0BDD5D8FFFF70B582B0B4
:205640000E460446406ED949884218D15C20205C002818D0154601AA2046314608F02EF820
:20566000002815DB2046314608F058F801988189204632462B460BF019F802B070BDCC48FC
:20568000206302B070BDCA481830206302B070BD206302B070BDC046D8D8FFFFF0B585B0FC
:2056A0000E460446406EC149884225D15C20205C002825D01F46029204AA2046314607F044
:2056C000FDFF002820DB2046314608F027F8049EB068411C00D10020029D022F17D0012FC8
:2056E00001D1B1694D19002D14DB854215DDB061224D253525633EE0204D103525633AE0AF
:205700001E4D2835256336E00546206333E04519002DEADA194D25632DE0681EFB210BF05B
:2057200075FE0027002D03DC3846712803D208E080B2712805D3713880B27C210BF066FE75
:20574000471CBAB2308A904210D0F08803A96B4619600121C90301430023204609F038F8DC
:20576000002806DB049807820399C1810498856101E020630546284605B0F0BDC8D8FFFF7E
:20578000F0B585B01E4617460D460446006E049020460C305C210191FCF798FBA868A06088
:2057A00068686060286820600498206601218802E060049108023818206267620A9F3046E2
:2057C0003946FCF781FB0321304608400B9A00280391029203D00421081A3F1A36180C9D9A
:2057E000A6622C2138460BF011FEE062029B1846039A1040002803D00421081A2D1A1B18E6
:20580000049E63649543680B00D07503A564204607F05EFCCC486066204609F04FF8002824
:2058200006DB0D98019966546065002005B0F0BD206305B0F0BDC04615030920F0B587B03F
:205840000F460446406EC04988420ED15C20205C00280ED01D4616463846FCF751FA112897
:205860000BD3A4482063434D25E0A24D0C35256321E0A04D243525631DE0039506A9204615
:205880003A4607F091FE002813DB05AA2046394609F07CFC054604213046084000280DD1B3
:2058A000002D0BDA0698415E204607F01FFF256301E00546206328B207B0F0BD002D1FD08D
:2058C00000282AD08B482230854226D1029104A90022204608F002FE00283FDB04A801888C
:2058E00005A86A46012313605060002320463A4609F0D0FB002831DB0220864302990EE08F
:205900004420304044280AD10698415E204607F0EDFE7848851D2563CDE7002DC2DB0F462A
:2059200005A80188069A6846039B03602046334609F02AFF00280DDBB00706D50698002180
:205940000A460AF069F8002804DB0698002181618588B0E705460698C15FA5E705460698D2
:205960000299415E204607F0C1FE2563A3E7C04615030920CCD80000416EDC4B994209D149
:205980005C21415C00290AD0002191609180106010467047D6490163002210467047D4497B
:2059A00018310163002210467047C04615030920D8D8FFFF80B508F0A7FB0249884200D161
:2059C000002080BDEDD8FFFFF0B589B00C46054600685C21415C002915D0AA68A98807ABA7
:2059E0006F467B6108AB3B61FC600026BE600E4B7B603E60042308F055FC002807D0296855
:205A0000086334460CE00A490163002408E00898A8800798401CA860208804490140218050
:205A2000204609B0F0BDC04611060108FF7F0000F0D8FFFF70B584B00E460446406EAB4997
:205A400088420BD15C20205C00280BD03046FCF757F911280AD3274D256348E0254D0C35FF
:205A6000256344E0234D2435256340E003A9002520462A4607F098FD002836DB02AA20468B
:205A8000314609F083FB002808D0064604200399095E204607F02AFE002E23DB02A80188C1
:205AA000039A6846056020462B4609F06DFE002808D0064604200399095E204607F016FE17
:205AC000002E0FDB03980122294609F0A5FF00280DD0064604200399095E204607F006FE0B
:205AE000002E04DA2663354601E020630546284604B070BDCCD8FFFFF0B581B00446406E28
:205B00007A4988421ED15C20205C00281AD025465C35E06A002813D0A06A061D00273088A2
:205B2000002808D001B2204607F0F8FD308801B2204607F0DBFD2C367F1CE06A8742EED3EF
:205B40000020287001B0F0BD15030920F0B585B016460546406E654A904213D15C20285C5A
:205B6000002812D01C4604AA284607F0A7FD002800DAB2E00499888BC2060AD45C48C41C94
:205B80002C63ACE05A4C2C63A9E0594C18342C63A5E0C00704D08868421C00D10020886164
:205BA0008B69086A002806D128461F4607F05CFB3B46049908620498818BCA070ED0836895
:205BC0005A1C00D10023026A002A07D01F46138AD268D2183B46974200D8134689066FD46B
:205BE000076A45218A00114614398C4252DA0292002F23D0FA68934203930CD3398A511818
:205C00008B4208D819190191029BD318143B01999942039B20D97978029B59436B6C1B69AB
:205C2000591814313B8A08F0C7FA07460498016A284607F02DFA039B002F53DB049928464A
:205C40001F4607F0B4FA3B4604990862002803D0C360086A002101820498016A002930D04E
:205C6000C8681F1A487802994143686C00694018C019143031462246FCF7C0F83A190498B1
:205C8000016A0B8A9A4200D313460B8281690919816124E0002F13D079784A43696C0969A6
:205CA0008918143103933B8AFA6808F085FA07460498016A284607F0EBF9039B002F11DB74
:205CC000049831461A46234608F076FA002804DB04998A6912198A6100E0286304462046B8
:205CE00005B0F0BD2F633C46F9E7C04615030920D8D8FFFFF0B581B004463C2529460BF06E
:205D000085FB06462946FCF771F9064F7970E120010120460BF07AFB38707543601BB870D1
:205D200001B0F0BDA41A0020F0B581B016460D46044604F0F5FFF188F0220A4000281CD087
:205D4000002A14D1E268002A11D1227A12070ED42A89338893420AD16A897388934206D18F
:205D60000F220B461340EF891740BB422CD0A268CB070AD152070AD50FE0E06802430120FA
:205D8000C0031043E06001B0F0BD920705D40A06120F19D0227AD20716D06A685288012398
:205DA0001A401B02D21802803288428072888280B288C280E268114301810021E160E96938
:205DC000C160204605F020F801B0F0BD80B5014603480122027003483122FCF779F880BD36
:205DE000D60400203900002010B50C480178CA0713D0FE2211400170094C206805F038FF1F
:205E000000280AD007A0FFF7E1FF0A2005F0C4F9206805F015FFFFF767FB10BD9C030020B2
:205E200070060020436F6E6669672E20506C65617365207761697400F0B585B007460820AA
:205E4000385EC117890E41188D11002D00D1012529010A22BA5E511ACA0F891849100491E1
:205E60006901401AC10F4018401003900F4C60882188A288E3886E466B431BB233600C4BB9
:205E800073606A4313B26943039A891809B26843049A801802B2384602F0CCFE08340348C2
:205EA00080308442E3D305B0F0BDC04678190108FFFF000080B5054801788A0704D5FD2232
:205EC00011400170FFF71AFB80BDC0469C03002010B50C4C2078012806D0002807D10AF045
:205EE000A3FD002806D010BDFEF708FD10BD0020207010BD0448002101702078401C207091
:205F000010BDC046900400203700002080B505480021017006F0A2F8FEF78AFAFDF702FA96
:205F200080BDC0467404002080B5FFF7CDFAFFF729F9FEF727FFFEF7D9FF80BDF0B581B081
:205F40001E48016801220A4302601D48002101604160032399020522120714688C43146058
:205F6000FF24250217490E68AE430E600D46643D2E6820273E432E600D46583D2E683E43C3
:205F80002E6005683D4305609B0315689D43156022060B6893430B600A46603A13688024CC
:205FA0002343136054390A6822430A6001682143016001F033FA01B0F0BDC0463410024004
:205FC000801802406418024010B5054C0548606000F03AFD0020A0600720206010BDC04645
:205FE00010E000E0FFF9000010B5174A1068401C106016490868401C086015490B682021CA
:206000001940002902D01268124B1A60124A13888B4201D1114B19801180114A13880F4C6E
:20602000248814809C430F4A138823431380002901D10D4908600C490968401A91498842D7
:2060400000D210BD00F040FDA4040020980400201000005098030020920400209404002067
:2060600096040020D80400209C0400200120C006014908607047C04608ED00E00E480168C0
:20608000C90717D00121C94301600C480168491E01600B480088000603D40A4900200860A2
:2060A00006E008480168491C016007480068401C054908607047C04610040040A01A0020C7
:2060C00074050020E00F00203805002080B505480168C90705D00121C943016002480068EA
:2060E000804780BD1010004044130020F0B583B00D465F4E3178032913D814468A0001A3A5
:206100009A589746156100082B6100087F610008C3610008574800220270481C307003262A
:20612000A3E00020307003269FE00022694602920A6001274F4EFF233946324600F0A4F83B
:20614000052867D000286BD17078B17809020818F17809044018327912068018464A106012
:206160000326300508407905884202D0390588426CD13F4801460078401C087075E0002784
:2061800069460F6002213B4EFF23324600F07CF8052847D000284BD17078B1780902091872
:2061A000354A1160032601463140032948D10007800F032850D12E4801460078401C0870DE
:2061C00053E0002769460F6003262A4AFF23314600F05AF805282DD0002846D125480246B1
:2061E0004078917809020818D17809044118127912068A18204B1A60204A02400A20504371
:2062000028800803800D322141432180184807703E462AE000262E8026801548067024E010
:20622000032622E000262E802680114806701CE003261AE000262E8026800D48067014E092
:206240002F8027800A4807703E460EE0029E2E8026800748067008E040000949085A288070
:2062600008482080002602480670304603B0F0BDEE0E0020DB0400201C050020FF03000014
:20628000B81A010888130000F0B583B01446C9000C4A555A5218518809044919FF25A943C6
:2062A0009288089DFF2B02D01B02D2B2D218064B6E460A273760736029432346FEF706F830
:2062C00003B0F0BDF8190108F50D0108B0B512281FD800244000C04678448088400087446A
:2062E00012001A002100220124002B003100340037003C004F0076008A00A300C800D1007C
:20630000DC00F200FC00012100200246FDF794F8B0BD052407E10120C10305200022FDF70B
:206320008BF8B0BDFDF732F8B0BD0120C20305200021FDF781F8B0BD002001220146FDF75E
:206340007BF8B0BDFEF710FCB0BDFEF793FCB0BD9F48A149FCF798FFB0BD8C4900200860D9
:2063600099490A8890490978002A0A4600D00246894B1B88002B00D01146944A1170B0BD28
:20638000934801888848027801208229014600D311468C4B65337A4D2D889D4200D8114619
:2063A000754A1268D3059B0F00D0014687480170510608D478490988002904D082490988ED
:2063C000002900D0AFE0022101702046B0BD6F48002404607C48018873480078002901469F
:2063E00000D001216C4A1288002A00D00846774908702046B0BD624800887249002488422D
:20640000214601D3684801786F4802880320002A024600D00A4660490988002900D0104699
:206420006A4908702046B0BD5348007840067AD47D20C10056480268521856490B689A42F9
:2064400005D20968016051480168643101604F480168514A1288643A914201DD026011465E
:20646000002967DB02684D498A425CDD01602046B0BD41480078400655D444480088FCF701
:2064800063FFB0BD3D4800883D490988490801F0CFFF3D4908602046B0BD3748006801064A
:2064A00043D436490988364A12880A43354909881143002939D0C005800F34D1324800885E
:2064C000FCF71AFFB0BD39484249FCF7F7FE04463448012101702046B0BD274800683049D3
:2064E000084220D12F48017801291CD12E490978FE220A40022A21D12C490A8800212F4B38
:206500009A420BD31E4A1288294B9A4206D91121C9012B4A12880A4051425141254A117026
:20652000254A117023E02046B0BD4B208000FCF7E3FEB0BD002404602046B0BD012916D8F6
:206540001A4909881A4A91420ED910490A680321CB01543B01219A420B4600DC0023154A32
:2065600012781A430A4000E0002213490A70002404702046B0BDC046000F0020FC0E002048
:206580003A130020FA0E0020A003002018040020A8040020A404002016040020540B00003A
:2065A00080000200D0040020360000203613002070170000D1040020D404002071170000AA
:2065C000F80E002008200000BE0400203800002030130020341300203213002010B5052812
:2065E0000DD8C0467844007940008744020B11171D2301200AF0A6F90024204610BD0524C1
:20660000204610BD01200AF031F90024204610BD01200AF06FF90024204610BD0024204647
:206620000AF068F9204610BD002420460AF01EF9204610BD002420460AF084F9204610BDCA
:2066400080B514484168090604D5014618390968090612D4416889060ED5014618390968F6
:20666000890609D581680822114381600168114301600A480068804780BD816820220A4311
:206680008260016810220A43026003480068804780BDC04618380140401300203C1300209E
:2066A00070B50D4604464F48214604F0F9FC0A480026E660206102202A5E288801B220467F
:2066C00000F020F806202A5E0420295E204600F035F9F04370BDC0460300030070470000B2
:2066E000B0B504460020C1433D4D284604F01AFD3C48214604F0E7FC284604F006FDB0BD30
:2067000070477047F0B583B017460D4604468668304602F0D4FC0290304602F0CBFC12211F
:20672000625ED119814200DD871A39B20023002900DC1F4601931021615E4E19029B9E428E
:2067400000DD5D1A3E46C01B2EB2002E00DC019D00B2029B5B1B1BB2994201DC824208DD0B
:20676000994200DB1946824200DB0246204600F0E5F8A8B2A189814203D1B8B2E189814238
:2067800004D0607E800703D4E781A58103B0F0BD00262046314605F03FFB304600F090FCD7
:2067A000E781A581F143204605F036FB03B0F0BD70B504460020C143094D284604F0B2FC32
:2067C000084E3046214604F07EFC3046214604F067FC284604F099FC204600F063FD70BD0A
:2067E000D4060020C0040020F0B58BB00446856951482840A061A80507D56068C1680029FE
:2068000078D0204688470BB0F0BD280400D490E010200A90205E09900E200790205E05906A
:206820000C27E05F049012200890265EA56804F089FF69460E60486028460499059A099B68
:2068400002F0F8F9002004F089FF002871D005460120460206970496A869304243D0A868BF
:20686000A16888423FD1E35F0A99615ECA18E95F8A4238DD079FE65F089AA25E03969219B5
:206880000992049EEF5F0597099ABA42069F2ADD0A9AAA5E099252189A4224DB089AAB5E4F
:2068A000059A02939A18039B9A421CDB6A68D768002F02D02846B84714E089B203910599A1
:2068C00089B2059109998FB202998BB2EA8A69461BB20B604A60039909B2059A12B23BB280
:2068E00002F0A8F9069F284604F038FF05460028B2D11EE028041CD51020205E0A900E2040
:20690000235E0C20225E1220265EA168E78A6846C0C0084611461A460A9B02F08BF9E801E3
:2069200007D460680169002903D0204688470BB0F0BD0BB0F0BDC046FF3FFFFEF0B581B032
:2069400016460D4604468768384602F0B8FB0C21615E4A19824200DD451A28B2032100914E
:20696000032800DC009D384602F0A4FB0E21615E8A19824200DD461A30B2032800DC009E4B
:2069800036B2A9B2208A884203D1B1B2628A8A4205D02FB2617E890703D46682278201B013
:2069A000F0BD00B2874203DB1220205E86420FDA00252046294605F02FFA284600F080FB7F
:2069C00066822782E943204605F026FA01B0F0BD66822782204600F065FC01B0F0BD00007B
:2069E0000120400603490860BFF34F8FBFF36F8F7047C04680E100E0012000060D49086059
:206A00007047C046012000040A4908607047C0460120C005074908607047C0460120C006DA
:206A2000044908607047C04601204004014908607047C04600E100E0012000040149086078
:206A40007047C04600E200E0FF20000603490A6882430320800710180860704720ED00E031
:206A600012480168C0220A433F218A430260704714480168C0220A433F218A4302607047A4
:206A8000FF20000603490A6882430120C00710180860704714E400E0FF20000603490A6864
:206AA00082430120800710180860704718E400E0FF20000203490A6882430120C003101896
:206AC0000860704710E400E0BFF34F8F034804490160BFF34F8F00BFFDE7C0460CED00E028
:206AE0000400FA0510B5374C2168814200D010BD6720002103F0CAFA206010BD10B5114898
:206B00004088C00703D10F48002103F0E9FA7D20C00004F041FB6720002103F0CDFA0028AD
:206B20000BD004460021204601F036FF6720214603F0C2FA04460028F4D1214801210170B3
:206B400010BDC04630180108B0B504460020E08362772377616125462035284604F087FA07
:206B6000284604F074FA204603F00EF90446284604F07AFA2046B0BDB0B582B004460820E9
:206B8000235E0A20205E694608600025204629462A4602F053FC2046294601F0FDFE0848F9
:206BA0000078002802D12046FFF746F9CD480168002901D002B0B0BD046002B0B0BDC046A7
:206BC000F00500200004002010B5054C2068002804D003F0D1FA20680028FAD110BDC046D6
:206BE0003005002080B5024804F041FA80BDC046F4050020B0B5354D2C46A088C00702D01C
:206C0000204604F01FF91034284630308442F4D3B0BDC04601462D4A10468388DB0706D019
:206C20001030134630339842F7D300204BE00A78772A1CD0722A33D0612A45D10C2201E00B
:206C400082881A4382804A78491C612A04DC002A39D02B2AF7D106E0622A06D0782AF2D13C
:206C600001225302ECE70223EAE71023E8E7184A01E082881A4382804A78491C612A04DC93
:206C8000002A20D02B2AF7D106E0622A06D0782AF2D101225302ECE70223EAE71023E8E7CD
:206CA00001225202FE3A01E082881A4382804A78002A08D0491C622A03D02B2AF7D104230F
:206CC000F2E71023F0E7704700207047F805002004040000B0B582B00446002001905E48E6
:206CE000007800280BD05F48056801A8411B204618302A1DFBF782F86519B8350CE05948A7
:206D000000680321C943091AA268A2185518021D01A92846FBF772F86069019001A8281AAF
:206D20004E49096800290AD0CA0703D0019A13681B181360019A121D01924908F4D16169AB
:206D4000803101914649096800290AD0CA0703D0019A13681B181360019A121D01924908DF
:206D6000F4D102B0B0BDC04680B582B03848006801A901600830FBF728FB02B080BDC0468D
:206D800010B5334C2068A8302060FFF7EDFF2068A838206010BDC046F0B5D9B02C4C04A8E0
:206DA00020607A482B494161FFF7EAFFFFF7DCFF2268A82011581468002302910394A14264
:206DC00001D8194600E00121234C2170105823490B6023490B60039E351A2920C043B03245
:206DE000800001460195009050581468001BA8421CD1202B194D00D3194D50182C68202B5F
