:020000040800F2
:20000000800E0020890100089101000893010008000000000000000000000000000000006A
:20002000000000000000000000000000950100080000000000000000970100084D06000827
:200040009B010008000000009B0100089B0100089B0100089B0100089B0100089B01000824
:20006000000000009B0100089B0100089B0100089B0100089B0100089B01000800000000A8
:200080009B0100089B0100089B0100089B0100089B0100089B0100089B0100089B01000840
:2000A0009B0100089B0100089B0100089B0100089B0100089B01000800F002F800F039F85D
:2000C0000CA030C8083824182D18671EA246AB4654465D46AC4201D100F02BF87E460F3E3C
:2000E000B6460FCC0126334200D0FB1A3343A246AB46184724120000341200000023002437
:2001000000250026103A01D378C1FBD8520700D330C100D50B6070471FB50098019900F060
:20012000CAF900F009F91FBD10B5002000F061F910BD00F083F91146FFF7EEFF00F0FCFDA3
:2001400000F013FA03B4FFF7EFFF03BC00F0F2FD70B505460C46164602E00FCC0FC5103E6C
:20016000102EFAD2082E02D303CC03C5083E042E07D301CC01C5361F03E021782970641C04
:200180006D1C761EF9D270BD0748804707480047FEE7FEE7FEE7FEE7FEE7FEE704480549A6
:2001A000054A064B7047000061060008B900000880080020800E0020800A0020800A00200E
:2001C000704710B50B460146184600F0C8F810BD0346F0B50B439B072DD1244DEF01042AC5
:2001E00029D308C810C95E1B9E43121F3E4017D0D8B2E1B2401A3106014310D198B2A1B2FA
:20020000401A310401430AD118022102000A090A401A3102014302D1180E210E401AF0BDD6
:20022000A342DCD018BA21BA884201D90120F0BD0020C043F0BD002A01D10020F0BD0378FA
:200240000C78401C491C002B0DD0A3420BD1521E09D003780C78401C491C002B03D0A342A4
:2002600001D1521EEBD1181BF0BD000001010101F8B5042A2CD3830712D00B78491C0370FB
:20028000401C521E83070BD00B78491C0370401C521E830704D00B78491C0370401C521E81
:2002A0008B079B0F05D0C91ADF002023DE1B08C90AE0FFF74DFFF8BD1D4608C9FD401C46AA
:2002C000B4402C4310C0121F042AF5D2F308C91A521EF0D40B78491C0370401C521EEAD4CE
:2002E0000B78491C0370401C012AE4D409780170F8BD01E004C0091F0429FBD28B0701D58E
:200300000280801CC90700D00270704700290BD0C30702D00270401C491E022904D3830795
:2003200002D50280801C891EE3E70022EEE70022DFE770477047704770B5064C7C44064DC9
:200340007D4404E02046016808188047241DAC42F8D170BDE80F0000E80F00007047F8B5CB
:20036000074615460E46102000F012F8040009D06760A660E56000F007F80168216004602B
:200380000020F8BD0120F8BD004870473800002070B5064600F072F8056830460B30C408A6
:2003A000E400B44201D8002070BD68682A46002818D00168A14211D30B46214608318B42FF
:2003C00008D3436801194B6003681B1B0B605160046001E041685160001D70BD024640683C
:2003E0000028E6D12146284600F050F80028DCD170BDF8B50646FFF7C7FF0090054615E08A
:20040000002E02D0E068B0420FD1206828600098A168076860688847204600F080F80098A5
:200420000068B84202D00098E8E725462C68002CE6D1F8BD00487047000000207546FFF7BA
:20044000F9FFAE46050069465346C008C000854618B020B5FFF7A2FE60BCB6460026002778
:20046000C0C5C0C5C0C5C0C5C0C5C0C5C0C5C0C5403D490849008D467047000000487047B4
:2004800008000020704770477047704738B504460A4600206946C046C046002805D00246B1
:2004A0002046009900F069F8012038BD10B5012000F083F810BDF8B5C046C0460546002094
:2004C0000C461020C0460646A819A0420DD9324669460020C046C046070001D100F06DF83E
:2004E0000098A04200D00546C419FFF7C7FFF61D07460560F008C0004619284600F008F894
:20050000B44204D031463868A21B00F036F8F8BD002101604160806070471020704770B5A4
:200520000446051FFFF7AAFF0068002C1AD0446801E020466468002C01D0AC42F9D3016851
:200540000A18AA4204D12A6805468918016000E0456028684119A14205D161686960216896
:200560004018286070BD6C6070BD10B50446C046C0462046FFF7E6FD10BD10B50346406898
:2005800001E003464068002801D08842F9D31868C3188B4206D0CB1CD808C000001D411AFD
:2005A000521A0146081D0A60FFF7B9FF10BD10B5002801D000F0BEFB10BD10B500F01EF87F
:2005C000FFF7F5FF10BD70B505460C460A2000E06D1C00F0B0FB002D06D028780028F7D1E1
:2005E00002E0641C00F0A7FB002C02D020780028F7D10A2000F09FFB70BD000010B50128B2
:2006000005D0002103A0FFF7DEFF012010BD09A1F8E7000053494752544D454D3A204F7571
:2006200074206F662068656170206D656D6F7279000000003A2048656170206D656D6F72C2
:200640007920636F727275707465640080B503480168491C016000F0FBFA80BD78080020B8
:200660000120C0060F4908607047C04680B500F04FFB80BD80B50120800208490A6882430A
:200680000A60EFF3108072B605484168026882F30888044A1060884780BDC04614040050B9
:2006A0000018000808ED00E0F0B584B0009101900292D3075DD1012005042F4B1E1F37682E
:2006C0002F42FBD137687F03FCD41F68002F05D519460C39294F0F60294F0F6037682949D9
:2006E0000F4337601F68022427431F603F27FF0001990A0A3A4039461F688F43BF181F60C0
:200700001F682F431F6037682F42FCD137681D490F4337601F68A7431F6003A900270F8044
:200720000F88029A974220D21F6807431F6003AF3C880722944300990A1952680C593F8853
:2007400001997C507C18626032682A42FCD13268024332601A6882431A60039A083203AC52
:2007600022802288029CA242DED3C00719680143196004B0F0BDC046142002402301674548
:20078000AB89EFCDFB83000010B5054C0548606000F00AF80020A0600720206010BDC0463C
:2007A00010E000E07F3E0000FF20000603490A6882430320800710180860704720ED00E026
:2007C00070B5002917D00D4D00220D4B03E0521C8A4225460BD0845C6C40082502E0344698
:2007E0006D1EF4D06608E407F9D05E40F7E7E04300BA000C70BD002070BDC046FFFF0000A5
:200800000884000009480168032211430160100507490A6882430A60012002050B681343C1
:200820000B6080024A6982434A6170473410024000040050F0B5B5B0009316460D4607467E
:2008400009ACB0212046FFF772FD80213846224600F0C2F8012E08D0002E4BD109A90A22E7
:20086000284600F069F835B0F0BD009E002E41D00020089007900690059028786978090244
:200880000818A978EA78120251180904081801902879697909020818A979EA7912025118CA
:2008A000090408180290287A697A09020818A97AEA7A12025118090408180390287B697B7E
:2008C00009020818A97BEA7B1202511809040818049009A90A22284600F02EF81024284622
:2008E00031462246234600F067F801A930462246FFF7BEFC35B0F0BD10B581B003796A4675
:20090000537003781370037A9370037BD37001235C1A03231C40145D04710224641A1C40D3
:20092000145D04725C1A1C40145D047349421940515C017001B010BDF0B581B016460C4612
:20094000054610010918284600F016F8022E08D3761EF7B238012118284600F0E7F8012F87
:20096000F6D80020215C2A5C4A402A54401C1028F8D101B0F0BD000010B5044600200A5C2E
:20098000235C53402354401C1028F8D1601C0121FFF7B2FFA01C0221FFF7AEFFE01C03218A
:2009A000FFF7AAFF0020A949225C8A5C2254401C1028F9D110BDC04610B5884200D81346BB
:2009C000002B08D00A780478544004705B1E401C491C002BF6D110BDF0B589B01346079245
:2009E0000D460146EA081846FFF742FC68090190C1B288001C30C0B20490059188426DD9E4
:200A000000200390059C019F3B463CE008AD284602961E4600F06CF86878314B185C68702A
:200A2000A878185CA870E878185CE870039AD0B22CA1085C2978595C414029700198361837
:200A40003546029E521C03920598201A8000079B195C18184278120251188278C07800026F
:200A60008018000440180899414006981954080CB070080EF070080A70707F1CFCB20498D4
:200A8000A0422B462AD9A50007982E18301F01784278120251188278C078000280180004A7
:200AA00040180890D8B2F9B281420695AED005981D460828C8D1072020400428C4D108A874
:200AC0000178074A515C01704178515C41708178515C8170C178515CC170B5E709B0F0BD67
:200AE0001611000801020408102040801B3600000178427802708278C37883704270C170C7
:200B0000704770B500231C4645B2ED09154046006E4001250D406D4205406B40651C49085A
:200B2000072C30462C46EFD3D8B270BDF0B58FB00024025D0B5D53400BAA1355641C102CE6
:200B4000F7D1029000260BA88119CD788A780A9213466B400093805D4A7807920146044685
:200B600008905140019108465840C1B209201B273A460397FFF7C5FF069020460A994840FB
:200B8000C1B2042420463A46FFF7BBFF099007986840C1B220463A46FFF7B3FF044606985B
:200BA000444027466F4008984540E9B202200590039D2A46FFF7A5FF7840029989190491EA
:200BC000C870099F06994F4009970A9847400098C1B205982A46FFF794FF78400499887050
:200BE00007994C400A984140C9B2059D2846039F3A46FFF786FF6040049948700898099C44
:200C000044400198C1B228463A46FFF77AFF604002998855361D102E95D1029C601C01219C
:200C2000FFF76AFEA01C0221FFF766FEE01C0321FFF762FE0020054923461A5C8A5C1A5406
:200C4000401C1028F9D10FB0F0BDC046161200082D480168491C01607047C046B0B52A495B
:200C60000A680C4BD2180F4B1C68A4060CD40C689442F9D91C6800220121A40706D55C682B
:200C8000022525435D6001E09A68002102700846B0BDC0468813000002490A685206FCD550
:200CA000C86070471C38014070B501468C4803680122134303600F239B04052425072E687D
:200CC0009E432E60E3042E681E432E6011231B016E6A1E436E629203C3681343C360064859
:200CE00000F016F90549C8602003886008680D2202430A6070BDC0460024F4000038014062
:200D0000014900220A607047600000207047000010B5054C2046FFF7F3FF0448044A2146AA
:200D2000FFF74FFA10BDC046760800200D0D000800000008FEE770478AB0FFF791FCFFF78A
:200D400023FD67480168012739430160FFF75AFDB902644A1068019108431060624C63A129
:200D60000E222046FFF734FA4542454100280AD105A90020887388810790069005900F22E4
:200D80002046FFF791FC4B200002FFF78DFFF8020290812000010490039707E0BA20FFF768
:200DA0007BFFC220FFF778FF039F3D4609A800260670FFF753FF002803D0E807F6D1FFF709
:200DC00059FC01208002474A11688143116009A80078BA283D46E9D109A8FFF73FFF002887
:200DE0003D46E3D109A80078FB2801D1FFF742FC09A80078BF283D46D8D1404D28464049AA
:200E0000FFF795FA0498871C03E07F1E6D1C002F16D0F00714D12846FFF720FF0028BDD1DB
:200E20002878BA28F1D105AC002020702046FFF715FF21784A1E91410E4306430028E4D054
:200E4000F007ABD1049D2D4E705B000404BA029910313046FFF7B4FC84429FD10024089488
:200E6000079406940594274F3119012205AB3846FFF7E0FC1034A4B2AC42F5D33488002095
:200E80003080B01C02990E31FFF79AFC210409BAC22581421BD1F078B178090208181A49D3
:200EA000884214D10F4A1068019908431060706800BA3B21C9028842039F09D813494018A3
:200EC00010363146029AFFF7EFFBC12500E0039FBA20FFF7E1FE2846FFF7DEFE3D4665E7B3
:200EE0003410024014040050F0FF01087A6572644067656E657261746F72000064000020CC
:200F00001208000006110008717A00000018000843088B421AD3002203098B4279D3030A34
:200F20008B425ED3030B8B4242D3030C8B4227D30902FF2212BA030C8B4202D31212090215
:200F400003D0030B8B4233D31AE0D3E0411A8041401C704703460B4371D443088B42F5D345
:200F6000002203098B4254D3030A8B4239D3030B8B421DD3030C8B4202D394466EE0090AB2
:200F8000C30B8B4201D3CB03C01A5241830B8B4201D38B03C01A5241430B8B4201D34B0340
:200FA000C01A5241030B8B4201D30B03C01A5241C30A8B4201D3CB02C01A5241830A8B4298
:200FC00001D38B02C01A5241430A8B4201D34B02C01A5241030A8B4201D30B02C01A524173
:200FE000CDD2C3098B4201D3CB01C01A524183098B4201D38B01C01A524143098B4201D399
:201000004B01C01A524103098B4201D30B01C01A5241C3088B4201D3CB00C01A52418308C2
:201020008B4201D38B00C01A524143088B4201D34B00C01A5241411A524110007047CA0FE5
:2010400000D04942031000D34042534000229C4603098B422DD3030A8B4212D38901FC22F6
:2010600012BA030A8B420CD3890192118B4208D3890192118B4204D3890137D0921100E031
:201080008909C3098B4201D3CB01C01A524183098B4201D38B01C01A524143098B4201D305
:2010A0004B01C01A524103098B4201D30B01C01A5241C3088B4201D3CB00C01A5241830822
:2010C0008B4201D38B00C01A5241D9D243088B4201D34B00C01A5241411A00D20146524121
:2010E000104663465B1000D34042704763465B1000D3404201B50021004201D0C9430846CD
:20110000C046C04602BDC878EA3C37AA588C8C1CE15D66A8B0BD637C777BF26B6FC53001E5
:20112000672BFED7AB76CA82C97DFA5947F0ADD4A2AF9CA472C0B7FD9326363FF7CC34A549
:20114000E5F171D8311504C723C31896059A071280E2EB27B27509832C1A1B6E5AA0523B96
:20116000D6B329E32F8453D100ED20FCB15B6ACBBE394A4C58CFD0EFAAFB434D338545F91B
:20118000027F503C9FA851A3408F929D38F5BCB6DA2110FFF3D2CD0C13EC5F974417C4A707
:2011A0007E3D645D197360814FDC222A908846EEB814DE5E0BDBE0323A0A4906245CC2D3DB
:2011C000AC629195E479E7C8376D8DD54EA96C56F4EA657AAE08BA78252E1CA6B4C6E8DD17
:2011E000741F4BBD8B8A703EB5664803F60E613557B986C11D9EE1F8981169D98E949B1EE0
:2012000087E9CE5528DF8CA1890DBFE6426841992D0FB054BB1652096AD53036A538BF405B
:20122000A39E81F3D7FB7CE339829B2FFF87348E4344C4DEE9CB547B9432A6C2233DEE4C87
:20124000950B42FAC34E082EA16628D924B2765BA2496D8BD12572F8F66486689816D4A40B
:201260005CCC5D65B6926C704850FDEDB9DA5E154657A78D9D8490D8AB008CBCD30AF7E4D3
:201280005805B8B34506D02C1E8FCA3F0F02C1AFBD0301138A6B3A9111414F67DCEA97F21D
:2012A000CFCEF0B4E67396AC7422E7AD3585E2F937E81C75DF6E47F11A711D29C5896FB719
:2012C000620EAA18BE1BFC563E4BC6D279209ADBC0FE78CD5AF41FDDA8338807C731B11210
:2012E00010592780EC5F60517FA919B54A0D2DE57A9F93C99CEFA0E03B4DAE2AF5B0C8EB4B
:20130000BB3C83539961172B047EBA77D626E169146355210C7D00002C13000800000020EE
:0C132000800E0000FC00000845F3FFFFF9
:2018000068370020C1190008C9190008CB1900080000000000000000000000000000000051
:20182000000000000000000000000000CD1900080000000000000000CF190008C1610008A0
:20184000D319000800000000D3190008D3190008D3190008D3190008D3190008993A0008F5
:2018600000000000D3190008D3190008D3190008D3190008D3190008D319000800000000B0
:2018800055620008A5620008D3190008D3190008D3190008D3190008D3190008DD40000891
:2018A0003D420008D3190008D3190008CD67000841680008D319000800F002F800F054F8B2
:2018C0000CA030C8083824182D18671EA246AB4654465D46AC4201D100F046F87E460F3E09
:2018E000B6460FCC0126334200D0FB1A3343A246AB4618472043010040430100103A02D3DB
:2019000078C878C1FAD8520701D330C830C101D504680C607047000000230024002500266F
:20192000103A01D378C1FBD8520700D330C100D50B60704710B5642902D100F09BF810BDF4
:20194000782902D100F0CCF810BD002010BD1FB501F038FC04000020002110F0C3F9401C4F
:2019600060601FBD10B510BD01F0DAFB1146FFF7EEFF0BF03DF801F0FBFB03B4FFF7F2FF84
:2019800003BC05F019FF000070B505460C46164602E00FCC0FC5103E102EFAD2082E02D369
:2019A00003CC03C5083E042E07D301CC01C5361F03E021782970641C6D1C761EF9D270BDAC
:2019C0000748804707480047FEE7FEE7FEE7FEE7FEE7FEE704480549054A064B704700000C
:2019E00045620008B918000868250020683700206827002068270020704700000FB41CB54A
:201A0000074B06AA7B4469460090059800F09DFD0020694600F0ACFD1CBC08BC04B0184788
:201A2000690B000070B5044685690068C10601D5302600E02026C00707D070BD6268304649
:201A4000A1689047206A401C20626D1EF6D570BD70B5044685690078C00707D170BD626850
:201A6000A16820209047206A401C20626D1EF6D570BD0000F7B5002575291068009914A621
:201A800011D0C046C046002802DA404211A608E0009909688A0701D50FA602E0490704D503
:201AA0000EA6012501E0C046C046009F0024243704E001F0D9F830313955641C0028F8D13B
:201AC0002B4632462146009800F0E1FCFEBD0000000000002D0000002B000000200000001E
:201AE00070B504460D4621461068C046C0462188090502D50F4A7A4402E00E4A7A440E325C
:201B000023460021243305E006070009360F965D5E54491C0028F7D120780023000705D50E
:201B2000702D03D0002901D002231132204600F0AEFC70BDC6020100F3B50446002081B09A
:201B400020622046E168884700287AD0252802D06268A16871E0E1682046002588470646E1
:201B60000020E0610746A0612A2E0AD0304610F0B2F8002827D0B8000019303E009086618F
:201B800019E00298BA00121902C8916102902046E1688847012F064617D1E06900281FDA33
:201BA000202085431CE000980A218069484300998019303888612046E1688847064610F09D
:201BC0008AF80028EFD1012F0AD02E2E08D12046E16888470646202005437F1C022FC3DBA0
:201BE000A069002803DA4042A06101200543E80701D010208543002E23D0304641381928E2
:201C000003D80120C00205432036204625603146029A1546FFF78EFE00280BD0012806D08B
:201C2000ED1DE808C000083002908AE709E02D1D029586E762683046A1689047206A401C72
:201C40007EE7206AFEBD00000FB400B58DB010A909900B900020C04300910A9000200C902E
:201C6000074878440690074878446A4607900F9909A800F047FE0DB008BC04B0184700004F
:201C8000C30C0000DD0C00000EB5044615460E4612A000F0DFFF204600F0DCFF15A000F07A
:201CA000D9FF304600F0D6FF14A000F0D3FF6C460020E0720A20A0720A3407E00A2128467D
:201CC00000F0D4F930310546641E2170002DF5DC204600F0BFFF00F0B3FF00002A2A2A2036
:201CE000617373657274696F6E206661696C65643A2000002C2066696C6520002C206C6900
:201D00006E652000401ECAB24178401C8A4202D00029F9D100207047034670B502460B4375
:201D20009B070FD10E4CE60100E008C208C91D1B9D433542F9D0D9B21170521C00290DD08D
:201D40001B0AF8E70B78491C1370521C002B05D00B78491C1370521C002BF3D170BD0000B1
:201D60000101010130B5441C03E00178401C00290DD08107F9D10B4BDD0104C8D11A91434B
:201D80002940FAD0001B0A0603D0C01E30BD001B30BD0A0401D0801E30BD0902FCD0401EA0
:201DA00030BD0000010101010346F0B50B439B072DD1244DEF01042A29D308C810C95E1BA9
:201DC0009E43121F3E4017D0D8B2E1B2401A3106014310D198B2A1B2401A310401430AD16E
:201DE00018022102000A090A401A3102014302D1180E210E401AF0BDA342DCD018BA21BA4B
:201E0000884201D90120F0BD0020C043F0BD002A01D10020F0BD03780C78401C491C002BCC
:201E20000DD0A3420BD1521E09D003780C78401C491C002B03D0A34201D1521EEBD1181BE7
:201E4000F0BD000001010101421E5378521C002BFBD10B78491C1370521C002BF9D17047BC
:201E6000F8B5042A2CD3830712D00B78491C0370401C521E83070BD00B78491C0370401CD9
:201E8000521E830704D00B78491C0370401C521E8B079B0F05D0C91ADF002023DE1B08C96D
:201EA0000AE0FFF771FDF8BD1D4608C9FD401C46B4402C4310C0121F042AF5D2F308C91A15
:201EC000521EF0D40B78491C0370401C521EEAD40B78491C0370401C012AE4D4097801705D
:201EE000F8BDD2B210B513029A1813049A1800F00EF810BD01E004C0091F0429FBD28B0738
:201F000001D50280801CC90700D00270704700290BD0C30702D00270401C491E022904D32D
:201F2000830702D50280801C891EE3E70022EEE70022DFE7F8B507460B463946194389071C
:201F400013D1164CE601042A0FD302CB0D1B8D43354202D102C0121FF5E7CBB20370401C1A
:201F6000521E002B13D0090AF7E7002A14D01978521E5B1C0170401C002908D0002A0BD099
:201F80001978521E5B1C0170401C0029EDD1002A02D01146FFF7CAFF3846F8BD01010101CC
:201FA00082078B079A423FD170B5920F0AD0032402780B78401C491C002A33D09A4231D18A
:201FC0002042F5D1214EF40104C808C9951B9543254018D19A420FD104C808C9951B954321
:201FE000254010D19A4207D104C808C9951B9543254008D19A42E7D012BA1BBA01209A4253
:2020000000D2404270BD12BA1BBA2DBA18241000E0401900E140401A05D12E00E64002D1BA
:20202000083CF4D1D01A70BD02780B78401C491C002A09D09A4207D102780B78401C491C4D
:20204000002A01D09A42EFD0D01A704701010101002203098B4273D3030A8B4258D3030BF1
:202060008B423CD3030C8B4221D312E003460B437FD4002243088B4274D303098B425FD34C
:20208000030A8B4244D3030B8B4228D3030C8B420DD30902FF2212BA030C8B4202D31212F0
:2020A000090265D0030B8B4219D300E0090AC30B8B4201D3CB03C01A5241830B8B4201D34D
:2020C0008B03C01A5241430B8B4201D34B03C01A5241030B8B4201D30B03C01A5241C30A64
:2020E0008B4201D3CB02C01A5241830A8B4201D38B02C01A5241430A8B4201D34B02C01AC8
:202100005241030A8B4201D30B02C01A5241CDD2C3098B4201D3CB01C01A524183098B4266
:2021200001D38B01C01A524143098B4201D34B01C01A524103098B4201D30B01C01A524106
:20214000C3088B4201D3CB00C01A524183088B4201D38B00C01A524143088B4201D34B0080
:20216000C01A5241411A00D201465241104670475DE0CA0F00D04942031000D34042534072
:202180009C46002203098B422DD3030A8B4212D38901FC2212BA030A8B420CD38901921149
:2021A0008B4208D3890192118B4204D389013AD0921100E08909C3098B4201D3CB01C01AEA
:2021C000524183098B4201D38B01C01A524143098B4201D34B01C01A524103098B4201D3F3
:2021E0000B01C01A5241C3088B4201D3CB00C01A524183088B4201D38B00C01A5241D9D2F3
:2022000043088B4201D34B00C01A5241411A00D201465241104663465B1001D34042002B28
:2022200000D54942704763465B1000D3404201B50020C046C04602BD704770477047000058
:20224000F0B5FF252D04C609C209FF2704462E400137CB093E4348402A402B400746002AAB
:202260006BD0002B69D0AA4267D0AB4265D0002800DA32460125ED0529432C4309022002E0
:20228000090AD21A4B0C7F24E31A434C000A7C44E35C7D242404121914145B00A2188842B5
:2022A00001D3521C00E0400049420C465C4324115C43DB016415E318040A5C43C502200D7B
:2022C0000C4644436419250A5D432303EC0C0D46654300030019EB184C42A34201D35B18E7
:2022E000401CD4052018002B07D05B00C91804D3401C002901D1400840003F2189048A42C4
:2023000009D3002A08DC1106090F04D0032149074018C00FC007F0BD0122410012068918A4
:202320007F2252069142F6D205214907C84201D59010F0BDFF20C005F0BD002F00DA324654
:202340001648AA4207D2AB4205D21902090E17D0F80FC007F0BDFF2563002D06AB42F9D88A
:202360004900A942F6D8AB4201D1A942F2D0A94201D1002101E061004908D0050843F0BDB1
:202380001102090EFBD0FF200243D005F0BD0A460146104654E7000056FB00000000C07FAA
:2023A0000102C21504D00123DB071943002A0ADB9E239A1A02D40846D0407047FF2241003C
:2023C0001206914201D900207047C017C04370471F22030C02D10F2200041CD0030E01D1A9
:2023E0000002083A030F01D10001121F830F01D18000921E002801DB4000521ED2055118FB
:20240000021251181922904004D3491C002801D14908490008467047C10FC90700D040426D
:20242000012292071143D3E701218907D0E74146016049464160514681605946C160714662
:2024400001611430F0C069460160001D01B5C046C04606BC964601C10020704704000D00EF
:20246000A06AC046C046616A8D462200280000D10120116888465168894691688A46D1689B
:202480008B4611698E461432F0CA70477047FFB504460D4681B0243000902168880604D559
:2024A0001022E0699143216000E00120A84201DD471B00E000270498A1697A191018081A97
:2024C000A0612078C00602D42046FFF7ABFA002608E003986268A168805D9047206A401CB0
:2024E000761C206204988642F3DB2078C0060AD52046FFF797FA06E06268A168302090478C
:20250000206A401C206238467F1E0028F4DC07E000986268A168405D9047206A401C206212
:2025200028466D1E0028F3DC2046FFF791FA2078000602D5022005B0F0BD0120FBE70000C8
:2025400001694A1C02610878704700B58FB0029100210591054901937944039111460490B5
:202560006846FFF7E9FA0FB000BD0000E5FFFFFF0A681070521C0A607047FFB51C460025BA
:20258000ED4385B00020009001909F685E68A16906986D1C88470290216A88470028F6D1ED
:2025A0000298401C0CD0032040028643002F19DD700614D502982B2809D02D280FD103E0B9
:2025C0000020C04309B0F0BD012080020643A16906986D1C88477F1E002F029002DD0298AF
:2025E000302803D00798002828D024E00120A169400206436D1C06987F1E8847002F0290E3
:2026000003DD782805D0582803D00798002810D011E00798002801D010280CD10120A169A2
:20262000400286436D1C06987F1E88470290102000E008200790C017039016E00A20F9E731
:202640000120039B40020643079A019900987F1E00F01EFB029AD3178018594101910090DD
:20266000A16906986D1C88470290002F06DD0799029800F02EFB00280290E1DAE169069806
:202680008847B00502D40120C0439BE7F00710D1700610D5700505D50098019B00224142DF
:2026A0009A4101E0019A00992068031D2360006806C0284686E72068011D21600068019ACC
:2026C0000099F5E7FFB51D460027FF4383B05C68002001909E68A96904987F1C88470090AF
:2026E000296A88470028F6D10098401C0CD0032040028443002E19DD600614D500982B282F
:2027000009D02D280FD103E00020C04307B0F0BD012080020443A96904987F1C8847761EAB
:20272000002E009002DD0098302803D00598002825D035E00120A96940020443761E04987E
:202740007F1C8847002E009003DD782805D0582803D00598002810D022E00598002801D06C
:2027600010281DD10120A96940028443761E04987F1C88470090102002E0082000E00A2089
:2027800005900DE00121059A49020C430199761E514308180190A96904987F1C8847009041
:2027A000002E05DD0599009800F093FA0028E9DAE96904988847A00502D40120C043A5E783
:2027C000E00722D1600611D56005019800D5404229680A1D2A600968220501D5087014E062
:2027E000220701D5088010E008600EE02868011D29600068210502D50199017005E0210758
:20280000019901D5018000E0016038467EE7FFB5144683B000200026009050680190916949
:202820009768049888470C9905460698084305D009E0A1690498761C88470546216A28464C
:2028400088470028F5D1681C03D00198C00704D017E00020C04307B0F0BD2068011D21608B
:20286000006800900DE00198C00704D1009805700098401C0090A169761C04987F1E884709
:202880000546002F1CDD681C1AD0069800280FD0E817C00E4019411140098A000699400187
:2028A00051182A1A0968012090400142DBD107E00C980028D7D12846216A88470028D2D02D
:2028C000E169049888470C98002807D1002E05DD0198C00702D1009800210170A068B84230
:2028E00004DD0C98002804D0002F02D00120C043B1E73046AFE700000268511813780160CF
:202900001846704710B5D16005497944516105497944116200211161114600F0E9F910BDE8
:20292000EBFFFFFFAD0300004268002A08D001680B78491C002B03D0521E06C018467047B9
:202940000121C160881E70474268002A0BD0C3680168002B07D183688B4204D0491E521C30
:2029600006C0002070470020C0437047FFB5144687B00020019050680390976800200290EE
:20298000064604900590916908988847109905460A98084305D009E0A1690898761C8847AF
:2029A0000546216A284688470028F5D1681C03D00398C00704D02CE00020C0430BB0F0BDF2
:2029C0002068011D21600068019022E004AA6846E9B200F05DFB411C07D0801C09D00020CD
:2029E00002900398C00707D00DE0E1690898884746E00120029007E0684601880198018055
:202A00000198801C01907F1EA1690898761C88470546002F1CDD681C1AD00A9800280FD0BE
:202A2000E817C00E4019411140098A000A99400151182A1A0968012090400142C6D107E097
:202A400010980028C2D12846216A88470028BDD0E169089888470298002811D11098002869
:202A600006D1002E04DD0398C00701D101990880A068B84204DD1098002804D0002F02D092
:202A80000120C0439AE7304698E7FFB5144685B00020009050680190966800200290054665
:202AA0000390916906988847109907460898084305D009E0A16906986D1C88470746216AA5
:202AC000384688470028F5D1781C03D00198C00704D01CE00020C04309B0F0BD2068011DF5
:202AE00021600068009012E00198C00709D1B9B2009802AA00F0EDFA411C34D00099081891
:202B00000090A1696D1C0698761E88470746002E14DD781C12D00898002807D03B460F9AE6
:202B20000E9900F0A5FA0028DED107E010980028DAD13846216A88470028D5D0E169069899
:202B400088471098002806D1002D04DD0198C00701D100990870A068B04204DD1098002803
:202B600004D0002E02D00120C043B5E72846B3E7FFB5144683B000273D465068019091698B
:202B800096680498884700900E990698084305D009E0A16904986D1C88470090216A00983D
:202BA00088470028F5D10098401C03D00198C00704D014E00020C04307B0F0BD2068011D3C
:202BC000216007680BE00198C00702D100983880BF1CA1696D1C0498761E88470090002E6C
:202BE00015DD0098401C12D00698002807D0009B0D9A0C9900F03CFA0028E4D107E00E98F9
:202C00000028E0D1216A009888470028DBD0E169049888470E98002805D1002D03DD019817
:202C2000C00700D13880A068B04204DD0E98002804D0002E02D00120C043BDE72846BBE7EF
:202C400010B5002000F066FAFEF78CFE012004F0B3FD10BD10B5044602E0641C04F0ADFD1F
:202C600020780028F9D110BD01468008081A02091018020A1018020C1018C00882001218FB
:202C80005200891A01E0401C0A390A29FBD270474343514330B55C18010C130C0D4692B2D2
:202CA0005D4380B251432C19054655430A0C09044D1962415843010C00044019514130BDD6
:202CC00010B5044600F04CFA0068005DC007C00F10BD3A2800D23038202302469A43412A18
:202CE00001D310463738884201D30020C0437047F3B50C468FB000200C90012000260E90E9
:202D000008460C3003906269039801219047051E2ED0252D2DD0216A8847002818D0626992
:202D2000039801219047216A88470028F7D16269411E0398904700E0761CA1690F98884727
:202D4000216A88470028F7D1E1690F988847DAE7A1690F988847A842074601D1761CD2E7D4
:202D6000E1690F9888477F1C02D10C98002877D06BE16269039800273D46394690472A280E
:202D80000CD16269039801219047012506E00A214F433F18303FEBD41020054362690398CB
:202DA00001219047014630390A2903D2AC498F42DEDCECE7E90600D4AA4F6C280AD04C2871
:202DC00010D0682824D06A282ED074280CD07A280AD00DE062690398012190476C2823D038
:202DE00004211CE0202005436269039801219047A760652865604FD026DC582839D01ADCD2
:202E0000452849D012DC252834D04128B0D143E06269039801219047682802D008210D43A6
:202E2000E6E70120C002DEE70220DCE7462833D047289DD130E05B2870D061282CD0632807
:202E40006CD0642894D161E06F284FD009DC662822D0672820D0692826D06E2817D12EE057
:202E6000EFE070284DD073286FD075284ED078280DD154E0A1690F9888472528054600D19E
:202E80006CE7E1690F9888476D1C00D16DE7DCE00A224CE00A2252E0012023466A460F991D
:202EA000C043C046C046C5E040212846234608436060A80701D5002239E000223FE0E8072B
:202EC00000D020E72068011D21600068290501D5067018E7290701D5068014E7A90703D504
:202EE000F117066041600EE706600CE740212846234608436060A80701D5082217E0082262
:202F00001DE0594928460840606016E040212846234608436060A807BCD5B9E715E040212D
:202F2000284608436060A80707D52346102201200F99C043FFF721FB7CE0102223460120FC
:202F40000F99C043FFF7BEFB74E0002163280B460191009102910D9102D05B2807D03BE02B
:202F6000E80601D40120A0600120009034E0E06801210D906269039890475E2807D10120E5
:202F80000190E06801210D906269039890472169002906D10B4604AA8F00491C0829D3518A
:202FA000FADB002851D02169002926D00298401C029062690398012190475D28F1D1019883
:202FC000002808D0002004AB8100401C5A58D24308285A50F8DB04AB2069002820791CD0EC
:202FE0004007029A00980D9B0092224602901F480F991DD5FFF7BCFD1CE0C117C90E0918A6
:203000004A114909930004AA9A184901411A13680120884003431360CBE740072246134892
:203020000F9902D5FFF7A2FC04E0FFF7F0FB01E0FFF72BFD00280ADA401C06D10E980028AC
:2030400003D00020C04311B0F0BD0C98FBE7E90702D10C99491C0C91361800200E9052E6D8
:20306000CCCCCC0CFFFFFF7FF1F7FFFFFEFFFFFF10B509E00488801C9C4205D1002A01D0FE
:20308000002010BD012010BD491EF3D2104610BDF8B516460C46054600F062F80368FF208C
:2030A0000230C05C012805D0185D00280ED001202C80F8BDFF333246214604331868C71820
:2030C00068460023B84700992980F8BD0020C043F8BDF8B516460C46054600F041F8036817
:2030E000FF200230C05C012807D0FF2C0FD8185D00280CD001202C70F8BDFF333246214655
:2031000008331868C71828460023B847F8BD0020C043F8BD10B500F039F800F031F810BD2C
:20312000754600F04BF8AE46050069465346C008C000854618B020B5FEF74CFC60BCB6461B
:2031400000260027C0C5C0C5C0C5C0C5C0C5C0C5C0C5C0C5403D490849008D467047000059
:2031600010B500F02FF8001D10BD00BF79EB000010B50446C046C0462046FEF7FEFB10BD2A
:2031800010B5002801D004F017FB10BD10B5002102A000F01BF8012010BD00005349474101
:2031A0004252543A2041626E6F726D616C207465726D696E6174696F6E00000000487047D8
:2031C00018010020004870473801002070B505460C460A2000E06D1C04F0EFFA002D06D029
:2031E00028780028F7D102E0641C04F0E6FA002C02D020780028F7D10A2004F0DEFA70BD60
:20320000B0B582B01D4D287802281CD0012822D000282CD1E54869460A220A60486040203D
:20322000EE4A105A4221515A090409184420125A0120002300F05AF9032400281AD128787F
:20324000401C287016E001F06DF90024204600F06DFA2C700EE01120094900F0C1F903246E
:20326000002807D107480178491C017002E0002028700324204602B0B0BDC04678010020CB
:20328000013200084D00002010B582B0164C2078012809D000281FD1012000F047FA01F038
:2032A00055F92078401C2070E24869460A220A6048604020C94B185A4221595A09040918FB
:2032C00044201A5A46201B5A012000F00FF9002804D0032002B010BD032000E00020002140
:2032E000217002B010BDC04679010020F0B581B00C4606460D20094F394600F0ADF80546C6
:20330000002807D1388800F04BF83080388800F04AF82080284601B0F0BDC0467C03002007
:20332000F0B581B00C4606460F20094F394600F093F80546002807D1388800F0D1F8308024
:20334000388800F0C7F82080284601B0F0BDC0467E0300207F2189010840704780B582B05B
:20336000FFF7F8FF0346D14869460A220A6048609A4801894289120451188289012000F03F
:20338000B5F802B080BDC04680B504480121017030480021017001F0BFF880BDD81400207C
:2033A000000A800170470006000C704780B582B000F014F80346BD4869460A220A60486064
:2033C000A020864A105AA221515A09040918A420125A012000F08AF802B080BD80B532211D
:2033E000322800D808460EF07FFB4006400C80BDB0B582B0174C20780021172803D0FF281A
:2034000003D1052022E0084620E0C100734A535C002B17D0A5486B460A251D605860505A78
:2034200053185988090409189A88DB88012000F05DF801460320052907D0002907D121781E
:20344000491C03E0411C032000E0FF21217002B0B0BDC04669100020B0B582B00C46934990
:203460006A460A2313605160C0005C490A5A0818418809048918FF22914382880120064D78
:203480002B4600F093FF002801D002B0B0BD2988218002B0B0BDC04680030020B0B582B070
:2034A000824B6C460A2525606360C0004B4B1C5A181843881B041C19054D5540C3880B437B
:2034C0002B4082880120214600F010F802B0B0BDFFFF00002D2189010006800C4018704761
:2034E0002D218901000A800140187047F0B583B015462B4A138002AA13802A4E3278D207E5
:2035000010D16A4A6B460A241C605A60AAB2244B00F04CFF05283BD0002830D13078401C96
:2035200030702DE0099A089B6C4623606260FF27B943AAB21C4C234600F038FF052827D007
:2035400000281CD1290AC9B2002911D000250A462B4602AF7F5D655DBD4200D1521E5B1CB2
:20356000DDB28D42F5D3110604D03178491C03E0377004E00021C9433170052805D0307846
:20358000C0B2FF2803D0062806D3052000E000200021317003B0F0BD032003B0F0BDC046E8
:2035A0008403002086030020820300208914010810B582B00B463D496A460A24146051609F
:2035C000C00006490A5A081841880904891882880120FFF78BFF02B010BDC046D44901088B
:2035E00070B582B02E4C2268002A03D08A4202D004201BE021602B498A692B4D2A600122A9
:203600002A700B4B18808A8BAA80296827486D460A262E606860022000F0C8FE052801D0D4
:20362000002803D10021216002B070BD02B070BD8803002089140108F0B583B00C46184E4D
:203640003168002904D0914203D0042003B0F0BD3260C00013490A58134B1A600818828898
:2036600000271F709A80196810486B460A251D60586002200E4D2B4600F098FE052807D014
:2036800000280AD1288820803760384603B0F0BD0848208000203060052003B0F0BDC04637
:2036A000CC030020281E0108C403002089140108AC030020FEFF000080B509F067FE044894
:2036C0000449016002F06CFD04F0BAF8002080BD240000200090D00310B5052109070A68CA
:2036E00000281BD00F4802400A60FF20A6300A6802430A604A68132082434A60CA683023C5
:203700009A43CA60CA6810241443CC608A681A438A60886111200002086210BD024802439E
:203720000A6010BD00FCFFFFFF0300000F210A0405490B6893430B60002804D005204004B1
:203740000A6802430A6070470004005080B5816901220A43826103F08BFF80BD70B5154691
:203760000E460446806901218843A061204603F07FFF2846304300280CDB1020205EB0426D
:2037800008DD1220205EA84204DD09208101204603F04CFF70BD00001B4801681B4A914249
:2037A00023D300210160B5480178002901D0491E06E03B210170B0480278002A16D0511E16
:2037C0000170B3480178002901D0491E06E03B210170AE480278002A0FD0511E0170012076
:2037E00040030B490A8802430A8070470170A04801780029DBD16321E2E70170A148017853
:203800000029E2D16321E9E768110020E7030000F0060020F0B585B0244D2C7800F038FCCC
:2038200084422AD000F034FC801E04280BD8C0467844007940008744020A0E1216001C480F
:203840000468214812E01A48046820480EE0184804681C480AE016480468194806E01448F6
:203860000468164802E0124804681248124907F0F1FD0146204608F067FA154E3288154FB5
:20388000388890420BD06C4613A12046FEF7B6F8134800680021CA43214608F075FD00F09A
:2038A000F7FB28703088388005B0F0BDED040020B8070020E8230108745B01088C3001080B
:2038C000DE36010882430108303D01083A2A01087E100020580400202534642525200000C9
:2038E000CC070020B0B51048006810A10024224608F04AFD0F4800680F49224608F044FD7C
:203900000E4800680E49224608F03EFD5C4800680C4D2946224608F037FD5E480068294612
:20392000224608F031FDB0BDD0070020496E6974204F4B00D4070020845B0108D807002065
:20394000775B01086B5B010810B504460A210EF0CBF88A490A6882420AD10920C04350431F
:203960000119064800680022D24308F079FC10BD844A01231370086010BDC046EC07002043
:2039800080B506480178002906D00022027004480068044908F0F8FC80BDC046EE04002056
:2039A000D00700204F000020F0B583B03048007802900A2421460EF097F807462D480770EC
:2039C00005462D480078019021460EF08DF80646E8702A480578284621460EF085F8254AE2
:2039E000907167430299C91B517066430199891B11716043281AD071104615460DF082FC21
:203A00001F48006800220292294608F0BDFC1D480078019021460EF067F805461A4F387073
:203A20001A480078009021460EF05EF80646F87017480778384621460EF056F8124A907141
:203A400065430199491B517066430099891B11714443381BD071104614460DF053FC0D482B
:203A600000682146029A08F08FFC03B0F0BDC046D506002031000020D6060020D7060020AD
:203A8000DC0700202F1C002081000020301C0020311C0020E007002080B50120800607490B
:203AA00008600748016820220A430260416880220A43426003F09CF980BDC0461804005084
:203AC0000C18024080B5014602483022FEF732FA80BDC046D803002070B50D4604462079AE
:203AE000012631468140294208D002F03DFE002807D0052807D003280CD116E0401C207109
:203B000009E0207904E020798640216831432160401C20712079C0B20628E0D300212171D6
:203B200020682160002800D00520C0B270BD000010B5884801780A070FD5F72211400170E2
:203B40000E490A68521C0A2353430D4C2488A34203D20C4B01241C700A6001784A070BD590
:203B6000FB221140017005480168002904D0054A01231370491E016010BDC046C00300203F
:203B8000AA040020EA04002010B50023002A06D09C000C59844202DC5B1C9342F8D3D8B21B
:203BA00010BD000080B50120C1020348FEF7BEF902480021016080BD580800205408002023
:203BC00084B000200390C7433E4C3F4D019704E03C4C204607F036FD3B4D07F031FE38481C
:203BE000394607F08DFD07F0DBFD0646204607F01CFD2D68002D13D15FE02782256864684D
:203C0000304F384607F01EFD2046A84707F0C8FD0646384607F009FD2B480568002D4CD094
:203C20002A4800680290019B2C46039A278A78071AD4B80709D4A168964202D2914202D356
:203C400012E0914201D3B1420ED9002808D4A068801B984204D202990DF046FF039A0346D7
:203C60006469AC42E2D125E0F80710D0E16800290DD0B80708D48819A568461B3046FEF78E
:203C8000E7F9681A8019A06004208743B5E76069A0420BD0A16981616069A169486100278A
:203CA000A542AAD1606908490860A6E7002706480760A2E71F4603968AE70396019F87E718
:203CC0005C2500204C1100205C110020241C0020B0B51D480A2107F0FDFA1C4A1060018897
:203CE00009239B0199422ED1194909684068401A434243411748017801240C401C43F02389
:203D00000B40E31802240C401B19134C246812685268141B654265416C001C430F4B1B6874
:203D2000D31A5D425D41AB0004250D401D432B190B4C2468121B54425441E20008240C40FF
:203D40001443E1180170B0BD2008002060110020A8070020B4030020AC070020B00700200C
:203D6000B4070020F0B585B00446008A40210291884320826068026B03A920469047002813
:203D800075D003AAD0880F210140D18065686E88F20727D01822AA5E0192042203AFBA5E9F
:203DA0001427EF5F2B46162500935D5FBD4208DD019B9A4211DD1A21009D695E8A4256DB99
:203DC00007E0019B9A4208DA1A21009D695E8A424DDC0E210840014602E001200143009D6C
:203DE00003A8C180B0052DD4F00508D503A8C088C00704D1208903A90880608966E0E76964
:203E0000002F68D0384605F01EFC0190384605F015FC034670073FD41E46384605F011FCE2
:203E200087214900884224D0B42833462AD05A2832D103A84188039A4280C943019A51181C
:203E4000018029E003A8C088E289424001211140208A820706D40029C6D0022108432082A9
:203E600005B0F0BD0222904320820029BCD105B0F0BD03A84188039A0180D1433346711887
:203E8000418009E00398C0430199081803A908804888C04318184880208A40071BD503A895
:203EA000008800B2002805DB0199884205DB0846481E00E0002003A90880022003A9085E60
:203EC000002805DB984206DB581E03A9488002E003A800214180208A810601D5223500E088
:203EE0001C350421695E012917DB0A22A25E02232F4603ADEB5E9E1A76430823E35E2D8818
:203F00002DB2ED1A6D43751949438D423D4604D291B29AB203AB59801A80C10716D0022247
:203F2000A95E012912DB1423E35E03ADAA5ED21A52431223E35E2D882DB2EB1A5B43D2181B
:203F400049438A4202D901218843208203A8C288E089114681439043CB0703D010231A431E
:203F600003ABDA80012506462E40002E04D003AAD38820271F43D78087B288070AD0039812
:203F8000608203A84088A08207F00AFCA061208A28432082BF072ED0208AC1072BD0A843D9
:203FA000208207F0FDFBA169451AA5614B208000019007F039FB85420DD8002F04D503A8FB
:203FC000C18880220A43C280002E04D003A8C188029A1143C18060684088C0070BD0A56900
:203FE0000198C83007F020FB854204D303A8C18880220A43C2801948002107F097F900282A
:204000000DD00546154E03AA2846214601F070FF3046294607F08AF905460028F3D100217C
:20402000204607F083F900280CD0054603AA2846214601F05DFF2046294607F077F9054602
:204040000028F3D10398208103A8418861810499A181C088E08105B0F0BDC0463C040020B2
:2040600010B509490978094A1368174A1478FE2222401B0601D402231943022A01D00422D1
:204080001143C9B2405C10BD90040020100000500D480078FE210140022905D10B480088CB
:2040A0000A2803D20120704706207047142801D202207047322801D2032070475A2801D3FF
:2040C00005207047042070474C0000207E100020014800787047C04654060020F0B54D48DD
:2040E00041698A0718D54C4A5379002B06D05B1E5371DBB2D218927842620DE01379002B2F
:204100000AD01478002C07D1444C25686E1C26602C7844625B1E1371012293024C062ED4B5
:204120004C0748D40C0652D48C0660D4CC0665D4194209D083613D4B1A703A4B04241C70A4
:204140003B4B1C78641C1C708B050AD553028361364B1A70334B04241C70364B1C78641CBF
:204160001C70C9050AD511028161304802702D480421017030480178491C0170F0BD264C36
:2041800025780468002D06D005681C4205D0940325432C460CE0950309E0FF242404A54362
:2041A000056004681E4D25430560550304682C4304604C07B6D5046A184D2E68771C2F60F6
:2041C0003470154C25796D1E25710C06ACD5124C2479012C01D06E4C00E06C4C056825406B
:2041E000056014040568254305608C069ED5202484610C4C00252570CC0699D5102484616F
:20420000084C04252570084C25786D1C2570194290D199E70454004063100020581100208D
:20422000000401015C100020D70300205A100020D5030020D1030020D3030020F0B5504849
:2042400041698A0718D54F4A5379002B06D05B1E5371DBB2D218927842620DE01379002BCA
:204260000AD01478002C07D1474C25686E1C26602C7844625B1E1371012293024C062ED451
:204280004C074DD40C0657D48C0665D4CC066AD4194209D08361414B1A703E4B03241C7028
:2042A0003F4B1C78641C1C708B050AD5530283613A4B1A70374B03241C703A4B1C78641C4F
:2042C0001C70C9050AD5110281613448027031480321017034480178491C0170F0BD294DC6
:2042E0002E780468002E06D006681C4205D094032643344611E095030EE006604124A402A5
:204300000668264306602C79022C03D31406056825430560550304682C4304604C07B1D5F3
:20432000046A194D2E68771C2F603470154C25796D1E25710C06A7D5124C2479012C01D0A6
:20434000134C00E0114C05682540056014040568254305608C0699D5202484610D4C002591
:204360002570CC0694D5102484610A4C03252570094C25786D1C257019428BD194E7C046F9
:20438000045800405D10002054110020FFFFFFFEFFFF00FF5B100020D6030020581000206B
:2043A000D4030020D0030020D2030020F0B583B0504E3578062D19D8AC0001A73C59A74601
:2043C000DD430008F9430008134400082F4400083D44000871440008994400084848006874
:2043E00046490860681C307003247FE00020307006F010FB012479E04048026840490B68EF
:204400009A1A0324032A71D36A1C3270096801606CE006F00DFB042851D80121814019209B
:2044200001424CD03078401C307003245EE0324802210170681C3070032457E0304C24687C
:204440002E4D2C6094B2240A6D46D2B21CC52D4A155C2D4A125C48B22C4B1C5C0B0C28468E
:20446000214608F07BF83078401C307003243DE006F0DEFA042813D0002815D106F0C4FAE3
:2044800000282AD01C480178491E0170080629D004203070032429E0681C3070052425E0F8
:2044A00006203070032421E01448006814490968081A03241F2819D30620307016E00F48ED
:2044C00000680F490968081A03241F280ED306F0A1FA3078401C307008E03078801C307039
:2044E000002403E03078401C30700324204603B0F0BDC04620040020280400202404002046
:20450000C0040020E84A0108EB4A0108F05A010880B500F001F880BD0148002101707047FE
:204520002904002010B501204105064A13680B431360054B1C6884431C60106888431060AC
:2045400010BDC0463C1002400054004080B508F073F880BD10B504462034204605F08DFB4B
:20456000002802D0204605F041FB10BDF0B58DB0064612200690305E0B901020375EF08980
:204580000C90B0890A9007F0CBFB054634462034204605F072FB002834D00A9A089506207B
:2045A0000594235EBB423ADAF81AC10F40184710D41938040B9D099307940ED0B0680490AD
:2045C000684605600899416011B20C9A12B23BB2049804F0F3FD099B079CB0680A90308A39
:2045E00069460D60089A4A60E11809B2DB19C21A13B20C9C22B20A9804F0E0FD0020049067
:20460000234619E0B06869460B9A24C10A9909B20C9A12B23B4604F0D1FD0DB0F0BDBB4275
:2046200004DDD81BC10F4018401000E000200490099707920C9B0B9D2820345EAC422CDA44
:204640000698305E001BC10F40181A464710DA190C923804079D0BD00E20325EB068694663
:204660003BB20B60089B4B6029B2099B04F0A6FDB068718A6A46E319C91A09B21160089F09
:2046800057600C9909190AB229B2099B04F096FD394600200B902F460BE0079FAC4204DDCB
:2046A000601BC10F4018401000E000200B902C460899059D284605F087FDB0680B9909B259
:2046C0006A46049B1BB2099E166054609360D1603AB20C990BB2294604F0B8FF0DB0F0BDF7
:2046E00080B588B00948008801B2B9486A4601F089F8002801D008B080BD019816210DF0E3
:20470000F3F91749088008B080BDC04618040020F0B581B0114B00255D609D60DD60104CE4
:204720002088002816D000252F460095B8B21E4600F01EF933467068009E5E6099689E6013
:20474000DA68DE60401C401A504345197F1C20888742EBD30348056001B0F0BD9014002096
:20476000AA040020CC040020B0B5044605464035284606F06DFF002806D006F0F7FE2846E5
:2047800006F066FF0028F8D1204602F025FEB0BDF0B583B00446828642860186876938073D
:2047A0001DD415461020205E1238884213DCE0690021009105F044F9801C01B21220265ECA
:2047C000B01E00B2019002910DF0B0F9A16B7A0707D4814205DC2046294600F07AF803B099
:2047E000F0BD132D0CDCE06B01280299F7DB401AC1178843E063204602F03AFF03B0F0BDD2
:2048000030461438A8420CDDF00F30184210E06B954217DA01280199E1DB884223DC009877
:2048200022E0029A51430198081AE16B8142D6DA8918814200DC0846E063204602F018FF8C
:2048400003B0F0BD029B4B43019D591B8842C6DA6A009A1A904200DA4119E163204602F091
:2048600007FF03B0F0BD401AE063204602F000FF03B0F0BDF0B581B00446007E000726D5DE
:204880001546A08E91B2884221D007B2E66BE069002105F0D5F8791B7118E1631222A25EC6
:2048A000801CA36B4343981C821A9142084600DB501E002801DB914202DBC1178843E06374
:2048C000A586E06B864202D0204602F0D1FE01B0F0BD70B50D460446C069002105F0B0F89A
:2048E000E16B4A19801C01B210460DF01FF9002825DB0546A06B854221DA206C002817D074
:20490000A26901210A402B46002A04D18688002B04D08E4303E0002B02D106E00E438680B4
:204920005B1E00680028EFD102E082884A408280204602F09DFE2046294608F073FC70BDDA
:2049400080B5037E1B0712D53023C35E591ACB17C918594004290ADC3221415E891ACB17CB
:20496000C9185940042902DC1146FFF7B2FF80BD70B505F043FF164C1649082200232046A7
:2049800001F040F8144E306005F0EEFE0546308801B2204600F0BEFE284670BDB0B505F05E
:2049A0002DFF0B480B490822002301F02BF80A4D286005F0D9FE0446002802D105F050FF8F
:2049C0000446288801B2024800F0A4FE2046B0BD0407002093040020FC06002010B5234C43
:2049E0002078062818D8C0467844007940008744030A161D262D32001E48016880220A4338
:204A000002600120207008F029F8002829D11B48FFF726FB207024E00020207021E015482C
:204A2000016880220A4302600320207008F016F8002816D11048FFF713FB207011E0FEF722
:204A4000DFFB00280DD1052020700AE00848FFF707FB207005E0FEF717FC002801D10020F8
:204A60002070074800780749087010BD4D000020C84A010810180240B84A0108C04A01083A
:204A80004C000020BC04002010B514460A468168C068091810462246FDF7E2F9204610BD69
:204AA0000020C043704710B514468268C06810182246FDF7D5F9204610BD000070B5244CD1
:204AC0002278012A18D0002A1BD1224D2978012633468B40034226D0084601F0E3FC03211B
:204AE000052827D0002819D12878401C28702078401C2070C8B270BD501C20700321C8B227
:204B000070BD0020207013490A78132A08D30870114A11681060002900D00521C8B270BD40
:204B20000321C8B270BD501C2070481C28700321C8B270BD2878421C2A702278521C2270B5
:204B400086400548026832430260C8B270BDC046390400203804002084100020F0B581B011
:204B60000E490E5C142070430D4A171826480078085C80003C580B4D28462146FEF7ACFFDC
:204B80000028F9D1B0003C58064D28462146FEF7A3FF0028F9D1002001B0F0BDB04A0108AD
:204BA000F81F01080C04002080B507F001FE0020C04380BD10B56D20002105F041FD00284C
:204BC00011D0044660684088800702D5208A400602D52046FFF7C6F86D20214605F030FDC5
:204BE00004460028EED110BDB0B5074D2A78002901D1824300E00243072414402046FFF79C
:204C0000ADFF2C70B0BDC0465B04002000220A60024608CA002B02D01368104600E01346AD
:204C2000196001607047000002480021016041607047C046D014002001460068002801D00D
:204C400002680A607047000010B582B0484C2078042819D87844007940008744024B225F7B
:204C600035000020694608600D21444A0B2301F0F7FB01460320052965D0002961D121783A
:204C8000491C217002B010BD64282FD0652855D1384800210180384801802170052002B0D6
:204CA00010BD0020694608600D21344A0B2301F0D7FB01460320052949D0002941D12178CE
:204CC000491C217002B010BD0020694608600E212A4AFF2301F0C4FB0146032005293AD011
:204CE00000292ED16421217002B010BD0020207002B010BD01206946086000200C21204AD9
:204D00000B2301F0ADFB01460320052927D0002917D12178491C217002B010BD002016499F
:204D2000144A01F0CFFA0146032005291BD0002907D12178491C217002B010BD0020207019
:204D4000032002B010BD6521217002B010BD6521217002B010BD6521217002B010BD652169
:204D6000217002B010BD6521217002B010BDC04671040020D4040020320400205D04002023
:204D80008A000020B0B53B4D2878042816D8C0467844007940008744023819472800052095
:204DA0003A49364AFEF748FC01460320052952D000294FD12978491C2970B0BD642821D02B
:204DC000652844D1002028700520B0BD01202D492A4AFEF731FC0146032005293ED00029EB
:204DE00038D12978491C2970B0BD0B202249FEF733FB01460320052933D000292AD16421A1
:204E00002970B0BD00202870B0BD00201E491B4AFEF712FC01460320052925D0002919D1D8
:204E20002978491C2970B0BD0220134C134A2146FEF702FC01460320052918D0002909D1AB
:204E400021880F4A11802978491C2970B0BD002028700320B0BD65212970B0BD65212970C0
:204E6000B0BD65212970B0BD65212970B0BD65212970B0BD720400201E1C00205DCA000802
:204E80007E100020C2140020801000207C10002080B5012002F0FAFA80BD000002480078D7
:204EA0000249085C7047C0464D0000205C20010870B522480068224D4119224C2078F54E8B
:204EC0003268914205D201280BD103F06BF9002004E0002805D103F065F90120207003F03B
:204EE00073F9194801683268511A184A914203D33168174A8918016016490A78002A03D092
:204F000000220A70316801600068411920783268914208D2022808D103F044F90020207077
:204F200003F052F970BD002800D070BD03F03AF90220207003F048F970BDC04678100020FA
:204F4000881300005A0400207410002011270000F0D8FFFF6B100020B0B54448007800286A
:204F600010D0434C2078082872D8C0467844007940008744040B18254D5E6D707500012000
:204F80002070B0BD3A4800210170B0BD04200121FFF72AFE09F042FC00F0A4FB02F056FD24
:204FA00002202070B0BD38483AA10822002300F029FD3449086000F075FB03202070B0BDAF
:204FC00000F088FBFFF774FF2A48007800280BD02C48008801B22C4800F09CFB0420002119
:204FE000FFF702FE0720207023490868234A13681B1A264DAB4203D31368254D5B190B6009
:205000001168081A1E49884229D204202070B0BD00F060FBFFF74CFF00F032FB00281ED0E9
:205020001848008801B2184800F074FB05202070B0BD00F04FFBFFF73BFF0F4800680F4973
:205040000968081A0E49884209D902202070B0BD00202070B0BD07480078002803D0B0BD4F
:2050600000202070B0BD08202070B0BDEC040020EA1B00209104002020000020C0040020E0
:20508000A08601001804002004070020410D0300C0F2FCFF667265712E706C730000000059
:2050A0000B480078401F022801D30020704701207047C046064800780149085C7047C046E2
:2050C0006320010802480078C11E484248417047EA1B002070470000B0B59F4D28780A28DA
:2050E00013D8C0467844007940008744051121314C5E6872848B9B006B480078002800D1C5
:20510000B6E0022028700020B0BD00202870AFE066480188002900D188E06349097800297C
:2051200000D183E000210180022028700020B0BD022001242146FFF757FD00F0F5F85948DC
:2051400004700A2006F016FB032028700020B0BDFEF760FBFFF7B6FF00287AD051490878DB
:2051600000220A704E490B780122002B144600D11C46204310400870002868D003F03EFCE6
:205180000420287065E0FFF79DFF00285BD003F03BFC05286ED000286ED13F48006800211D
:2051A000CA433E4906F048FE66E0FEF733FBFFF789FF00285CD0032028700020B0BD00F0AC
:2051C00077F802200021FFF70FFD012028700020B0BD2E4800682E490978002901D00821DC
:2051E00029702C490968081AC0087C2840D8012028700020B0BD2448016820220A4302607E
:20520000092028702148006821490978002905D020490968081AC0087C2829D80A202870E8
:205220000020B0BD012028700020B0BD1748006818490968081A7D21C900884218D9072097
:2052400028700020B0BD032028700020B0BD00F08FF81548007801214140144802880A43BF
:20526000002A05D006212970002101800020B0BD0020B0BD032028700948002101700A20EB
:2052800006F078FA0020B0BD0C180240B003002092040020C0040020EC070020D806002035
:2052A000EB040020EA040020EC0400205006002080B506F045F9002080BD000070B5FEF76B
:2052C00071FC06F09BF913A004F082FF07F014F811480024214607F015F8104E3068104975
:2052E00003F01EFE02F0ECFC02F068FE02F070FD02F046FD0B4D284606F04EF8284606F073
:20530000F1FB30680221322203F030FE03F076FB204670BD55313100CC2101081C0400208D
:20532000FFFF00002008002010B53C48002404700448047004480480FEF734FCFFF7BEFFDE
:20534000204610BDED04002058040020024800780249085C7047C046E91B00206C200108A6
:2053600080B502480BF090F9002080BDD1CE0008B0B5FEF7ADFCFEF7ABFE032812D001284F
:2053800035D100F015FE25480478FEF7A1FE844201D0FEF7A7FAFFF795FE002827D0FEF7BD
:2053A000C7FB24E01D4D2C78FEF792FE844205D01B4800681B49002206F0E6FF00F066FE79
:2053C000C34C2088800504D42D78FEF781FE85420DD0BB480088FEF7B7FA134800681349AC
:2053E000002206F0D1FF2088114901402180FEF76FFE0A490870FEF7C3FAB54801888904EF
:2054000005D501880B4A0A400280FEF7CDFA0A480178F0220A4002700020B0BD5C040020A6
:20542000D4070020895B0108D807002093040020FFFD0000FFDF0000B4030020F0B581B047
:205440006E480078012801D101B0F0BD6C4E3078032800D992E0810001A251588F46C04645
:20546000715400088555000879540008AD540008401C307001B0F0BD012420462146FFF75D
:20548000B3FB07F04FF908F073F803F0A3FB614D28884027384328802888C00600D582E096
:2054A00069A000F077FD347001B0F0BD55480168554A914205D355490A68521C0A60002124
:2054C0000160FEF769F952480168504802688A4227D30024046002F069FB08F049F84D489D
:2054E0000088800519D54C4801884C4D2888401C82B28A4200D32046288080B248490988BA
:20550000884201D107F098FF2888FFF747FA07F0B5FE07F0CDFE07F025FA07F0C1F90BF04C
:205520006FFC3C4C2088000703D4FFF7CBFD00288AD12088082188432080208810218843D1
:205540002080208802218843208020888021884320800124002520462946FFF745FB3148F3
:2055600005703148057031480570314805703148057031480570347001B0F0BD002030704E
:2055800001B0F0BD23480188C90700D15CE70188012291430180FFF795FD002828D002200A
:2055A000307001B0F0BD1D4C20881D49088007F043FF2088FFF7F2F907F060FE07F078FE6A
:2055C00007F06EF907F0CEF90BF01AFC2888802101432980288802210143298003203070DD
:2055E00028883843288015A000F0D4FC01B0F0BD19A000F0CFFC01B0F0BDC046DC1400201D
:2056000054060020B4060020E7030000B8060020BC060020F0060020AA0400206C1100200B
:205620006E110020301C0020311C00202F1C0020D7060020D6060020D5060020436F6E660D
:205640006967204F4B000000436F6E666967206661696C6564000000D0A1616E277420707A
:205660006C6179207768656E20636F6D6D00000080B507F057F809480021017080BDC046A5
:2056800006480078022801D30020704701207047024800780249085C7047C04654060020EF
:2056A0007720010880B5FFF71BF8FFF731F880BD034908800648018801220A43028070475C
:2056C0006C1100200248018808220A4302807047F006002080B502F0A9FF0BF093FC00201B
:2056E00080BD0000B0B582B00024684604600A21064B2046224602F061FF054D287002F028
:2057000063FD2870204602B0B0BDC046603B0000CF060020B0B50D460446416E5048B84A2B
:20572000914211D15C21615C00290CD02046294608F0FAFA002807DB2046294608F0DCFA07
:20574000002801DBB0BD18302063B0BD01684A6E4348AB4B9A4206D15C228A5C002A01D0EC
:2057600000207047183008637047C046006B704710B50446426E3A48EF4B9A420AD15C2210
:20578000A25C002A05D0204608F0CEFA002801DB10BD1830206310BDF0B581B00446406EAF
:2057A000F44988420AD15C20205C00280BD01448401C20630020C04301B0F0BD1048C01C1C
:2057C000206301B0F0BDE068002812D025464235002637462E80B9B2204608F077F9002802
:2057E0000AD17F1CB8B2E1688142F3D8002001B0F0BD002001B0F0BD0148206301B0F0BDCC
:20580000D5D8FFFF70B582B00E460446406ED949884218D15C20205C002818D0154601AA57
:205820002046314608F050FA002815DB2046314608F07AFA01988189204632462B460BF0FB
:205840003BFA02B070BDCC48206302B070BDCA481830206302B070BD206302B070BDC0469A
:20586000D8D8FFFFF0B585B00E460446406EC149884225D15C20205C002825D01F4602927C
:2058800004AA2046314608F01FFA002820DB2046314608F049FA049EB068411C00D1002029
:2058A000029D022F17D0012F01D1B1694D19002D14DB854215DDB061224D253525633EE05A
:2058C000204D103525633AE01E4D2835256336E00546206333E04519002DEADA194D2563F0
:2058E0002DE0681EFB210CF0FFF80027002D03DC3846712803D208E080B2712805D37138B3
:2059000080B27C210CF0F0F8471CBAB2308A904210D0F08803A96B4619600121C903014319
:205920000023204609F05AFA002806DB049807820399C1810498856101E0206305462846E6
:2059400005B0F0BDC8D8FFFFF0B585B01E4617460D460446006E049020460C305C2101915C
:20596000FCF7E6FAA868A06068686060286820600498206601218802E060049108023818A7
:20598000206267620A9F30463946FCF7CFFA0321304608400B9A00280391029203D0042193
:2059A000081A3F1A36180C9DA6622C2138460CF09BF8E062029B1846039A1040002803D0EE
:2059C0000421081A2D1A1B18049E63649543680B00D07503A564204607F080FECC4860664C
:2059E000204609F071FA002806DB0D98019966546065002005B0F0BD206305B0F0BDC046A9
:205A000015030920F0B587B00F460446406EC04988420ED15C20205C00280ED01D461646AD
:205A20003846FCF79FF911280BD3A4482063434D25E0A24D0C35256321E0A04D24352563BB
:205A40001DE0039506A920463A4608F0B3F8002813DB05AA2046394609F09EFE05460421CA
:205A60003046084000280DD1002D0BDA0698415E204608F041F9256301E00546206328B26A
:205A800007B0F0BD002D1FD000282AD08B482230854226D1029104A90022204609F024F8A4
:205AA00000283FDB04A8018805A86A46012313605060002320463A4609F0F2FD002831DBA6
:205AC0000220864302990EE04420304044280AD10698415E204608F00FF97848851D2563AA
:205AE000CDE7002DC2DB0F4605A80188069A6846039B0360204633460AF04CF900280DDB20
:205B0000B00706D5069800210A460AF08BFA002804DB0698002181618588B0E70546069830
:205B2000C15FA5E7054606980299415E204608F0E3F82563A3E7C04615030920CCD8000060
:205B4000416EDC4B994209D15C21415C00290AD0002191609180106010467047D64901637A
:205B6000002210467047D44918310163002210467047C04615030920D8D8FFFF80B508F0DB
:205B8000C9FD0249884200D1002080BDEDD8FFFFF0B589B00C46054600685C21415C002913
:205BA00015D0AA68A98807AB6F467B6108AB3B61FC600026BE600E4B7B603E60042308F09A
:205BC00077FE002807D02968086334460CE00A490163002408E00898A8800798401CA86061
:205BE0002088044901402180204609B0F0BDC0461D0C0108FF7F0000F0D8FFFF70B584B02D
:205C00000E460446406EAB4988420BD15C20205C00280BD03046FCF7A5F811280AD3274D13
:205C2000256348E0254D0C35256344E0234D2435256340E003A9002520462A4607F0BAFF8D
:205C4000002836DB02AA2046314609F0A5FD002808D0064604200399095E204608F04CF8D2
:205C6000002E23DB02A80188039A6846056020462B460AF08FF8002808D0064604200399B1
:205C8000095E204608F038F8002E0FDB0398012229460AF0C7F900280DD0064604200399FF
:205CA000095E204608F028F8002E04DA2663354601E020630546284604B070BDCCD8FFFF4F
:205CC000F0B581B00446406E7A4988421ED15C20205C00281AD025465C35E06A002813D01F
:205CE000A06A061D00273088002808D001B2204608F01AF8308801B2204607F0FDFF2C364F
:205D00007F1CE06A8742EED30020287001B0F0BD15030920F0B585B016460546406E654ADF
:205D2000904213D15C20285C002812D01C4604AA284607F0C9FF002800DAB2E00499888B22
:205D4000C2060AD45C48C41C2C63ACE05A4C2C63A9E0594C18342C63A5E0C00704D08868B0
:205D6000421C00D1002088618B69086A002806D128461F4607F07EFD3B460499086204981D
:205D8000818BCA070ED083685A1C00D10023026A002A07D01F46138AD268D2183B46974206
:205DA00000D8134689066FD4076A45218A00114614398C4252DA0292002F23D0FA689342F4
:205DC00003930CD3398A51188B4208D819190191029BD318143B01999942039B20D97978DD
:205DE000029B59436B6C1B69591814313B8A08F0E9FC07460498016A284607F04FFC039B15
:205E0000002F53DB049928461F4607F0D6FC3B4604990862002803D0C360086A0021018230
:205E20000498016A002930D0C8681F1A487802994143686C00694018C01914303146224659
:205E4000FCF70EF83A190498016A0B8A9A4200D313460B8281690919816124E0002F13D0C1
:205E600079784A43696C09698918143103933B8AFA6808F0A7FC07460498016A284607F066
:205E80000DFC039B002F11DB049831461A46234608F098FC002804DB04998A6912198A612B
:205EA00000E028630446204605B0F0BD2F633C46F9E7C04615030920D8D8FFFFF0B581B0A6
:205EC00004463C2529460BF00FFE06462946FCF7BFF8064F7970E120010120460BF004FE97
:205EE00038707543601BB87001B0F0BD2C1C0020F0B581B016460D46044605F0FFF9F188A4
:205F0000F0220A4000281CD0002A14D1E268002A11D1227A12070ED42A89338893420AD1F7
:205F20006A897388934206D10F220B461340EF891740BB422CD0A268CB070AD152070AD53B
:205F40000FE0E06802430120C0031043E06001B0F0BD920705D40A06120F19D0227AD207EF
:205F600016D06A68528801231A401B02D21802803288428072888280B288C280E2681143F6
:205F800001810021E160E969C160204605F02AFA01B0F0BD80B50146034801220270034826
:205FA0003122FBF7C7FF80BDEE0400204F000020B0B50F480178CA0718D0FE221140017048
:205FC0000C4D286806F042F900280FD00AA0FFF7E1FF0A24204605F0CDFB286806F01EF932
:205FE0000A49096861430818FFF762FBB0BDC046B4030020EC070020436F6E6669672E20C5
:20600000506C65617365207761697400C0030020F0B585B007460820385EC117890E4118C1
:206020008D11002D00D1012529010A22BA5E511ACA0F8918491004916901401AC10F401871
:20604000401003900F4C60882188A288E3886E466B431BB233600C4B73606A4313B26943D2
:20606000039A891809B26843049A801802B2384603F0A4F80834034880308442E3D305B01D
:20608000F0BDC0467C200108FFFF000080B5054801788A0704D5FD2211400170FFF712FB61
:2060A00080BDC046B403002010B50C4C2078012806D0002807D10AF0CDFF002806D010BD81
:2060C000FEF78CFC10BD0020207010BD0448002101702078401C207010BDC046AC040020F4
:2060E0004D00002080B505480021017006F0A4FAFEF70EFAFDF748F980BDC0469004002062
:2061000080B5FFF7C5FAFFF721F9FEF7C7FEFEF7D1FF80BDF0B581B01E48016801220A43B4
:2061200002601D48002101604160032399020522120714688C431460FF24250217490E6895
:20614000AE430E600D46643D2E6820273E432E600D46583D2E683E432E6005683D43056021
:206160009B0315689D43156022060B6893430B600A46603A136880242343136054390A68F2
:2061800022430A6001682143016001F02DFB01B0F0BDC04634100240801802406418024067
:2061A00010B5054C0548606000F02AFE0020A0600720206010BDC04610E000E0FFF9000042
:2061C00010B5174A1068401C106016490868401C086015490B6820211940002902D01268E2
:2061E000124B1A60124A13888B4201D1114B19801180114A13880F4C248814809C430F4AE3
:20620000138823431380002901D10D4908600C490968401A9149884200D210BD00F03AFEA6
:20622000C0040020B404002010000050B0030020AE040020B0040020B2040020500600207D
:20624000B80400200120C006014908607047C04608ED00E00E480168C90717D00121C94393
:2062600001600C480168491E01600B480088000603D40A490020086006E008480168491CA1
:20628000016007480068401C054908607047C04610040040281C0020F006002068110020B0
:2062A000B406002080B505480168C90705D00121C943016002480068804780BD10100040CF
:2062C000CC140020F0B583B00D465F4E3178032913D814468A0001A39A589746ED62000878
:2062E00003630008576300089B630008574800220270481C30700326A3E00020307003269C
:206300009FE00022694602920A6001274F4EFF233946324600F0A4F8052867D000286BD1FD
:206320007078B17809020818F17809044018327912068018464A10600326300508407905D4
:20634000884202D0390588426CD13F4801460078401C087075E0002769460F6002213B4EFC
:20636000FF23324600F07CF8052847D000284BD17078B17809020918354A116003260146FA
:206380003140032948D10007800F032850D12E4801460078401C087053E0002769460F60E4
:2063A00003262A4AFF23314600F05AF805282DD0002846D12548024640789178090208185B
:2063C000D17809044118127912068A18204B1A60204A02400A20504328800803800D3221E8
:2063E00041432180184807703E462AE000262E8026801548067024E0032622E000262E80C3
:206400002680114806701CE003261AE000262E8026800D48067014E02F8027800A48077090
:206420003E460EE0029E2E8026800748067008E040000949085A288008482080002602484D
:206440000670304603B0F0BD6A1000205506002098060020FF030000C42101088813000092
:20646000F0B583B01446C9000C4A555A5218518809044919FF25A9439288089DFF2B02D09F
:206480001B02D2B2D218064B6E460A273760736029432346FDF78AFF03B0F0BDFC200108FA
:2064A00089140108B0B5122800D9B8E00024C0467844007940008744090F16DE1920262928
:2064C000B52CBA3F536C919AA5A8E000012100200246FCF7E3FFB0BD0120C10305200022D3
:2064E000FCF7DCFFB0BDFCF783FFB0BD0120C20305200021FCF7D2FFB0BD00200122014698
:20650000FCF7CCFFB0BDFEF79FFBB0BDFEF73AFCB0BD8349002008608E490A8885490978B0
:20652000002A0A4600D002467F4B1B88002B00D01146894A1170B0BD794800240460854833
:2065400001887C4800780029014600D00121764A1288002A00D008467F4908702046B0BD5F
:206560006C4800887A4900248842214601D371480178784802880320002A024600D00A46C2
:2065800069490988002900D01046734908702046B0BD6248007840066DD47D20C1006148B2
:2065A00002685218A3490B689A4205D2096801605B48016864310160594801685A4A1288D9
:2065C000643A914201DD0260114600297EDB026856498A424FDD01602046B0BD4F480078ED
:2065E000400648D44E480088FCF7E0FEB0BD4848008848490988490802F0DEF94649086092
:206600002046B0BD00F054FBB0BD4B485449FCF787FE04464648012101702046B0BD0524EC
:206620002046B0BD4D484F49FCF760FEB0BD4B4801884048027801208229014600D3114641
:20664000434B6533334D2D889D4200D81146334A12684B239B0054331A4200D001463E4851
:20666000017051062ED43049098800292AD039490988002926D02046B0BD284800688103C2
:2066800040D42B49097801293CD12A490978FE220A40022A1ED1000634D42748018800201B
:2066A000294A914209D31B490988244A914204D926480088C10A01208843214908702149AC
:2066C00008701FE0022101702046B0BD002404602046B0BD012915D8174800881749884259
:2066E0000DD94B2081000E48026801208A42024600DC0022124909781143014000E0002163
:20670000104801700A48002404702046B0BDC04680100020C2140020B803002084100020B8
:2067200034040020C404002032040020540B0000E80400204C000020BE1400207017000073
:20674000E9040020EC040020711700007C10002008200000D40400204E000020B81400206E
:20676000BC140020BA14002010B505280DD8C0467844007940008744020B11171D23012088
:206780000AF0EAFB0024204610BD0524204610BD01200AF075FB0024204610BD01200AF06A
:2067A000B3FB0024204610BD002420460AF0ACFB204610BD002420460AF062FB204610BD62
:2067C000002420460AF0C8FB204610BD80B519480068194908601948011F0A68120608D58F
:2067E00002682023134303600246203A1268120612D40968890618D5016808220A430260EA
:2068000020380068800610D55348007802280CD053480068804780BD0838016810220A4305
:2068200002604D480078022800D180BD4F480068804780BDC0040020781000202038014089
:20684000F0B581B03E4C251F2868800655D5206808210143216061683A4802783A4B9954A7
:20686000521C027039480278022A05D0012A26D0002A2AD1012129E0CAB201261B2A374666
:2068800037D0531E5F425F41252A2FD0304B1B781F40002F2AD158182E4908702E4800780D
:2068A0000027022825D150425041184221D12B48007800281DD02A480068804719E0CAB20C
:2068C0001B2A05D12248012100E00021017014E01F4A090607D11178002904D02149012347
:2068E0000B70022101700020107006E00121017000271C48067016480770286800061CD513
:20690000204620380068000617D52068202101432160083C20681021014321600E48007841
:2069200002280AD110480178002903D00021017001B0F0BD0D480068804701B0F0BDC046AD
:2069400020440040D9140020EF040020EF05002052060020D00400205A040020D104002080
:20696000C41400206B10002053060020C814002070B50D4604464F48214604F07FFE0A488C
:206980000026E660206102202A5E288801B2204600F020F806202A5E0420295E204600F0E0
:2069A00035F9F04370BDC0460300030070470000B0B504460020C1433D4D284604F0A0FE29
:2069C0003C48214604F06DFE284604F08CFEB0BD70477047F0B583B017460D4604468668E6
:2069E000304602F030FE0290304602F027FE1221625ED119814200DD871A39B2002300298D
:206A000000DC1F4601931021615E4E19029B9E4200DD5D1A3E46C01B2EB2002E00DC019D92
:206A200000B2029B5B1B1BB2994201DC824208DD994200DB1946824200DB0246204600F011
:206A4000E5F8A8B2A189814203D1B8B2E189814204D0607E800703D4E781A58103B0F0BDA9
:206A600000262046314605F0C5FC304600F00EFDE781A581F143204605F0BCFC03B0F0BDB7
:206A800070B504460020C143094D284604F038FE084E3046214604F004FE3046214604F07B
:206AA000EDFD284604F01FFE204600F0E1FD70BD50080020D8040020F0B58BB00446856980
:206AC00051482840A061A80507D56068C168002978D0204688470BB0F0BD280400D490E0BC
:206AE00010200A90205E09900E200790205E05900C27E05F049012200890265EA56805F087
:206B00000FF969460E60486028460499059A099B02F054FB002005F00FF9002871D0054648
:206B20000120460206970496A869304243D0A868A16888423FD1E35F0A99615ECA18E95F5E
:206B40008A4238DD079FE65F089AA25E039692190992049EEF5F0597099ABA42069F2ADD11
:206B60000A9AAA5E099252189A4224DB089AAB5E059A02939A18039B9A421CDB6A68D76876
:206B8000002F02D02846B84714E089B20391059989B2059109998FB202998BB2EA8A694677
:206BA0001BB20B604A60039909B2059A12B23BB202F004FB069F284605F0BEF8054600282A
:206BC000B2D11EE028041CD51020205E0A900E20235E0C20225E1220265EA168E78A684696
:206BE000C0C0084611461A460A9B02F0E7FAE80107D460680169002903D0204688470BB0B6
:206C0000F0BD0BB0F0BDC046FF3FFFFEF0B581B016460D4604468768384602F014FD0C21B2
:206C2000615E4A19824200DD451A28B203210091032800DC009D384602F000FD0E21615EA4
:206C40008A19824200DD461A30B2032800DC009E36B2A9B2208A884203D1B1B2628A8A4263
:206C600005D02FB2617E890703D46682278201B0F0BD00B2874203DB1220205E86420FDA6F
:206C800000252046294605F0B5FB284600F0FEFB66822782E943204605F0ACFB01B0F0BDE1
:206CA00066822782204600F0E3FC01B0F0BD000010B52E4C2078012809DD02280FD0642835
:206CC00023D0652807D100202070052010BD00281ED0012821D000202070032010BD4B207F
:206CE0008000234909680A062ED4224A1288224B1B881343214A12881A43002A24D0C8056C
:206D0000800F1FD06420207027E00020207028E01C4901220A70401C20701A480178002930
:206D200000D019490220FCF743FC01460320052905D0002915D12178491C217010BD65216F
:206D4000217010BD0E48006880B2FCF707FB01460320052906D0002903D16420207003204E
:206D600010BD10BD6521217010BDC046D60400208410002080100020C21400207E1000208D
:206D8000B8030020BC030020D02000000120400603490860BFF34F8FBFF36F8F7047C04631
:206DA00080E100E001200006104908607047C046012000070D4908607047C0460120000425
:206DC0000A4908607047C0460120C005074908607047C0460120C006044908607047C04687
:206DE00001204004014908607047C04600E100E001200004014908607047C04600E200E0A8
