:020000040800F2
:20000000800E0020A5010008AD010008AF0100080000000000000000000000000000000016
:20002000000000000000000000000000B10100080000000000000000B3010008CD0700086E
:20004000B701000800000000B7010008B7010008B7010008B7010008B7010008B701000860
:2000600000000000B7010008B7010008B7010008B7010008B7010008B70100080000000000
:20008000B7010008B7010008B7010008B7010008B7010008B7010008B7010008B701000860
:2000A000B7010008B7010008B7010008B7010008B7010008B701000800F002F800F047F8A7
:2000C0000CA030C8083824182D18A246671EAB4654465D46AC4201D100F039F87E460F3E2E
:2000E0000FCCB6460126334200D0FB1AA246AB463343184780140000A0140000103A02D393
:2001000078C878C1FAD8520701D330C830C101D504680C6070470000002300240025002687
:20012000103A01D378C1FBD8520700D330C100D50B6070471FB50098019900F050FA00F051
:20014000C5F91FBD10B5002000F007FA10BD00F0A0FA1146FFF7EEFF00F0B4FF00F0D2FA3F
:2001600003B4FFF7EFFF03BC00F00AFB70B505460C46164602E00FCC0FC5103E102EFAD229
:20018000082E02D303CC03C5083E042E07D301CC01C5361F03E021782970641C6D1C761ED1
:2001A000F9D270BD0748804707480047FEE7FEE7FEE7FEE7FEE7FEE704480549054A064B03
:2001C00070470000E5070008B900000880080020800E0020800A0020800A0020F8B507460F
:2001E00015460E46102000F087F9040009D06760A660E56000F07CF90168216004600020EE
:20020000F8BD0120F8BD00000346F0B50B439B072DD1244DEF01042A29D308C810C95E1BCA
:200220009E43121F3E4017D0D8B2E1B2401A3106014310D198B2A1B2401A310401430AD129
:2002400018022102000A090A401A3102014302D1180E210E401AF0BDA342DCD018BA21BA06
:20026000884201D90120F0BD0020C043F0BD002A01D10020F0BD03780C78401C491C002B88
:200280000DD0A3420BD1521E09D003780C78401C491C002B03D0A34201D1521EEBD1181BA3
:2002A000F0BD000001010101F8B5042A2CD3830712D00B78491C0370401C521E83070BD0BB
:2002C0000B78491C0370401C521E830704D00B78491C0370401C521E8B079B0F05D0C91A7E
:2002E000DF002023DE1B08C90AE0FFF73FFFF8BD1D4608C9FD401C46B4402C4310C0121F08
:20030000042AF5D2F308C91A521EF0D40B78491C0370401C521EEAD40B78491C0370401C3A
:20032000012AE4D409780170F8BD01E004C0091F0429FBD28B0701D50280801CC90700D046
:200340000270704700290BD0C30702D00270401C491E022904D3830702D50280801C891E77
:20036000E3E70022EEE70022DFE7002203098B422CD3030A8B4211D300239C464EE00346A0
:200380000B433CD4002243088B4231D303098B421CD3030A8B4201D394463FE0C3098B42B9
:2003A00001D3CB01C01A524183098B4201D38B01C01A524143098B4201D34B01C01A524164
:2003C00003098B4201D30B01C01A5241C3088B4201D3CB00C01A524183088B4201D38B009C
:2003E000C01A524143088B4201D34B00C01A5241411A00D201465241104670475DE0CA0FC2
:2004000000D04942031000D34042534000229C4603098B422DD3030A8B4212D3FC22890142
:2004200012BA030A8B420CD3890192118B4208D3890192118B4204D389013AD0921100E07A
:200440008909C3098B4201D3CB01C01A524183098B4201D38B01C01A524143098B4201D351
:200460004B01C01A524103098B4201D30B01C01A5241C3088B4201D3CB00C01A524183086E
:200480008B4201D38B00C01A5241D9D243088B4201D34B00C01A5241411A00D20146634657
:2004A00052415B10104601D34042002B00D54942704763465B1000D3404201B50020C0460B
:2004C000C04602BD704770477047000070B5064C7C44064D7D4403E0206800198047241D5B
:2004E000AC42F9D170BD0000C0100000C0100000004870475808002070B5064600F052F84D
:20050000056830460B30C408E400B44201D8002070BD68682A46002818D00168A14211D371
:200520000B46214608318B4208D3436801194B6003681B1B0B605160046001E04168516056
:20054000001D70BD024640680028E6D12146284600F030F80028DCD170BDF8B50646FFF7A4
:20056000C7FF0090054615E0002E02D0E068B0420FD1206828600098A16807686068884714
:20058000204600F060F800980068B84202D00098E8E725462C68002CE6D1F8BD00487047E4
:2005A000200800200048704728080020704770477047704738B504460A4600206946C0466C
:2005C000C046002805D002462046009900F080F8012038BD10B5012000F09CF810BDF8B56F
:2005E000C046C046054600200C461020C0460646A819A0420DD9324669460020C046C046D4
:20060000070001D100F086F80098A04200D00546C419FFF7C7FFF61D07460560F008C000E8
:200620004619284600F008F8B44204D031463868A21B00F04DF8F8BD002101604160806072
:2006400070471020704770B50446051FFFF7AAFF0068002C1AD0446801E020466468002C61
:2006600001D0AC42F9D301680A18AA4204D12A6805468918016000E0456028684119A14272
:2006800005D16168696021684018286070BD6C6070BD7546FFF782FFAE46050069465346F0
:2006A000C008C000854618B020B5FFF785FD60BC00274908B6460026C0C5C0C5C0C5C0C508
:2006C000C0C5C0C5C0C5C0C5403D49008D46704710B50346406801E003464068002801D035
:2006E0008842F9D31868C3188B4206D0CB1CD808C000001D411A521A0146081D0A60FFF72F
:20070000A2FF10BD10B50446C046C0462046FFF727FD10BD10B500F00BF800F002F810BD94
:20072000704710B5002801D000F02AF810BD000010B5012805D0002103A000F027F80120AE
:2007400010BD09A1F8E7000053494752544D454D3A204F7574206F662068656170206D65A4
:200760006D6F7279000000003A2048656170206D656D6F727920636F727275707465640029
:2007800001491820ABBEFEE72600020070B505460C460A2000E06D1C00F012F8002D06D00F
:2007A00028780028F7D102E0641C00F009F8002C02D020780028F7D10A2000F001F870BD90
:2007C00008B5694608700320ABBE08BD10B504480068401C0249086000F0E0FB10BD0000C4
:2007E000000000200120C006014988607047000000ED00E07CB503461046D40F24186410D9
:200800006400141B01D000207CBD00BF414800690124240420400028F8D100BF3D4800691F
:200820000124A40420400028F8D13A484069C00FC007002804D03848364CA0603748A0605C
:2008400034480069364C2043324C206120464069022420432F4C606120464069FF24F9349C
:20086000A0430124E4061C1B240AFF25F9352C402043284C6061204640690124240420430C
:20088000244C606100BF234800690124240420400028F8D11F480069214C20431D4C20616C
:2008A000204640690224A0431A4C6061002026E0184C646901252C43164D6C61C410E40025
:2008C0000C1930CC019500941E18019D009C3460756000BF0F4C246901252D042C40002C5E
:2008E000F8D10C4C246901252C430A4D2C612C466469640864006C6104460834A0B290424B
:20090000D6DB044840690124E4072043014C6061012079E70020024023016745AB89EFCD0D
:20092000FB83000070B504462948006AC0B2AA284DD100F097F800BF25480069012109044A
:2009400008400028F8D122484069C00FC007002804D020481E4988601F4888601C484069A6
:20096000012189070840002804D01C481849C8601B48C8601648006A050A2D02254314483F
:20098000056240690121490408431149486100BF0F4800690121090408400028F8D10C484F
:2009A0004069C90208430A49486108464069890408430749486100BFBFF34F8F09480A49C1
:2009C000C860BFF34F8F00BF00BF00BFFDE770BD0020024023016745AB89EFCD3B2A190869
:2009E0007F6E5D4C0400FA0500ED00E010B5002819DB1A4A03231B02D21883089B00D258CF
:200A00008307DC0EFF23A3409A438B071B0E8407E40EA3401A43114B032424021B1984089F
:200A2000A4001A5118E00E4A03071B0F083B9B089B00D2588307DC0EFF23A3409A438B0790
:200A40001B0E8407E40EA3401A43054B0407240F083CA408A4001A5110BD000000E100E095
:200A60001CED00E010B5002415E00C48406901218902084309494861642000F011F80748F3
:200A8000406901218902884304494861642000F007F8601CC4B2032CE7DB10BD00040050C8
:200AA00008B505490968009100BF00990918024A12689142F9D808BD00000020F0B5034673
:200AC0000A4600241249002A02D1C84380B2F0BD002012E01D5C694000250AE0CE07F60F43
:200AE000002E04D04E080B4F7E40314600E049086D1C082DF2DB451CA8B29042EADBC943F5
:200B00000C46080225042D0E2843014688B2DEE7FFFF0000088400000D48406B032108436B
:200B20000B4948630B480068032109058843094908600846006889020843064908600846B3
:200B400040690121890288430249486170470000001002400004005070B58820FFF7E2FE80
:200B600072B60648446825460146086880F3088800BF084602498860A84770BD00180008B2
:200B800000ED00E0F0B5B5B007460D4616461C46B02109A8FFF7E7FB09AA8021384600F004
:200BA000ABF8002E02D0012E24D106E00A2209A9284600F048F835B0F0BD002C00D1FAE79C
:200BC000202101A8FFF7CFFB1022294601A8FFF76BFB0A2209A9284600F035F810231A46C9
:200BE0002146284600F076F8102201A92046FFF75BFBE0E700BFDEE708B503786A4613707E
:200C000003795370037A9370037BD3700422521A9207920F6B469A5C02700422521A521C6F
:200C20009207920F9A5C02710422521A921C9207920F9A5C02720422521AD21C9207920F73
:200C40009A5C027308BDF0B507460D461646344630014119384600F017F808E0601EC4B265
:200C600020014119384600F0E7F8701EC6B2012EF4DC002405E0385D295D48403855601CF2
:200C8000C4B2102CF7DBF0BD70B505460E46002405E0285D315D48402855601CC4B2102C10
:200CA000F7DB0121681CFFF7A7FF0221A81CFFF7A3FF0321E81CFFF79FFF002405E0285D57
:200CC0000349085C2855601CC4B2102CF7DB70BD58140008F0B504461D468C4200D81546F3
:200CE000002005E0265C0F5C7E402654461CF0B2A842F7DBF0BD0000F7B586B00E461746CA
:200D000000200390F004050EE81D8006000E0590F017400F8019C210019638460699FFF780
:200D2000C3FA04952C4657E0601E8000385802900498844220D0082D45D12046E117490F41
:200D40000918C910C900611A04293CD16846007A2449095C68460172407A2249095C6846C8
:200D60004172807A1F49095C68468172C07A1D49095C6846C17226E004984019C0B2049071
:200D800002A800F033F86846007A1649095C68460172407A1349095C68464172807A114951
:200DA000095C68468172C07A0E49095C6846C172007A0D4A0399515C4840694608720398F0
:200DC000401CC0B20390601B8000385802994840A1007850601CC4B205988442A4DB09B00E
:200DE000F0BD0000581300085815000801784278027082784270C2788270C170704770B5D4
:200E000003460020002413E0CE07F60F002E02D006465E40304680261D4635405E06330EF5
:200E2000002D02D01E46564033464910661CF4B2082CE9DB70BD0000F3B586B0054600244D
:200E400007E0295D0798005D414002A80155601CC4B2102CF5DB002482E0A000C01C02A9FD
:200E60000F5CA100891C02AA515C4F40A000401C02A9085CA100515C484001900198784016
:200E800006461B2231460920FFF7B9FF0646A000801C02AA105CA20002AB9A5C50400146BF
:200EA0001B220420FFF7ABFF70400090A000C01C02AA105CA200521C02AB9A5C50400146D3
:200EC0001B220420FFF79BFF4640A00002AA105CA200D21C02AB9A5C504001461B2202207A
:200EE000FFF78DFFA100C91C02AA515C71404840A100C91C68541B2239460220FFF77FFFC4
:200F0000A100891C02AA525C00994A405040A100891C6854A000801C02AA105CA200521C18
:200F200002AB9A5C504001461B220220FFF767FFA100491C02AA515C71404840A100491CDE
:200F400068541B2202200199FFF759FFA10002AA525C00994A405040A1006854601CC4B291
:200F6000042C00DA79E70121681CFFF745FE0221A81CFFF741FE0321E81CFFF73DFE00248F
:200F800005E0285D0449085C2855601CC4B2102CF7DB08B0F0BD000058140008024800682E
:200FA000401C0149086070470800002001461148026814E00F4800680F4BD31898420ED981
:200FC0000E48C06902231840002804D00B48006A18430A4B18620020087001207047074873
:200FE000C069202318400028E4D00448406A08700020F3E7080000208813000000380140AD
:2010000000BF0449C969402211400029F9D00149886270470038014010B504461A48406B6D
:2010200001210843184948630520000700680F21890488430521090708600846006849126C
:201040000843490208600846406AFF21113108430521090748620C48403000680121890333
:20106000084309494031086021460848FFF77DF90749C860052000038860084600680D216B
:2010800008430349086010BD001002400024F400003801400021014A1160704708000020E5
:2010A0007047000010B50448FFF7F4FF0446034A0349FFF793F810BD040000200000000822
:2010C000A1100008F0B58BB0FFF78CFB7D24E401601E9249884201D901200CE0601E904913
:2010E00048610321081FFFF781FC00208C498861072008610020002802D000200BB0F0BD79
:201100008848406B0121084386494863FFF704FD0E2285A18848FFF777F8002801D10120D0
:2011200000E000200A900A9800280AD0002006900790089009900F2206A97F48FFF75AFB01
:2011400000BF4B200002FFF767FFE5E07B484069012189028843794948610020099009A889
:20116000FFF724FF002805D00A98002800D0D3E0FFF7F2FC01200A9008A80079BA2800D092
:20118000CAE009A8FFF712FF002800D0C4E008A80079FB2801D1FFF7DFFC08A80079BF2852
:2011A00000D0B9E066496748FFF7DBF80024002620E064490819FFF7F9FE002801D001267A
:2011C0001AE06048005DBA280ED10020029002A8FFF7ECFE002801D001260DE06846007ADE
:2011E000002800D0012600BF601C84B25448844200D301E0002EDCD000BF002E06D0BA20D2
:20120000FFF7FEFEC220FFF7FBFE85E04E48477C0146097C09020F43812109014948FFF7F1
:201220004DFC0546BD4206D0BA20FFF7E9FEC220FFF7E6FE70E00020059006900790089008
:2012400002900DE03F490298081805AB0122014601903E48FFF796FC0298103080B2029076
:201260008121090102988842ECDB36484078354909780902084307460020324948700870F4
:201280002F49091F2F48801CFFF718FC05462D48C0782C498978090208430490BD4203D166
:2012A0002B490498884206D0BA20FFF7A9FEC220FFF7A6FE30E02148406901218902084371
:2012C0001E4948611F48C0791E498979090208431C494979090408431A49097909060843E1
:2012E00003903B21C9020398884206D9BA20FFF787FEC220FFF784FE0EE0164A03998818B7
:20130000121410491031FFF775FABA20FFF778FEC120FFF775FE00BF18E70000FFFFFF005D
:2013200000E000E0001002407A6572644067656E657261746F720000F0FF01080004005093
:20134000120800000C0000200C08002062150008717A000000180008637C777BF26B6FC527
:201360003001672BFED7AB76CA82C97DFA5947F0ADD4A2AF9CA472C0B7FD9326363FF7CCAF
:2013800034A5E5F171D8311504C723C31896059A071280E2EB27B27509832C1A1B6E5AA008
:2013A000523BD6B329E32F8453D100ED20FCB15B6ACBBE394A4C58CFD0EFAAFB434D33858A
:2013C00045F9027F503C9FA851A3408F929D38F5BCB6DA2110FFF3D2CD0C13EC5F974417F2
:2013E000C4A77E3D645D197360814FDC222A908846EEB814DE5E0BDBE0323A0A4906245CC3
:20140000C2D3AC629195E479E7C8376D8DD54EA96C56F4EA657AAE08BA78252E1CA6B4C604
:20142000E8DD741F4BBD8B8A703EB5664803F60E613557B986C11D9EE1F8981169D98E9491
:201440009B1E87E9CE5528DF8CA1890DBFE6426841992D0FB054BB1652096AD53036A5385F
:20146000BF40A39E81F3D7FB7CE339829B2FFF87348E4344C4DEE9CB547B9432A6C2233D80
:20148000EE4C950B42FAC34E082EA16628D924B2765BA2496D8BD12572F8F6648668981607
:2014A000D4A45CCC5D65B6926C704850FDEDB9DA5E154657A78D9D8490D8AB008CBCD30AF4
:2014C000F7E45805B8B34506D02C1E8FCA3F0F02C1AFBD0301138A6B3A9111414F67DCEA89
:2014E00097F2CFCEF0B4E67396AC7422E7AD3585E2F937E81C75DF6E47F11A711D29C58974
:201500006FB7620EAA18BE1BFC563E4BC6D279209ADBC0FE78CD5AF41FDDA8338807C7316A
:20152000B11210592780EC5F60517FA919B54A0D2DE57A9F93C99CEFA0E03B4DAE2AF5B0F8
:20154000C8EBBB3C83539961172B047EBA77D626E169146355210C7D010204081020408061
:201560001B36C878EA3C37AA588C8C1CE15D66A8B0BD000098150008000000200C000000AD
:20158000FC000008A41500080C000020740E00001801000811FBFFFF0000000000000000AD
:0415A0000000000047
:20180000901D00209D190008A5190008A719000800000000000000000000000000000000AF
:20182000000000000000000000000000A91900080000000000000000AB190008F1520008C7
:20184000AF19000800000000AF190008AF190008AF190008AF190008AF19000879290008FE
:2018600000000000AF190008AF190008AF190008AF190008AF190008AF1900080000000088
:2018800081530008E1530008AF190008AF190008AF190008AF190008AF19000811320008D5
:2018A00031340008AF190008AF190008695B0008AF190008AF19000800F002F800F042F89B
:2018C0000CA030C8083824182D18671EA246AB4654465D46AC4201D100F034F87E460F3E1B
:2018E000B6460FCC0126334200D0FB1A3343A246AB46184768FA000088FA0000103A02D3DF
:2019000078C878C1FAD8520701D330C830C101D504680C607047000000230024002500266F
:20192000103A01D378C1FBD8520700D330C100D50B6070471FB50FBC00F095FB0FB41FBDAB
:2019400010B510BD00F048FB1146FFF7F3FF0BF0E3FA00F060FB03B4FFF7F2FF03BC06F00D
:2019600030FA000070B505460C46164602E00FCC0FC5103E102EFAD2082E02D303CC03C594
:20198000083E042E07D301CC01C5361F03E021782970641C6D1C761EF9D270BD074880474D
:2019A00007480047FEE7FEE7FEE7FEE7FEE7FEE704480549054A064B704700007153000876
:2019C000B918000890170020901D002090190020901900207047002800DA40427047000016
:2019E000034670B502460B439B070FD10E4CE60100E008C208C91D1B9D433542F9D0D9B2C2
:201A00001170521C00290DD01B0AF8E70B78491C1370521C002B05D00B78491C1370521C1B
:201A2000002BF3D170BD00000101010130B5441C03E00178401C00290DD08107F9D10B4BDB
:201A4000DD0104C8D11A91432940FAD0001B0A0603D0C01E30BD001B30BD0A0401D0801E9C
:201A600030BD0902FCD0401E30BD000001010101F8B5042A2CD3830712D00B78491C0370B2
:201A8000401C521E83070BD00B78491C0370401C521E830704D00B78491C0370401C521E69
:201AA0008B079B0F05D0C91ADF002023DE1B08C90AE0FFF757FFF8BD1D4608C9FD401C4688
:201AC000B4402C4310C0121F042AF5D2F308C91A521EF0D40B78491C0370401C521EEAD4B6
:201AE0000B78491C0370401C012AE4D409780170F8BD01E004C0091F0429FBD28B0701D576
:201B00000280801CC90700D00270704700290BD0C30702D00270401C491E022904D383077D
:201B200002D50280801C891EE3E70022EEE70022DFE7002203098B422CD3030A8B4211D3A8
:201B400000239C464EE003460B433CD4002243088B4231D303098B421CD3030A8B4201D3F7
:201B600094463FE0C3098B4201D3CB01C01A524183098B4201D38B01C01A524143098B4287
:201B800001D34B01C01A524103098B4201D30B01C01A5241C3088B4201D3CB00C01A5241EE
:201BA00083088B4201D38B00C01A524143088B4201D34B00C01A5241411A00D20146524156
:201BC000104670475DE0CA0F00D04942031000D3404253409C46002203098B422DD3030AA2
:201BE0008B4212D38901FC2212BA030A8B420CD3890192118B4208D3890192118B4204D360
:201C000089013AD0921100E08909C3098B4201D3CB01C01A524183098B4201D38B01C01AE2
:201C2000524143098B4201D34B01C01A524103098B4201D30B01C01A5241C3088B4201D3D9
:201C4000CB00C01A524183088B4201D38B00C01A5241D9D243088B4201D34B00C01A5241D9
:201C6000411A00D201465241104663465B1001D34042002B00D54942704763465B1000D374
:201C8000404201B50020C046C04602BD7047704770470000F0B5FF252D04C609C209FF2742
:201CA00004462E400137CB093E4348402A402B400746002A6BD0002B69D0AA4267D0AB425C
:201CC00065D0002800DA32460125ED0529432C4309022002090AD21A4B0C7F24E31A434CB0
:201CE000000A7C44E35C7D242404121914145B00A218884201D3521C00E0400049420C46A1
:201D00005C4324115C43DB016415E318040A5C43C502200D0C4644436419250A5D43230314
:201D2000EC0C0D46654300030019EB184C42A34201D35B18401CD4052018002B07D05B000D
:201D4000C91804D3401C002901D1400840003F2189048A4209D3002A08DC1106090F04D046
:201D6000032149074018C00FC007F0BD01224100120689187F2252069142F6D2052149072D
:201D8000C84201D59010F0BDFF20C005F0BD002F00DA32461648AA4207D2AB4205D2190202
:201DA000090E17D0F80FC007F0BDFF2563002D06AB42F9D84900A942F6D8AB4201D1A94286
:201DC000F2D0A94201D1002101E061004908D0050843F0BD1102090EFBD0FF200243D005D5
:201DE000F0BD0A460146104654E700009EDF00000000C07F0102C21504D00123DB07194342
:201E0000002A0ADB9E239A1A02D40846D0407047FF2241001206914201D900207047C0177E
:201E2000C04370471F22030C02D10F2200041CD0030E01D10002083A030F01D10001121F67
:201E4000830F01D18000921E002801DB4000521ED2055118021251181922904004D3491C36
:201E6000002801D14908490008467047C10FC90700D04042012292071143D3E7012189075B
:201E8000D0E74146016049464160514681605946C160714601611430F0C069460160001D01
:201EA00001B5C046C04606BC964601C10020704704000D00A06AC046C046616A8D46220042
:201EC000280000D10120116888465168894691688A46D1688B4611698E461432F0CA704741
:201EE000704710B500F070F8006810BD10B5044600F06AF8046010BD70B5024601020123B3
:201F0000C01520249E26DD07002802D02943002813DB361A002E29DD0846F040A21B01D4F0
:201F2000914000E04908002906D0994000D3401C002901D14008400070BD0006000E01D102
:201F400049004908361A11D40846F040404200280CDCA21B01D4914000E049080029EBD02A
:201F6000CA0F490000D11843801A70BDFF2150000906884201D9002070BDD017C04368404A
:201F800070BD000010B5FF22C30D134009D05A4007D0914205DA5C42A14202DDC9050818C1
:201FA00010BDC40FE407002B06D0002A06D0002902DBFF20C0050443204610BD4102FCD022
:201FC000004810BD0000C07F004870473800002000487047380000207546FFF7F9FFAE4662
:201FE000050069465346C008C000854618B020B5FFF7DEFC60BCB64600260027C0C5C0C565
:20200000C0C5C0C5C0C5C0C5C0C5C0C5403D490849008D46704710B50446C046C046204680
:20202000FFF799FC10BD10B5002801D005F0C9FE10BD70B505460C460A2000E06D1C05F0B7
:20204000C6FE002D06D028780028F7D102E0641C05F0BDFE002C02D020780028F7D10A2067
:2020600005F0B5FE70BD10B500F03BF810BD000010B5012805D0002103A0FFF7DAFF01205F
:2020800010BD09A1F8E7000053494752544D454D3A204F7574206F662068656170206D654B
:2020A0006D6F7279000000003A2048656170206D656D6F727920636F7272757074656400D0
:2020C0000246C91C09CA8908083A89001B1A8B4201D2002070474118C91DC908C9001160AE
:2020E0007047F3B587B000276946FF240097013407A80F732146FFF7E3FF0028029001D189
:2021000000F079F80298214605F052FE06000AD0029D0120069001953478761C002F0DD002
:202120005C2C12D018E00299084608300860002048600C682070012009B0F0BD222C01D042
:20214000272C0FD12746009431E03078222807D05C2805D0272803D0BC4203D1002726E0F7
:20216000761C0446002C0AD0002F05D1202C06D020460938042802D92C706D1CCCE7019837
:20218000854202D10098002811D000202870009A01996D1C03A8C046C0466846007B002887
:2021A0000FD0019D002000900698401C0690002CB2D10698810007A8FFF782FF040002D098
:2021C00004E00195EEE7002000F015F802982060029A002006E01178521C002902D1401C88
:2021E00081006250AA42F6D300218200A1502146A2E77047704710B5FFF73AFFFFF713FF09
:2022000010BD000080B586B00A460346059004910F490D200292019300F03CF903A90870CD
:20222000087803280FD1FFE7094801880090084600F074F8059908800098008800F07AF871
:2022400004990880FFE703A8007806B080BDC0469802002080B586B00A460346059004916F
:202260000F490F200292019300F014F903A90870087803280FD1FFE7094801880090084665
:2022800000F098F9059908800098008800F086F904990880FFE703A8007806B080BDC046E1
:2022A0009A02002082B0014601AA108010887F2292011040009102B07047000010B588B09B
:2022C000014607AA108010880291FFF7EBFF05A908800B88AE48818903AA91800189408991
:2022E000000440180390049A0399AB486C4660600A202060012000F06DF906A90870087888
:2023000008B010BD80B56148002101700248017001F0B2FA80BDC046340D002082B0014653
:2023200001AA108001988008FF2292011040009102B0704782B0014601AA10801078000205
:20234000009102B07047000010B588B0014607AA10801088029100F01FF805A908800B8803
:202360008B48A421415A03AA9180A021415AA222805A000440180390049A039986486C46C9
:2023800060600A202060012000F024F906A90870087808B010BDC04680B582B0014601AA1A
:2023A000108010883128009104DCFFE701A832210180FFE701A800883221FFF7BAFB40066D
:2023C000400C02B080BD0000B0B588B02F4800781728039004D0FFE70398FF2807D00DE024
:2023E00007A8032101702948002101704AE007A80421017025480021017043E02348007822
:20240000C00063490856002833D0FFE71F480178C9005F4A5118C9881D4B19800078C0009C
:2024200011181B888C8804ADAC80105A4988090408180490059A0499F9486C4660600A20CA
:202440002060012000F0C6F806A908700878032805D1FFE70D480178491C0170FFE706A867
:202460000078042804D1FFE70848FF210170FFE704E006480178491C0170FFE707A80221FD
:202480000170FFE707A8007808B0B0BDE60800209C02002070B58CB00A4603460BAC20708C
:2024A0000A912078C0003A490C18A58807AEB580085A6188090408180790002030700898FC
:2024C00005A988800798059006980599D44C6D466C600A242C600D4C012504902846049D5B
:2024E00003922A460293234601F0BAF809A908700878032805D1FFE7044800880A990880A6
:20250000FFE709A800780CB070BDC0469E020020F0B58FB013460C4605460EAE30700DA812
:2025200001800CA802803078C00019490818C0880D9A1043174A10800C9817888743178023
:202540003078C0000E181288B788089009A887800898095A76883604711809910A99099E1C
:20256000AF4F684647600A270760012007913146079E06923246069F05933B46049403959D
:2025800000F028F80BA9087008780FB0F0BDC04658010108A002002043ED000882B0014638
:2025A00001AA1080107880012D2292018018009102B0704782B0014601AA1080019880088E
:2025C000FF22920110402D2292018018009102B070470000F0B59DB014460D46239E229F62
:2025E0000B9018460A900B981992189119991AAA918018991A9117A90B9A0A7016A90B8045
:2026000015A90F701699604B1980604909780123194000290994089507960690059104D0E3
:20262000FFE70598012829D08DE017A800781B990EAA91801A990E910F9A0E99784B6C46BD
:2026400063600A232360504B01F00AF810A908700878032805D1FFE74C480178491C0170FE
:20266000FFE710A80078042807D1FFE74748002101701CA80421017081E064E01B9813A9CB
:2026800088801A9813900020087017A8007815A90978239A149B0CACA380139B0C930D9B93
:2026A0000C9C6D466A6029603949049121461A46049B00F0D5FF10A908700878032835D149
:2026C000FFE713A8407912A9087011A800210170FFE711A8007813A94979884217DAFFE7EC
:2026E00011A800782A49095C16AA105C129A531E81420392029301D003980290029812A948
:202700000870FFE71198401C11A90870E1E712A80078002805D0FFE71C480178491C017094
:2027200003E01A48FF210170FFE7FFE710A80078042807D1FFE71548002101701CA8042105
:2027400001701CE0FFE711480078FF2807D1FFE70E48002101701CA8032101700FE00B48ED
:202760000078062807DBFFE70848002101701CA80421017003E01CA802210170FFE71CA8CA
:2027800000781DB0F0BDC046A4020020A6020020A202002070B58CB00A4603460BAC2070AE
:2027A0000A912078C0001D490C18A58807AEB580085A618809040818079000203070089816
:2027C00005A988800798059006980599144C6D466C600A242C60134C022504902846049D11
:2027E00003922A460293234600F03AFF09A908700878032805D1FFE70A4800880A99088017
:20280000FFE709A80078042804D1FFE70A9806490180FFE709A800780CB070BD04FE00084E
:2028200043ED0008A8020020FEFF000080B582B00BF0EAFC0749086008687D21C900FFF7CC
:2028400078F902F029FD019005F0FCFA002002B080BDC0460000002082B0014601AA10709A
:2028600010780028009107D1FFE70A4801680F221204914301600BE0064801680F22120439
:202880009143016001680522520411430160FFE702B0704700040050BFF35F8F084801686C
:2028A000022291430160BFF35F8F70470448016802221143016003480068034908607047BC
:2028C00010E000E048030020AC020020B0B586B013460C460546059004A8018003A802806F
:2028E00005988169012211438161059802930194009505F05FF906B0B0BD70B588B0134676
:202900000C460546079006A8018005A90A8007998A690126B2438A6107990490084603936A
:202920000294019505F046F90498018809B2002918DBFFE705A8008800B2002812DBFFE773
:2029400006A8008800B207991022895E884209DAFFE705A8008800B207991222895E8842D7
:2029600001DBFFE705E007980921890105F0F8F8FFE708B070BD0000012080060349086052
:20298000034801682022114301607047180400500C18024080B586B00A46034605900491D5
:2029A00003A80221017001920093FFE7049805990979C840C007002827D0FFE70598007926
:2029C00003F08CF802A908700878032805D1FFE705980179491C0171FFE702A800780428D4
:2029E0000CD1FFE70598017901228A4001681143016005980179491C0171FFE702A80078FC
:202A0000022801D1FFE71EE004E005980179491C0171FFE705980079062813DBFFE7059869
:202A20000068002804D1FFE703A80321017003E003A804210170FFE7059800210171059834
:202A4000016000E0B2E703A8007806B080BDB0B587B013460C4605460690059104A80270AA
:202A600003A800210170029301940095FFE703A8007804A90978884210DAFFE7069805994D
:202A800003AA127892008958884201DAFFE705E0FFE70398401C03A90870E8E703A8007829
:202AA00007B0B0BD81B000200090FFE70098800A002809D1FFE70098074900220A54FFE7D3
:202AC0000098401C0090F1E702480021016001B07047C046D0040020D404002080B58EB001
:202AE00001460C900020C243099208900591FFE708F0AEFB0999644808F094FA0490FFE730
:202B000008F018FB0A900020C04309905F4808F066F95F480068002800D1AFE05C480068B3
:202B20000B90FFE70B98008A4007002828D4FFE70B98008A800700287DD4FFE70A98089940
:202B400088420CD3FFE70B9880680899884206D3FFE70B9880680A99884211D9FFE70A98C7
:202B60000899884267D2FFE70B9880680899884206D2FFE70B9880680A9988425BD8FFE706
:202B80000B98008AC007002824D0FFE70B98C06800281FD0FFE70B98008A8007002813D4B4
:202BA000FFE70A980B99CA6880188B68C01A0391114602920193FEF7BCFF029941430198D7
:202BC0004118039A9160FFE70B98018A04229143018220E00B984169814204D1FFE72C483E
:202BE0000021016013E00B988169406981610B98416980694161264800680B99884205D156
:202C0000FFE70B98406922490860FFE7FFE70B9800210182FFE70B98006807900B984068C9
:202C200006901A4808F0EEF807980699009008460099884764E70B98008A8007002812D42D
:202C4000FFE70B9880680A99401A099988420AD2FFE70B9880680A99401A0E490968FEF793
:202C600068FF0990FFE70B9840690B90FFE70B9807490968884200D054E7FFE70A98089048
:202C8000024808F0BFF833E78C170020B8090020C40900204C0D002010B590B001460F902C
:202CA0000F98028A40239A4302820F984268126B0DAB049119469047002801D1FFE758E2B2
:202CC0000DA8C1880F221140C1800F9840688078C007002850D0FFE70F9840681621415ED2
:202CE0001422805E814223DCFFE704200DA9085E0F9949681822895E884206DBFFE70DA818
:202D0000C18801221143C18011E004200DA9085E0F9949681A22895E884206DCFFE70DA8BE
:202D2000C18801229143C18000E022E2FFE722E004200DA9085E0F9949681822895E8842C2
:202D400006DCFFE70DA8C18801221143C18011E004200DA9085E0F9949681A22895E88427E
:202D600006DBFFE70DA8C18801229143C18000E0FFE1FFE7FFE7FFE70F9840684088800548
:202D800000282CD5FFE70F98008A8007002815D5FFE70DA8C0880F99C9894840C007002806
:202DA00006D1FFE70F98018A022291430182E0E10F98018A0222914301820FE00DA8C0884F
:202DC0000F99C9894840C007002806D0FFE70F98018A022211430182CBE1FFE7FFE70F987A
:202DE00040684088C00500280ED5FFE70DA8C088C007002808D1FFE70F9800890DA9088094
:202E00000F984089488090E00F98C069002800D18AE00F98C06906F028FD0CA908800F9808
:202E2000C06906F011FD0BA908800F9840688078400700283ED4FFE70F98C06906F00DFDAB
:202E40000146002803910ED0FFE703985A280BD0FFE70398B42813D0FFE78720400003990A
:202E6000814219D024E024E00D980AA908800C98401E0DA94A88801A08800A98488018E0B0
:202E80000C98401E0D99401A0DA908800B98401E4A88801A48800CE00DA841880AAA11800E
:202EA0000B99491E0D9A891A41800A99018000E0FFE7FFE70F98008A4007002833D5FFE79E
:202EC0000DA8008800B2002804DAFFE70DA8002101800EE00DA8008800B20CA9098809B2E2
:202EE000884205DBFFE70C98401E0DA90880FFE7FFE702200DA9085E002804DAFFE70DA857
:202F0000002141800EE002200DA9085E0BA9098809B2884205DBFFE70B98401E0DA9488094
:202F2000FFE7FFE7FFE7FFE7FFE70F98008A8006002805D5FFE70F9840682230029004E05D
:202F40000F9840681C300290FFE70298099009980421405E012821DBFFE70DA8018809B2C3
:202F60000F9A0823D35EC91A49430223C05E0A23D25E801A40430818089008980999042200
:202F8000895E4943884208D2FFE70F9800890DA908800F9840894880FFE7FFE709980221FE
:202FA000405E012824DBFFE70F98008AC00700281ED0FFE70DA8018809B20F9A1223D35E69
:202FC000C91A49430223C05E1424125F801A40430818089008980999C95E4943884206D923
:202FE000FFE70F98018A012291430182FFE7FFE70DA8C1880F9AD289914306AA1180C08814
:203000000F99C989814307A801801078C007002806D0FFE70DA8C18810221143C180FFE7E4
:2030200007A80088C007002806D0FFE70DA8C18820221143C180FFE706A80088800700280E
:2030400011D0FFE70D980F9948820DA840880F99888208F06FF80F9988610F98018A01221E
:2030600011430182FFE707A800888007002850D0FFE70F98008AC00700284AD0FFE70F98E0
:20308000018A01229143018208F054F80F998A69801A88610F9880694B2189000190084665
:2030A00007F096FE0199814219D8FFE707A800888007002806D5FFE70DA8C18880221143B6
:2030C000C180FFE707A80088C007002806D0FFE70DA8C18840221143C180FFE7FFE70F987F
:2030E00040684088C007002812D0FFE70F9880697D2189000090084607F06AFE0099814259
:2031000006D3FFE70DA8C18880221143C180FFE7FFE700200590FFE70599174807F05CFC08
:203120000590002806D0FFE705980F990DAA01F09DFDF1E700200590FFE70F98059907F0E0
:203140004BFC0590002806D0FFE705980F990DAA01F08CFDF1E70D980F9908810DA841880D
:203160000F9A51810E990F9A9181C0880F99C881FFE710B010BDC046E402002083B0014640
:2031800002AA107001A8002202701D480078C0070028009106D0FFE701980121084301A9FD
:2031A0000870FFE7174800680006002806D4FFE701980221084301A90870FFE702A80078CB
:2031C000042806D1FFE701980421084301A90870FFE70D48007802280BD0FFE70A48007873
:2031E000032806D0FFE701980821084301A90870FFE701A800780549085C03B07047C04690
:203200003403002010000050150000203402010881B07948006869460880087880070028C3
:2032200027D5FFE77548407901280ADBFFE773484179491E41714179401880787149086088
:2032400016E06E480079012811DBFFE76B48007800280CD1FFE76A4801684A1C02600878D5
:203260006849086065480179491E0171FFE7FFE7FFE768460088400600282BD5FFE75F4852
:203280000078002807D1FFE75F48016801229203114301601DE05C4800684005002807D501
:2032A000FFE75948016801229203114301600FE055480168FF221204914301600168534A4A
:2032C0001143016001680122520311430160FFE7FFE7FFE768460088400700280CD5FFE785
:2032E0004B48006846490A68531C0B60107043480179491E0171FFE7684600880006002850
:203300001DD5FFE73D48007901280BD1FFE73E4801680122130699430160016812041143B1
:2033200001600BE038480168FF2212049143016001680122120411430160FFE7FFE768461B
:2033400000888006002807D5FFE7324820210160314800210170FFE768460088C006002844
:203360000BD5FFE72B48102101602B48042101702A480178491C0170FFE768460088400557
:2033800000280ED5FFE701208102224A1160224904220A702249088022480178491C017004
:2033A000FFE768460088800500280ED5FFE701204102184A1160184904220A70184908805A
:2033C00019480178491C0170FFE768460088C00500280ED5FFE7012001020E4A11600E4927
:2033E00004220A700E49088010480178491C0170FFE701B07047C04618540040E00800209F
:20340000C0090020285400400454004000040101245400401C540040D9080020BB02002023
:20342000D6080020B9020020B5020020B702002081B07E480068694608800878800700283E
:2034400027D5FFE77A48407901280ADBFFE778484179491E41714179401880787649086057
:2034600016E073480079012811DBFFE77048007800280CD1FFE76F4801684A1C02600878A4
:203480006D4908606A480179491E0171FFE7FFE7FFE7684600884006002836D5FFE7644816
:2034A0000078002807D1FFE764480168012292031143016028E0614800684005002807D5CA
:2034C000FFE75E48016801229203114301601AE05A4801680160016841229202114301600F
:2034E00053480079022807DBFFE7544801680122120611430160FFE7504801680122520372
:2035000011430160FFE7FFE7FFE768460088400700280CD5FFE74A48006846490A68531C6E
:203520000B60107042480179491E0171FFE768460088000600281DD5FFE73D48007901287A
:203540000BD1FFE73D480168012213069943016001681204114301600BE038480168FF2219
:2035600012049143016001680122120411430160FFE7FFE7684600888006002807D5FFE737
:20358000304820210160304800210170FFE768460088C00600280BD5FFE72A481021016033
:2035A00029480321017029480178491C0170FFE768460088400500280ED5FFE7012081024F
:2035C000204A1160204903220A702149088021480178491C0170FFE7684600888005002895
:2035E0000ED5FFE701204102164A1160164903220A701749088018480178491C0170FFE752
:2036000068460088C00500280ED5FFE7012001020C4A11600C4903220A700D4908800F48AA
:203620000178491C0170FFE701B0704718580040DA080020BC0900202858004004580040FA
:20364000245800401C580040D8080020BA020020D4080020B8020020B4020020B60200209A
:20366000F0B597B014460D461D9E1C9F0C9018460B900C9814921391149915AA918013998F
:20368000159112A90C9A0A70119310A90F700EA902230B706F49097806290A940995089634
:2036A0000790069100D9C9E00698C0467844007940008744030C204A5276BB006648006864
:2036C0006649086063480178491C0170BEE06248006862490968401A0F900F98032809D366
:2036E000FFE75C480178491C01705B4800685B490860FFE7AAE007F077F80DA90870087856
:2037000000280AD0FFE70DA80078032805D0FFE70DA80078042805D1FFE74E480178491C25
:20372000017011E04C4800684C490968401A0F900F981F2807D3FFE707F048F84548017841
:20374000491C0170FFE7FFE780E045480221017040480178491C017078E03F4800683F49A0
:20376000086012A800783F49095C15AA13785BB23D4CE35C3D4C205C54881579119E5279BA
:203780006F46BA607E603D60059008461946059A234609F037F82F490A78521C0A700490F7
:2037A00054E007F021F80DA908700878002820D1FFE707F005F8002808D1FFE70EA8032163
:2037C000017024480178891C017011E024480178491E01700806002805D1FFE71D480178FF
:2037E000491C017003E01B4804210170FFE7FFE71BE00EA8022101700DA80078042804D1D8
:20380000FFE71448062101700EE01348006813490968401A0F900F981F2804D3FFE70D4857
:2038200006210170FFE7FFE7FFE70FE00EA80421017008480178491C017007E0054800210F
:2038400001700EA8017006F0C1FFFFE70EA8007817B0F0BDC802002048030020CC0200204F
:20386000D002002044020108401201084702010880B500F001F880BD01480021017070476D
:20388000D102002080B584B0014603900191FFE70398403007F0C8FA0290002804D0FFE742
:2038A000029807F001FAF3E7039803F0A2FF04B080BDB0B58AB013460C460546099008A8A4
:2038C000018007A802800898099908860798099948860798099988860998007E00070028BA
:2038E00004930394029501D5FFE7F7E00998C069002106F053F8801C06A908800998408A06
:20390000801E05A9088008A8008800B209991022895E1239884200DAD6E00998806B05A94F
:20392000098809B206AA128812B2019008461146FEF709F90199814206DCFFE70998007EBC
:203940004007002800D4BFE007A8008800B213281ADCFFE70998C06B012814DBFFE706A80D
:20396000008800B20999CA6B101AC8630998C06B002804DAFFE709980021C163FFE70998BC
:2039800004F018F9FFE79EE007A8008800B209991222895E1439884233DBFFE70998C16B40
:2039A000806B06AA128812B2424305A8008800B2101A814224DAFFE706A8018809B2099A3C
:2039C000D36B5918D1630999CA6B896B008800B2484305A9098809B2401A82420CDDFFE78D
:2039E0000998816B06AA128812B24A4305A9098809B2511AC163FFE7099804F0DBF8FFE7E2
:203A000060E007A8008800B209991222895ECA0F8918491088421EDAFFE70998C06B012850
:203A200018DBFFE70998C06B05A9098809B2884208DDFFE705A8008800B20999CA6B101A6A
:203A4000C86303E009980021C163FFE7099804F0B1F8FFE735E00998C16B806B06AA128851
:203A600012B2424305A8008800B2101A814227DAFFE70998C16B806B06AA128812B24243F7
:203A800005A8008800B24000101A814208DAFFE705A8008800B20999CA6B1018C8630BE04E
:203AA0000998816B06AA128812B24A4305A9098809B2511AC163FFE7099804F07BF8FFE781
:203AC000FFE7FFE7FFE709E0099808A9098809B207AA128812B200F066F8FFE70AB0B0BD43
:203AE000B0B588B013460C460546079006A8018005A802800798007E0007002802930194C8
:203B0000009501D4FFE74CE007983421405E05A9098809B2884244D0FFE70798C06B03907C
:203B20000798C069002105F039FF801C049005A8008800B2079934228A5ECB6B101A1818EA
:203B4000C8630798C16B826B049B53431222805E0222101A181881420CDBFFE70798816BA2
:203B6000049A4A431221415E0223591A5118491EC163FFE70798C06B002804DAFFE7079881
:203B80000021C163FFE705980799888603980799C96B884204D0FFE7079804F00BF8FFE740
:203BA000FFE708B0B0BDB0B58CB013460C4605460B900AA8018009A802800B99C96900226A
:203BC00004900846114603930294019505F0E6FE801C05A908800B98C06B049A13881BB26B
:203BE000C018098809B2FDF7AEFF07900798002806DBFFE707980B99896B884201DBFFE718
:203C00003DE00B98006C089000200690FFE7089800282CD0FFE70B98007EC00700280CD0AE
:203C2000FFE707980699884206D1FFE7089881880122514081801AE011E007980699884288
:203C400006D1FFE70898818801221143818005E008988188012291438180FFE7FFE7FFE74E
:203C60000898006808900698401C0690CFE70B9803F0A0FF0B9807990AF07AF9FFE70CB0D7
:203C8000B0BDB0B586B013460C460546059004A8018003A802800598007E00070028029358
:203CA0000194009501D4FFE722E005983021405E04A9098809B2401AFDF78DFE04280CDCAB
:203CC000FFE705983221405E03A9098809B2401AFDF781FE052801DBFFE709E0059804A989
:203CE000098809B203AA128812B2FFF75CFFFFE706B0B0BD80B586B00146059004A80222FC
:203D000002703548007800280291019004D0FFE7019801283BD03FE0059830490978C840AB
:203D2000C007002829D0FFE72C48007801F0E8FC03A908700878032809D1FFE7274801787D
:203D4000491C017024480178491C0170FFE703A80078042810D1FFE72048017801228A4008
:203D60001F490B6813430B600178491C01701A480178491C0170FFE708E018480178491C9B
:203D8000017015480178491C0170FFE720E012480178491C01701BE00F48002101700F483C
:203DA0000078142813DBFFE70D480068002804D1FFE704A80321017003E004A80421017075
:203DC000FFE706480021017005480160FFE7FFE704A8007806B080BDE1020020E002002087
:203DE000F808002080B584B0014603AA10701078174A105C02AB187054480078105C01AA11
:203E000010700091FFE702A80078142141431148401801A90978890041580F48FEF7BAFDCF
:203E2000032801D0FFE7EEE7FFE702A8007814214143084A5118800009580748FEF7AAFD83
:203E4000032801D0FFE7F0E7032004B080BDC0464A02010880FF0008BC02002080B586B06A
:203E60000A46034604900391049803990292019308F06EFE002804D1FFE705A8002101709B
:203E800009E0049803F0B8FF049809F005FE05A8FF210170FFE705A8007840B206B080BD2D
:203EA00080B584B0014603906D2000220191114606F060F90290FFE70298002818D0FFE7D0
:203EC0000298406840888007002806D5FFE70298008A4006002804D5FFE70298FEF7DCFEAE
:203EE000FFE7FFE702996D2006F044F90290E3E704B080BD10B586B00A46034605AC207079
:203F000004A801700078C00700280292019309D0FFE70E480078059908430721084003A963
:203F2000087008E009480078059988430721084003A90870FFE703A80078FFF753FF03996E
:203F4000024A1170009006B010BDC0460003002084B00A4603460390029102980021016049
:203F60000398006800280192009308D0FFE7029803994968086002980399486005E0029886
:203F80000399486003990860FFE704B0704782B00146019001980022426001980260009195
:203FA00002B0704784B001460290029800680028009103D1FFE70020039009E00298006878
:203FC0000190019800680299086001980390FFE7039804B07047000080B586B005A80221F9
:203FE0000170504800780528039000D992E003987844007940008744022240607B826846EB
:20400000002101604A4A0D200B2302900846029901F026FB04A908700878032805D1FFE716
:2040200040480178491C0170FFE704A80078042804D1FFE73B4805210170FFE76EE06846BC
:20404000012101603B4A00200C210B2301F008FB04A908700878032805D1FFE7314801786B
:20406000491C0170FFE704A80078042804D1FFE72C4805210170FFE750E068460021016028
:204080002B4A0D200B2301900846019901F0E8FA04A908700878032805D1FFE72148017896
:2040A000491C0170FFE704A80078042804D1FFE71C4805210170FFE730E01B491B4A00205F
:2040C00001F0A6F904A908700878032805D1FFE714480178491C0170FFE704A800780428E3
:2040E00005D1FFE70F480178891C0170FFE715E005A8032101700B48002101700EE00A48DC
:20410000002101800948018005A8042202700548017003E0034800210170FFE705A800785D
:2041200006B080BD15030020DA0200204E030020010300202800002080B582B0014601903C
:204140000120009103F0F0FB02B080BD094800787047C04682B0014601AA1070107801220B
:204160001040034A107003480078009102B07047340300203503002080B505480078012893
:2041800001D1FFE702E009F02FFBFFE780BDC0463E0D002080B582B00AF02AFD01F058FEFF
:2041A000019002B080BD000080B586B08D4800780828049000D9A2E00498C04678440079D1
:2041C00040008744040F323D525F7982980053480078C007002804D0FFE7824802210170F4
:2041E000FFE790E04E48008800280DD0FFE74B480078C007002807D0FFE77A480221017053
:204200004748002101800FE0424800680590424800680599401A4349884204D3FFE7714841
:2042200005210170FFE7FFE76DE002200121FFF761FE00F07FF86B4903220A700390FFE702
:2042400000F0D6F83549097801228A43344909880A43002A029007D0FFE7314800210180C2
:20426000604804210170FFE74DE000F05DF802210022019008461146FFF73CFE594801213A
:20428000017040E023480068059055480078C007002804D0FFE7534806210170FFE71E48E8
:2042A00000680599401AC0087C2804D8FFE74D4801210170FFE726E0144820210160144802
:2042C0000160484807210170FFE712480068059043480078C007002808D0FFE70E480068A9
:2042E0000599401AC0087C2804D8FFE73D4808210170FFE707E03B480121017003E0394832
:2043000000210170FFE7002006B080BD0C18024010180240AC020020480300206103002085
:2043200062030020E903000080B506F09BFC002080BD000080B586B0FEF7B4FB06F028FDC3
:20434000174805F0B3FB08F03BF816480021049108F042F814480168144A0390084611468F
:2043600004F05FFE03F0BEFF04F0FAF803F0FAFF0F48029006F08CFB029807F0A5F9039939
:204380000A6802213223019010461A4604F084FE04F08CFB04990090084606B080BDC04687
:2043A000CD1201083C010108C4020020FFFF00009C0400200B4800780B49085C7047C046EB
:2043C00082B0014601AA1070107801221040044A107004480078044A105C009102B07047F8
:2043E000360300204A0D0020E4FF00080020704710B59CB0E3480A2106F0A2FAE24908609F
:20440000086800880921890188422DD1FFE7DE4800684068DD490968884210D1FFE7DC48C0
:20442000006807F08FFEDB490860DB4801880122114301800188042211430180FFE7FE48B0
:2044400000684068D549096888420CD1FFE7FD480078032806D1FFE7F94801880822114343
:204460000180FFE7FFE700E0FFE7F54800888006C00F002816D0FFE7F14800884005C00F46
:2044800000280ED0FFE7EE480188EF4A11400180EA480068ED490022D24307F069FB1B9059
:2044A000FFE7FFE7E64800880005C00F00280ED0FFE7E3480188E64A11400180DF48006875
:2044C000E2490022D24307F053FB1A90FFE7DC480088C004C00F00280AD0FFE7D8480188D5
:2044E000DC4A11400180D548006807F001FEFFE7D34800888005C00F002822D0FFE7D04854
:204500000188D54A11400180CC480168D34A12880023DC431990084611462246189307F053
:20452000AFFECF48006819990A681790104607F043FE1799169008461699189A07F0C0FF3B
:20454000FFE7BF4800880007C00F00282ED0FFE7C4480068C4490022159207F0B1FFC34808
:204560000068C349159A07F0ABFFBD480068C149159A07F0A5FFC0480068C0491491159AE9
:2045800007F09EFFBE4800681499159A07F098FFBC4815990170BC480170BC480170BC481E
:2045A0000170BC480170BC480170FFE7A44800884007C00F00280CD0FFE7A14801880422AE
:2045C00091430180A7480068B449002207F078FFFFE79B4800884006C00F002838D0FFE726
:2045E000974801884022914301800088C006C00F002807D0FFE79B480068AA49002207F043
:204600005FFF06E097480068A549002207F058FFFFE78B4800888007C00F002817D0FFE725
:2046200092480068A0490022139207F049FF8C480068824909681290084607F0BDFD129985
:20464000119008461199139A07F03AFFFFE7FFE7964800689649884200D2E9E09348002192
:2046600001608B480078002820D1FFE788483B21017088480078002812D1FFE785483B2190
:20468000017085480078002804D1FFE782486321017004E080480178491E0170FFE704E0FB
:2046A0007C480178491E0170FFE704E078480178491E0170FFE7784801780A2210900846D1
:2046C00011460F92FDF735FA7A490870109800780F9A0E911146FDF72CFA0E9A51706D498C
:2046E0000B780D9018460F9B0C911946FDF721FA0E99C8700C9800780F99FDF71AFA0E9A34
:20470000117163490B780B9018460F9B0A911946FDF70FFA0E9988710A9800780F99FDF7F8
:2047200008FA0E9AD171099010460AF03BFA5248006800220E9907F0C3FE524800780028B2
:204740002ED1FFE74F483B2101704F480078002812D1FFE74C483B2101704C48007800287B
:2047600004D1FFE749486321017004E047480178491E0170FFE704E043480178491E01708E
:20478000FFE712E09C040020C80900203404002068040020D4090020180400203804002017
:2047A00038480178491E0170FFE7384801780A220890084611460792FDF7BBF93E490870A0
:2047C00008980078079A06911146FDF7B2F9069A51702D490B7805901846079B04911946B0
:2047E000FDF7A7F90699C870049800780799FDF7A0F9069A117123490B7803901846079B69
:2048000002911946FDF795F906998871029800780799FDF78EF9069AD171019010460AF09C
:20482000C1F9174800680022069907F049FEFFE700201CB010BDC046C809002068040020D6
:204840001804002064030020FFFB0000DA030020FFF70000FFEF0000FFFD0000D8090020BD
:20486000540400204C0400201A130108500400203D1301083013010858040020B5120108B5
:204880005C040020590D0020580D0020570D002010040020D9030020D80300204213010880
:2048A000221301081013010856130108D0090020E70300000C0000201800002010B58AB0D6
:2048C000B9480078012801D1FFE76BE1CC4800780328099000D964E10998C04678440079E8
:2048E00040008744013C5DB2B44800888006C00F002833D0FFE7B8480078002101F0D0FB22
:20490000002810D1FFE709F0EFFDB3480178B1480622082301F0A8FDA8480188012292023D
:2049200011430180FFE7AC480078322810DBFFE7A94800210170A148018820229143018099
:204940000188A64A11400180AD480121017004E0A1480178491C0170FFE7FFE722E19748BA
:204960000088C007002809D0FFE794480188012291430180A24802210170FFE78F48008861
:204980000005C00F00280AD0FFE709F0ADFD9048018890480622082301F066FDFFE701E110
:2049A00009F0A2FD09F0CEFE9C4800210170012008900899FFF79EFA804801880422114371
:2049C0000180079004F0A4F9079801884022114301800188C906C90F002931D0FFE77948CE
:2049E0000068774908800888774A1080069109F08BFC0698008805F0E3FC0AF035F906994E
:204A00000A880590104605F083FD09F0F5FA09F00FFB08F099F908F031FA09F01BFF67484A
:204A200001888022114301800188022211430180018840221143018071480321017003E003
:204A40006F4801210170FFE7ACE0584800685849884208D3FFE757480168491C01605348FD
:204A600000210160FFE7534800685349C968884270D3FFE709F0EEFE4E480021016009F015
:204A800033FD09F05FFE03F027FB4C4800888005C00F00285BD0FFE749480188491C0180D2
:204AA000008831282CDCFFE745480088002101F0F7FA002824D1FFE741480188414A1160FE
:204AC000008841490988884203D1FFE709F01CFCFFE73B4801880490084605F071FC0AF06E
:204AE000C3F804990A880390104605F011FD09F083FA09F09DFA08F027F908F0BFF925E00D
:204B00002F480021018001882E4A116000882E490988884203D1FFE709F0F6FBFFE72848B6
:204B200001880290084605F04BFC0AF09DF802990A880190104605F0EBFC09F05DFA09F008
:204B400077FA08F001F908F099F9FFE7FFE708F0FBF8FFE7194800880007C00F00281FD0F5
:204B6000FFE716480188082291430180174901220A60018810239943018001880223994359
:204B8000018001888024A143018024480370002110460092FFF7AEF9194800990170FFE72C
:204BA00000E0FFE70AB010BD3E0D0020CC030020E7030000D0030020FC0C0020180400200D
:204BC000D8090020D4090020DA09002018040050480D0020DA03002011040020FFFB0000C7
:204BE00080B507F05FFF0648002101700B480221017080BD024800780249085C7047C046F9
:204C000064030020EDFF000882B0014601AA107002480078009102B07047C0463803002058
:204C200080B586B0014605900598E122120104911146FCF77EFF0C49087005983C220391C2
:204C400011460292FCF775FF0299FCF772FF039A51700599019008460299FCF76AFF039A94
:204C60009170009006B080BD540D0020B0B58AB013460C4605460990089107920998059396
:204C80000494039505F082FE069000280CD1FFE70798C088F02108400999CA680243012074
:204CA000C0030243CA6083E00798C0880006000F002828D1FFE70998C068002823D1FFE791
:204CC0000998007A000700281DD4FFE70798008800B208990822895E884214D1FFE70798F4
:204CE0000221405E08990A22895E88420BD1FFE70798C0880F210840089AD2890A4090423B
:204D000001D1FFE754E00798C088C007002806D0FFE70998007A800700281AD4FFE70798D8
:204D2000C088C007002806D1FFE70998007A400700280ED4FFE70798C0880006000F002809
:204D400006D0FFE70998007AC007002801D1FFE72EE0089840684088C007FF21023101227A
:204D6000120200280292019101D1029801900198069908800798008806994880079840881F
:204D800006998880079880880699C8800798C0880999C96808430699088109980021C160CE
:204DA0000898C0690699C860099805F0B5FEFFE70AB0B0BD70B58AB0014609900998082203
:204DC000805EC217920E8018800906AA108010880028049104D1FFE706A801210180FFE7D4
:204DE00009980821405E06A90A8812B25201801AC20F8018400808AA108009980A22805EBB
:204E0000098809B20901401AC10F4018400807A9088018480590FFE70598164980318842E8
:204E200026D2FFE709980899059A138806AC248824B225465D434919079B558826466E43DB
:204E40009B19958826466E43D28854436A460A4D556024B2146032B209B21BB203921A460C
:204E6000039B04F035FBFFE7059808300590D3E70AB070BDF2FF0008FFFF000080B586B01D
:204E80008D4800781128039000D90FE103984000784480884000874411001C0028003700FA
:204EA000460053005F006C00790086009500A400A900AE00B900C700E100F700FDF784FA35
:204EC000032805D1FFE77C480178491C0170FFE7F0E06420FDF738FA032805D1FFE77648D3
:204EE0000178491C0170FFE7E4E00120C20305200021FDF70DFB032805D1FFE76E4801787B
:204F0000491C0170FFE7D5E00020012202900299FDF7FEFA032805D1FFE767480178491C50
:204F20000170FFE7C6E019200001FDF70DFA032805D1FFE760480178491C0170FFE7B9E0E2
:204F40006548FDF7BBF9032805D1FFE75A480178491C0170FFE7ADE05E490020FDF79AFA62
:204F6000032805D1FFE754480178491C0170FFE7A0E057490920FDF78DFA032805D1FFE7CE
:204F80004D480178491C0170FFE793E04F490B20FDF780FA032805D1FFE747480178491C4F
:204FA0000170FFE786E0012100200190019AFDF7AFFA032805D1FFE73F480178491C01706C
:204FC000FFE777E00120C10305200022FDF7A0FA032805D1FFE738480178491C0170FFE73E
:204FE00068E035480178491C017063E032480178491C01705EE0FEF7EFFF032805D1FFE789
:205000002D480178491C0170FFE753E02D492E4A002000F0FDF9032805D1FFE726480178F1
:20502000491C0170FFE745E007F0B2FF05A9087022480078224A10700878032804D1FFE78D
:205040001D4810210170FFE705A80078042804D1FFE7194810210170FFE72BE005A800783E
:20506000FEF78CF8254908700878022804D0FFE711480F21017006E00F4811210170002073
:20508000FDF7EAFBFFE715E005A80078FEF776F81A4908700878022807D0FFE706480F2114
:2050A00001700120FDF7D8FBFFE703E0024800210170FFE706B080BD1600002015000020AE
:2050C00046030020D80200204C030020AE030020AC030020B0030020C409000080B506483B
:2050E000002101700548017007F048FCFEF7C0FBFDF708F980BDC04634030020350300208E
:2051000080B58CB0FFF776FD0BA90870FFF752F90AA90870FFF71AF809A908703D480078EE
:20512000032808906FD80898784400794000874401254D570AA8007800281ED0FFE709A8E4
:205140000078002819D0FFE70BA80078002814D0FFE701200790FFF757FD0799069008463D
:20516000FFF72EF9079905900846FEF7F3FF29490A78521C0A700490FFE748E00AA8007800
:2051800000280AD0FFE709A80078002805D0FFE70BA80078002804D1FFE71E480321017012
:2051A000FFE70BA8007802280FD1FFE70AA8007802280AD1FFE709A80078022805D1FFE7CA
:2051C00014480178491C0170FFE720E0FDF764FB03F07EFBFDF76AFB0E480121017016E047
:2051E00000200390FEF7B6FF039902900846FFF7E7F8039901900846FFF706FD0549039AA2
:205200000A70009003E0034800210170FFE70CB080BDC0463703002010B582B018480168C5
:20522000012211430160052000070168032292029143016013480168FF22120291430160E5
:205240001148016820221143016010480168114301600F48002101600E4B196004681443B1
:2052600004601868104318600720019001F020FF019801F0BBFD02F0C5FD02B010BDC0463C
:205280003410024064180240001802400C180240801802408418024080B584B00146029010
:2052A0000298401E000E0028019103D0FFE70120039013E00298401E0A4908600020C143F7
:2052C000032200900846114601F0A8FD0648009901600648072202600391FFE7039804B0F4
:2052E00080BDC04614E000E018E000E010E000E010B517480168491C016016480068202195
:205300000840154908600868002805D0FFE71048006812490860FFE70F48008810490988FA
:20532000884205D1FFE70C4800680E490880FFE7094800680A4908800B480188094A138808
:205340008B430A490C881C430C801188018010BD48030020100000503C030020AC020020CE
:20536000400300204203002044030020620300200120C006014908607047C04608ED00E04E
:2053800012480068C00700281FD0FFE70120C0430E4908600E480168491E01600D48008840
:2053A0000006C00F002809D0FFE70B480168491C01600A480168491C016005E006480021DA
:2053C000016006480160FFE7FFE7704710040040500D002018040020D0090020CC03002045
:2053E00080B582B008480068C007002809D0FFE70120C043044908600448006880470190FB
:20540000FFE702B080BDC04610100040280D002070B58AB013460C46054609AE30700891B7
:20542000079206A802210170874800780328049303940295019000D9FDE001987844007945
:205440004000874401095BB58048002101707E480178491C0170F2E009A8007869460022EC
:205460000A607A4A0121FF2300F0FAF805A908700878032831D1FFE774484178827812029C
:205480008918C27812048918007900060818704908600868032109050840012109058842D6
:2054A0000AD0FFE76A48006803210905084001214905884205D1FFE763480178491C0170A8
:2054C0000AE00898002101800798018006A8032202705D480170FFE7FFE705A80078042808
:2054E0000BD1FFE70898002101800798018006A80322027054480170FFE7A0E009A80078A7
:20550000694600220A60514A0221FF2300F0A8F805A908700878032839D1FFE74B484178D3
:205520008078000208184A490860086803210840032820D1FFE7464800680007800F0328C1
:2055400005D1FFE740480178491C017012E0404800684008062108403F49085A089908800C
:2055600007983E49018006A803210170364800210170FFE70AE008980021018007980180FF
:2055800006A80322027030480170FFE7FFE705A8007804280BD1FFE708980021018007981D
:2055A000018006A80322027027480170FFE746E009A80078694600220A60244A0321FF2321
:2055C00000F04EF805A908700878032822D1FFE71E484178827812028918C278120489182C
:2055E0000079000608181A4908600868194A10400A2242430898028008680003800D3221F8
:2056000041430798018006A8032101700E4800210170FFE705A8007804280BD1FFE7089822
:20562000002101800798018006A80322027006480170FFE703E0044800210170FFE706A869
:2056400000780AB070BDC046E708002065030020A8030020FF0300003401010888130000A8
:20566000F0B597B01C9C1D4616460F460C900B9016A80A900C9809910A99087015A909982B
:205680000870149213AA137012AB1C700978C900194B5C18A08808900FA8079008980691FC
:2056A000079988800698195A63881B0459180F911178FF2905950496039704D0FFE7139832
:2056C0000FA94871FFE712980FA9087016A80078149B10990DAA91800F990D910E9A0D99AF
:2056E000064C6D466C600A242C60FDF7B9FF11A90870087817B0F0BD7200010843ED00089A
:2057000080B58AB0014609AA1070107813280691059000D9AFE105984000C04678448088A1
:20572000400087441300250037003C002E001C004F0054005B00620069007A009300CA00C9
:20574000E30029015F016C0170000701012100200490049AFCF7DCFE08A908708FE10020FD
:20576000012203900399FCF7D3FE08A9087086E10120C10305200022FCF7CAFE08A9087073
:205780007DE10120C20305200021FCF7C1FE08A9087074E1FCF718FE08A908706FE1C820E5
:2057A00007900798BE490988884204DDFFE7BC4800880790FFE707A80088FCF7C5FD08A9E4
:2057C00008705CE1FEF708FC08A9087057E1AF490020FCF7DFFF08A9087050E1AC49012061
:2057E000FCF7D8FF08A9087049E1B948BA49FCF709FD08A9087042E1A6490220FCF7CAFF76
:2058000008A908703BE1AA48B249FCF723FD08A90870A6480121017031E1A048002101601D
:20582000A6480078A64908709D480088002809D0FFE7A5480088002804D0FFE7A0480021E7
:205840000170FFE708A80321017018E19B4800789B4908708E48008840089C49884209DBC3
:20586000FFE79B480088812804DCFFE7944801210170FFE7844800688005400F002804D00F
:20588000FFE78F4801210170FFE78548008800280BD0FFE78C480088002806D0FFE77A4892
:2058A00000684006002804D5FFE7854802210170FFE708A803210170E1E0784800210160C4
:2058C0007E4800787E49087075480088002809D0FFE77D480088002804D0FFE7784801210E
:2058E0000170FFE708A803210170C8E06B480021016072480078724908706548008840084D
:205900007049884204DCFFE76D4800210170FFE763480088002805D0FFE76B480088002898
:2059200004D1FFE7664803210170FFE708A803210170A4E0544800684003002818D4FFE779
:205940005A480078C007002812D0FFE75848008858490122002388420293019201DC0298FE
:205960000190019854490870504802990170FFE708A80321017082E0434800684006002856
:2059800004D5FFE708A8032101702AE043480168643101600068424909886439884206DD41
:2059A000FFE73F48008864383C490860FFE73B480068002804DAFFE7384800210160FFE7C4
:2059C000364800683749884204DBFFE7334836490160FFE731480088FCF7B6FC08A90870C2
:2059E000FFE74CE02948008829490988490803F023F82949086008A8032101703FE0224892
:205A00000068000600280CD5FFE71F480068C005002806D5FFE71C480068400500280FD490
:205A2000FFE71A480088002811D1FFE71848008800280CD1FFE717480088002807D1FFE706
:205A400019200001FCF73AFC08A9087012E00E4800688005400F002804D0FFE708A8032180
:205A6000017006E00C480088FCF728FC08A90870FFE7FFE703E008A804210170FFE708A828
:205A800000780AB080BDC046F8080020F4080020240D0020F2080020B0020020DC0200201A
:205AA000DA020020550B0000540B000060030020220D002070170000610300201500002019
:205AC00017000020031000004E0300209B1000001C0D0020200D00201E0D002080B586B014
:205AE000014605AA1070107805280291019032D80198C04678440079400087442509171019
:205B0000021E002008F02AFF04A80321017026E0012008F023FF04A8032101701FE0002042
:205B200008F072FF04A80321017018E0012008F06BFF04A80321017011E0002008F0A6FF51
:205B400004A8032101700AE0012008F09FFF04A80321017003E004A804210170FFE704A86B
:205B6000007806B080BD0000674800688006002800D47FE065480168082211430160644821
:205B800001681143016063480068022814D8FFE7634800685F490A68694B98540868022871
:205BA00005D1FFE76648007866490870FFE759480168491C0160A5E0544801681022114316
:205BC0000160554801681143016052480168491C016052480078C007002825D1FFE750486B
:205BE000006850490A78524B98540878FF2815D1FFE74E480188491C01804A4800210170FD
:205C0000464801780422114301700178F72211400170017801221143017004E041480178F7
:205C2000491C0170FFE724E03D4800683D490A783D4B98540878FF2815D1FFE73B480188BC
:205C4000491C0180374800210170344801780822114301700178FB22114001700178FE2278
:205C60001140017004E02F480178491C0170FFE7FFE7FFE724480068C006002842D5FFE747
:205C800022480168102211430160234801689143016026480188491C018020480178202241
:205CA000114301700078C00700280AD1FFE71B4801780422114301700178F72211400170DC
:205CC00009E0164801780822114301700178FB2211400170FFE713480078164908701348D2
:205CE0000088154A108010880002FF22D243801809784018114908600848017840221143AB
:205D00000170FFE77047C0461C3801402038014018380140380D002000380140600D002045
:205D2000243801405A0D0020620E00200C040020620D0020F00800200E040020D4030020AF
:205D40005C0D00205B0D002080B586B0FFE7C0482721405C012804D1FFE7012002F042FCC0
:205D6000F5E7BB4827210122425405900491039200F030FC0398C107B64A1160C720029219
:205D800000F0EAFB0399CA03029B1A60019000F0F9FB0A2002F026FC00200599049A8854C3
:205DA00006B080BD80B58CB001460B900A91FFE7A7482721405C012804D1FFE7012002F052
:205DC00011FCF5E7A2482721012242540990089200F0D8FB0B9809990A6942430B9200F02F
:205DE000F9FB0898C1079B4A1160202000F0B4FB09990A780A2A079006DBFFE70BA8C07871
:205E000000F0AAFB0690FFE70BA881780590084600F0A2FB05994A780490104600F09CFB84
:205E200005990A780390104600F096FB0121CA03884B1A600290019100F0A4FB019802F05E
:205E4000D1FB83482721002242540CB080BDC04680B586B0FC482721012242541046039211
:205E600002F0C0FB0398C103F84A1160642002F0B9FB00F043FA049004A8008876498842BB
:205E8000029000D1ABE075480299814200D1A2E073480299814200D199E07248029981422B
:205EA00000D190E070480299814200D187E06F48029981427FD0FFE76D480299814276D0B0
:205EC000FFE76C48029981426BD0FFE76A480299814260D0FFE769480299814255D0FFE769
:205EE0006748029981424AD0FFE76648029981423FD0FFE764480299814234D0FFE76348F5
:205F00000299814229D0FFE76148029981421DD0FFE760480299814211D0FFE75E4802995C
:205F2000814205D0FFE75D48029981425BD060E0F1480B21017001218902C16160E0EE485A
:205F40000A21017001214902C16159E0EA480921017001210902C16152E0E74808210170C6
:205F60008021C1614CE0E448062101704021C16146E0E148052101702021C16140E0DE485C
:205F8000042101701021C1613AE0DB48032101700821C16134E0D848022101700421C161EC
:205FA0002EE0D548012101700221C16128E0D2488021C16124E0D0484021C16120E0CE4844
:205FC0002021C1611CE0CC481021C16118E0CA480821C16114E0C8480421C16110E0C6485D
:205FE0000221C1610CE0C448072101704021C16106E0C14827210022425405A8027023E037
:20600000BD4801210A0242810A030261C26912014261426903695343428901901846009141
:206020001146FBF786FD0199C86008690001886148690A694243900A0862272000220A5403
:2060400005A8009A0270FFE705A8007806B080BD640F00201800005011300000123000000B
:206060001330000014300000153000001630000017300000114000001240000013400000D1
:206080001440000015400000164000001740000018400000194000001A4000000187000017
:2060A00070B5D6B00A460346549053910A920993FFE7EB482721405C012804D1FFE701209A
:2060C00002F090FAF5E7E648272101224254110213AA089010460791FBF727FD002012900B
:2060E00011A9079A0A8010A90880089B1C69539D641B0C80539C549D1E696E43A4191294DC
:206100004C780FAD2C800C780EAD2C800DAC20800888904204DCFFE70DA8012101800EE0A1
:206120000EA80088002804D1FFE70F980DA9088004E00F98401C0DA90880FFE7FFE70CA8B4
:2061400000210180FFE70CA800880DA9098888426EDAFFE70120C007C24908600B2000F0C6
:20616000FBF9FC4909780A29069006DBFFE712A8C07800F0F1F90590FFE712A88178049047
:20618000084600F0E9F904994A780390104600F0E3F904990A780290104600F0DDF90021DD
:2061A0000190084600F0D8F910A90988FF29009004DCFFE7109811A90880FFE711A8018865
:2061C00013A8642208F0A4F90120C003A54908600BA800210180FFE70BA8008811A90988EE
:2061E000884214DAFFE70BA8008813A9085CFF2807D0FFE7F64827210022425455A8027015
:206200001EE0FFE70B98401C0BA90880E4E71098FF21C943401810A9088012980121090250
:2062200040181290FFE70C98401C0CA908808AE7E74827210022425455A801210170FFE72B
:2062400055A8007856B070BD640F00201800005080B58EB00A4603460D900C910B920A931B
:20626000FFE7DB482721405C012804D1FFE7012002F0B8F9F5E7D648272101224254D107B6
:20628000DF4A11600B210990084600F065F909990A780A2A089006DBFFE70CA8C07800F070
:2062A0005BF90790FFE70CA881780690084600F053F906994A780590104600F04DF906991F
:2062C0000A780490104600F047F9002103900846029100F041F9A5210190084600F03CF999
:2062E0000D9908700120C003C5490860B8482721029A42540EB080BD640F002080B588B0B1
:20630000002007900690059004900120C107BC4A11609F2103900846029200F01DF9A521A6
:2063200001900846009100F017F90690009800F013F90590009800F00FF904900398C103AB
:20634000029A116006990904059B1B021943049B19430791079808B080BDC046F0B591B058
:206360001C4615460E46074610900F910E920D930C940B950A960997FFE7E5482721405CC8
:20638000012804D1FFE7012002F02CF9F5E7E0482721012242540D994089814204D8FFE7E8
:2063A0000D98002804D1FFE7D94840890D90FFE70E980D994018D6494989884206D9FFE7C4
:2063C000D34840890E99401A0D90FFE70F98D0494A8942430E9810180F900120C007CD4AD1
:2063E00010600B20089100F0B7F808990A780A2A079006DBFFE70FA8C07800F0ADF80690FB
:20640000FFE70FA881780590084600F0A5F805994A780490104600F09FF805990A780390F2
:20642000104600F099F8002102900846019100F093F810990DAA12886423009008461146C1
:206440001A4608F065F80120C103B24A116002F0C9F8AF482721019A425411B0F0BDC0469E
:20646000640F002018000050F0B58FB01C4615460E4607460E900D910C920B930B98A449D7
:2064800009698842079406950596049704D8FFE70B98002804D1FFE79D4800690B90FFE73D
:2064A0000C980B9940189A490969884206D9FFE7974800690C99401A099002E00B9809905A
:2064C000FFE70D9800F034F80C99914A53890390084619460292FBF72CFB039908180A9076
:2064E0000C98029A5189FBF724FB08910190FFE70E980A99089A099BFFF730FF0A98401CAF
:206500000A9083484189089A099B511A5918099140890899401A0E9908180E9000200890AF
:20652000FFE709980028E3DCFFE70FB0F0BDC04680B584B0014603900398754A13694343F6
:20654000508902901846029A01911146FBF7F1FA04B080BD640F002010B584B0014603AA9F
:20656000107002A80123642401901046019A009111461A46234608F06DF80198007804B0F0
:2065800010BD000080B582B00120019002F02AF80198C1075F4A11600520FFF7DDFF0090FF
:2065A000FFE7A520FFF7D8FF594924228854012002F018F8FFE756482421405CC007002828
:2065C000EFD1FFE70120C0035249086002B080BD640F002080B584B00120C1074D4A116052
:2065E0000621039008460292FFF7B6FF0399CA03029B1A600190084601F0F4FF04B080BD20
:2066000018000050F0B58FB01C4615460E4607460E900D910C920B930A94099508960797E0
:20662000FFE73B482721405C012804D1FFE7012001F0D8FFF5E736482721012242540B9941
:206640000C9A89184089814204D8FFE70B98002806D1FFE72E4840890C99401A0B90FFE75E
:206660000C980B9940182A494989884206D9FFE7274840890C99401A0B90FFE7FFF782FF77
:20668000FFF7A8FF0120C007224908600220FFF763FF0D991E4A53894B430C9959180D91FC
:2066A00011780A29069006DBFFE70DA8C078FFF753FF0590FFE70DA8817804900846FFF78B
:2066C0004BFF04994A7803901046FFF745FF04990A7802901046FFF73FFF0E990BAA1288BD
:2066E00064230190084611461A4607F05FFF0120C103084A11600090FFF744FF009801F02E
:2067000071FF03482721002242540FB0F0BDC046640F00201800005010B586B00A460346BD
:20672000059004910599A7480392029304F0B7FB0598032101820598418205980021C1812E
:20674000059881810598049A13881BB20224125F0191194600F035F80598049904228A5E0A
:206760000623C95E00911146009A00F009FA0198C04306B010BDC0467047000080B584B00F
:20678000014603908E480022D24302900191114604F048FC03998B4A0090104604F0B5FB64
:2067A000029804F022FC04B080BDC046704784B00A460346039002A801700192009304B02A
:2067C0007047B0B58CB013460C4605460B900AA8018009A90A800B99896806900846059350
:2067E0000494039503F041F808A908800B988068029103F029F807A908800698018809B2B8
:206800000B9A1023D25E8918029A13881BB2994207DDFFE708980B99098A401A0AA90880BA
:20682000FFE70AA8008800B2002804DAFFE70AA800210180FFE709A8008800B20B9912229D
:20684000895E401807A9098809B2884207DDFFE707980B99498A401A09A90880FFE709A828
:20686000008800B2002804DAFFE709A800210180FFE70A980899081A08A908800998079AD9
:20688000101A07AA10800B981022805E098809B2884205DAFFE70B98008A08A90880FFE7B3
:2068A0000B981221405E07A9098809B2884205DAFFE70B98408A07A90880FFE708A8008816
:2068C00000B20B991022895E884209D1FFE707A8008800B20B991222895E88420AD0FFE78D
:2068E0000B9808A9098809B207AA128812B200F047F9FFE70B980C21405E0AA9098809B266
:2069000088420AD1FFE70B980E21405E09A9098809B2884201D1FFE730E00B98407E800704
:2069200000281CD5FFE70B980021019105F02EFE019800F0F9FF0B98808908A908800A98D9
:206940000B9988810B98C08907A9088009980B99C8810B980199C94305F018FE0EE00B98F3
:20696000808908A908800A980B9988810B98C08907A9088009980B99C881FFE70CB0B0BDC5
:2069800080B586B0014605900D480022D24304900391114604F046FB05990A4A0290104696
:2069A000019204F0B2FA0599019804F078FA049804F01BFB059801F0FDF806B080BDC046E5
:2069C000CC0400205003002070B58CB001460B900B9880690A900B988269684B1A4082616D
:2069E0000AA8407880070028089139D5FFE70B984068C068002805D0FFE70B984168C9681E
:206A000088472CE00AA840780006002826D5FFE70B9881680C22825E0E23C35E1024045F9F
:206A20001225455FC08A6E4670603560084611461A46234602F04CFD0AA8C078C007002896
:206A40000BD1FFE70B9840680069002805D0FFE70B98416809698847FFE7FFE7FFE78BE033
:206A60000AA840780006002800D484E00B9881680C22825E0E23C35E1024045F1225405FED
:206A80000791069205930494039004F0BDFF694648600398086007980699059A049B02F08B
:206AA00017FD002004F0BCFF0990FFE70998002860D0FFE70998407E8007002854D5FFE778
:206AC000099880680B99896888424DD1FFE709980C21405E0B9A515E1023D25E891888423C
:206AE00042DAFFE709980E21405E0B9A515E1223D25E8918884237DAFFE709980C21425E9D
:206B00001023C05E10180B9A515E88422CDBFFE709980E21425E1223C05E10180B9A515EB2
:206B2000884221DBFFE709984068C068002805D0FFE709984168C968884714E0099881688D
:206B40000C22825E0E23C35E1024045F1225455FC08A6E4670603560084611461A46234692
:206B600002F0B6FCFFE7FFE7FFE7099804F058FF09909BE7FFE7FFE70CB070BDFF3FFFFEC8
