:020000040800F2
:20000000800E0020A5010008AD010008AF0100080000000000000000000000000000000016
:20002000000000000000000000000000B10100080000000000000000B3010008CD0700086E
:20004000B701000800000000B7010008B7010008B7010008B7010008B7010008B701000860
:2000600000000000B7010008B7010008B7010008B7010008B7010008B70100080000000000
:20008000B7010008B7010008B7010008B7010008B7010008B7010008B7010008B701000860
:2000A000B7010008B7010008B7010008B7010008B7010008B701000800F002F800F047F8A7
:2000C0000CA030C8083824182D18A246671EAB4654465D46AC4201D100F039F87E460F3E2E
:2000E0000FCCB6460126334200D0FB1AA246AB463343184780140000A0140000103A02D393
:2001000078C878C1FAD8520701D330C830C101D504680C6070470000002300240025002687
:20012000103A01D378C1FBD8520700D330C100D50B6070471FB50098019900F050FA00F051
:20014000C5F91FBD10B5002000F007FA10BD00F0A0FA1146FFF7EEFF00F0B4FF00F0D2FA3F
:2001600003B4FFF7EFFF03BC00F00AFB70B505460C46164602E00FCC0FC5103E102EFAD229
:20018000082E02D303CC03C5083E042E07D301CC01C5361F03E021782970641C6D1C761ED1
:2001A000F9D270BD0748804707480047FEE7FEE7FEE7FEE7FEE7FEE704480549054A064B03
:2001C00070470000E5070008B900000880080020800E0020800A0020800A0020F8B507460F
:2001E00015460E46102000F087F9040009D06760A660E56000F07CF90168216004600020EE
:20020000F8BD0120F8BD00000346F0B50B439B072DD1244DEF01042A29D308C810C95E1BCA
:200220009E43121F3E4017D0D8B2E1B2401A3106014310D198B2A1B2401A310401430AD129
:2002400018022102000A090A401A3102014302D1180E210E401AF0BDA342DCD018BA21BA06
:20026000884201D90120F0BD0020C043F0BD002A01D10020F0BD03780C78401C491C002B88
:200280000DD0A3420BD1521E09D003780C78401C491C002B03D0A34201D1521EEBD1181BA3
:2002A000F0BD000001010101F8B5042A2CD3830712D00B78491C0370401C521E83070BD0BB
:2002C0000B78491C0370401C521E830704D00B78491C0370401C521E8B079B0F05D0C91A7E
:2002E000DF002023DE1B08C90AE0FFF73FFFF8BD1D4608C9FD401C46B4402C4310C0121F08
:20030000042AF5D2F308C91A521EF0D40B78491C0370401C521EEAD40B78491C0370401C3A
:20032000012AE4D409780170F8BD01E004C0091F0429FBD28B0701D50280801CC90700D046
:200340000270704700290BD0C30702D00270401C491E022904D3830702D50280801C891E77
:20036000E3E70022EEE70022DFE7002203098B422CD3030A8B4211D300239C464EE00346A0
:200380000B433CD4002243088B4231D303098B421CD3030A8B4201D394463FE0C3098B42B9
:2003A00001D3CB01C01A524183098B4201D38B01C01A524143098B4201D34B01C01A524164
:2003C00003098B4201D30B01C01A5241C3088B4201D3CB00C01A524183088B4201D38B009C
:2003E000C01A524143088B4201D34B00C01A5241411A00D201465241104670475DE0CA0FC2
:2004000000D04942031000D34042534000229C4603098B422DD3030A8B4212D3FC22890142
:2004200012BA030A8B420CD3890192118B4208D3890192118B4204D389013AD0921100E07A
:200440008909C3098B4201D3CB01C01A524183098B4201D38B01C01A524143098B4201D351
:200460004B01C01A524103098B4201D30B01C01A5241C3088B4201D3CB00C01A524183086E
:200480008B4201D38B00C01A5241D9D243088B4201D34B00C01A5241411A00D20146634657
:2004A00052415B10104601D34042002B00D54942704763465B1000D3404201B50020C0460B
:2004C000C04602BD704770477047000070B5064C7C44064D7D4403E0206800198047241D5B
:2004E000AC42F9D170BD0000C0100000C0100000004870475808002070B5064600F052F84D
:20050000056830460B30C408E400B44201D8002070BD68682A46002818D00168A14211D371
:200520000B46214608318B4208D3436801194B6003681B1B0B605160046001E04168516056
:20054000001D70BD024640680028E6D12146284600F030F80028DCD170BDF8B50646FFF7A4
:20056000C7FF0090054615E0002E02D0E068B0420FD1206828600098A16807686068884714
:20058000204600F060F800980068B84202D00098E8E725462C68002CE6D1F8BD00487047E4
:2005A000200800200048704728080020704770477047704738B504460A4600206946C0466C
:2005C000C046002805D002462046009900F080F8012038BD10B5012000F09CF810BDF8B56F
:2005E000C046C046054600200C461020C0460646A819A0420DD9324669460020C046C046D4
:20060000070001D100F086F80098A04200D00546C419FFF7C7FFF61D07460560F008C000E8
:200620004619284600F008F8B44204D031463868A21B00F04DF8F8BD002101604160806072
:2006400070471020704770B50446051FFFF7AAFF0068002C1AD0446801E020466468002C61
:2006600001D0AC42F9D301680A18AA4204D12A6805468918016000E0456028684119A14272
:2006800005D16168696021684018286070BD6C6070BD7546FFF782FFAE46050069465346F0
:2006A000C008C000854618B020B5FFF785FD60BC00274908B6460026C0C5C0C5C0C5C0C508
:2006C000C0C5C0C5C0C5C0C5403D49008D46704710B50346406801E003464068002801D035
:2006E0008842F9D31868C3188B4206D0CB1CD808C000001D411A521A0146081D0A60FFF72F
:20070000A2FF10BD10B50446C046C0462046FFF727FD10BD10B500F00BF800F002F810BD94
:20072000704710B5002801D000F02AF810BD000010B5012805D0002103A000F027F80120AE
:2007400010BD09A1F8E7000053494752544D454D3A204F7574206F662068656170206D65A4
:200760006D6F7279000000003A2048656170206D656D6F727920636F727275707465640029
:2007800001491820ABBEFEE72600020070B505460C460A2000E06D1C00F012F8002D06D00F
:2007A00028780028F7D102E0641C00F009F8002C02D020780028F7D10A2000F001F870BD90
:2007C00008B5694608700320ABBE08BD10B504480068401C0249086000F0E0FB10BD0000C4
:2007E000000000200120C006014988607047000000ED00E07CB503461046D40F24186410D9
:200800006400141B01D000207CBD00BF414800690124240420400028F8D100BF3D4800691F
:200820000124A40420400028F8D13A484069C00FC007002804D03848364CA0603748A0605C
:2008400034480069364C2043324C206120464069022420432F4C606120464069FF24F9349C
:20086000A0430124E4061C1B240AFF25F9352C402043284C6061204640690124240420430C
:20088000244C606100BF234800690124240420400028F8D11F480069214C20431D4C20616C
:2008A000204640690224A0431A4C6061002026E0184C646901252C43164D6C61C410E40025
:2008C0000C1930CC019500941E18019D009C3460756000BF0F4C246901252D042C40002C5E
:2008E000F8D10C4C246901252C430A4D2C612C466469640864006C6104460834A0B290424B
:20090000D6DB044840690124E4072043014C6061012079E70020024023016745AB89EFCD0D
:20092000FB83000070B504462948006AC0B2AA284DD100F097F800BF25480069012109044A
:2009400008400028F8D122484069C00FC007002804D020481E4988601F4888601C484069A6
:20096000012189070840002804D01C481849C8601B48C8601648006A050A2D02254314483F
:20098000056240690121490408431149486100BF0F4800690121090408400028F8D10C484F
:2009A0004069C90208430A49486108464069890408430749486100BFBFF34F8F09480A49C1
:2009C000C860BFF34F8F00BF00BF00BFFDE770BD0020024023016745AB89EFCD3B2A190869
:2009E0007F6E5D4C0400FA0500ED00E010B5002819DB1A4A03231B02D21883089B00D258CF
:200A00008307DC0EFF23A3409A438B071B0E8407E40EA3401A43114B032424021B1984089F
:200A2000A4001A5118E00E4A03071B0F083B9B089B00D2588307DC0EFF23A3409A438B0790
:200A40001B0E8407E40EA3401A43054B0407240F083CA408A4001A5110BD000000E100E095
:200A60001CED00E010B5002415E00C48406901218902084309494861642000F011F80748F3
:200A8000406901218902884304494861642000F007F8601CC4B2032CE7DB10BD00040050C8
:200AA00008B505490968009100BF00990918024A12689142F9D808BD00000020F0B5034673
:200AC0000A4600241249002A02D1C84380B2F0BD002012E01D5C694000250AE0CE07F60F43
:200AE000002E04D04E080B4F7E40314600E049086D1C082DF2DB451CA8B29042EADBC943F5
:200B00000C46080225042D0E2843014688B2DEE7FFFF0000088400000D48406B032108436B
:200B20000B4948630B480068032109058843094908600846006889020843064908600846B3
:200B400040690121890288430249486170470000001002400004005070B58820FFF7E2FE80
:200B600072B60648446825460146086880F3088800BF084602498860A84770BD00180008B2
:200B800000ED00E0F0B5B5B007460D4616461C46B02109A8FFF7E7FB09AA8021384600F004
:200BA000ABF8002E02D0012E24D106E00A2209A9284600F048F835B0F0BD002C00D1FAE79C
:200BC000202101A8FFF7CFFB1022294601A8FFF76BFB0A2209A9284600F035F810231A46C9
:200BE0002146284600F076F8102201A92046FFF75BFBE0E700BFDEE708B503786A4613707E
:200C000003795370037A9370037BD3700422521A9207920F6B469A5C02700422521A521C6F
:200C20009207920F9A5C02710422521A921C9207920F9A5C02720422521AD21C9207920F73
:200C40009A5C027308BDF0B507460D461646344630014119384600F017F808E0601EC4B265
:200C600020014119384600F0E7F8701EC6B2012EF4DC002405E0385D295D48403855601CF2
:200C8000C4B2102CF7DBF0BD70B505460E46002405E0285D315D48402855601CC4B2102C10
:200CA000F7DB0121681CFFF7A7FF0221A81CFFF7A3FF0321E81CFFF79FFF002405E0285D57
:200CC0000349085C2855601CC4B2102CF7DB70BD58140008F0B504461D468C4200D81546F3
:200CE000002005E0265C0F5C7E402654461CF0B2A842F7DBF0BD0000F7B586B00E461746CA
:200D000000200390F004050EE81D8006000E0590F017400F8019C210019638460699FFF780
:200D2000C3FA04952C4657E0601E8000385802900498844220D0082D45D12046E117490F41
:200D40000918C910C900611A04293CD16846007A2449095C68460172407A2249095C6846C8
:200D60004172807A1F49095C68468172C07A1D49095C6846C17226E004984019C0B2049071
:200D800002A800F033F86846007A1649095C68460172407A1349095C68464172807A114951
:200DA000095C68468172C07A0E49095C6846C172007A0D4A0399515C4840694608720398F0
:200DC000401CC0B20390601B8000385802994840A1007850601CC4B205988442A4DB09B00E
:200DE000F0BD0000581300085815000801784278027082784270C2788270C170704770B5D4
:200E000003460020002413E0CE07F60F002E02D006465E40304680261D4635405E06330EF5
:200E2000002D02D01E46564033464910661CF4B2082CE9DB70BD0000F3B586B0054600244D
:200E400007E0295D0798005D414002A80155601CC4B2102CF5DB002482E0A000C01C02A9FD
:200E60000F5CA100891C02AA515C4F40A000401C02A9085CA100515C484001900198784016
:200E800006461B2231460920FFF7B9FF0646A000801C02AA105CA20002AB9A5C50400146BF
:200EA0001B220420FFF7ABFF70400090A000C01C02AA105CA200521C02AB9A5C50400146D3
:200EC0001B220420FFF79BFF4640A00002AA105CA200D21C02AB9A5C504001461B2202207A
:200EE000FFF78DFFA100C91C02AA515C71404840A100C91C68541B2239460220FFF77FFFC4
:200F0000A100891C02AA525C00994A405040A100891C6854A000801C02AA105CA200521C18
:200F200002AB9A5C504001461B220220FFF767FFA100491C02AA515C71404840A100491CDE
:200F400068541B2202200199FFF759FFA10002AA525C00994A405040A1006854601CC4B291
:200F6000042C00DA79E70121681CFFF745FE0221A81CFFF741FE0321E81CFFF73DFE00248F
:200F800005E0285D0449085C2855601CC4B2102CF7DB08B0F0BD000058140008024800682E
:200FA000401C0149086070470800002001461148026814E00F4800680F4BD31898420ED981
:200FC0000E48C06902231840002804D00B48006A18430A4B18620020087001207047074873
:200FE000C069202318400028E4D00448406A08700020F3E7080000208813000000380140AD
:2010000000BF0449C969402211400029F9D00149886270470038014010B504461A48406B6D
:2010200001210843184948630520000700680F21890488430521090708600846006849126C
:201040000843490208600846406AFF21113108430521090748620C48403000680121890333
:20106000084309494031086021460848FFF77DF90749C860052000038860084600680D216B
:2010800008430349086010BD001002400024F400003801400021014A1160704708000020E5
:2010A0007047000010B50448FFF7F4FF0446034A0349FFF793F810BD040000200000000822
:2010C000A1100008F0B58BB0FFF78CFB7D24E401601E9249884201D901200CE0601E904913
:2010E00048610321081FFFF781FC00208C498861072008610020002802D000200BB0F0BD79
:201100008848406B0121084386494863FFF704FD0E2285A18848FFF777F8002801D10120D0
:2011200000E000200A900A9800280AD0002006900790089009900F2206A97F48FFF75AFB01
:2011400000BF4B200002FFF767FFE5E07B484069012189028843794948610020099009A889
:20116000FFF724FF002805D00A98002800D0D3E0FFF7F2FC01200A9008A80079BA2800D092
:20118000CAE009A8FFF712FF002800D0C4E008A80079FB2801D1FFF7DFFC08A80079BF2852
:2011A00000D0B9E066496748FFF7DBF80024002620E064490819FFF7F9FE002801D001267A
:2011C0001AE06048005DBA280ED10020029002A8FFF7ECFE002801D001260DE06846007ADE
:2011E000002800D0012600BF601C84B25448844200D301E0002EDCD000BF002E06D0BA20D2
:20120000FFF7FEFEC220FFF7FBFE85E04E48477C0146097C09020F43812109014948FFF7F1
:201220004DFC0546BD4206D0BA20FFF7E9FEC220FFF7E6FE70E00020059006900790089008
:2012400002900DE03F490298081805AB0122014601903E48FFF796FC0298103080B2029076
:201260008121090102988842ECDB36484078354909780902084307460020324948700870F4
:201280002F49091F2F48801CFFF718FC05462D48C0782C498978090208430490BD4203D166
:2012A0002B490498884206D0BA20FFF7A9FEC220FFF7A6FE30E02148406901218902084371
:2012C0001E4948611F48C0791E498979090208431C494979090408431A49097909060843E1
:2012E00003903B21C9020398884206D9BA20FFF787FEC220FFF784FE0EE0164A03998818B7
:20130000121410491031FFF775FABA20FFF778FEC120FFF775FE00BF18E70000FFFFFF005D
:2013200000E000E0001002407A6572644067656E657261746F720000F0FF01080004005093
:20134000120800000C0000200C08002062150008717A000000180008637C777BF26B6FC527
:201360003001672BFED7AB76CA82C97DFA5947F0ADD4A2AF9CA472C0B7FD9326363FF7CCAF
:2013800034A5E5F171D8311504C723C31896059A071280E2EB27B27509832C1A1B6E5AA008
:2013A000523BD6B329E32F8453D100ED20FCB15B6ACBBE394A4C58CFD0EFAAFB434D33858A
:2013C00045F9027F503C9FA851A3408F929D38F5BCB6DA2110FFF3D2CD0C13EC5F974417F2
:2013E000C4A77E3D645D197360814FDC222A908846EEB814DE5E0BDBE0323A0A4906245CC3
:20140000C2D3AC629195E479E7C8376D8DD54EA96C56F4EA657AAE08BA78252E1CA6B4C604
:20142000E8DD741F4BBD8B8A703EB5664803F60E613557B986C11D9EE1F8981169D98E9491
:201440009B1E87E9CE5528DF8CA1890DBFE6426841992D0FB054BB1652096AD53036A5385F
:20146000BF40A39E81F3D7FB7CE339829B2FFF87348E4344C4DEE9CB547B9432A6C2233D80
:20148000EE4C950B42FAC34E082EA16628D924B2765BA2496D8BD12572F8F6648668981607
:2014A000D4A45CCC5D65B6926C704850FDEDB9DA5E154657A78D9D8490D8AB008CBCD30AF4
:2014C000F7E45805B8B34506D02C1E8FCA3F0F02C1AFBD0301138A6B3A9111414F67DCEA89
:2014E00097F2CFCEF0B4E67396AC7422E7AD3585E2F937E81C75DF6E47F11A711D29C58974
:201500006FB7620EAA18BE1BFC563E4BC6D279209ADBC0FE78CD5AF41FDDA8338807C7316A
:20152000B11210592780EC5F60517FA919B54A0D2DE57A9F93C99CEFA0E03B4DAE2AF5B0F8
:20154000C8EBBB3C83539961172B047EBA77D626E169146355210C7D010204081020408061
:201560001B36C878EA3C37AA588C8C1CE15D66A8B0BD000098150008000000200C000000AD
:20158000FC000008A41500080C000020740E00001801000811FBFFFF0000000000000000AD
:0415A0000000000047
:20180000381200209D190008A5190008A71900080000000000000000000000000000000012
:20182000000000000000000000000000A91900080000000000000000AB1900085930000881
:20184000AF19000800000000AF190008AF190008AF190008AF190008AF190008112100086E
:2018600000000000AF190008AF190008AF190008AF190008AF190008AF1900080000000088
:20188000D130000831310008AF190008AF190008AF190008AF190008AF1900082D2100086F
:2018A0004D230008AF190008AF19000859310008AF190008AF19000800F002F800F042F8CA
:2018C0000CA030C8083824182D18671EA246AB4654465D46AC4201D100F034F87E460F3E1B
:2018E000B6460FCC0126334200D0FB1A3343A246AB461847C88B0000E88B0000103A02D3FD
:2019000078C878C1FAD8520701D330C830C101D504680C607047000000230024002500266F
:20192000103A01D378C1FBD8520700D330C100D50B6070471FB50FBC00F0F8FA0FB41FBD49
:2019400010B510BD00F08FFA1146FFF7F3FF03F00DFA00F0A7FA03B4FFF7F2FF03BC01F064
:2019600046FF000070B505460C46164602E00FCC0FC5103E102EFAD2082E02D303CC03C579
:20198000083E042E07D301CC01C5361F03E021782970641C6D1C761EF9D270BD074880474D
:2019A00007480047FEE7FEE7FEE7FEE7FEE7FEE704480549054A064B70470000C130000849
:2019C000B9180008380A002038120020380E0020380E0020704700000EB5044615460E4623
:2019E00012A000F030FA204600F02DFA15A000F02AFA304600F027FA14A000F024FA6C46DA
:201A00000020E0720A20A0720A3407E00A21284600F030F930310546641E2170002DF5DC84
:201A2000204600F010FA00F004FA00002A2A2A20617373657274696F6E206661696C65645D
:201A40003A2000002C2066696C6520002C206C696E65200030B5441C03E00178401C0029E6
:201A60000DD08107F9D10B4BDD0104C8D11A91432940FAD0001B0A0603D0C01E30BD001B61
:201A800030BD0A0401D0801E30BD0902FCD0401E30BD000001010101F8B5042A2CD3830765
:201AA00012D00B78491C0370401C521E83070BD00B78491C0370401C521E830704D00B78B0
:201AC000491C0370401C521E8B079B0F05D0C91ADF002023DE1B08C90AE0FFF743FFF8BDAB
:201AE0001D4608C9FD401C46B4402C4310C0121F042AF5D2F308C91A521EF0D40B78491CC0
:201B00000370401C521EEAD40B78491C0370401C012AE4D409780170F8BDD2B210B5130229
:201B20009A1813049A1800F00EF810BD01E004C0091F0429FBD28B0701D50280801CC9074A
:201B400000D00270704700290BD0C30702D00270401C491E022904D3830702D50280801C36
:201B6000891EE3E70022EEE70022DFE7F8B507460B4639461943890713D1164CE601042A04
:201B80000FD302CB0D1B8D43354202D102C0121FF5E7CBB20370401C521E002B13D0090AA8
:201BA000F7E7002A14D01978521E5B1C0170401C002908D0002A0BD01978521E5B1C017005
:201BC000401C0029EDD1002A02D01146FFF7CAFF3846F8BD01010101024670B50A43920726
:201BE0002AD11E4DEE0104C808C9541B9443344017D0D0B2D9B2401A2106014310D190B25D
:201C000099B2401A210401430AD110021902000A090A401A2102014302D1100E190E401A5E
:201C200070BD9A42DFD010BA19BA884201D9012070BD0020C04370BD02780B78401C491C4F
:201C4000002A09D09A4207D102780B78401C491C002A01D09A42EFD0D01A70BD010101015E
:201C6000002203098B422CD3030A8B4211D300239C464EE003460B433CD4002243088B4298
:201C800031D303098B421CD3030A8B4201D394463FE0C3098B4201D3CB01C01A524183099F
:201CA0008B4201D38B01C01A524143098B4201D34B01C01A524103098B4201D30B01C01A51
:201CC0005241C3088B4201D3CB00C01A524183088B4201D38B00C01A524143088B4201D3BD
:201CE0004B00C01A5241411A00D201465241104670475DE0CA0F00D04942031000D340423F
:201D000053409C46002203098B422DD3030A8B4212D38901FC2212BA030A8B420CD38901DD
:201D200092118B4208D3890192118B4204D389013AD0921100E08909C3098B4201D3CB01A5
:201D4000C01A524183098B4201D38B01C01A524143098B4201D34B01C01A524103098B4271
:201D600001D30B01C01A5241C3088B4201D3CB00C01A524183088B4201D38B00C01A52414E
:201D8000D9D243088B4201D34B00C01A5241411A00D201465241104663465B1001D340422D
:201DA000002B00D54942704763465B1000D3404201B50549002802DC491C084000E0084693
:201DC000C046C04602BD00BFFFFFFF7F7047704770474146016049464160514681605946A9
:201DE000C160714601611430F0C069460160001D01B5C046C04606BC964601C1002070478F
:201E000004000D00A06AC046C046616A8D462200280000D1012011688846516889469168F9
:201E20008A46D1688B4611698E461432F0CA7047704710B5002000F010F8FFF781FD01209A
:201E400001F0D5FC10BD10B5044602E0641C01F0D2FC20780028F9D110BD10B500F030F88F
:201E600000F028F810BD754600F042F8AE46050069465346C008C000854618B020B5FFF779
:201E800097FD60BCB64600260027C0C5C0C5C0C5C0C5C0C5C0C5C0C5C0C5403D490849000A
:201EA0008D46704710B50446C046C0462046FFF752FD10BD10B5002801D001F098FC10BDF5
:201EC00010B5002102A000F017F8012010BD0000534947414252543A2041626E6F726D6167
:201EE0006C207465726D696E6174696F6E000000004870478800002070B505460C460A2019
:201F000000E06D1C01F077FC002D06D028780028F7D102E0641C01F06EFC002C02D020780E
:201F20000028F7D10A2001F066FC70BD10B500F03AF810BD10B5012805D0002103A0FFF7D6
:201F4000DBFF012010BD09A1F8E7000053494752544D454D3A204F7574206F6620686561F3
:201F600070206D656D6F7279000000003A2048656170206D656D6F727920636F72727570EC
:201F8000746564000246C91C09CA8908083A89001B1A8B4201D2002070474118C91DC908EC
:201FA000C90011607047F3B587B000276946FF240097013407A80F732146FFF7E3FF0028F4
:201FC000029001D100F079F80298214601F00AFC06000AD0029D0120069001953478761C3A
:201FE000002F0DD05C2C12D018E00299084608300860002048600C682070012009B0F0BD97
:20200000222C01D0272C0FD12746009431E03078222807D05C2805D0272803D0BC4203D146
:20202000002726E0761C0446002C0AD0002F05D1202C06D020460938042802D92C706D1C97
:20204000CCE70198854202D10098002811D000202870009A01996D1C03A8C046C04668461F
:20206000007B00280FD0019D002000900698401C0690002CB2D10698810007A8FFF782FF0C
:20208000040002D004E00195EEE7002000F015F802982060029A002006E01178521C002922
:2020A00002D1401C81006250AA42F6D300218200A1502146A2E77047704710B5FFF73AFF23
:2020C000FFF7F8FE10BD000080B50448002101700348017000F056FA80BDC0469E01002036
:2020E000E401002080B582B002F0D6FE0749086008687D21C900FFF7B3FD00F083FF019076
:2021000001F07EFB002002B080BDC04600000020012080060349086003480168202211437B
:2021200001607047180400500C18024081B0794800686946088008788007002827D5FFE713
:202140007548407901280ADBFFE773484179491E41714179401880787149086016E06E48AF
:202160000079012811DBFFE76B48007800280CD1FFE76A4801684A1C026008786849086059
:2021800065480179491E0171FFE7FFE7FFE768460088400600282BD5FFE75F4800780028BC
:2021A00007D1FFE75F48016801229203114301601DE05C4800684005002807D5FFE759480B
:2021C000016801229203114301600FE055480168FF221204914301600168534A114301600D
:2021E00001680122520311430160FFE7FFE7FFE768460088400700280CD5FFE74B48006830
:2022000046490A68531C0B60107043480179491E0171FFE768460088000600281DD5FFE763
:202220003D48007901280BD1FFE73E480168012213069943016001681204114301600BE02E
:2022400038480168FF2212049143016001680122120411430160FFE7FFE76846008880064A
:20226000002807D5FFE7324820210160314800210170FFE768460088C00600280BD5FFE77D
:202280002B48102101602B48042101702A480178491C0170FFE768460088400500280ED503
:2022A000FFE701208102224A1160224904220A702249088022480178491C0170FFE768466C
:2022C0000088800500280ED5FFE701204102184A1160184904220A70184908801948017805
:2022E000491C0170FFE768460088C00500280ED5FFE7012001020E4A11600E4904220A7052
:202300000E49088010480178491C0170FFE701B07047C0461854004098010020B0010020AD
:20232000285400400454004000040101245400401C54004091010020EF0000208E0100206B
:20234000ED000020E9000020EB00002081B07E4800686946088008788007002827D5FFE7B5
:202360007A48407901280ADBFFE778484179491E41714179401880787649086016E0734879
:202380000079012811DBFFE77048007800280CD1FFE76F4801684A1C026008786D49086028
:2023A0006A480179491E0171FFE7FFE7FFE7684600884006002836D5FFE764480078002885
:2023C00007D1FFE764480168012292031143016028E0614800684005002807D5FFE75E48CF
:2023E000016801229203114301601AE05A4801680160016841229202114301605348007978
:20240000022807DBFFE7544801680122120611430160FFE7504801680122520311430160C1
:20242000FFE7FFE7FFE768460088400700280CD5FFE74A48006846490A68531C0B60107029
:2024400042480179491E0171FFE768460088000600281DD5FFE73D48007901280BD1FFE794
:202460003D480168012213069943016001681204114301600BE038480168FF2212049143E2
:20248000016001680122120411430160FFE7FFE7684600888006002807D5FFE73048202159
:2024A0000160304800210170FFE768460088C00600280BD5FFE72A48102101602948032148
:2024C000017029480178491C0170FFE768460088400500280ED5FFE701208102204A1160FA
:2024E000204903220A702149088021480178491C0170FFE768460088800500280ED5FFE798
:2025000001204102164A1160164903220A701749088018480178491C0170FFE768460088D5
:20252000C00500280ED5FFE7012001020C4A11600C4903220A700D4908800F480178491CF3
:202540000170FFE701B070471858004092010020AC01002028580040045800402458004074
:202560001C58004090010020EE0000208C010020EC000020E8000020EA00002080B500F0F8
:2025800001F880BD0148002101707047F000002082B00190009100980021016001980068F4
:2025A000002808D0FFE7009801994968086000980199486005E0009801994860019908604F
:2025C000FFE702B0704783B0019001980068002803D1FFE70020029009E0019800680090D9
:2025E000009800680199086000980290FFE7029803B0704780B507F04BFA80BD80B502F0F0
:2026000095FB80BD80B582B001F048FF019007F0DBF90348008803490880002002B080BD3C
:20262000A8010020220A002080B584B0002000900A21074B0390039A01F0A0FE054908706A
:20264000029101F05FFA02990870039804B080BD603B00002B01002080B584B00A460290CC
:2026600001A801800298406DD549884205D0FFE70298D4490163039120E002984C21405CF4
:20268000002805D1FFE70298CF490163039115E000200090029801A9098809B202F05CFF2A
:2026A00000900098002806D5FFE70098029908630098039002E000980390FFE7039804B0FE
:2026C00080BDC04681B000900098006B01B0704784B00A46029001A801800298406DB84903
:2026E000884205D0FFE70298B649016303910FE002984C21405C002805D1FFE70298B249B9
:202700000163039104E00020009000980390FFE7039804B07047C04680B584B0029002987B
:20272000406DA749884205D0FFE70298A549016303913AE002984C21405C002807D0FFE755
:2027400002981C4901630020C04303902DE0684600210180FFE7684600880299C968884251
:2027600020D2FFE7029842210022425202986946098802F075FD01900198002803D0FFE785
:202780000B480190FFE70198002806D5FFE70198029908630198039007E00098401C694698
:2027A0000880D8E700200390FFE7039804B080BDD5D8FFFFD6D8FFFF80B586B00B46049006
:2027C00003A8018002920498406DD849884205D0FFE704987B490163059129E004984C21DE
:2027E000405C002805D1FFE704987749016305911EE0049803A9098809B201AA02F078FE5E
:2028000000900098002806D5FFE7009804990863009805900CE004980199898903AA12885F
:2028200012B2029B06F072FF009000980590FFE7059806B080BDC04610B590B00C460E90A2
:202840000DA801800C920B930E98406DB749884205D0FFE70E985B4901630F91ACE00E98AE
:202860004C21405C002805D1FFE70E98564901630F91A1E00E980DA9098809B20AAA02F053
:2028800037FE09900998002806D5FFE709980E99086309980F908FE00A988068401C002870
:2028A00003D1FFE70020049003E00A9880680490FFE7049808900B980128039004D0FFE776
:2028C0000398022806D00AE00A9880690C9940180C9004E008980C9940180C90FFE70C98A8
:2028E000002805D5FFE70E98394901630F9163E00C980899884206DDFFE708980A9988617D
:2029000032480990FFE70998002806D5FFE709980E99086309980F904EE00C98012804DB67
:20292000FFE70C98401E029002E000200290FFE70298FB21FFF794F907A90880088870280A
:2029400003D8FFE70020019008E007A8008871387C21FFF785F9401C0190FFE7019806A911
:2029600008800A98008A098888421FD0FFE70E980A99C9880122D203114306AA128805AB93
:202980000093002304F002FB09900998002806D5FFE709980E99086309980F900CE00698F0
:2029A0000A99088205980A99C881FFE70C980A9988610C980F90FFE70F9810B010BDC046E8
:2029C00015030920D8D8FFFFF0D8FFFFEDD8FFFFC8D8FFFFF0B58FB0179C169D159E149F31
:2029E0000D900C910B920A930D98006D09900D9858210494039502960197FFF7B5F8FFE7B1
:202A00000D980C998A6882604A68426009680160FFE709980D9908650D9801210902C160E5
:202A20000B980D9A50620B9840180D9908620A981499FFF797F808A8042101700A98089932
:202A4000491E084007A90870087800280FD0FFE708A8017807AA1378C91A0A9B59180A9139
:202A600000781178149A081A10181490FFE70A980D99886214982821FFF7F2F80D99C862FC
:202A800015980899491E084007A908700878002813D0FFE71598069008A8017807AA1378F8
:202AA000C91A069B591806910699159100781178169A081A10181690FFE7169808A90978DE
:202AC000491E084207D0FFE7169808A90978494208401690FFE7002005900598002806D5F4
:202AE000FFE705980D99086305980E901AE00D98D44941650D9804F01BFB0590059800289C
:202B000006D5FFE705980D99086305980E9009E017980D9948640D984C2101224254002036
:202B20000E90FFE70E980FB0F0BDC04615030920B0B58CB01C4615460A90099108A80280F4
:202B400007A803800A98406DBE49884207D0FFE70A98964901630BA89549018020E10A98CC
:202B60004C21405C002807D1FFE70A98914901630BA89149018013E10998FEF76BFF11284B
:202B800007D3FFE70A988F4901630BA88E49018006E10A98099A06A902F0D8FB04900498BC
:202BA000002807D5FFE704980A99086304980BA90880F5E00A98099905AA05F0CDF8049093
:202BC00008A800884007002817D4FFE70498002807D5FFE70A9806990422895E02F0BCFCFF
:202BE000FFE70498002807D5FFE704980A99086304980BA90880D3E0FFE7049800281BD19E
:202C0000FFE708A8008844210840442814D1FFE76A4804900A9806990422895E02F09CFC94
:202C20000499002907D5FFE704980A99086304980BA90880B4E0FFE708A800884007002869
:202C400049D5FFE704985E49884244D1FFE70A9803A9002203F01AFF04900498002807D5B8
:202C6000FFE70A9806990422895E02F075FCFFE70498002807D5FFE704980A99086304980B
:202C80000BA908808CE00A9803A90988099A05AB019301230093002304F0B4FF0490049815
:202CA000002807D5FFE70A9806990422895E02F053FCFFE70498002807D5FFE704980A99F0
:202CC000086304980BA908806AE008A8018802229143018016E00498002807D5FFE70A9897
:202CE00006990422895E02F037FCFFE70498002807D5FFE704980A99086304980BA9088015
:202D00004EE0FFE70A9805A90988069A08AB1B8807AC2488009405F033FC04900498002859
:202D200007D5FFE70A9806990422895E02F014FCFFE70498002807D5FFE704980A9908636B
:202D400004980BA908802BE008A80088800700281ED5FFE7069800210291029A05F0B2FC3F
:202D600004900498002807D5FFE70A9806990422895E02F0F1FBFFE70498002807D5FFE7A1
:202D800004980A99086304980BA9088008E0FFE7069800218161069880880BA90880FFE77A
:202DA0000BA8008800B20CB0B0BDC046D8D8FFFFD8D80000F0D8FFFFF0D80000D2D8FFFF63
:202DC000EED8FFFFCCD8FFFFCCD8000080B584B003900398406D6449884206D1FFE70398D6
:202DE0004C21405C002801D1FFE728E00398806A019000200290FFE702980399C96A884201
:202E000018D2FFE70198029928224A438018009000980421405E002807D0FFE7039800993B
:202E20000422895E02F098FBFFE7FFE70298401C0290E1E703984C2100224254FFE704B08A
:202E400080BDC0461503092010B58AB00C46089007A80180069205930898406D4249884203
:202E600005D0FFE7089841490163099178E008984C21405C002805D1FFE708983C49016301
:202E800009916DE0089807A9098809B204AA02F02FFB03900398002806D5FFE70398089992
:202EA0000863039809905BE00498808BC00600280DD4FFE72F4803900398002806D5FFE74E
:202EC0000398089908630398099049E0FFE70498808BC007002811D0FFE704988068401CCB
:202EE000002803D1FFE70020019003E0049880680190FFE7019804998861FFE704988069D7
:202F000002900498808BC00700280ED0FFE704988068401C002803D1FFE70020029003E06E
:202F2000049880680290FFE7FFE708980499069A029B059C009403F00FFB039003980028AD
:202F400006D5FFE70398089908630398099007E0059804998A691018886103980990FFE796
:202F600009980AB010BDC04615030920D8D8FFFFF0D8FFFFDBD8FFFF80B501F079FEFFF72A
:202F8000FDFAFFF7A1F880BD10B582B0174801680122114301600520000701680322920289
:202FA0009143016012480168FF22120291430160104801682022114301600F4801681143E3
:202FC00001600E48002101600D4B19600468144304601868104318600720019000F092FA41
:202FE000019800F051F902B010BDC0463410024064180240001802400C180240801802409B
:203000008418024080B584B002900298401E000E002803D0FFE70120039013E00298401E51
:203020000A4908600020C143032201900846114600F068F9064801990160064807220260E3
:203040000391FFE7039804B080BDC04614E000E018E000E010E000E010B512480168491CFB
:20306000016011480068202108401049086008880F490988884205D1FFE70C4800680D49D3
:203080000880FFE709480068094908800A480188084A13888B4309490C881C430C8011882F
:2030A000018010BD0001002010000050F4000020F8000020FA000020FC0000200C010020B2
:2030C0000120C006014908607047C04608ED00E012480068C00700281FD0FFE70120C0431B
:2030E0000E4908600E480168491C01600D4800880006C00F002809D0FFE70B480168491CD2
:2031000001600A480168491C016005E006480021016006480160FFE7FFE770471004004092
:20312000F80800202C010020BC0100201801002080B507480068C007002808D0FFE7012052
:20314000C04303490860034800688047FFE780BD10100040D801002080B51A4800680006BD
:20316000002814D5FFE718480068000600280ED5FFE7164801682022114301601448016816
:2031800010221143016014480068804718E00D4800688006002813D5FFE70B48006880064B
:2031A00000280DD5FFE7094801680822114301600748016811430160064800688047FFE7B6
:2031C00080BDC0461C380140003801402038014018380140D0010020D401002081B0014616
:2031E0006A461070107840B200280DD4FFE7684600781F2108400121814004480160BFF346
:203200004F8FBFF36F8FFFE701B0704780E100E081B001466A461070107840B2002809D46A
:20322000FFE7684600781F2108400121814034480160FFE701B0704781B001466A46107044
:20324000107840B2002809D4FFE7684600781F210840012181402A480160FFE701B0704757
:2032600081B001466A461070107840B2002809D4FFE7684600781F21084001218140204848
:203280000160FFE701B0704781B001466A461070107840B2002809D4FFE7684600781F210C
:2032A00008400121814016480160FFE701B0704781B001466A461070107840B2002809D4AF
:2032C000FFE7684600781F210840012181400C480160FFE701B0704781B001466A461070CC
:2032E000107840B2002809D4FFE7684600781F2108400121814002480160FFE701B07047DF
:2033000000E100E070B582B0024601AB18700091187840B2002817D4FFE701A8017849B2F0
:203320000322D2431140D84BC958007840B28407E40EFF25A540A943009DAD01EDB2A54013
:2033400029431040C1501AE001A801780F22114008390323DB431940CA4C0959007840B242
:203360008507ED0EFF26AE40B143009EB601F6B2AE4031431040083818400151FFE702B08E
:2033800070BDC04670B582B0024601AB18700091187840B2002817D4FFE701A8017849B2FE
:2033A0000322D2431140B84BC958007840B28407E40EFF25A540A943009DAD01EDB2A540B3
:2033C00029431040C1501AE001A801780F22114008390323DB431940AA4C0959007840B2E2
:2033E0008507ED0EFF26AE40B143009EB601F6B2AE4031431040083818400151FFE702B00E
:2034000070BDC04670B582B0024601AB18700091187840B2002817D4FFE701A8017849B27D
:203420000322D2431140984BC958007840B28407E40EFF25A540A943009DAD01EDB2A54052
:2034400029431040C1501AE001A801780F22114008390323DB4319408A4C0959007840B281
:203460008507ED0EFF26AE40B143009EB601F6B2AE4031431040083818400151FFE702B08D
:2034800070BDC04670B582B0024601AB18700091187840B2002817D4FFE701A8017849B2FD
:2034A0000322D2431140784BC958007840B28407E40EFF25A540A943009DAD01EDB2A540F2
:2034C00029431040C1501AE001A801780F22114008390323DB4319406A4C0959007840B221
:2034E0008507ED0EFF26AE40B143009EB601F6B2AE4031431040083818400151FFE702B00D
:2035000070BDC04670B582B0024601AB18700091187840B2002817D4FFE701A8017849B27C
:203520000322D2431140584BC958007840B28407E40EFF25A540A943009DAD01EDB2A54091
:2035400029431040C1501AE001A801780F22114008390323DB4319404A4C0959007840B2C0
:203560008507ED0EFF26AE40B143009EB601F6B2AE4031431040083818400151FFE702B08C
:2035800070BDC04670B582B0024601AB18700091187840B2002817D4FFE701A8017849B2FC
:2035A0000322D2431140384BC958007840B28407E40EFF25A540A943009DAD01EDB2A54031
:2035C00029431040C1501AE001A801780F22114008390323DB4319402A4C0959007840B260
:2035E0008507ED0EFF26AE40B143009EB601F6B2AE4031431040083818400151FFE702B00C
:2036000070BDC04670B582B0024601AB18700091187840B2002817D4FFE701A8017849B27B
:203620000322D2431140184BC958007840B28407E40EFF25A540A943009DAD01EDB2A540D0
:2036400029431040C1501AE001A801780F22114008390323DB4319400A4C0959007840B2FF
:203660008507ED0EFF26AE40B143009EB601F6B2AE4031431040083818400151FFE702B08B
:2036800070BDC0461CED00E000E400E080B586B005900020049035480078002812D0FFE7B1
:2036A000059833490A688018B830039005981830096804AA521A091D00911146009AFEF75F
:2036C000EBF90EE005988168401829490A68801A001F0390039809680A1D04A9FEF7DCF960
:2036E000FFE7059840690490039804A9401A0290204800680190FFE70198002814D0FFE704
:2037000001A80078C007002806D0FFE7029804990A6810180860FFE7FFE701984008019066
:203720000498001D0490E7E70598406980300490114800680190FFE70198002814D0FFE721
:2037400001A80078C007002806D0FFE7029804990A6810180860FFE7FFE701984008019026
:203760000498001D0490E7E706B080BDEC080020E8080020A0010020A401002080B584B028
:2037800013460390029101A80270039840690093FEF71FFB002802D0FFE704B080BD01A82F
:2037A0000078002817D0FFE7029801461831416102984069FEF70DFB002808D0FFE708485A
:2037C0000068C1680069884701F0FEF9FFE70298FFF75CFFFFE7029840690121FEF710FB1C
:2037E0000801002082B00190009102B0704781B00090FFE7FEE781B0009001B0704700002E
:20380000F0B597B08E4801680F22114301608D48072101608C490B688C4C23400B608C4B74
:203820001C6895012C431C608A4B1C6855256D032C431C60884C2568FF263706BD4325600D
:2038400025683327169078060543256083480568B543056066250560052515902807149069
:203860000068139003201290800211901398109111998843149908601298C00678490860E6
:20388000784801680F901298C00201430F980160754908680E9090050D900E980C910D99C1
:2038A00088430C9908600868E90508430C9908606E4801680B90300381430B98016001685C
:2038C000780301430B9801601499086812990903084314990860086801210A9048030990E1
:2038E0000A9808910999884314990860604808990160604907900868304308600868AA2696
:20390000B043086010980668BF013E43066006681127F8018643109806601E683F208001B3
:2039200006431E6000230690184605920494039502910197009305F0DDFF009806F024F8A9
:2039400010980168069A9143016014990B68129CA507AB430B6003681525EE013343036041
:20396000049B1E68444F3E401E601E681E600E680898800706430E6002980668C02086438A
:203980000298066006684020064302980660082607980660109E30683849084030603068A6
:2039A000E9060843306015980168354D29400160016801603168039DA805014331600898B6
:2039C0000103169801600899C8061699086014980068210488431499086008680899090417
:2039E000084314990860274801683940016014980168059FB8048143149801600168E8041A
:203A0000014314980160204908682205104308600868904308600C980168A2049143016007
:203A20000168114301600B990A68F02082430A600868019A110108430B99086017B0F0BD2B
:203A4000341002401804005000040050D5FFDFFF04040050080400502004005024040050CE
:203A600018000050040000500800005024000050180C0050000C0050FF0FFFFFFFFF3F00A5
:203A8000FFFF0F00000800500C00005080B582B0FFE70648FEF797FD0190002804D0FFE7CE
:203AA000019801F01FF8F4E702B080BD1001002082B0019008480021016008480068019983
:203AC00040180090FFE7054800680099884201D2FFE7F8E702B0704724040040F808002077
:203AE00082B001900198052141430091FFE70098002804D0FFE70098401E0090F7E702B0B9
:203B00007047000080B582B001A8002101700A480078012807D1FFE70848006880470648CE
:203B20000021017003E001A806210170FFE701A8007802B080BDC04604000020C8010020C6
:203B400080B588B00790069101A8002101700698008805286CD1FFE707984078000205A912
:203B6000088007988078059A02430A800598401C08800798C078000204A908800798007911
:203B8000049A02430A80088801284CDBFFE704A800886B49884246DCFFE707980290069869
:203BA000002101800298411C02910121017006980188491C018004A800784007002807D0CF
:203BC000FFE704A80088C008401C03A9087004E00498C00803A90870FFE7039802994A1C95
:203BE0000292087006980188491C0180029805A9098804AA1288002300F030FE6946087023
:203C00000878002807D0FFE76846007801F01FF901A9087006E003A8007806990A8810188C
:203C20000880FFE703E001A803210170FFE703E001A803210170FFE701A8007808B080BDF2
:203C400080B588B00790069101A8002101700698008805286BD1FFE707984078000205A912
:203C6000088007988078059A02430A800598401C08800798C078000204A908800798007910
:203C8000049A02430A80088801284BDBFFE704A800882B49884245DCFFE7079802900698AA
:203CA000002101800298411C02910221017006980188491C018004A800784007002807D0CD
:203CC000FFE704A80088C008401C03A9087004E00498C00803A90870FFE7039802994A1C94
:203CE0000292087006980188491C0180029805A9098804AA128800F0C0FD69460870087836
:203D0000002807D0FFE76846007801F0A0F801A9087006E003A8007806990A881018088003
:203D2000FFE703E001A803210170FFE703E001A803210170FFE701A8007808B080BDC04673
:203D4000CF07000080B588B00790069102A8002101700698008805285BD1FFE707984078FA
:203D6000000205A9088007988078059A02430A800598401C08800798C078000204A9088077
:203D8000079800790880088801283DDBFFE704A800887D2838DCFFE7079803900698002108
:203DA00001800398421C03920322027006980288521C028004984000039A531C0393107047
:203DC00006980288521C0280039805AA128804AB1B88009111461A46009B00F05BFD01A9C0
:203DE00008700878002807D0FFE701A8007801F02EF802A9087006E00498400006990A8898
:203E000010180880FFE703E002A803210170FFE703E002A803210170FFE702A8007808B022
:203E200080BD80B588B00790069102A80021017006980088052859D1FFE7079840780002B2
:203E400005A9088007988078059A02430A800598401C08800798C078000204A908800798F9
:203E60000079049A02430A800888012839DBFFE704A800887C2834DCFFE70798039006980B
:203E8000002101800398411C03910421017006980188491C01800498400003994A1C0392DE
:203EA000087006980188491C0180039805A9098804AA128800F06CFD01A908700878002838
:203EC00007D0FFE701A8007800F0C1FF02A9087006E00498400006990A8810180880FFE7A8
:203EE00003E002A803210170FFE703E002A803210170FFE702A8007808B080BD80B58CB02A
:203F00000B900A9103A8002101700A9800880A2800DA9EE00B984078000209A908800B9840
:203F20008078099A02430A800998401C08800B98C078000208A908800B980079089A024379
:203F40000A800B984079000207AA10800B988079079B034313800798401C10800B98C079BA
:203F6000000206AA10800B98007A069B034313800B98407A05AA10700888012864DBFFE7FE
:203F800008A800887D285FDCFFE706A8008801285ADBFFE706A80088792855DCFFE706A80D
:203FA0000088400005A9097881424DD1FFE70B980A3007A9098806AA1288012300F06AFC61
:203FC00002A908700878002831D1FFE70B9804900A98002101800498421C04921722027078
:203FE0000A980288521C028008984000049A531C049310700A980288521C0280049809AA36
:20400000128808AB1B88019111461A46019B00F041FC02A908700878002807D1FFE7089875
:2040200040000A990A8810180880FFE7FFE702A80078002807D0FFE702A8007800F007FF70
:2040400003A90870FFE703E003A803210170FFE7FFE703A800780CB080BD000080B584B0E2
:20406000039002910398401C08490A88084B01911946FDF711FD01990A88521C029B1A8029
:2040800000220090104604B080BDC0461E0A0020FD08002080B588B00790069103A800214D
:2040A000017006980088052847D1FFE707984078000205A9088007988078059A02430A80AA
:2040C0000598401C088007980079002830D1FFE70798C078FF2805D0FFE70798C078002880
:2040E00026D1FFE704A8002141700798C078FF2804D1FFE704A80121017003E004A80021BD
:204100000170FFE705A8018804A801220192019B00F0A4FB02A908700878002807D0FFE7FD
:2041200002A8007800F093FE03A90870FFE703E003A803210170FFE703E003A803210170A6
:20414000FFE703A8007808B080BD80B582B0019000910198093000990988093900F02CFE80
:20416000C0B202B080BD80B586B00590049102A80021017004980088052823D1FFE7059845
:204180004078000203A9088005988078039A02430A800398401C08800598C01C0988012284
:2041A0000092009B00F076FB01A908700878002807D0FFE701A8007800F049FE02A908706F
:2041C000FFE703E002A803210170FFE702A8007806B080BD80B588B00790069101A8002177
:2041E00001700698008806285FDBFFE707984078000205A9088007988078059A02430A8046
:204200000598401C08800798C078000204A9088007980079049A02430A800798407903AA85
:20422000107008884007002807D0FFE704A80088C008401C02A9087004E00498C00802A9D4
:204240000870FFE704A80088012829DBFFE704A800887B210901884222DCFFE702A800780F
:2042600003A9097888421BD1FFE70798801D05A9098804AA1288012300F0F0FA694608708D
:204280000878002807D0FFE76846007800F0DFFD01A9087003E0069805210180FFE703E0B4
:2042A00001A803210170FFE703E001A803210170FFE701A8007808B080BD80B588B00790B9
:2042C000069102A8002101700698008806284CDBFFE707984078000205A908800798807884
:2042E000059A02430A800598401C08800798C078000204A9088007980079049A02430A803C
:204300000798407903AA10700888012828DBFFE704A80088782823DCFFE703A800780499FD
:204320004900C9B288421BD1FFE70798801D05A9098804AA1288012300F0ACFA01A908707E
:204340000878002807D0FFE701A8007800F07FFD02A9087003E0069805210180FFE703E057
:2043600002A803210170FFE703E002A803210170FFE702A8007808B080BD0000F0B589B01B
:204380000E9C15460E460746029008A80190029800910199087007A90098087006A8027087
:2043A000059304A8047003A800220270087800280AD0FFE707A80078012805DBFFE707A8D9
:2043C0000078F82804DBFFE703A80221017046E007989D49087008A80078002824D1FFE7F3
:2043E0002148224901602248224901609548224901609648214901602148002101602148AC
:20440000214901602148224901602248224901608D48007806A90978059A04AB1B7800F018
:2044200017F903A9087003E003A802210170FFE703A80078002811D1FFE705F03DFD0028D6
:2044400004D1FFE703A80321017006E008987C490870744801210170FFE7FFE7FFE703A8F2
:20446000007809B0F0BDC046C801002015480008CC0100203D48000871470008E54600089D
:20448000C4010020D001002009A00008D401002035A10008D8010020B1A00008B0B588B0D3
:2044A00005A8002101705F480078002804D0FFE707A806210170B1E004A805F0E3FC01283B
:2044C00000D0A7E004A800780328039000D9A0E00398C046784400794000874401022599A8
:2044E00097E05A48006855494F4A534B0290084611461A46029B984705A908700878002885
:2045000011D1FFE74D4800784F490978884205D0FFE74A480078002804D1FFE7022005F024
:20452000D1FCFFE7FFE774E03F48006800783F4908703F480121017000200690FFE70698D3
:204540000F2827DCFFE70698C0003A49085C002801D1FFE71EE00698C0003649085C33495B
:204560000978884210D1FFE70698C0003149081840682D490968304A019008461146019A57
:2045800090472B49087005E0FFE7FFE70698401C0690D4E729480078002838D0FFE72448F1
:2045A0000078002815D0FFE72348002101801F490978802211431C4A13680488651C058031
:2045C00019551B490978126803885C1C0480D154FFE71B480078012808D1FFE70120002870
:2045E00004D1FFE7002005F0F1FAFFE715480068154909780C4A12680F4B1B8800900846CB
:2046000011461A46009B984705A90870FFE700E0FFE7FFE707A800210170FFE707A8007863
:2046200008B0B0BD04000020200100201E0100201D010020080000202601002024010020BF
:204640001C010020B8010020FC080020B4010020F0B58BB01C460D46064609AF387008A85A
:204660000170079206A90B7005AA00231370EFF3108272B60A920078079A0B780821039120
:204680001146039A02940195009605F039FC012804D0FFE705A8032101701AE007980F4924
:2046A000884203D3FFE72320049006E0079841000B48FDF7D5FA0490FFE704A8008805F01E
:2046C0006DFC012804D0FFE705A803210170FFE7FFE762B605A800780BB0F0BD014B00008F
:2046E000A07F170080B586B004900391029201A80021017068460170EFF3108072B60590D4
:2047000018480088FF2801DCFFE704E0164817499C22FDF761F913480088042818DBFFE731
:2047200010480188394805F0F1F9002810D1FFE736480178049A11700A490988C91E029ACC
:2047400011800399401C086001A80121017003E0684605210170FFE762B66846007806B02A
:2047600080BDC046200A002081A40008A6A40008B0B588B01346044606AD2870059104A860
:20478000028003A800210170EFF3108072B607902948007801282BD1FFE70598401E1949D8
:2047A0000860194801220280069B0C682370049B0488E31803800968038801900846194600
:2047C000009205F0A3F902A908800298019A13885C1C14800D4CE054487811884B1C1380C7
:2047E00060540B4800990170002005F0C1F903E003A805210170FFE762B603A8007808B0DB
:20480000B0BDC046C00100202C0A00201D0900202A01002080B582B0EFF3108072B60190CB
:20482000054800210170012005F0A2F905F0DAF962B602B080BDC0462901002080B582B062
:20484000EFF3108072B6019000200090009905F08FF905F0C1F962B602B080BD70B584B058
:204860001C4615460E46039002A8018001A8028068460370012004B070BD10B583B01346CA
:204880000C46029001A8018068460280012003B010BD000070B587B01C4615460E46069036
:2048A00005A8018004A90A8003A90B7002A900220A7000887D21C90088425ADBFFE705A8A4
:2048C000008804A9098840182E49884251DCFFE705A800882C490988401A019003A800781D
:2048E0000028009004D0FFE7009801281FD03FE0FFE704A80088012818DBFFE70198400082
:20490000224908184078069A531C0693107001984000085A06994A1C069208700198401CE7
:2049200001900498401E04A90880E2E720E0FFE704A8008801281ADBFFE70698411C06913E
:204940000078000201994900104A50520698411C0691007801994900535A034353520198E0
:20496000401C01900498401E04A90880E0E7FFE703E002A801210170FFE702A8007807B08F
:2049800070BDC046ED03000006000020220A002010B588B013460C46069005A8018004A86A
:2049A00002800698007803A908700878102856DBFFE703A80078122851DCFFE702A8002131
:2049C0000180FFE702A8008804A90988884242DAFFE703A8007802A90988401810280190B4
:2049E00008D0FFE70198112811D0FFE7019812281AD026E0069802A90A8852000023835476
:204A00000698098849000818142141701DE0069802A90A885200002383540698098849007C
:204A200008180C21417010E0069802A90A8852000023835406980988490008181B214170DC
:204A400003E007A80121017020E0FFE70298401C02A90880B6E707A80021017016E003A8A3
:204A6000007830280EDBFFE703A80078352809D8FFE7069807490C22FDF70EF807A9002268
:204A80000A7003E007A801210170FFE707A8007808B010BDDCA30008014800687047C046F0
:204AA0000001002080B586B000F0AEFA05210490084600F0BDFA00210390084600F0B8FA7F
:204AC00005A90870029100F083FA02990A780190104606B080BD81B0FFE70098401C00901E
:204AE000FBE7000084B003900398002801D1FFE765E00398001F019000200290314800686F
:204B00000090FFE70098002825D0FFE7019800990A688918884217D1FFE70198006800990D
:204B20000A68101808600298002805D0FFE7009840680299486004E000984068214908607D
:204B4000FFE70098019006E0FFE700980290009840680090D6E7002002901A4800680090B7
:204B6000FFE70098002823D0FFE7009801990A688918884215D1FFE70098006801990A68CF
:204B8000101808600298002805D0FFE7009840680299486004E0009840680A490860FFE7C0
:204BA00006E0FFE700980290009840680090D8E704480168019A516001990160FFE704B0DA
:204BC0007047C0463001002080B582B0019027480068009001980099086100984168042266
:204BE000114341600098406809210840012805D1FFE700990B48FDF7CBFCFFE71A48FDF746
:204C0000E2FC1A490860002803D1FFE7FFF763FFFFE70098154909680022FEF7AFFD02B0EF
:204C200080BDC0461001002080B584B0FEF72EFF0D480068002801D1FFE713E00B48016829
:204C40000391094A029010460192FDF7A1FC0198FDF7B9FC02990860039809680022FEF7F9
:204C60008DFDFFE704B080BDDC0100200801002010B582B03A480168012253051943016093
:204C80001348016891430160016813039943016010490B68104C23430B60016853049943CA
:204CA00001600E490B680E4C23400B6001681143016001680F2212021143016017200221C6
:204CC0000190FEF7DFFB0198FEF7CAFA02B010BD0054004010540040261E84F0045400401B
:204CE000FFF7FFFC80B51920FEF778FA0C48016801221203114301600A48002101600A4A1C
:204D000011600168C1239B0019430160116817231B0219431160016840221143016080BD23
:204D200040100240003001400430014010B50C48016801229303194301600A4801684023E5
:204D4000994301600168E324A4002143016006490C68120314430C6001681943016010BDAF
:204D60003C100240003800400438004080B584B0002003900E480F49016062B6FDF7B2F9CF
:204D80000290FEF701F9FEF7F7F804F059FEFFF7A9FFFDF72FFCFDF731FC01F043FC0190C4
:204DA000FDF742FCFFE7FDF72DFC0090FBE7C04608ED00E000180008B0B590B00E900D9170
:204DC0000E9800780CA9087007A8002101820A910991089107910E980078112803D3FFE7BC
:204DE00081200F9030E00E98401C069006990CA8027807AB039018460293FCF74DFE0399EC
:204E00000A78069B9A180692069A1378547824021B19947824041B19D27812069A180592C1
:204E2000069A121D06920978059A069B0D9C0E9DED1A64190094029C0190204604F0E2FC77
:204E4000049004980F90FFE70F9810B0B0BD83B0014602AA107010780028009008D0FFE725
:204E60000098012808D0FFE70098072808D00BE001A8002101700BE001A80221017007E0DF
:204E800001A80621017003E001A804210170FFE701A8007803B0704782B033480190334885
:204EA00001680122120691430160FFE72F4800688001002801D5FFE7F8E72C480168012210
:204EC000120411430160FFE728480068002180030028009105D4FFE70198411E88410090DC
:204EE000FFE70098C007002804D0FFE70198401E0190E9E70198002806D0FFE71C480168E9
:204F00001D4A1143016005E019480168194A11430160FFE715480168012212061143016012
:204F2000FFE7124800688001002801D4FFE7F8E70F48016801221207114301600F48016815
:204F40000222114301600E4801687F231B02994301600168114301600A4801680722114367
:204F60000160094802B07047006A1800001002400C10024002080220031002200020024021
:204F800008100240341002400090D00380B584B0FFE7FFF787FD03A908700878FF2804D165
:204FA000FFE70A20FEF784FDF3E703A800788007002802D5FFE704B080BD00F025F80621DD
:204FC0000290084600F034F8019000F001F8E0E780B5FFE7374800680006002801D5FFE7A8
:204FE000F8E70120C00311490860FFE7314800684005800F002803D0FFE72F480068F5E7F5
:205000001920FEF76DFD80BD80B5FFE706480078002803D0FFE7FFF707FEF7E70120C00738
:205020000249086080BDC046E50100201800005083B0014602AA10701E480068400600282A
:2050400003D5FFE71C480068FFE7FFE7194800688007002801D4FFE7F8E702981649087077
:20506000FFE714480068C007002801D1FFE7F8E71148007801A90870FFE70E480068000663
:20508000002801D5FFE7F8E7684600210170FFE768460078032808DCFFE707480068FFE76F
:2050A0000098401C69460870F2E701A8007803B07047C046083001400C300140F0B58FB091
:2050C000169C159D149E1F460E900D910C920BA803800AA90E8009A90D8000885F4908404D
:2050E00008A908800E98806A069000200790FFE707980E99C96A88426CD2FFE7069807990F
:2051000028224A43801805900598C0885349084008A90988884201D0FFE757E00AA800888E
:2051200000283ED1FFE70C98022833D0FFE70598808C002801D1FFE748E0099805998881A2
:205140001698002825D0FFE71698059988601698401C002803D1FFE70020029002E016983C
:205160000290FFE702980490059840690499884204D9FFE7049805994861FFE705988069CA
:205180000499884204D9FFE7049805998861FFE7FFE705E00598002181800598C180FFE78E
:2051A000FFE70598008A0AA9098888420DD1FFE70C98022804D0FFE709980599C88103E01D
:2051C00005980021C181FFE7FFE7FFE70798401C07908DE70E98806C00283DD0FFE70AA8B8
:2051E0000088002838D1FFE70BA800880004002832D5FFE70C98012804D1FFE703A8002168
:2052000001701AE00C98002808D0FFE70C98032804D0FFE70C98042804D1FFE703A80121B8
:20522000017009E00C98022804D1FFE703A80221017000E010E0FFE7FFE70E98816C03AA70
:20524000127808AB1B8809AC2488019111461A462346019CA047FFE70FB0F0BDFF7F000007
:2052600080B58CB00A460A9009A80180008800030790012000030690FFE70698012814DB29
:20528000FFE70A988068079901221203049008461146049B039298470799039A8918079104
:2052A0000699294BC9180691E7E70A98416B491C41630A9809A909880903FE310246423262
:2052C000022302921A46029B04F00CFA0890FFE70898002803D5FFE708980B902EE0FFE7EB
:2052E00005A8184901800A9909AA12881203FC3202230190084611461A46019B04F0F2F9B6
:205300000890FFE70898002803D5FFE708980B9014E0FFE70A984221425A521C42520A982F
:20532000405A0121C903884205D1FFE70A98422100224252FFE708980B90FFE70B980CB03E
:2053400080BDC0462904000000F0FFFF80B58EB00C900B910A9208A8624901800020C043A9
:2053600007900A98002806D0FFE70C980A9901F0C1F8019002E000200190FFE701980690E6
:205380000C98806A05900A98002826D0FFE700200990FFE709980C99C96A88421CD2FFE78E
:2053A0000598099928224A438018049004980421405E00280BD1FFE70498808C022805DBB0
:2053C000FFE70498818C491E8184FFE7FFE7FFE70998401C0990DDE7FFE700200990FFE741
:2053E00009980C99C96A88422DD2FFE70598099928224A438018039003980421405E0028BE
:205400001CD1FFE70A98002809D0FFE70398006A0699884203D1FFE70998079013E0039842
:20542000808C08A90988884207DAFFE70398808C08A9088009980790FFE7FFE7FFE7099822
:20544000401C0990CCE70798401C002843D0FFE70598079928224A43801802900A98002880
:205460002FD0FFE70298006A0699884221D1FFE70298808C01281CDBFFE7029880890009AA
:205480000C990883029880890F210840401E0C99C8610298808C1549884205DCFFE7029866
:2054A000818C091D818403E002980E498184FFE706E0029804218184069802990862FFE7C2
:2054C000FFE70798401C0299888002980B99086000200D9002E004480D90FFE70D980EB0D1
:2054E00080BDC046FFFF0000E9D8FFFFFAFF000085B00B46039002A801800192008800B2A2
:20550000012809DBFFE702A8008800B203992C22895E884203DDFFE72A48049019E00398B9
:20552000806A0090009802A9098809B228224A431018283801990860019800680421405E3D
:20554000002803D1FFE71E48049002E000200490FFE7049805B0704785B00A46039002A829
:205560000180008800B2012809DBFFE702A8008800B203992C22895E884203DDFFE71148DF
:20558000049019E00398806A0190019802A9098809B228224A43101828380090009804212C
:2055A000405E002803D1FFE70548049004E00098002181800491FFE7049805B07047C04663
:2055C000E8D8FFFFE6D8FFFF80B596B0149013911498C1680F224A43816B511AC06B081A57
:2055E0001E381190002010901498406B04280AD3FFE713981199FB224A43904203DAFFE71A
:2056000000201590D3E01398FA30FB21FCF728FB0F900F981199149AD26B8918884203DDE5
:20562000FFE764481590C2E0FFE711980B90149811990122002301290A900993089201DBF5
:205640000998089008980EA90DAA0A9B07901846079B00F0DFFC1290FFE71298002803D5CA
:20566000FFE712981590A2E0FFE70D9800280DD1FFE70F98119900224E4B884206930592F6
:2056800001DB069805900598159090E00E9800880CA9088014984022012383541498098898
:2056A000049200F089F8129014980021049A81541298002801D5FFE700E0FFE7FFE712981D
:2056C000002803D5FFE71298159070E0FFE714980CA9098800F012FC1290FFE71298002815
:2056E00003D5FFE71298159061E0FFE714980CA9098800F0E5FB1290FFE71298002803D582
:20570000FFE71298159052E0FFE71498C1680F224A43816B511AC06B081A1E3811900B986B
:20572000002806DCFFE70B981199884201D1FFE726E0FFE71098401C109000210428039139
:2057400019DCFFE71498406B0121032802910FD3FFE713981199FB224A4301210023904259
:205760000193009101DC0198009000980290FFE702980390FFE70398C007002800D054E746
:205780001498C1680F224A43816B511AC06B081A1E38119013981199FB224A43904203DD2A
:2057A000FFE704481290FFE712981590FFE7159816B080BDEFD8FFFFB0B5B4B00A463290AA
:2057C00031A801800021309180232F932E91329B1B6A2D9327AB1980329B5B6A2693329BD4
:2057E0005B6A25932C912B912A912991289128AB19703299098A008881420FD1FFE731A8E1
:205800000088401C3299CA6816911146FCF728FA169A1182329900234B61FFE7FFE7309823
:2058200000210028159107D1FFE728A80078C01E411E88411590FFE71598C007002800D175
:205840002AE328A8002101742E98C117490E4018C011249023A801210170FFE723A800787C
:2058600000210028149112D0FFE730980021002814910CD1FFE7249801210022012813922B
:20588000129101DB1398129012981490FFE71498C007002800D1C9E12498C00122903298F9
:2058A00031A909880903249A12028918036A0122120203F004FF3090FFE723A8007800215A
:2058C000002811911AD0FFE7309800210028119114D1FFE72E982299401A00217F2811916B
:2058E0000CDCFFE72E98012100220F2810920F9101DB10980F900F981190FFE71198C00796
:20590000002800D18EE12D982E99229A891A4900405A21A90880319800012E990818401CF2
:2059200027A9088028A8007800280E9009D0FFE70E98012822D0FFE70E98022800D1D6E044
:2059400068E121A80088002817D0FFE721A80088FD49884211D0FFE721A800880004002813
:205960000BD4FFE728A801210174219941802799018123A800210170FFE74FE121A800887A
:2059800028A94988884200D0B0E0329827A90988090205221FAB03F092FE3090FFE7309823
:2059A000002803D5FFE73098339078E2FFE71FA88178C07800024018702803D8FFE700206B
:2059C0000D900BE01FA88178C0780002401871387C21FCF745F9401C0D90FFE70D9828A921
:2059E0008988884201D0FFE77FE01FA800790006002830D5FFE7329821A90B8827A90988D5
:205A00001EAA029201911FA9009100210C910C9A03F03AFD3090FFE73098002803D5FFE75D
:205A2000309833903BE2FFE7329831A909880903249A12028918036A0122120203F03FFE50
:205A40003090FFE73098002803D5FFE73098339025E2FFE712E0329827A9098803F03EFC30
:205A60003090FFE73098002803D5FFE73098339015E2FFE71EA8B7490180FFE728A8808865
:205A800000280BD1FFE71E9826991FAA9378D2781202D21852008918C88325E01EA80088FA
:205AA000259908311FAA9378D2781202D218702A0B900A9107D8FFE71FA88178C078000244
:205AC000401809900AE01FA88178C0780002401871387C21FCF7C4F80991FFE70998400043
:205AE0000B990A9A1152FFE7FFE7FFE796E021A80088002800D18CE021A80088EF498842CA
:205B000000D186E021A800880004002800D480E0329827A90988090205221CAB03F0CFFDBA
:205B20003090FFE73098002803D5FFE730983390B5E1FFE71CA800790006002841D5FFE7A3
:205B4000329821A90B8827A909881BAA029201911CA9009100210891089A03F095FC3090DC
:205B6000FFE73098002803D5FFE73098339096E1FFE7329821A90B881CA98A78CC78240251
:205B8000A2181BAC248800250295019400920322FFF794FA329831A909880903249A120239
:205BA0008918036A0122120203F089FD3090FFE73098002803D5FFE7309833906FE1FFE712
:205BC0001DE0329827A9098803F088FB30903098002813D1FFE7329821A90B881CA98A78BF
:205BE000C9780902891827AA1288002402940192009102222146FFF761FAFFE7FFE7FFE7E1
:205C00003098002803D5FFE73098339047E1FFE7FFE703E023A800210170FFE72E98401C0F
:205C20002E904AE62498401C249017E63098002801D0FFE730E128A800780028079009D015
:205C4000FFE70798012800D1CBE00798022800D11AE11DE128A8007C002800D1BAE02E98E2
:205C60002B9000202E9028A801210170329827A909880902052219AB03F021FD3090FFE750
:205C80003098002803D5FFE73098339007E1FFE719A88178C07800024018702803D8FFE758
:205CA000002006900BE019A88178C0780002401871387C21FBF7D4FF401C0690FFE7069876
:205CC00028A9888032984A880123DB031A43898818AB0093002305911146059A01F056F99A
:205CE000309030986F49884215D1FFE7329828A9098903F0F3FA3090FFE73098002803D553
:205D0000FFE730983390CAE0FFE72B982E9028A800210170BFE0FFE73098002803D5FFE76C
:205D200030983390BBE0FFE7329818A909880902436A0122120203F0C2FC3090FFE730982D
:205D4000002809D502E0C046FFFF000030983390A5E0C046FFFF0000FFE725980079C00760
:205D6000002803D0FFE75448339098E0259800790006002803D4FFE74E4833908FE02598C5
:205D800000798007002803D5FFE74948339086E0259800794007002803D5FFE743483390B2
:205DA0007DE00120C003002803D1FFE73F48339075E025988178C0780002401828A98988F7
:205DC000884203D0FFE73848339068E0189828A9C88005E028A80221017000202E90FFE7DF
:205DE00059E028A8002101702B992E91808800281DD1FFE7329828A94A880123DB031A43B5
:205E0000CB88416A17AC049400240394029401940091214603F034F83090FFE73098002896
:205E200003D5FFE73098339039E0FFE72BE03298426A28A94B880124E4032343C98817AC6F
:205E4000029401910021009103F01EFB3090FFE73098002803D5FFE7309833901FE0FFE798
:205E60003298416A28AA5388259A9478D2781202121917AC248800250295019400922A46EA
:205E8000FFF71CF9FFE706E028A80321017002E000202E90FFE7C2E430983390FFE733983E
:205EA00034B0B0BDEED8FFFFE3D8FFFFEAD8FFFFEBD8FFFFECD8FFFFE4D8FFFFFFFF000019
:205EC00080B586B00A46049003A80180049900880190084601990092FFF7C2F90290FFE7EE
:205EE0000298002803D5FFE70298059003E0FFE702980590FFE7059806B080BD80B592B00E
:205F00000A46119010A8018000200F900E9080210D911199096A0C910B900A900990FFE74D
:205F20000F980021002806910CD1FFE70E980121002201280592049101DB0598049004982F
:205F40000690FFE70698C007002856D0FFE70E980D9941430891119810A9098809030E9A1C
:205F600012028918036A0122120203F0A8FB0F90FFE70F9800210028039115D1FFE70B98BA
:205F80000899401A0D990022884203920CDAFFE70B98012100220F280292019101DB029859
:205FA000019001980390FFE70398C007002820D0FFE70C980B99089A891A4900405A07A9BE
:205FC00008800888D349884201D1FFE70DE007A80088002804D1FFE70A98401C0A9003E089
:205FE0000998401C0990FFE7FFE70B98401C0B90BFE70E98401C0E9092E7099811998A6BA6
:20600000101A88630A981199CA6B101AC8630F9812B080BD10B5A6B01C4624902391229256
:2060200021A80370002020902499C9681F911EA908801D902499096A1C911B902498C0684E
:20604000282804D8FFE72498C0680C9002E029200C90FFE70C981A902298002101602498BB
:20606000406A01210902FF22FBF757FD2498406A19902498406A1A994900401818901898C1
:20608000C01C03218843189019982399086080201790FFE72098002100280B9107D1FFE730
:2060A0001F98411E1F91411E88410B90FFE70B98C007002800D126E116A80021018015A8EA
:2060C00001801491FFE72098002100280A910CD1FFE714980121002201280992089101DB2C
:2060E0000998089008980A90FFE70A98C007002858D0FFE7149817994143139124981D99B2
:20610000149A12028918036A0122120203F0D7FA2090FFE7209800210028079115D1FFE7B9
:206120001B981399401A17990022884207920CDAFFE71B98012100220F280692059101DB6D
:206140000698059005980790FFE70798C007002824D0FFE71C981B99139A891A4900405AEF
:2061600012A908800888E249884203D1FFE70120209013E012A80088002805D1FFE7169805
:20618000401C16A9088004E01598401C15A90880FFE7FFE71B98401C1B90BBE71498401CF9
:2061A000149090E72098012803D1FFE700202090FFE72098002800D099E024981EA9098836
:2061C0000903FE31022211AB03F079FA2090FFE72098002803D5FFE72098259096E0FFE741
:2061E00024984221405A11A90988884208DDFFE724984221405A1199401A10A9088008E020
:20620000119824994222895AC043401810A90880FFE716A800880521414315A80088081AF8
:2062200010A9098821AA127800233224002A1A460490039102930194009201D101980090DD
:20624000009803994843049908180F9002980E90FFE70E981A99884244DAFFE719980E9986
:206260004900405AA24988420BD1FFE71E9819990E9A520088520F9818990E9A920088501E
:2062800030E018980E99890040580F99884224DAFFE71A98801E0D90FFE70D980E99884237
:2062A00010DBFFE719980D9949004218405A508018980D9989004218405850600D98401E25
:2062C0000D90EAE71E9819990E9A520088520F9818990E9A9200885004E0FFE70E98401CDE
:2062E0000E90B6E722980168491C0160FFE700201B901E98401C1EA908801D980121090385
:2063000040181D90C6E620982590FFE7259826B010BDC046FFFF000080B596B00A461490A6
:2063200013A80180002012901499C968119110A908800F900E901498006A0D9080200C9072
:20634000FFE7129800210028069107D1FFE71198411E1191411E88410690FFE70698C0075C
:20636000002800D1B5E00BA8002101800AA801800991FFE712980021002805910CD1FFE73B
:2063800009980121002201280492039101DB0498039003980590FFE70598C007002863D0E5
:2063A000FFE709980C994143089114980F99099A12028918036A0122120203F080F9129036
:2063C000FFE7129800210028029115D1FFE70E980899401A0C990022884202920CDAFFE7F3
:2063E0000E98012100220F280192009101DB0198009000980290FFE70298C00700282FD0BB
:20640000FFE70D980E99089A891A4900405A07A908800888002805D1FFE70B98401C0BA9C3
:20642000088019E007A80088314988420FD1FFE70A98401C0AA90880088813A909888842BA
:2064400004DDFFE701200990129009E003E001200990129004E0FFE70E98401C0E90B0E7F0
:206460000998401C099085E71298012803D1FFE700201290FFE7129800281ED1FFE70BA88B
:2064800000880AA9098840180F2816D1FFE70AA8008813A9098888420FDCFFE70BA8008877
:2064A0001499CA6B101AC863149810A90988FFF707FD12901298159015E000200E90109869
:2064C000401C10A908800F980121090340180F9037E71298002803D1FFE704481290FFE7D5
:2064E00012981590FFE7159816B080BDD3D8FFFFFFFF000088B00790069116480590002097
:206500000390FFE7069803994A1C0392405C04A908700021002802910CD0FFE703980121B1
:20652000002211280192009101DB0198009000980290FFE70298C007002808D0FFE70598E3
:206540002121414304A8007841400591DAE7059808B070470515000010B58AB00C9C089014
:20656000079106920593002004900C98039007988068401C00283AD0FFE70598079989683F
:20658000884234D2FFE7079880680599401A0C99884206DAFFE7079880680599401A009082
:2065A00002E00C980090FFE70098029007980599069A029B01F074FC0490FFE7049800289C
:2065C00003D5FFE70498099029E0FFE702980399081A0390069801900298019908180190DA
:2065E000019806900298059908180590FFE70398012811DBFFE707980599069A039B00F098
:20660000BDFE0490FFE70498002803D5FFE70498099004E0FFE7FFE70C980990FFE709981A
:206620000AB010BD10B58CB02248042101602248099022480A9022480B90FEF7C9FC3221C9
:2066400007900846FDF734FA002103910921C90102911C490191802100911B491B4A1C4B9E
:2066600009AC069008462146FCF7B4F908900898184988421AD1FFE713480590FCF7A6FBC2
:206680000598FCF749F8002103910921C90102910C490191802100910C4A0D4B09A9059CD3
:2066A00004902046FCF796F90890FFE708980CB010BDC04618040050AB9C0008279D00082A
:2066C000019C0008E601002034010020E606002066060020D7D8FFFFF0B5A5B02F9C2E9DE4
:2066E0002D9E2C9F15902B9814902A981393129111901598239022A8109012980F9110998F
:206700000880219220AA139810701FAA1198108000221E92239AD2680F2050431D90229855
:206720001CAA1080088800031B902398006A1A90219819908020189019980F281FDBFFE784
:20674000002019901C98401C1CA90880088800031B9008882399C96888420FD3FFE720A8FE
:2067600000784007002803D5FFE7924824901EE11CA8002101801B91FFE7FFE7FFE7FFE73D
:206780001E98002100280E910CD1FFE71D980121002200280D920C9101DC0D980C900C9879
:2067A0000E90FFE70E98C007002800D1F3E019981899FBF75FFA1790FFE71E9800210028E3
:2067C0000B910CD1FFE717980121002201280A92099101DB0A98099009980B90FFE70B982C
:2067E000C007002800D1B5E0179818994143169123981B99179A12028918036A0122120240
:2068000002F05DFF1E90FFE71E9800210028089115D1FFE719981699401A189900228842DB
:2068200008920CDAFFE71998012100220F280792069101DB0798069006980890FFE70898C9
:20684000C007002800D181E020A80078C00700280BD0FFE71A981999169A891A4900405A8D
:206860001FA9098888426AD1FFE72E98002804D0FFE71C982E990880FFE72F98002804D080
:20688000FFE719982F990860FFE72B98002853D0FFE72B98239920AA12789207002A05902C
:2068A000049104D5FFE71FA80088039007E01A981999169A891A4900405A0390FFE703980D
:2068C0001CA90A88199B2C992D9C0194009181B20498059CA0471E901E983749884205D01F
:2068E000FFE71E983549884223D1FFE71E983349884215D1FFE723981B99179A120289183D
:20690000036A0122120202F0DAFE1E90FFE71E98002803D5FFE71E98249048E0FFE7FFE77B
:2069200000201E901998401C19901D98401E1D906AE71E9824903AE00020249037E01D989E
:20694000401E1D901998401C19905DE71798401C179032E7002019901C98401C1CA9088041
:206960001B980122120380181B9008882399C96888420FD3FFE720A800784007002803D553
:20698000FFE7DF48249012E01CA8002101801B91FFE7FFE7F4E6FFE71E98002803D5FFE70A
:2069A0001E98249003E0FFE7D5482490FFE7249825B0F0BDA8D8FFFFAAD8FFFFA9D8FFFF32
:2069C000B0B588B00C9C0D46069005A801800492039306984021405C002824D1FFE70698F3
:2069E000406B01281FD8FFE706980021FFF794FC029002982449884203D1FFE700200290D2
:206A0000FFE7FFE70298002803D5FFE70298079036E0FFE70698406B012803D8FFE7B948C9
:206A200007902DE0FFE7069805A90988049A039B0C9C01940093F74B00F074FA0290029817
:206A4000002814D1FFE703980088069908820C980068401C069948610C980068002805D13D
:206A6000FFE70698416B491E4163FFE7FFE70298A449884201D1FFE7FFE702980790FFE709
:206A8000079808B0B0BDC046D3D8FFFF80B59CB01A9019911892002017901A98C0680F2133
:206AA00041434808169012A8DA49018013A8012101801699491C4180C0780006002804D58C
:206AC000FFE713A8D4494180FFE70020149018981590FFE71798002100280A9108D1FFE700
:206AE00012A8008884494018414248410A90FFE70A98C007002800D1F8E013A8418800885D
:206B0000081A0121C902884261DCFFE71A98406A01210902FBF726F81A98189900220592C4
:206B2000049213AB0393029177490191009211460992099BFFF7D0FD1790179870498842C2
:206B400003D1FFE700201790FFE7FFE71798002803D5FFE717981B90CBE0FFE700201190A7
:206B6000FFE71198FF282FD8FFE71A98406A1199405C0FA908700878FF2801D1FFE71FE042
