:020000040800F2
:20000000800E0020890100089101000893010008000000000000000000000000000000006A
:20002000000000000000000000000000950100080000000000000000970100084D06000827
:200040009B010008000000009B0100089B0100089B0100089B0100089B0100089B01000824
:20006000000000009B0100089B0100089B0100089B0100089B0100089B01000800000000A8
:200080009B0100089B0100089B0100089B0100089B0100089B0100089B0100089B01000840
:2000A0009B0100089B0100089B0100089B0100089B0100089B01000800F002F800F039F85D
:2000C0000CA030C8083824182D18671EA246AB4654465D46AC4201D100F02BF87E460F3E3C
:2000E000B6460FCC0126334200D0FB1A3343A246AB4618471812000028120000002300244F
:2001000000250026103A01D378C1FBD8520700D330C100D50B6070471FB50098019900F060
:20012000CAF900F009F91FBD10B5002000F061F910BD00F083F91146FFF7EEFF00F0F6FDA9
:2001400000F013FA03B4FFF7EFFF03BC00F0ECFD70B505460C46164602E00FCC0FC5103E72
:20016000102EFAD2082E02D303CC03C5083E042E07D301CC01C5361F03E021782970641C04
:200180006D1C761EF9D270BD0748804707480047FEE7FEE7FEE7FEE7FEE7FEE704480549A6
:2001A000054A064B7047000061060008B900000880080020800E0020800A0020800A00200E
:2001C000704710B50B460146184600F0C8F810BD0346F0B50B439B072DD1244DEF01042AC5
:2001E00029D308C810C95E1B9E43121F3E4017D0D8B2E1B2401A3106014310D198B2A1B2FA
:20020000401A310401430AD118022102000A090A401A3102014302D1180E210E401AF0BDD6
:20022000A342DCD018BA21BA884201D90120F0BD0020C043F0BD002A01D10020F0BD0378FA
:200240000C78401C491C002B0DD0A3420BD1521E09D003780C78401C491C002B03D0A342A4
:2002600001D1521EEBD1181BF0BD000001010101F8B5042A2CD3830712D00B78491C0370FB
:20028000401C521E83070BD00B78491C0370401C521E830704D00B78491C0370401C521E81
:2002A0008B079B0F05D0C91ADF002023DE1B08C90AE0FFF74DFFF8BD1D4608C9FD401C46AA
:2002C000B4402C4310C0121F042AF5D2F308C91A521EF0D40B78491C0370401C521EEAD4CE
:2002E0000B78491C0370401C012AE4D409780170F8BD01E004C0091F0429FBD28B0701D58E
:200300000280801CC90700D00270704700290BD0C30702D00270401C491E022904D3830795
:2003200002D50280801C891EE3E70022EEE70022DFE770477047704770B5064C7C44064DC9
:200340007D4404E02046016808188047241DAC42F8D170BDDC0F0000DC0F00007047F8B5E3
:20036000074615460E46102000F012F8040009D06760A660E56000F007F80168216004602B
:200380000020F8BD0120F8BD004870473800002070B5064600F072F8056830460B30C408A6
:2003A000E400B44201D8002070BD68682A46002818D00168A14211D30B46214608318B42FF
:2003C00008D3436801194B6003681B1B0B605160046001E041685160001D70BD024640683C
:2003E0000028E6D12146284600F050F80028DCD170BDF8B50646FFF7C7FF0090054615E08A
:20040000002E02D0E068B0420FD1206828600098A168076860688847204600F080F80098A5
:200420000068B84202D00098E8E725462C68002CE6D1F8BD00487047000000207546FFF7BA
:20044000F9FFAE46050069465346C008C000854618B020B5FFF7A2FE60BCB6460026002778
:20046000C0C5C0C5C0C5C0C5C0C5C0C5C0C5C0C5403D490849008D467047000000487047B4
:2004800008000020704770477047704738B504460A4600206946C046C046002805D00246B1
:2004A0002046009900F069F8012038BD10B5012000F083F810BDF8B5C046C0460546002094
:2004C0000C461020C0460646A819A0420DD9324669460020C046C046070001D100F06DF83E
:2004E0000098A04200D00546C419FFF7C7FFF61D07460560F008C0004619284600F008F894
:20050000B44204D031463868A21B00F036F8F8BD002101604160806070471020704770B5A4
:200520000446051FFFF7AAFF0068002C1AD0446801E020466468002C01D0AC42F9D3016851
:200540000A18AA4204D12A6805468918016000E0456028684119A14205D161686960216896
:200560004018286070BD6C6070BD10B50446C046C0462046FFF7E6FD10BD10B50346406898
:2005800001E003464068002801D08842F9D31868C3188B4206D0CB1CD808C000001D411AFD
:2005A000521A0146081D0A60FFF7B9FF10BD10B5002801D000F0B8FB10BD10B500F01EF885
:2005C000FFF7F5FF10BD70B505460C460A2000E06D1C00F0AAFB002D06D028780028F7D1E7
:2005E00002E0641C00F0A1FB002C02D020780028F7D10A2000F099FB70BD000010B50128BE
:2006000005D0002103A0FFF7DEFF012010BD09A1F8E7000053494752544D454D3A204F7571
:2006200074206F662068656170206D656D6F7279000000003A2048656170206D656D6F72C2
:200640007920636F727275707465640080B503480168491C016000F0F5FA80BD78080020BE
:200660000120C0060F4908607047C04680B500F049FB80BD80B50120800208490A68824310
:200680000A60EFF3108072B605484168026882F30888044A1060884780BDC04614040050B9
:2006A0000018000808ED00E0F0B583B0009101900292D20758D1012005042C490E1F33684E
:2006C0002B42FBD133685B03FCD40B68002B05D50B460C3B264F1F60264F1F603368264A15
:2006E000134333600B680222144613430B603F23DB00019A170A1F401A460B689343DB196A
:200700000B600B682B430B6033682B42FCD13368194A134333600B68A3430B600B68029A93
:20072000002A1ED0002703430C460B6007233A469A4300998B185B688A5801997A507A1819
:20074000536032682A42FCD132680243326021462268824322600837BFB22368029A9742BA
:20076000E1D3C0071843086003B0F0BD1420024023016745AB89EFCDFB83000010B5054C11
:200780000548606000F00AF80020A0600720206010BDC04610E000E07F3E0000FF2000060E
:2007A00003490A6882430320800710180860704720ED00E070B5002917D00D4D00220D4BCF
:2007C00003E0521C8A4225460BD0845C6C40082502E034466D1EF4D06608E407F9D05E4092
:2007E000F7E7E04300BA000C70BD002070BDC046FFFF0000088400000948016803221143F5
:200800000160100507490A6882430A60012002050B6813430B6080024A6982434A617047B9
:200820003410024000040050F0B5B5B0009316460D46074609ACB0212046FFF778FD80214D
:200840003846224600F0C2F8012E08D0002E4BD109A90A22284600F069F835B0F0BD009EEA
:20086000002E41D0002008900790069005902878697809020818A978EA7812025118090406
:20088000081801902879697909020818A979EA7912025118090408180290287A697A0902A8
:2008A0000818A97AEA7A12025118090408180390287B697B09020818A97BEA7B120251189C
:2008C00009040818049009A90A22284600F02EF81024284631462246234600F067F801A912
:2008E00030462246FFF7C4FC35B0F0BD10B581B003796A46537003781370037A9370037BF1
:20090000D37001235C1A03231C40145D04710224641A1C40145D04725C1A1C40145D0473F1
:2009200049421940515C017001B010BDF0B581B016460C46054610010918284600F016F8CA
:20094000022E08D3761EF7B238012118284600F0E7F8012FF6D80020215C2A5C4A402A5477
:20096000401C1028F8D101B0F0BD000010B5044600200A5C235C53402354401C1028F8D141
:20098000601C0121FFF7B2FFA01C0221FFF7AEFFE01C0321FFF7AAFF0020A949225C8A5C5B
:2009A0002254401C1028F9D110BDC04610B5884200D81346002B08D00A78047854400470C7
:2009C0005B1E401C491C002BF6D110BDF0B589B0134607920D460146EA081846FFF748FC2A
:2009E00068090190C1B288001C30C0B20490059188426DD900200390059C019F3B463CE071
:200A000008AD284602961E4600F06CF86878314B185C6870A878185CA870E878185CE870E3
:200A2000039AD0B22CA1085C2978595C41402970019836183546029E521C03920598201A1A
:200A40008000079B195C18184278120251188278C0780002801800044018089941400698B0
:200A60001954080CB070080EF070080A70707F1CFCB20498A0422B462AD9A50007982E18A8
:200A8000301F01784278120251188278C07800028018000440180890D8B2F9B28142069504
:200AA000AED005981D460828C8D1072020400428C4D108A80178074A515C01704178515CA9
:200AC00041708178515C8170C178515CC170B5E709B0F0BD0A110008010204081020408093
:200AE0001B3600000178427802708278C37883704270C170704770B500231C4645B2ED09A7
:200B0000154046006E4001250D406D4205406B40651C4908072C30462C46EFD3D8B270BD14
:200B2000F0B58FB00024025D0B5D53400BAA1355641C102CF7D1029000260BA88119CD7868
:200B40008A780A9213466B400093805D4A7807920146044608905140019108465840C1B283
:200B600009201B273A460397FFF7C5FF069020460A994840C1B2042420463A46FFF7BBFFDE
:200B8000099007986840C1B220463A46FFF7B3FF04460698444027466F4008984540E9B22C
:200BA00002200590039D2A46FFF7A5FF7840029989190491C870099F06994F4009970A98FA
:200BC00047400098C1B205982A46FFF794FF78400499887007994C400A984140C9B2059D34
:200BE0002846039F3A46FFF786FF6040049948700898099C44400198C1B228463A46FFF73C
:200C00007AFF604002998855361D102E95D1029C601C0121FFF76AFEA01C0221FFF766FE79
:200C2000E01C0321FFF762FE0020054923461A5C8A5C1A54401C1028F9D10FB0F0BDC046CD
:200C40000A1200082D480168491C01607047C046B0B52A490A680C4BD2180F4B1C68A406FC
:200C60000CD40C689442F9D91C6800220121A40706D55C68022525435D6001E09A68002116
:200C800002700846B0BDC0468813000002490A685206FCD5C86070471C38014070B50146C0
:200CA0008C4803680122134303600F239B04052425072E689E432E60E3042E681E432E6082
:200CC00011231B016E6A1E436E629203C3681343C360064800F016F90549C86020038860B4
:200CE00008680D2202430A6070BDC0460024F40000380140014900220A60704760000020D5
:200D00007047000010B5054C2046FFF7F3FF0448044A2146FFF755FA10BDC0467608002001
:200D2000010D000800000008FEE770478AB0FFF797FCFFF723FD6748016801273943016003
:200D4000FFF75AFDB902644A1068019108431060624C63A10E222046FFF73AFA4542454199
:200D600000280AD105A90020887388810790069005900F222046FFF797FC4B200002FFF759
:200D80008DFFF8020290812000010490039707E0BA20FFF77BFFC220FFF778FF039F3D46C6
:200DA00009A800260670FFF753FF002803D0E807F6D1FFF75FFC01208002474A116881432B
:200DC000116009A80078BA283D46E9D109A8FFF73FFF00283D46E3D109A80078FB2801D1F8
:200DE000FFF748FC09A80078BF283D46D8D1404D28464049FFF79BFA0498871C03E07F1EAF
:200E00006D1C002F16D0F00714D12846FFF720FF0028BDD12878BA28F1D105AC002020707A
:200E20002046FFF715FF21784A1E91410E4306430028E4D0F007ABD1049D2D4E705B00049B
:200E400004BA029910313046FFF7B4FC84429FD100240894079406940594274F3119012235
:200E600005AB3846FFF7E0FC1034A4B2AC42F5D3348800203080B01C02990E31FFF79AFC64
:200E8000210409BAC22581421BD1F078B178090208181A49884214D10F4A10680199084350
:200EA0001060706800BA3B21C9028842039F09D81349401810363146029AFFF7F5FBC125E3
:200EC00000E0039FBA20FFF7E1FE2846FFF7DEFE3D4665E73410024014040050F0FF0108EC
:200EE0007A6572644067656E657261746F7200006400002012080000FA100008717A00009B
:200F00000018000843088B421AD3002203098B4279D3030A8B425ED3030B8B4242D3030C5B
:200F20008B4227D30902FF2212BA030C8B4202D31212090203D0030B8B4233D31AE0D3E0B1
:200F4000411A8041401C704703460B4371D443088B42F5D3002203098B4254D3030A8B42AA
:200F600039D3030B8B421DD3030C8B4202D394466EE0090AC30B8B4201D3CB03C01A524104
:200F8000830B8B4201D38B03C01A5241430B8B4201D34B03C01A5241030B8B4201D30B03C0
:200FA000C01A5241C30A8B4201D3CB02C01A5241830A8B4201D38B02C01A5241430A8B42DA
:200FC00001D34B02C01A5241030A8B4201D30B02C01A5241CDD2C3098B4201D3CB01C01AA9
:200FE000524183098B4201D38B01C01A524143098B4201D34B01C01A524103098B4201D3E5
:201000000B01C01A5241C3088B4201D3CB00C01A524183088B4201D38B00C01A5241430844
:201020008B4201D34B00C01A5241411A524110007047CA0F00D04942031000D34042534073
:2010400000229C4603098B422DD3030A8B4212D38901FC2212BA030A8B420CD3890192119A
:201060008B4208D3890192118B4204D3890137D0921100E08909C3098B4201D3CB01C01A3E
:20108000524183098B4201D38B01C01A524143098B4201D34B01C01A524103098B4201D344
:2010A0000B01C01A5241C3088B4201D3CB00C01A524183088B4201D38B00C01A5241D9D244
:2010C00043088B4201D34B00C01A5241411A00D201465241104663465B1000D340427047EF
:2010E00063465B1000D3404201B50021004201D0C9430846C046C04602BDC878EA3C37AA31
:20110000588C8C1CE15D66A8B0BD637C777BF26B6FC53001672BFED7AB76CA82C97DFA598A
:2011200047F0ADD4A2AF9CA472C0B7FD9326363FF7CC34A5E5F171D8311504C723C31896F2
:20114000059A071280E2EB27B27509832C1A1B6E5AA0523BD6B329E32F8453D100ED20FCE5
:20116000B15B6ACBBE394A4C58CFD0EFAAFB434D338545F9027F503C9FA851A3408F929D4A
:2011800038F5BCB6DA2110FFF3D2CD0C13EC5F974417C4A77E3D645D197360814FDC222AED
:2011A000908846EEB814DE5E0BDBE0323A0A4906245CC2D3AC629195E479E7C8376D8DD5F5
:2011C0004EA96C56F4EA657AAE08BA78252E1CA6B4C6E8DD741F4BBD8B8A703EB566480399
:2011E000F60E613557B986C11D9EE1F8981169D98E949B1E87E9CE5528DF8CA1890DBFE6A2
:20120000426841992D0FB054BB1652096AD53036A538BF40A39E81F3D7FB7CE339829B2FF2
:20122000FF87348E4344C4DEE9CB547B9432A6C2233DEE4C950B42FAC34E082EA16628D9C7
:2012400024B2765BA2496D8BD12572F8F66486689816D4A45CCC5D65B6926C704850FDEDA6
:20126000B9DA5E154657A78D9D8490D8AB008CBCD30AF7E45805B8B34506D02C1E8FCA3F9E
:201280000F02C1AFBD0301138A6B3A9111414F67DCEA97F2CFCEF0B4E67396AC7422E7ADDC
:2012A0003585E2F937E81C75DF6E47F11A711D29C5896FB7620EAA18BE1BFC563E4BC6D2A1
:2012C00079209ADBC0FE78CD5AF41FDDA8338807C731B11210592780EC5F60517FA919B58C
:2012E0004A0D2DE57A9F93C99CEFA0E03B4DAE2AF5B0C8EBBB3C83539961172B047EBA7791
:20130000D626E169146355210C7D00002013000800000020800E0000FC00000851F3FFFFE2
:20180000C83A0020B5190008BD190008BF1900080000000000000000000000000000000012
:20182000000000000000000000000000C11900080000000000000000C31900085156000833
:20184000C719000800000000C7190008C7190008C7190008C7190008C7190008B535000826
:2018600000000000C7190008C7190008C7190008C7190008C7190008C719000800000000F8
:20188000B956000809570008C7190008C7190008C7190008C7190008C71900089D3A000862
:2018A000FD3B0008C7190008C7190008015C0008C7190008C719000800F002F800F04FF8C2
:2018C0000CA030C8083824182D18671EA246AB4654465D46AC4201D100F041F87E460F3E0E
:2018E000B6460FCC0126334200D0FB1A3343A246AB46184704FD000024FD0000103A02D3A1
:2019000078C878C1FAD8520701D330C830C101D504680C607047000000230024002500266F
:20192000103A01D378C1FBD8520700D330C100D50B60704710B5642902D100F059F810BD36
:20194000002010BD1FB501F067FB0400002000210EF09AF8401C60601FBD10B510BD01F023
:201960000DFB1146FFF7EEFF08F094FC01F02EFB03B4FFF7F2FF03BC04F0B8FF70B505460B
:201980000C46164602E00FCC0FC5103E102EFAD2082E02D303CC03C5083E042E07D301CCEF
:2019A00001C5361F03E021782970641C6D1C761EF9D270BD0748804707480047FEE7FEE7EC
:2019C000FEE7FEE7FEE7FEE704480549054A064B70470000A9560008B9180008C822002098
:2019E000C83A0020C82A0020C82A002070470000F7B5002575291068009914A611D0C046C9
:201A0000C046002802DA404211A608E0009909688A0701D50FA602E0490704D50EA6012590
:201A200001E0C046C046009F0024243704E000F0D9FF30313955641C0028F8D12B463246A6
:201A40002146009800F000FCFEBD0000000000002D0000002B000000200000000FB400B5F0
:201A60008DB010A909900B900020C04300910A9000200C90074878440690074878446A46D6
:201A800007900F9909A800F0FBFD0DB008BC04B0184700002B0C0000450C00000EB5044645
:201AA00015460E4612A000F093FF204600F090FF15A000F08DFF304600F08AFF14A000F09A
:201AC00087FF6C460020E0720A20A0720A3407E00A21284600F06EF930310546641E21704C
:201AE000002DF5DC204600F073FF00F067FF00002A2A2A20617373657274696F6E2066616D
:201B0000696C65643A2000002C2066696C6520002C206C696E652000034670B502460B43A9
:201B20009B070FD10E4CE60100E008C208C91D1B9D433542F9D0D9B21170521C00290DD08F
:201B40001B0AF8E70B78491C1370521C002B05D00B78491C1370521C002BF3D170BD0000B3
:201B60000101010130B5441C03E00178401C00290DD08107F9D10B4BDD0104C8D11A91434D
:201B80002940FAD0001B0A0603D0C01E30BD001B30BD0A0401D0801E30BD0902FCD0401EA2
:201BA00030BD000001010101F8B5042A2CD3830712D00B78491C0370401C521E83070BD062
:201BC0000B78491C0370401C521E830704D00B78491C0370401C521E8B079B0F05D0C91A65
:201BE000DF002023DE1B08C90AE0FFF7C7FEF8BD1D4608C9FD401C46B4402C4310C0121F68
:201C0000042AF5D2F308C91A521EF0D40B78491C0370401C521EEAD40B78491C0370401C21
:201C2000012AE4D409780170F8BDD2B210B513029A1813049A1800F00EF810BD01E004C0D9
:201C4000091F0429FBD28B0701D50280801CC90700D00270704700290BD0C30702D0027001
:201C6000401C491E022904D3830702D50280801C891EE3E70022EEE70022DFE7F8B50746D6
:201C80000B4639461943890713D1164CE601042A0FD302CB0D1B8D43354202D102C0121F49
:201CA000F5E7CBB20370401C521E002B13D0090AF7E7002A14D01978521E5B1C0170401C3A
:201CC000002908D0002A0BD01978521E5B1C0170401C0029EDD1002A02D01146FFF7CAFFC0
:201CE0003846F8BD0101010182078B079A423FD170B5920F0AD0032402780B78401C491C21
:201D0000002A33D09A4231D12042F5D1214EF40104C808C9951B9543254018D19A420FD1FD
:201D200004C808C9951B9543254010D19A4207D104C808C9951B9543254008D19A42E7D08E
:201D400012BA1BBA01209A4200D2404270BD12BA1BBA2DBA18241000E0401900E140401ADC
:201D600005D12E00E64002D1083CF4D1D01A70BD02780B78401C491C002A09D09A4207D1D1
:201D800002780B78401C491C002A01D09A42EFD0D01A704701010101002203098B4273D309
:201DA000030A8B4258D3030B8B423CD3030C8B4221D312E003460B437FD4002243088B424E
:201DC00074D303098B425FD3030A8B4244D3030B8B4228D3030C8B420DD30902FF2212BA36
:201DE000030C8B4202D31212090265D0030B8B4219D300E0090AC30B8B4201D3CB03C01AFD
:201E00005241830B8B4201D38B03C01A5241430B8B4201D34B03C01A5241030B8B4201D3AC
:201E20000B03C01A5241C30A8B4201D3CB02C01A5241830A8B4201D38B02C01A5241430A0A
:201E40008B4201D34B02C01A5241030A8B4201D30B02C01A5241CDD2C3098B4201D3CB0127
:201E6000C01A524183098B4201D38B01C01A524143098B4201D34B01C01A524103098B4250
:201E800001D30B01C01A5241C3088B4201D3CB00C01A524183088B4201D38B00C01A52412D
:201EA00043088B4201D34B00C01A5241411A00D201465241104670475DE0CA0F00D04942F9
:201EC000031000D3404253409C46002203098B422DD3030A8B4212D38901FC2212BA030AEA
:201EE0008B420CD3890192118B4208D3890192118B4204D389013AD0921100E08909C3091B
:201F00008B4201D3CB01C01A524183098B4201D38B01C01A524143098B4201D34B01C01AAE
:201F2000524103098B4201D30B01C01A5241C3088B4201D3CB00C01A524183088B4201D318
:201F40008B00C01A5241D9D243088B4201D34B00C01A5241411A00D2014652411046634634
:201F60005B1001D34042002B00D54942704763465B1000D3404201B50449002802DC491C87
:201F8000084000E00846C046C04602BDFFFFFF7F7047704770470000F0B5FF252D04C60996
:201FA000C209FF2704462E400137CB093E4348402A402B400746002A6BD0002B69D0AA428C
:201FC00067D0AB4265D0002800DA32460125ED0529432C4309022002090AD21A4B0C7F2415
:201FE000E31A434C000A7C44E35C7D242404121914145B00A218884201D3521C00E04000EF
:2020000049420C465C4324115C43DB016415E318040A5C43C502200D0C4644436419250AFA
:202020005D432303EC0C0D46654300030019EB184C42A34201D35B18401CD4052018002B76
:2020400007D05B00C91804D3401C002901D1400840003F2189048A4209D3002A08DC1106FD
:20206000090F04D0032149074018C00FC007F0BD01224100120689187F2252069142F6D2B4
:2020800005214907C84201D59010F0BDFF20C005F0BD002F00DA32461648AA4207D2AB427B
:2020A00005D21902090E17D0F80FC007F0BDFF2563002D06AB42F9D84900A942F6D8AB424E
:2020C00001D1A942F2D0A94201D1002101E061004908D0050843F0BD1102090EFBD0FF202F
:2020E0000243D005F0BD0A460146104654E70000EEDC00000000C07F10B501469E24000218
:20210000CA15A307002A02D01843002A04DBA21A002A0CDDD04010BD1206120E01D14000E0
:202120004008A21A03D4D04040420028F3DDFF2248001206904201D9002010BDC817C0433E
:20214000584010BD0102C21504D00123DB071943002A0ADB9E239A1A02D40846D04070479B
:20216000FF2241001206914201D900207047C017C04370471F22030C02D10F2200041CD08C
:20218000030E01D10002083A030F01D10001121F830F01D18000921E002801DB4000521EBA
:2021A000D2055118021251181922904004D3491C002801D14908490008467047C10FC907E2
:2021C00000D04042012292071143D3E701218907D0E741460160494641605146816059464B
:2021E000C160714601611430F0C069460160001D01B5C046C04606BC964601C1002070478B
:2022000004000D00A06AC046C046616A8D462200280000D1012011688846516889469168F5
:202220008A46D1688B4611698E461432F0CA7047704710B500F052FC006810BD10B50446C1
:2022400000F04CFC046010BDFFB504460D4681B0243000902168880604D51022E069914370
:20226000216000E00120A84201DD471B00E000270498A1697A191018081AA0612078C006C9
:2022800002D42046C046C046002608E003986268A168805D9047206A401C761C2062049830
:2022A0008642F3DB2078C0060AD52046C046C04606E06268A16830209047206A401C206291
:2022C00038467F1E0028F4DC07E000986268A168405D9047206A401C206228466D1E00289C
:2022E000F3DC2046C046C0462078000602D5022005B0F0BD0120FBE7FFB51C460025ED4336
:2023000085B00020009001909F685E68A16906986D1C88470290216A88470028F6D1029805
:20232000401C0CD0032040028643002F19DD700614D502982B2809D02D280FD103E00020B5
:20234000C04309B0F0BD012080020643A16906986D1C88477F1E002F029002DD02983028F9
:2023600003D00798002828D024E00120A169400206436D1C06987F1E8847002F029003DDDD
:20238000782805D0582803D00798002810D011E00798002801D010280CD10120A1694002C3
:2023A00086436D1C06987F1E88470290102000E008200790C017039016E00A20F9E70120D5
:2023C000039B40020643079A019900987F1E00F089FB029AD3178018594101910090A1690C
:2023E00006986D1C88470290002F06DD0799029800F099FB00280290E1DAE1690698884759
:20240000B00502D40120C0439BE7F00710D1700610D5700505D50098019B002241429A4155
:2024200001E0019A00992068031D2360006806C0284686E72068011D21600068019A009990
:20244000F5E7FFB51D460027FF4383B05C68002001909E68A96904987F1C88470090296A37
:2024600088470028F6D10098401C0CD0032040028443002E19DD600614D500982B2809D06B
:202480002D280FD103E00020C04307B0F0BD012080020443A96904987F1C8847761E002ED9
:2024A000009002DD0098302803D00598002825D035E00120A96940020443761E04987F1C94
:2024C0008847002E009003DD782805D0582803D00598002810D022E00598002801D0102852
:2024E0001DD10120A96940028443761E04987F1C88470090102002E0082000E00A200590AF
:202500000DE00121059A49020C430199761E514308180190A96904987F1C88470090002E2A
:2025200005DD0599009800F0FEFA0028E9DAE96904988847A00502D40120C043A5E7E007E1
:2025400022D1600611D56005019800D5404229680A1D2A600968220501D5087014E02207A2
:2025600001D5088010E008600EE02868011D29600068210502D50199017005E02107019969
:2025800001D5018000E0016038467EE7FFB5144683B0002000260090506801909169976867
:2025A000049888470C9905460698084305D009E0A1690498761C88470546216A28468847FF
:2025C0000028F5D1681C03D00198C00704D017E00020C04307B0F0BD2068011D2160006875
:2025E00000900DE00198C00704D1009805700098401C0090A169761C04987F1E88470546A9
:20260000002F1CDD681C1AD0069800280FD0E817C00E4019411140098A00069940015118EB
:202620002A1A0968012090400142DBD107E00C980028D7D12846216A88470028D2D0E169CE
:20264000049888470C98002807D1002E05DD0198C00702D1009800210170A068B84204DD1B
:202660000C98002804D0002F02D00120C043B1E73046AFE70268511813780160184670471D
:2026800010B5D16005497944516105497944116200211161114600F055FA10BDEBFFFFFF2B
:2026A000850400004268002A08D001680B78491C002B03D0521E06C0184670470121C16008
:2026C000881E70474268002A0BD0C3680168002B07D183688B4204D0491E521C06C0002010
:2026E00070470020C0437047FFB5144687B000200190506803909768002002900646049077
:202700000590916908988847109905460A98084305D009E0A1690898761C88470546216A3B
:20272000284688470028F5D1681C03D00398C00704D02CE00020C0430BB0F0BD2068011DA4
:2027400021600068019022E004AA6846E9B200F0C9FB411C07D0801C09D00020029003985C
:20276000C00707D00DE0E1690898884746E00120029007E068460188019801800198801CCF
:2027800001907F1EA1690898761C88470546002F1CDD681C1AD00A9800280FD0E817C00EA9
:2027A0004019411140098A000A99400151182A1A0968012090400142C6D107E01098002817
:2027C000C2D12846216A88470028BDD0E169089888470298002811D11098002806D1002EB7
:2027E00004DD0398C00701D101990880A068B84204DD1098002804D0002F02D00120C043F6
:202800009AE7304698E7FFB5144685B000200090506801909668002002900546039091697E
:2028200006988847109907460898084305D009E0A16906986D1C88470746216A3846884767
:202840000028F5D1781C03D00198C00704D01CE00020C04309B0F0BD2068011D21600068DB
:20286000009012E00198C00709D1B9B2009802AA00F059FB411C34D0009908180090A169F5
:202880006D1C0698761E88470746002E14DD781C12D00898002807D03B460F9A0E9900F06C
:2028A00011FB0028DED107E010980028DAD13846216A88470028D5D0E169069888471098CF
:2028C000002806D1002D04DD0198C00701D100990870A068B04204DD1098002804D0002EFB
:2028E00002D00120C043B5E72846B3E7FFB5144683B000273D465068019091699668049876
:20290000884700900E990698084305D009E0A16904986D1C88470090216A00988847002862
:20292000F5D10098401C03D00198C00704D014E00020C04307B0F0BD2068011D21600768C5
:202940000BE00198C00702D100983880BF1CA1696D1C0498761E88470090002E15DD009854
:20296000401C12D00698002807D0009B0D9A0C9900F0A8FA0028E4D107E00E980028E0D1C0
:20298000216A009888470028DBD0E169049888470E98002805D1002D03DD0198C00700D1DB
:2029A0003880A068B04204DD0E98002804D0002E02D00120C043BDE72846BBE710B5002025
:2029C00000F0D2FAFEF7C9FF012003F08FFF10BD10B5044602E0641C03F089FF2078002863
:2029E000F9D110BD01468008081A02091018020A1018020C1018C008820012185200891A49
:202A000001E0401C0A390A29FBD2704770B5024601020123C01520249E26DD07002802D030
:202A20002943002813DB361A002E29DD0846F040A21B01D4914000E04908002906D09940A6
:202A400000D3401C002901D14008400070BD0006000E01D149004908361A11D40846F04064
:202A6000404200280CDCA21B01D4914000E049080029EBD0CA0F490000D11843801A70BD37
:202A8000FF2150000906884201D9002070BDD017C043684070BD000010B5FF22C30D1340FE
:202AA00009D05A4007D0914205DA5C42A14202DDC905081810BDC40FE407002B06D0002A16
:202AC00006D0002902DBFF20C0050443204610BD4102FCD0004810BD0000C07F004870475A
:202AE000B00000204343514330B55C18010C130C0D4692B25D4380B251432C190546554342
:202B00000A0C09044D1962415843010C00044019514130BD10B5044600F050FA0068005DF7
:202B2000C007C00F10BD3A2800D23038202302469A43412A01D310463738884201D300206C
:202B4000C0437047F3B50C468FB000200C90012000260E9008460C3003906269039801213C
:202B60009047051E2ED0252D2DD0216A8847002818D06269039801219047216A88470028C3
:202B8000F7D16269411E0398904700E0761CA1690F988847216A88470028F7D1E1690F98A4
:202BA0008847DAE7A1690F988847A842074601D1761CD2E7E1690F9888477F1C02D10C98DF
:202BC000002877D06BE16269039800273D46394690472A280CD16269039801219047012520
:202BE00006E00A214F433F18303FEBD4102005436269039801219047014630390A2903D21E
:202C0000AC498F42DEDCECE7E90600D4AA4F6C280AD04C2810D0682824D06A282ED0742833
:202C20000CD07A280AD00DE062690398012190476C2823D004211CE020200543626903985A
:202C400001219047A760652865604FD026DC582839D01ADC452849D012DC252834D0412854
:202C6000B0D143E06269039801219047682802D008210D43E6E70120C002DEE70220DCE71C
:202C8000462833D047289DD130E05B2870D061282CD063286CD0642894D161E06F284FD0DF
:202CA00009DC662822D0672820D0692826D06E2817D12EE0EFE070284DD073286FD0752822
:202CC0004ED078280DD154E0A1690F9888472528054600D16CE7E1690F9888476D1C00D1CE
:202CE0006DE7DCE00A224CE00A2252E0012023466A460F99C043C046C046C5E040212846A9
:202D0000234608436060A80701D5002239E000223FE0E80700D020E72068011D21600068E9
:202D2000290501D5067018E7290701D5068014E7A90703D5F117066041600EE706600CE7AE
:202D400040212846234608436060A80701D5082217E008221DE0594928460840606016E055
:202D600040212846234608436060A807BCD5B9E715E04021284608436060A80707D523466D
:202D8000102201200F99C043FFF7B6FA7CE01022234601200F99C043FFF753FB74E0002113
:202DA00063280B460191009102910D9102D05B2807D03BE0E80601D40120A0600120009007
:202DC00034E0E06801210D906269039890475E2807D101200190E06801210D90626903981E
:202DE00090472169002906D10B4604AA8F00491C0829D351FADB002851D02169002926D063
:202E00000298401C029062690398012190475D28F1D10198002808D0002004AB8100401C3F
:202E20005A58D24308285A50F8DB04AB2069002820791CD04007029A00980D9B009222461C
:202E400002901F480F991DD5FFF750FD1CE0C117C90E09184A114909930004AA9A184901E6
:202E6000411A13680120884003431360CBE74007224613480F9902D5FFF736FC04E0FFF79D
:202E800085FB01E0FFF7BFFC00280ADA401C06D10E98002803D00020C04311B0F0BD0C980B
:202EA000FBE7E90702D10C99491C0C91361800200E9052E6CCCCCC0CFFFFFF7FF1F7FFFFB0
:202EC000FEFFFFFF10B509E00488801C9C4205D1002A01D0002010BD012010BD491EF3D26B
:202EE000104610BDF8B516460C46054600F066F80368FF200230C05C012805D0185D002848
:202F00000ED001202C80F8BDFF333246214604331868C71868460023B84700992980F8BDE3
:202F20000020C043F8BDF8B516460C46054600F045F80368FF200230C05C012807D0FF2CE3
:202F40000FD8185D00280CD001202C70F8BDFF333246214608331868C71828460023B84764
:202F6000F8BD0020C043F8BD10B500F03DF800F035F810BD00487047B00000207546FFF770
:202F8000F9FFAE46050069465346C008C000854618B020B5FEF718FD60BCB6460026002799
:202FA000C0C5C0C5C0C5C0C5C0C5C0C5C0C5C0C5403D490849008D467047000010B500F093
:202FC0002BF8001D10BD00BFC1CA000010B50446C046C0462046FEF7CBFC10BD10B50028A3
:202FE00001D003F083FC10BD10B5002102A000F017F8012010BD0000534947414252543A06
:203000002041626E6F726D616C207465726D696E6174696F6E00000000487047D0000020AB
:2030200070B505460C460A2000E06D1C03F05FFC002D06D028780028F7D102E0641C03F005
:2030400056FC002C02D020780028F7D10A2003F04EFC70BDB0B582B01C4D287802281BD04F
:20306000012821D000282BD1DF480A21009101904420A6490A5A4020085A403149880904D6
:2030800009180120002300F051F9032400281AD12878401C287016E000F024FF0024204630
:2030A00000F018FA2C700EE01120094900F09EF90324002807D107480178491C017002E0D3
:2030C000002028700324204602B0B0BD10010020553000081700002010B582B0154C2078A7
:2030E000012809D000281ED1012000F0F3F900F00DFF2078401C2070EB480A2100910190BA
:20310000442082490A5A46200B5A4020085A4031498809040918012000F008F9002804D011
:20312000032002B010BD032000E000200021217002B010BD11010020F0B581B00C460646F3
:203140000D20094F394600F0A7F80546002807D1388800F049F83080388800F048F8208060
:20316000284601B0F0BDC04614030020F0B581B00C4606460F20094F394600F08DF805460C
:20318000002807D1388800F0CBF83080388800F0C1F82080284601B0F0BDC04616030020F8
:2031A0007F2189010840704780B582B0FFF7F8FF0346BD480A210091019054480189428906
:2031C000120451188289012000F0B0F802B080BD80B50448012101702E480021017000F0B1
:2031E0007BFE80BD5C120020000A800170470006000C704780B582B000F012F80346AA48E4
:203200000A2100910190A020404A105AA0325188090409189288012000F088F802B080BD3A
:2032200080B53221322800D808460BF0F1FF4006400C80BD10B582B0164C2078002117287B
:2032400003D0FF2803D1052021E008461FE0C1002E4A535C002B16D093480A230093019008
:20326000505A53185988090409189A88DB88012000F05CF801460320052907D0002907D1D0
:203280002178491C03E0411C032000E0FF21217002B010BDF90D0020B0B582B00C468249E3
:2032A0000A2200920191C00018490A5A0818418809048918FF22914382880120054D2B46BF
:2032C00000F054FD002801D002B0B0BD2988218002B0B0BD18030020B0B582B0724B0A2467
:2032E00000940193C000094B1C5A181843881B041C19074D5540C3880B432B4082880120B5
:20330000214600F013F802B0B0BDC046CC030108FFFF00002D2189010006800C40187047D7
:203320002D218901000A800140187047F0B583B015462A4A138002AA1380294E3278D207A8
:203340000FD1594A0A2300930192AAB2234B00F00DFD05283AD0002830D13078401C3070CF
:203360002CE0099A089B00930192FF229143AAB21C4C234600F0FAFC052827D000281DD193
:20338000290AC9B200290ED000250A462B4603E05B1CDDB2A94207D902AF7F5D655DBD4290
:2033A000F6D1521EF4E70A46110602D03178491C01E00021C9433170052806D03078FF2833
:2033C00001D1002002E0062804D305200021317003B0F0BD032003B0F0BDC0461C03002005
:2033E0001E0300201A030020F5EB0008B0B582B02A4C2268002A04D08A4203D0042002B05D
:20340000B0BD216026498A69264D2A6001222A70094B18808A8BAA80296823480A250095B7
:203420000190022000F0A2FC052801D00028E6D10021216002B0B0BD20030020F0B583B092
:203440000C46164E3168002904D0914203D0042003B0F0BD3260C00011490A58114B1A6012
:2034600000271F70081882889A8019680E480A230093019002200D4D2B4600F077FC0528AD
:2034800006D0002807D137602988218003B0F0BD37600749218003B0F0BDC04658030020A4
:2034A00058FE000850030020F5EB000844030020FEFF000080B507F047FB04480449016087
:2034C00002F0B6F803F056FA002080BD000000200090D0030F210A0405490B6893430B60E9
:2034E000002804D0052040040A6802430A6070470004005001200102084802688A4302602E
:2035000001684905FCD4BFF35F8F0A480168022291430160BFF35F8F7047C04600100240C1
:203520000448016802220A4302600348006803490860704710E000E0F8030020480300208F
:2035400080B5816901220A43826103F02DF980BD70B515460E460446806901218843A061AE
:20356000204603F021F9284630430CD41020205EB04208DD1220205EA84204DD092081016C
:20358000204603F0EDF870BD10B501208103064A13680B431360054B1C6884431C6010683B
:2035A0008843106010BDC04640100240003801407047000080B50120800607490860074858
:2035C000016820220A430260416880220A43426002F02EFD80BDC046180400500C18024025
:2035E000B0B50D4604460AE020790121814022680A432260401C2071207906280FD22079DC
:203600002946C140C907F5D002F0CCFA002804D00528E9D00328EFD108E02079EAE70021AD
:20362000217120682160002800D00520C0B2B0BD10B50023002A07D09C000C59844203DC64
:203640005B1C9342F8D31346D8B210BD80B50120C1020348FEF70EFB02480021016080BD38
:20366000E8050020E405002084B000200390C7433E4C3F4D019706E01F4603963B4C3C4DA1
:20368000204605F07DFC05F07BFD3748394605F0D5FC05F023FD0646204605F064FC2D6874
:2036A000002D5ED0334800680290019B2C46039A02E06469AC42DFD0278A78071BD4B80765
:2036C0000DD4964206D3A168914201D3B14212D9964204D2A16891420DD2B1420BD9002862
:2036E000E7D4A068801B9842E3D202990BF090FD039A0346DDE7F8070ED0E16800290BD0E6
:20370000B80706D48D19A068281AFEF745FB681AA0600420874311E06069A0420BD0A169FA
:2037200081616069A16948610027A54206D160690F49086002E000270D48076027822568C2
:2037400064680A4F384605F01BFC2046A84705F0C5FC0646384605F006FC05480568002D07
:20376000A0D10396019F89E7BC220020D40E0020E00E00207C190020F0B585B00446008ABE
:2037800040210291884320826068026B03A92046904700281ED003AAD0880F210140D180CD
:2037A00065686E88F20728D01822AA5E0192042203AFBA5E1427EF5F2B46162500935D5F0C
:2037C000BD4209DD019B9A4212DD1A21009D695E8A4209DA05B0F0BD019B9A4208DA1A2158
:2037E000009D695E8A42F5DC0E210840014602E001200143009D03A8C180B0052BD4F00591
:2038000006D503A8C088C00702D1A06803906CE0E769002F69D0384604F017FD019038460C
:2038200004F00EFD034670073ED41E46384604F00AFD87214900884223D0B428334629D0DE
:203840005A2831D103A84188039A4280C943019A5118018028E003A8C088E2894240012176
:203860001140208A820706D40029C8D002210843208205B0F0BD0222904320820029A9D07C
:20388000BDE703A84188039A0180D14333467118418009E00398C0430199081803A90880A6
:2038A0004888C04318184880208A40071DD503A8008800B2002807D40199884207DB0846DE
:2038C000481E03A9088002E003A800210180022003A9085E002805D4984206DB581E03A90D
:2038E000488002E003A800214180208A810601D5223500E01C350421695E012917DB0A22CE
:20390000A25E02232F4603ADEB5E9E1A76430823E35E2D882DB2ED1A6D43751949438D4203
:203920003D4604D291B29AB203AB59801A80C10716D00222A95E012912DB1423E35E03AD66
:20394000AA5ED21A52431223E35E2D882DB2EB1A5B43D21849438A4202D901218843208285
:2039600003A8C288E089114681439043CB0703D010231A4303ABDA80012506462E4004D00A
:2039800003AAD38820271F43D78087B288070AD00398608203A84088A08205F09FFBA061DB
:2039A000208A28432082BF072ED0208AC1072BD0A843208205F092FBA169451AA5614B2036
:2039C0008000019005F0CEFA85420DD8002F04D503A8C18880220A43C280002E04D003A893
:2039E000C188029A1143C18060684088C0070BD0A5690198C83005F0B5FA854204D303A88F
:203A0000C18880220A43C2801648002105F090F900280DD00546134E03AA2846214601F00B
:203A2000B1FC3046294605F083F905460028F3D10021204605F07CF900280CD0054603AA5F
:203A40002846214601F09EFC2046294605F070F905460028F3D103980499A060E16005B06E
:203A6000F0BDC0469803002009490B6809490978FE220A40084909781B0601D4022319438D
:203A8000022A01D004221143C9B2405C7047C0461000005016000020E803002070B54D4880
:203AA00041698A0718D54C4A5379002B06D05B1E5371DBB2D218927842620DE01379002B75
:203AC0000AD01478002C07D1444C25686E1C26602C785B1E13714462012293024C062ED4FC
:203AE0004C0748D40C0652D48C0660D4CC0665D4194209D03B4C0425257083613B4B1A70E1
:203B00003B4B1C78641C1C708B050AD55302354C042525708361354B1A70364B1C78641CF9
:203B20001C70C9050AD511022E4B04241C7081612E48027030480178491C017070BD0468E2
:203B4000254D2D78002D06D005681C4205D0940325432C460CE0950309E0FF242404A5439A
:203B6000056004681E4D25430560550304682C4304604C07B6D5194C25686E1C2660046A57
:203B80002C70154C25796D1E25710C06ACD5124C2479012C01D06E4C00E06C4C05682540B9
:203BA000056014040568254305608C069ED50D4C0025257020248461CC0699D5094C04254F
:203BC000257010248461084C25786D1C2570194290D199E704540040F30D0020DC0E00202A
:203BE00000040101EC0D002063030020EA0D0020610300205D0300205F03002070B55048C6
:203C000041698A0718D54F4A5379002B06D05B1E5371DBB2D218927842620DE01379002B10
:203C20000AD01478002C07D1474C25686E1C26602C785B1E13714462012293024C062ED497
:203C40004C074DD40C0657D48C0665D4CC066AD4194209D03F4C0325257083613F4B1A7064
:203C60003F4B1C78641C1C708B050AD55302394C032525708361394B1A703A4B1C78641C89
:203C80001C70C9050AD51102324B03241C7081613248027034480178491C017070BD046876
:203CA000284D2E78002E06D006681C4205D094032643344611E095030EE006604124A402E2
:203CC0000668264306602C79022C03D31406056825430560550304682C4304604C07B1D53A
:203CE000194C25686E1C2660046A2C70154C25796D1E25710C06A7D5124C2479012C01D011
:203D0000134C00E0114C05682540056014040568254305608C0699D50E4C00252570202426
:203D20008461CC0694D50B4C0325257010248461094C25786D1C257019428BD194E7C046EE
:203D400004580040ED0D0020D80E0020FFFFFFFEFFFF00FFEB0D002062030020E80D0020FD
:203D6000600300205C0300205E030020F0B583B0504E3578062D19D8AC0001A73C59A746A3
:203D80009D3D0008B93D0008D33D0008EF3D0008FD3D0008313E0008593E000848480068A7
:203DA00046490860681C307003247FE00020307004F012FF012479E04048026840490B6831
:203DC0009A1A0324032A71D36A1C3270096801606CE004F00FFF042851D8012181401920DE
:203DE00001424CD03078401C307003245EE0324802210170681C3070032457E0304C2468C3
:203E00002E4D2C6094B2240AD2B200AD1CC52D4A155C2D4A125C48B22C4B1C5C0B0C2846DA
:203E2000214605F0FBFF3078401C307003243DE004F0E0FE042813D0002815D104F0C6FE9D
:203E400000282AD01C480178491E0170080629D004203070032429E0681C3070052425E03E
:203E600006203070032421E01448006814490968081A03241F2819D30620307016E00F4833
:203E800000680F490968081A03241F280ED304F0A3FE3078401C307008E03078801C30707B
:203EA000002403E03078401C30700324204603B0F0BDC0467C03002084030020800300207B
:203EC000F8030020C8040108CB040108BC14010880B500F001F880BD014800210170704754
:203EE0008503002010B501204105064A13680B431360054B1C6884431C6010688843106098
:203F000010BDC0463C1002400054004080B505F0FBFF80BDB0B5044605464035284605F079
:203F200035F8002806D004F0C3FF284605F02EF80028F8D1204602F0E9FAB0BDF0B583B0A6
:203F40000446828642860186876938071DD415461020205E1238884213DCE0690021009199
:203F600004F0B4F9801C01B21220265EB01E00B2019002910BF06EF9A16B7A0707D481426A
:203F800005DC2046294600F069F803B0F0BD132D0CDCE06B01280299F7DB401AC1178843B4
:203FA000E063204602F000FC03B0F0BD30461438A8420CDDF00F30184210E06B954212DACE
:203FC00001280199E1DB401AEADC0098E8E7029A51430198081AE16B8142D6DA89188142CD
:203FE000DEDC0846DCE7029B4B43019D591B8842CBDA6A009A1A904200DA4119E163D0E72B
:20400000F0B581B00446007E000725D51546A08E91B2884220D006B2E76BE0690021009176
:2040200004F054F9711B7918E1631222A25E801CA36B4343981A801C814201DB401EE063EC
:20404000E06B002801D50098E063A586E06B874202D0204602F0A8FB01B0F0BD70B50D465A
:204060000446C069002104F031F9E16B4A19801C01B210460BF0EEF8002825D40546A06BE2
:20408000854221DA206C002817D0A26901210A402B4605E0002B0DD05B1E006800280CD009
:2040A000002AF7D18688002B01D08E4300E00E438680F1E782884A408280204602F074FBC7
:2040C0002046294606F088FC70BD80B5037E1B0712D53023C35E591ACB17C9185940042935
:2040E0000ADC3221415E891ACB17C9185940042902DC1146FFF7B2FF80BD000010B5EE4CA4
:204100002078062818D8C0467844007940008744030A161D262D3200012020701C48016860
:2041200080220A43026006F0E9F8002829D11A48FFF79AFC207024E00020207021E00320DF
:2041400020701348016880220A43026006F0D6F8002816D10F48FFF787FC207011E0FEF7A1
:2041600079FF00280DD1052020700AE00748FFF77BFC207005E0FEF7AFFF002801D1002034
:204180002070064800780649087010BDC004010810180240B0040108B80401081600002046
:2041A000F6030020B0B5214C2278012A16D0002A17D11F4D2978C840C00721D0084601F04B
:2041C000A3FB0321052822D0002817D12878401C28702078401C2070C8B2B0BD501C2070F3
:2041E00012E00020207012490A78132A0CD30870104A11681060002900D00521C8B2B0BD63
:20420000501C2070481C28700321C8B2B0BD2878421C2A702278521C227001228240054837
:20422000036813430360C8B2B0BDC04695030020940300200C0E0020F0B581B00E490E5C2D
:20424000142070430D4A171827480078085C80003C580B4D28462146FFF7C2F90028F9D1C2
:20426000B0003C58064D28462146FFF7B9F90028F9D1002001B0F0BDA8040108ECFF000812
:204280006403002080B505F0FBFE0020C04380BD10B56D20002104F075FA002813D00446E9
:2042A00009E02046FFF768FA6D20214604F06AFA0446002807D0606840888007F1D5208A3B
:2042C0004006EED4F0E710BDB0B5074D2A78002901D1824300E00243072414402046FFF717
:2042E000ABFF2C70B0BDC046B403002000220A60024608CA002B02D01368104600E0134681
:20430000196001607047000002480021016041607047C0465412002001460068002802D0B3
:2043200002680A60704700207047000010B582B0214C207805280FD87844007940008744CB
:20434000020F021D072D002000900D211D4A0CE00020207002B010BD0020207003201BE0CB
:204360000120009000200C21174A0B2301F0AAFA0146032005290AD105211AE0002010490F
:204380000E4A01F0D1F90146032005290FD0002902D12178491C0CE002B010BD07480021BE
:2043A0000180074801802170052002B010BD2178891C217002B010BDC90300200A0400200F
:2043C0008E030020B50300202200002010B5294C2078032812D8C0467844007940008744E5
:2043E0000124153305202849244AFFF727F801460320052936D0002922D010BD642811D044
:20440000652832D100202070052010BD01201C491A4AFFF713F801460320052922D00029CC
:204420000ED0EAE70020207010BD00201549134AFFF704F801460320052913D00029DCD132
:204440002178491C217010BD02200B490B4AFEF7F5FF01460320052904D00029CDD1642194
:20446000217010BD6521217010BD00202070032010BDC046CA030020060E0020FDA200088C
:2044800046120020080E0020040E002080B5012002F096F880BD0000074800780749085CAE
:2044A0007047C04603490870034800780349085C7047C046E80300201700002050000108B0
:2044C000B0B591480078002802D1374900220A70354C217807290CD87944097949008F4486
:2044E000030B1434394B4744002845D001202070B0BD002020703FE004200121FFF7E4FE0F
:2045000007F0FCFD00F0FAFB2FE000F0E7FB1C480078002803D004200021FFF7D5FE1A499D
:204520000868184A1060744A13681B1A174DAB4203D31368164D5B190B601168081AC00884
:204540007C2819D803202070B0BD00F0C7FB04202070B0BD00F0C2FB0A480068664909684C
:20456000081A7D21C900884206D902202070B0BD03480078002800D0B0BD07202070B0BD9E
:20458000E90300200404002000040020D107000030F8FFFF04480078801E042801D3002043
:2045A000704701207047C0466E19002070470000B0B57B4D287809282DD8C04678440079CA
:2045C00040008744042C0A3818545B6B72694E48007800282DD10020B0BD022001242146E2
:2045E000FFF772FE00F09AF8444804700A2004F05FFD032066E041480024047003F0E2F901
:2046000005286ED000286ED13D480068E2433D4905F066F867E0002028700020B0BD3B48CE
:204620000188002951D03849097800294DD000210180022046E000F0B9F8304800780128BB
:2046400007D1FFF7A7FF002803D003F0B5F9042028702D480078012141402C4802880A43B3
:20466000B9D005212970002101800020B0BD00F04FF802200021FFF727FE0DE01D48006874
:2046800046490978002901D0072129701A490968081AC0087C289ED8012013E008202870A3
:2046A0001348016820220A430260124800683B490978002905D010490968081AC0087C2828
:2046C00089D8092028700020B0BD0A4800680A490968081A7D21C900884200D87BE70620FA
:2046E000F0E7032028700A2004F0E2FC0020B0BD0C18024048030020F80300201D04002072
:204700007C050020A20400201E0400202004002080B504F0B9FB002080BD000070B5FEF758
:2047200095FF04F009FC12A003F002FE05F044FA10480024214605F045FA0F4E30680F49B0
:2047400003F054FB02F0A0FA02F0AAFB02F0CEFABE4D284604F01EFB284604F057FE306865
:204760000221322203F066FB03F026F9204670BD55313100B001010878030020FFFF0000BF
:20478000074800780749085C7047C04603490870034800780349085C7047C046EA030020E0
:2047A0006D1900205700010800207047F0B583B0A6480A21029104F08FFAA54D2860018818
:2047C0000126740222464032914228D1A14909684068884214D1A04F386805F04DF99F4932
:2047E0000880386805F07AF99D490880000407D09C48018831430180018804220A43028000
:204800009A48006829684968814208D196480078032804D19348018808220A430280914EDE
:204820003088204215D030889149014031808A4F3868904909880024E24305F071F98E4894
:204840000568386805F032F901462846224605F0FBF9308800072BD5884800688849002538
:204860002A4605F0F1F98748006887492A4605F0EBF98148006885492A4605F0E5F984488B
:204880000068844C21462A4605F0DEF98248006821462A4605F0D8F98048057080480570F4
:2048A000804805708048057080480570804805703088400709D530880421884330806F4818
:2048C00000687CA1002205F0BFF93088400623D530884021884330803088C00601D57B49E2
:2048E00000E0794965480068002205F0ADF93088800711D56348006875490024224605F0CD
:20490000A3F95D4805685448006805F0CFF801462846224605F098F96E480168DA4A914270
:2049200000D28FE0002101605F4A1078002802D0401E107010E03B2111705C480278002A96
:2049400001D0511E07E0017059480178002901D0491E00E063210170554800780190029D2A
:2049600029460AF055FC07465B4E30704F480078009029460AF04CFC0446F0704A480678DD
:20498000304629460AF044FC534A90716F430199C91B51706C430099091B11716843301A86
:2049A000D071104614460AF095F8394800680022214605F049F93A4A1078002802D0401E72
:2049C000107010E03B21117034480278002A01D0511E07E0017033480178002901D0491E7D
:2049E00000E0632101702F4800780190029D29460AF00EFC0746394E307028480078009064
:204A000029460AF005FC0446F07025480678304629460AF0FDFB314A90716F430199C91B14
:204A200051706C430099091B11714543701BD071104614460AF04EF8174800680022214633
:204A400005F002F9002003B0F0BDC046B0050020E40E0020480500207C050020F00E0020CD
:204A6000EC030020BC040020220400204C050020FFFD0000F20E0020680500206005002062
:204A80004415010864050020671501085A1501086C050020311501087005002088190020F8
:204AA0008919002087190020A1040020A004002099040020436F6E6669672E20506C656108
:204AC00073652077616974004C1501083A1501086C150108EC0E00200D000020190000205D
:204AE000F0B581B066480078012801D101B0F0BD784D287803280DD8810001A251588F464A
:204B0000114B00081D4B0008354B0008B34B0008401C00E00020287001B0F0BD5D480188B3
:204B2000C907E3D002212970018801229143018001B0F0BD012420462146FFF7C5FB05F03A
:204B400059FA06F00DF9534E308804210143318003F046F830884027384330803088C0069A
:204B600000D48AE04E4800884B4C20804D49088006F040F8208803F08DFE002003F034FFEA
:204B800005F056FF05F06EFF05F0F2FA05F04CFB09F06EFD308880210143318030880221BF
:204BA000014331800320287030883843308001B0F0BD34480168344A914205D333490A6808
:204BC000521C0A60002101603148C0682F4C2168814234D309F04CFD0026266006F0C0F870
:204BE00001F0C2FF2B480088800526D52A4C2088401C208029490A8881B2914207D9284814
:204C00000680268027480088002808D105E0244A108024480088814201D105F0EBFF20887D
:204C200003F038FE002003F0DFFE05F001FF05F019FF05F09DFA05F0F7FA05F099FA154802
:204C40000188090700D451E70188082291430180154901240C60018810229143018001881F
:204C6000022291430180018880229143018002F099F900212046FFF727FB2C7001B0F0BD1E
:204C80006012002080040020E70300008404002018120020BC040020F20E0020EC030020F3
:204CA000F00E0020F40E00201804005080B505F0A1F908480021017080BDC046054800789A
:204CC0000549085C7047C046024800780249085C7047C046220400206100010880B502F060
:204CE0002BFC09F0B5FD0348008803490880002080BDC046D00E0020B01A0020B0B582B059
:204D0000002400940A21064B2046224602F0D6FB044D287002F0E6F92870204602B0B0BDF7
:204D2000603B000097040020B0B50D460446416E4248AB4A914211D15C21615C00290CD0F9
:204D40002046294606F0A4FB002807D42046294606F086FB002801D4B0BD18302063B0BDF8
:204D6000006B704710B50446426E3448F04B9A420AD15C22A25C002A05D0204606F088FB8A
:204D8000002801D410BD1830206310BDF0B581B00446406EE64988420BD125464235A87E06
:204DA00000280BD01048401C20630020C04301B0F0BD0D48C01C206301B0F0BDE0680028B6
:204DC0000DD0002637462E80B9B2204606F060FA002807D17F1CB8B2E1688142F3D8002088
:204DE00001B0F0BD0048E6E7D5D8FFFF70B582B00E460446406EEB49884218D15C20205C13
:204E0000002816D0154601AA2046314606F012FB002810D42046314606F03AFB01988189E7
:204E2000204632462B4609F07BFB02B070BD034801E002481830206302B070BDD8D8FFFF07
:204E4000F0B585B00E460546406ED649884230D15C20285C002830D01F46144604AA28463E
:204E6000314606F0E7FA002850D402902846314606F00EFB049EB068411C00D10020022FE9
:204E80001FD0012F01D1B1690C19002C1CD4844203DDB0612048253002900298002835D4F5
:204EA000601EFB210AF0B4F90027002C0FDC38460EE0194C10342C632AE0174C28342C6377
:204EC00026E00419002CE2D5134C2C6320E080B2712804D371387C210AF09AF9471CBAB29A
:204EE000308A90420FD0F08803A900910121C90301430023284607F019FC002806D4049825
:204F000007820399C1810498846101E028630446204605B0F0BDC046C8D8FFFFF0B585B0AD
:204F20001E4617460D460446006E049020460C305C210191FCF7A0FEA868A060686860602F
:204F4000286820600498206601218802E060039108023818206267620A9F049630463946C2
:204F6000FCF788FE03250B990A462A400420831A0C9E002A029300D0F61AAE43730B01D0E8
:204F8000039B5E03A664002A029A00D08918049A61641540461B002D00D0BF1B2C21384616
:204FA0000AF036F9E062002D02D00498801900E00498A062204605F07DFFE34860662046A6
:204FC00007F026FC002807D40D980199039A62546065002005B0F0BD206305B0F0BDC046F1
:204FE00015030920F0B589B00F460446406ED64988420ED15C20205C00280ED01E461546C0
:205000003846FCF7AFFD11280BD34A4820634A4E8AE0484E0C36266386E0464E2436266307
:2050200082E0059608A920463A4606F069F900280ED407AA2046394608F03CF80646042246
:205040002846104007D1002E05D50898815E67E00646206368E0374B002E0DD14421294079
:20506000442908D10898815E20461D4606F0F8F9AE1D266358E00026002804921CD022330A
:205080009E4219D106A900222046039207F0B4F9002814D406A8018807A801220392009296
:2050A0000190002320463A461F4607F08BFF00280FD4022085430AE0002E14D52DE0064621
:2050C00008980499415E204606F0CAF92663039F07E0064608980499415E204606F0C0F986
:2050E0002663002F20D007A80188089A0598009020462B4608F0DEFA00280DD4A80706D5C7
:20510000089800210A4608F033FC002804D4089800218161868807E0064608980499415E97
:20512000204606F09DF9266330B209B0F0BDC04615030920CCD8FFFFCCD8000080B506F0F4
:205140003DFF0249884200D1002080BDEDD8FFFFF0B581B00446406E7B49884220D15C2044
:20516000205C00281CD025465C35E06A002815D0A06A061D002704E02C367F1CE06A874204
:205180000CD230880028F7D001B2204606F080F9308801B2204606F063F9EDE70020287053
:2051A00001B0F0BD15030920F0B585B016460546406E654A904213D15C20285C002812D0B2
:2051C0001C4604AA284606F035F9002800D5B2E00499888BC2060AD45C48C41C2C63ACE0A9
:2051E0005A4C2C63A9E0594C18342C63A5E0C00704D08868421C00D1002088618B69086AC3
:20520000002806D128461F4605F030FF3B46049908620498818BCA070ED083685A1C00D187
:205220000023026A002A07D01F46138AD268D2183B46974200D8134689066FD4076A452184
:205240008A00114614398C4252DA0292002F23D0FA68934203930CD3398A51188B4208D8EB
:2052600019190191029B9B18143B01999942039B20D97978029B59436B6C1B695918143184
:205280003B8A06F009FF07460498016A284605F0EFFD039B002F53D4049928461F4605F04F
:2052A00078FE3B4604990862002803D0C360086A002101820498016A002930D0C8681F1A23
:2052C000487802994143686C00694018C019143031462246FCF768FC3A190498016A0B8A18
:2052E0009A4200D313460B8281690919816124E0002F13D079784A43696C0969891814316A
:2053000003933B8AFA6806F0C7FE07460498016A284605F0ADFD039B002F11D404983146EF
:205320001A46234606F0B8FE002804D404998A6912198A6100E028630446204605B0F0BDD5
:205340002F633C46F9E7C04615030920D8D8FFFFF0B581B004463C25294609F059FF0646D7
:205360002946FCF719FD064F7970E1200101204609F04EFF38707543601BB87001B0F0BD67
:2053800084190020F0B581B016460D46044603F0B7FCF188F0220A4000281ED0002A14D1E1
:2053A000E268002A11D1227A12070ED42A89338893420AD16A897388934206D10F220B46C6
:2053C0001340EF891740BB4230D001220B4613400BD1237A5B070DD512E0E068024301208A
:2053E000C0031043E06001B0F0BD277ABF0707D4002BEED00B061B0F18D0237ADB0715D047
:205400003388438073888380B388C380E3680026E660EE69C660194301816968498811408D
:20542000120289180180204603F0DAFC01B0F0BDF0B583B006460820305E810E41188D1149
:2054400000D1012529010A22B25E511ACA0F8918491002916901401AC10F401847100E4C81
:2054600060882188A288E3886B431BB200930B4B01936A4313B26943C91909B26843029A0C
:20548000801802B2304602F0E1FD0834024880308442E5D303B0F0BD66000108FFFF0000F9
:2054A00010B50C4C2078012806D0002807D109F0F7F9002806D010BDFEF720FE10BD002084
:2054C000207010BD0448002101702078401C207010BDC046EE0300201700002080B5054870
:2054E0000021017004F010FDFEF7F2FCFDF770FE80BDC046E803002070B5FFF7DFFB054646
:20550000FFF73EF90446FEF7C7FF254E3178032942D8C0467944097949008F44011224312E
:20552000002D3BD0002C39D0002837D001242046FFF7CAFB2046FFF729F92046FEF7B2FFFF
:205540000DE0002D03D0002C01D0002801D103213170022D22D1022C20D102281ED13078A0
:20556000401C307070BDFEF70FF8FDF7C3FF02F07BF9FDF7D5FFFEF71BF80320307070BD2A
:2055800000242046FEF78EFF2046FFF7FFF82046FFF79AFB347070BD0020307070BDC046F7
:2055A000EB030020F0B581B01E48016801220A4302601D48002101604160032399020522F6
:2055C000120714688C431460FF24250217490E68AE430E600D46643D2E6820273E432E6094
:2055E0000D46583D2E683E432E6005683D4305609B0315689D43156022060B6893430B6080
:205600000A46603A136880242343136054390A6822430A6001682143016001F07FF901B092
:20562000F0BDC04634100240801802406418024010B5054C0548606000F002FD0020A06067
:205640000720206010BDC04610E000E0FFF900000E490868401C08600D480268202010402E
:2056600002D009680B4A11600B490A88824201D10A4A108008800A480188084A12880280F0
:205680008A4308480188114301807047F80300201000005048030020F0030020F2030020CA
:2056A000F4030020200400200120C006014908607047C04608ED00E00E480168C90717D0EE
:2056C0000121C94301600C480168491E01600B480088000603D40A490020086006E00848ED
:2056E0000168491C016007480068401C054908607047C0461004004080190020BC04002008
:20570000EC0E00208004002080B505480168C90705D00121C943016002480068804780BDF6
:205720001010004050120020F0B583B00D46604C2178032913D88E0001A39B599F46C046EF
:20574000515700086757000887570008A7570008584800220270481C20700326A4E00020F2
:2057600020700326A0E00292002400940127514EFF233946324600F0A5F8002842D00326D4
:20578000052878D090E00292002700970221494EFF23324600F096F800284CD0224603262B
:2057A00005287CD080E00292002400940326414FFF2331463A4600F085F8002819D1797882
:2057C000BA78120251183C4A0A400A2353433A79FF782B800026364B1E703B04C918120645
:2057E0008A18364B1A600903890D32224A4302990A80052858D12C802D480470029804805B
:20580000264651E07178B27812025118F2781204891833791B06C918284B19600326310541
:2058200011407A05914202D03A0591421AD1204A1178491C1CE07178B278120252181F4BA7
:205840001A6003260A463240032A06D10907890F032917D12178491C1DE000212980029AC2
:20586000118017E000212980029A11800E46104A1170052818D12C800D48047002980480D1
:20588000264611E049000E4A515A2980BA49029A118000210E4622462170052804D12F8067
:2058A0001770029807803E46304603B0F0BDC046FA0D002023040020FF03000064040020E8
:2058C000A801010870B582B014460D4A0A2500950192C9000B4D6E18B288FF2B02D0D2B256
:2058E0001B02D218695A73881B045918FF239943069BC9182346FEF739FA02B070BDC0465D
:20590000F5EB0008E600010810B5122814D8C04678440079400087440911181B232A303382
:20592000363B4C72839DB1BAC5D7DF00012100200246FDF7D1FC10BD052010BD0120C10343
:2059400005200022FDF7C8FC10BDFDF773FC10BD83480088C82800D3C820FDF74BFC10BD45
:205960000120C20305200021FDF7B6FC10BD002001220146FDF7B0FC10BDFEF7D7FC10BDFC
:20598000FEF724FD10BD83488549FDF7D5FB10BD7249002008607D490A887A490978002AF1
:2059A0000A4600D002466E4B1B88002B4FD011464DE07848018873480278012082290146C4
:2059C00000D31146624B1B88734CA34200D811465D4A1368DA05920F00D001466C4A11708A
:2059E0000020590608D45E490988002904D067490988002900D092E00221117010BD57495A
:205A00000020086061490A885E490978002A0A4600D00122524B1B88002B18D0114616E08D
:205A20004E49002008604A490988574A9142024601D354490A7855490B880321002B0B46A3
:205A400000D01346464A1288002A00D01946504A117010BD3C480078400633D44048008859
:205A600064383E490A686432824200DC1046C21790433C4A904212DB104610E032480078DC
:205A800040061FD435480088FDF7B4FB10BD2F4800882F490988490801F06CFF2E490860C4
:205AA000002010BD2848006801062FD427490988274A12880A4327490988114326D0C005AE
:205AC000800F28D0002010BD29483449FDF74EFB264901220A7010BD1B4801680020224AF6
:205AE00011421CD121490A78012A18D1204802880020204B9A42034621D3184A12680323CE
:205B0000DB01543B9A420BDD012318E019200001FDF74AFB10BD10480088FDF745FB10BD19
:205B20000B4A1288144B9A4201D8002200E00122124B1B8810241C40634263411340087099
:205B40000F490B7010BDC0460C0E0020080E002046120020060E00204C0300209003002061
:205B60008E030020540B0000800002001C040020421200207117000088130000040E00208A
:205B80001E04002016000020082000000A040020180000203C1200203521000040120020C9
:205BA0003E12002010B505280BD8C046784400794000874402090D13191F012008F0FEFDE3
:205BC00009E00524204610BD012008F089FD02E0012008F0C9FD0024204610BD002420463F
:205BE00008F0C2FD204610BD0024204608F078FD204610BD0024204608F0E0FD204610BDFF
:205C000080B514484168090604D5014618390968090612D4416889060ED501461839096840
:205C2000890609D581680822114381600168114301600A480068804780BD816820220A435B
:205C40008260016810220A43026003480068804780BDC046183801404C12002048120020D2
:205C600070B50D4604464F48214603F0A5F90A480026E660206102202A5E288801B2204621
:205C800000F020F806202A5E0420295E204600F027F9F04370BDC04603000300704700000A
:205CA000B0B504460020C1433D4D284603F0C6F93C48214603F093F9284603F0B2F9B0BD84
:205CC00070477047F0B583B017460D4604468668304602F0BAFA0290304602F0B1FA1221A2
:205CE000625ED119814200DD871A39B20023002900DC1F4601931021615E4E19029B9E42D9
:205D000000DD5D1A3E46C01B2EB2002E00DC019D00B2029B5B1B1BB2994201DC824208DD55
:205D2000994200DB1946824200DB0246204600F0D7F8A8B2A189814203D1B8B2E189814290
:205D400004D0607E800703D4E781A58103B0F0BD00262046314603F0ADFF304600F030FC11
:205D6000E781A581F143204603F0A4FF03B0F0BD70B504460020C143094D284603F05EF964
:205D8000084E3046214603F02AF93046214603F013F9284603F045F9204600F005FD70BDBA
:205DA000E00500200C040020F0B58BB0044685694A482840A061A80507D56068C1680029F8
:205DC00029D0204688470BB0F0BD280439D510200A90205E09900E200790205E05900C2707
:205DE000E05F049012200890265EA56803F012FC0096019028460499059A099B02F026F9EE
:205E0000002003F013FC00281BD00546012046020697049630E0280413D51020235E0E205F
:205E2000225E0C20215E1220265EA068E78A0096019702F00BF9E80103D4606801690029C9
:205E4000BFD10BB0F0BD89B2039105998AB209998FB202998BB2E98A1BB2009301910399E5
:205E600009B212B23BB202F0F1F8069F284603F0DDFB05460028E4D0A8693042F6D0A8687D
:205E8000A1688842F2D1E35F0A99615ECA18E95F8A42EBDD079FE65F089AA25E0396921939
:205EA0000992049EEF5F0597099ABA42069FDDDD0A9AAA5E099252189A42D7DB089AAB5ED3
:205EC000059A02939A18039B9A42CFDB6A68D768002FB8D02846B847C7E7C046FF3FFFFE94
:205EE000F0B581B016460D4604468768384602F0ACF90C21615E4A19824200DD451A28B2A6
:205F000003210091032800DC009D384602F098F90E21615E8A19824200DD461A30B2032888
:205F200000DC009E36B2A9B2208A884203D1B1B2628A8A4205D02FB2617E890703D466825D
:205F4000278201B0F0BD00B2874203DB1220205E86420FDA00252046294603F0ABFE28467C
:205F600000F02EFB66822782E943204603F0A2FE01B0F0BD66822782204600F015FC01B04B
:205F8000F0BD000001200004014908607047C04680E200E0012040060F490860BFF34F8FC7
:205FA000BFF36F8F7047C046012080060A490860BFF34F8FBFF36F8F7047C046002809D410
:205FC0001F2108400121814003480160BFF34F8FBFF36F8F7047C04680E100E00120000645
:205FE000124908607047C046012000040F4908607047C0460120C0050C4908607047C0461F
:20600000002805D41F21084001218140074801607047C0460120C006044908607047C0464E
:2060200001204004014908607047C04600E100E001200004014908607047C04600E200E075
:20604000FF20000603490A6882430320800710180860704720ED00E012480168C0220A43C8
:206060003F218A430260704714480168C0220A433F218A4302607047FF20000603490A68BD
:2060800082430120C00710180860704714E400E0FF20000603490A688243012080071018BC
:2060A0000860704718E400E0FF20000203490A6882430120C00310180860704710E400E042
:2060C00010B5C74C2168814200D010BD6720002102F042FB206010BD10B511484088C0072E
:2060E00003D10F48002102F059FB7D20C00002F0DFFF6720002102F045FB00280BD00446BA
:206100000021204601F072FE6720214602F03AFB04460028F4D120480121017010BDC0467D
:2061200028FF0008B0B504460020E08362772377616125462035284602F025FF284602F025
:2061400012FF204602F086F90446284602F018FF2046B0BDB0B582B004460820235E0A200F
:20616000205E00900025204629462A4602F070F82046294601F03AFE07480078002802D18D
:206180002046FFF755F996480168002901D002B0B0BD046002B0B0BD3C05002010B5054CFB
:2061A0002068002804D002F041FB20680028FAD110BDC0467804002080B5024802F0E3FEF1
:2061C00080BDC04640050020B0B582B00446002001906248007800280BD06148056801A8A1
:2061E000411B204618302A1DFBF7DEFC6519B8350AE0A06820185A490968401A051F0A1D34
:2062000001A92846FBF7D0FC6069019001A8281A5149096800290DD16169803101914D49AE
:206220000968002912D102B0B0BD019A121D01924908F1D0CA07F8D0019A13681B181360FE
:20624000F3E7019A121D01924908ECD0CA07F8D0019A13681B181360F3E7C04680B582B05E
:206260003B48006801A901600830FBF7B2FF02B080BDC04610B5364C2068A8302060FFF73B
:20628000EDFF2068A838206010BDC046F0B5D9B07D482E4941612E4C04A82060FFF7EAFFC6
:2062A000FFF7DCFF2B48002101602B4801602668A8203058326803900292824201D30846BF
:2062C00000E00120254A10700398029A141A2920C043A8360836870015460194009707E00C
:2062E00002461546019C009F361D491C28291FD0F2593368D21AA242F6D128462029164A33
:2063000000D3144AF31914680F46203F0D4600D33D460127AF403C4314601A68039B029C9F
:20632000A34202D99042DBD9DBE79042D8D2D8E70748006800680399029A914201D8281AD5
:2063400000E0401B0649086059B0F0BD180E0020E80E0020000E0020FC0D00206C1900203D
:2063600068190020B0B515460C464069FBF731FF002800D0B0BD002D10D0204618306061BE
:20638000FBF727FF002806D040480068C1680069884702F0D5FE2046FFF716FF6069012175
:2063A000FBF72EFF80B500F007F880BD80B500F009F880BD7047000080B51C4802F008FFB1
:2063C00080BDC04680B502200449085E002804D403480168014802F0E1F980BD88FF0008DB
:2063E0007803002010B582B0C16141684B881B0703D5038A20241C4304828B6A1146984792
:2064000000280ED0094802F0EAFEFF24002809D1192000900022D3430448054902F0F6FEA5
:2064200000E0002460B202B010BDC046980300209142000880B5018A04220A430282FDF780
:206440009BF980BD80B50120C102024802F0E6FC80BDC046E805002080B5FFF7F3FF00F0D7
:2064600001F880BD10B5FDF74FFF074C18200021022206C420606160A160083CFFF706FFC4
:206480000248046010BDC046B80E00201804002010B5074800210124224602F0BFFD05489C
:2064A00002F071FD204602F05DFD0349086010BDBC220020D40E00207C190020B0B582B0FD
:2064C0001D461446432292020092224600F08CF9002813D0E168002900D10A490162216909
:2064E000002900D16969416261698162A169002901D105490968C16202B0B0BD002002B0A8
:20650000B0BDC046301501080800002010B5044601200102A06902468A43A261810406D5DE
:20652000212109028843A061206A02F0C1FC204602F0C4FB10BD0000B0B5094C204602F013
:2065400029FC0849002520462A4602F031FCE84302F032FE01460322204602F073FBB0BDBF
:20656000800500202593000880B5417E890702D5426A816A904780BD80B500F07BF980BDDA
:2065800070B500281BD00E4604460025294603F091FB304600F014F8D24800680068C1688D
:2065A0002046884760688168002901D020468847A069A561C00402D5204602F079FC70BD22
:2065C000F0B583B00646814C2078002800D1BEE0012E07D0002E0CD10020C143BD4802F06F
:2065E0002DFD06E0BB48002102F028FD002800D1ADE02078C007019651D12078800700D4BF
:20660000A0E02120440204E070480078800700D498E06E4A1078FD2101401170002003F059
:2066200005F80028F0D0054605E0284602F0FEFF05460028E8D0A8692040A042F5D1102074
:206640002B5E0E202A5E0C20295E12202E5EA868009601F0FDFDA348006800680169284666
:206660008847AE68304601F0F0FD0746304601F0E7FD009000213046019E0A463B4601F0C1
:20668000E7FD012ED1D104E0054680692040A04250D0284602F0CAFF0028F5D152E0212041
:2066A000470203E0494C2078C007A6D02078FE2101402170002002F0B9FF0028F2D00546BC
:2066C00005E0284602F0B2FF05460028EAD0A8693840012291038842F3D110202B5E0E20E2
:2066E00002922A5E0C20295E12202E5EA868009601F0AEFD7B480068006801692846884791
:20670000AE68304601F0A1FD3C460746304601F097FD009000213046019E0A463B46274690
:2067200001F096FD029A012ECBD1284908781043087004E0254A1078022101431170674840
:2067400002F052FD012E02D8624802F06AFC03B0F0BDC04680B500F0A3F8FFF7EDFE80BDA9
:20676000F0B581B00C4605460E48002102F0E0FA002814D006460B4F06E03846314602F0E4
:20678000D7FA064600280AD0304602F0B9FA0028F3D045600480304602F022FBEDE701B0A1
:2067A000F0BDC046BD64000880B581698A050BD501229203114381610448017802220A434B
:2067C0000270464802F010FD80BDC046CB03002080B5444A1268126892689047002801D008
:2067E0000020C04380BDC046F0B581B01E460746069D002902D00C468D610BE00092706879
:2068000002F014FB00282AD00446012000030543A561009A6660A76013480088A0821348D2
:206820000088E08212480068E0617168212906D32046203020391546FBF71EFA2A46204625
:206840001146FFF7C5FF002801D0254608E0607E0025C00604D5204602F02AFB00E00025B7
:20686000284601B0F0BDC04604000020700400207404002080B5002002F0D8FE002806D0DB
:2068800002F05CFE002002F0D1FE0028F8D115480068006840688047104802F099FC80BD22
:2068A00010B582B00B4801210A4602F0B7FB0A4802F07EFB094C204602F08EFC0022D3434C
:2068C00000930749204602F0A1FC06480649016002B010BDE00500200C040020CC0300203F
:2068E0008D44000814040020C4FF0008FEE7704707480168C904890FFBD101680906FCD4EF
:206900000120C104034A1160034908707047C04608300140180C005060120020F0B581B0FD
:206920000225002428462146FDF7CEFC012630462146FDF7C9FC042738462146FDF7C4FCF8
:2069400028463146FDF7C0FC30463146FDF7BCFC38463146FDF7B8FC28462146FDF7B4FCF3
:2069600030462146FDF7B0FC38462146FDF7ACFC01B0F0BDF0B587B0724801680F22114337
:2069800006920160704F0720B86138686F4901403960900179680143796055204003B96865
:2069A0000143B960FF2001063A6A8A433A623321029149063B6A0B433B62796A8143024692
:2069C00001907962662179620325AC020594BB682343BB6005210E0704913368A3433360F2
:2069E000AB0334689C433460EB06B361EB02039574681C43746006988305B4689C43B4600C
:206A0000CB05B4681C43B4601303746A9C43746202984203736A134373622A033368134369
:206A20003360012002904203336893433360484988610A68019802430A600868AA22904384
:206A40000860386805990843C02101910843386011200590C0013968814339603F20850185
:206A6000B8682843B8600024204607F039FE204607F0A4FE3868A84338603068354A104032
:206A800030601521C8013B6803433B603B6A324803403B623B6A3B62521C336813433360B0
:206AA0002B4C2268019B9A43226022684023134323600822A2613A68284B13403B60C90615
:206AC0003A680A433A60796A254A0A407A62796A7962049B99053A680A433A604035BD619E
:206AE000029DE906B961039C210432688A433260290432680A4332601A490A6802400A600A
:206B000006988004316881433160D8043168014331602005F1680143F160F1688143F1609A
:206B2000A004B1688143B160B1680143B160706AF0218843706205980001716A014371623D
:206B400007B0F0BD3410024000040050D5FFDFFF000C0050FFFFFF3FFF0FFFFFFFFF3F0064
:206B6000FFFF0F0000080050F0B53A48436881688B4206D10120400239490A8802430A800B
:206B8000F0BD026941690C46144314D16424324D324E03E0361D2D1D641E0AD03768002F74
:206BA00001D07F1E37602F68002FF3D07F1E2F60F0E75B1E4360002A17D1012915D164237F
:206BC000254C264D03E02D1D241D5B1E0AD02E68002E01D0761C2E602668002EF3D0761C4A
:206BE0002660F0E743685B1E4360012A17D1012915D16423184C194D03E02D1D241D5B1E16
:206C00000AD02E68002E01D0761C2E602668002EF3D0761C2660F0E743685B1C4360012A87
:206C200017D1002915D164210B4A0C4B03E01B1D121D491E0AD01C68002C01D0641E1C6022
:206C40001468002CF3D0641E1460F0E74168491C4160F0BD1812002088100020F80E002078
:206C6000BC04002010B50748FDF756FB002807D0044C02F01DF92046FDF74EFB0028F8D1F0
:206C800010BDC04668040020F0B587B06C46204603F03CF8FF2020720E4E01960E480390ED
:206CA0000E480090954F386800252946224602F04BFC0B49086001965948039009480090CD
:206CC00038682946224602F03FFC0749086007B0F0BDC04664001E006C1501080A001801BF
:206CE00048050020820018014C050020F0B587B06C46204603F00AF8FF2020723E4E01965E
:206D00003E4803903E4800903E4F386800252946224602F02DFC3C49086001963BA003900E
:206D20003D48009038682946224602F021FC3B49086001963A4803903A48009038682946FF
:206D4000224602F015FC38490860019637A003903848009038682946224602F009FC3649E1
:206D600008600196354803903548009038682946224602F0FDFB33490860019632A00390B6
:206D80003448009038682946224602F0F1FB324908600196314803903148009038682946F4
:206DA000224602F0E5FB2F49086001962EA003903148009038682946224602F0D9FB2F4903
:206DC00008600196254803902D48009038682946224602F0CDFB2B49086001962AA00390AE
:206DE0002D48009038682946224602F0C1FB2B49086007B0F0BDC0466E001400441501083F
