:020000040800F2
:20000000800E0020890100089101000893010008000000000000000000000000000000006A
:20002000000000000000000000000000950100080000000000000000970100084D06000827
:200040009B010008000000009B0100089B0100089B0100089B0100089B0100089B01000824
:20006000000000009B0100089B0100089B0100089B0100089B0100089B01000800000000A8
:200080009B0100089B0100089B0100089B0100089B0100089B0100089B0100089B01000840
:2000A0009B0100089B0100089B0100089B0100089B0100089B01000800F002F800F039F85D
:2000C0000CA030C8083824182D18671EA246AB4654465D46AC4201D100F02BF87E460F3E3C
:2000E000B6460FCC0126334200D0FB1A3343A246AB46184724120000341200000023002437
:2001000000250026103A01D378C1FBD8520700D330C100D50B6070471FB50098019900F060
:20012000CAF900F009F91FBD10B5002000F061F910BD00F083F91146FFF7EEFF00F0FCFDA3
:2001400000F013FA03B4FFF7EFFF03BC00F0F2FD70B505460C46164602E00FCC0FC5103E6C
:20016000102EFAD2082E02D303CC03C5083E042E07D301CC01C5361F03E021782970641C04
:200180006D1C761EF9D270BD0748804707480047FEE7FEE7FEE7FEE7FEE7FEE704480549A6
:2001A000054A064B7047000061060008B900000880080020800E0020800A0020800A00200E
:2001C000704710B50B460146184600F0C8F810BD0346F0B50B439B072DD1244DEF01042AC5
:2001E00029D308C810C95E1B9E43121F3E4017D0D8B2E1B2401A3106014310D198B2A1B2FA
:20020000401A310401430AD118022102000A090A401A3102014302D1180E210E401AF0BDD6
:20022000A342DCD018BA21BA884201D90120F0BD0020C043F0BD002A01D10020F0BD0378FA
:200240000C78401C491C002B0DD0A3420BD1521E09D003780C78401C491C002B03D0A342A4
:2002600001D1521EEBD1181BF0BD000001010101F8B5042A2CD3830712D00B78491C0370FB
:20028000401C521E83070BD00B78491C0370401C521E830704D00B78491C0370401C521E81
:2002A0008B079B0F05D0C91ADF002023DE1B08C90AE0FFF74DFFF8BD1D4608C9FD401C46AA
:2002C000B4402C4310C0121F042AF5D2F308C91A521EF0D40B78491C0370401C521EEAD4CE
:2002E0000B78491C0370401C012AE4D409780170F8BD01E004C0091F0429FBD28B0701D58E
:200300000280801CC90700D00270704700290BD0C30702D00270401C491E022904D3830795
:2003200002D50280801C891EE3E70022EEE70022DFE770477047704770B5064C7C44064DC9
:200340007D4404E02046016808188047241DAC42F8D170BDE80F0000E80F00007047F8B5CB
:20036000074615460E46102000F012F8040009D06760A660E56000F007F80168216004602B
:200380000020F8BD0120F8BD004870473800002070B5064600F072F8056830460B30C408A6
:2003A000E400B44201D8002070BD68682A46002818D00168A14211D30B46214608318B42FF
:2003C00008D3436801194B6003681B1B0B605160046001E041685160001D70BD024640683C
:2003E0000028E6D12146284600F050F80028DCD170BDF8B50646FFF7C7FF0090054615E08A
:20040000002E02D0E068B0420FD1206828600098A168076860688847204600F080F80098A5
:200420000068B84202D00098E8E725462C68002CE6D1F8BD00487047000000207546FFF7BA
:20044000F9FFAE46050069465346C008C000854618B020B5FFF7A2FE60BCB6460026002778
:20046000C0C5C0C5C0C5C0C5C0C5C0C5C0C5C0C5403D490849008D467047000000487047B4
:2004800008000020704770477047704738B504460A4600206946C046C046002805D00246B1
:2004A0002046009900F069F8012038BD10B5012000F083F810BDF8B5C046C0460546002094
:2004C0000C461020C0460646A819A0420DD9324669460020C046C046070001D100F06DF83E
:2004E0000098A04200D00546C419FFF7C7FFF61D07460560F008C0004619284600F008F894
:20050000B44204D031463868A21B00F036F8F8BD002101604160806070471020704770B5A4
:200520000446051FFFF7AAFF0068002C1AD0446801E020466468002C01D0AC42F9D3016851
:200540000A18AA4204D12A6805468918016000E0456028684119A14205D161686960216896
:200560004018286070BD6C6070BD10B50446C046C0462046FFF7E6FD10BD10B50346406898
:2005800001E003464068002801D08842F9D31868C3188B4206D0CB1CD808C000001D411AFD
:2005A000521A0146081D0A60FFF7B9FF10BD10B5002801D000F0BEFB10BD10B500F01EF87F
:2005C000FFF7F5FF10BD70B505460C460A2000E06D1C00F0B0FB002D06D028780028F7D1E1
:2005E00002E0641C00F0A7FB002C02D020780028F7D10A2000F09FFB70BD000010B50128B2
:2006000005D0002103A0FFF7DEFF012010BD09A1F8E7000053494752544D454D3A204F7571
:2006200074206F662068656170206D656D6F7279000000003A2048656170206D656D6F72C2
:200640007920636F727275707465640080B503480168491C016000F0FBFA80BD78080020B8
:200660000120C0060F4908607047C04680B500F04FFB80BD80B50120800208490A6882430A
:200680000A60EFF3108072B605484168026882F30888044A1060884780BDC04614040050B9
:2006A0000018000808ED00E0F0B584B0009101900292D3075DD1012005042F4B1E1F37682E
:2006C0002F42FBD137687F03FCD41F68002F05D519460C39294F0F60294F0F6037682949D9
:2006E0000F4337601F68022427431F603F27FF0001990A0A3A4039461F688F43BF181F60C0
:200700001F682F431F6037682F42FCD137681D490F4337601F68A7431F6003A900270F8044
:200720000F88029A974220D21F6807431F6003AF3C880722944300990A1952680C593F8853
:2007400001997C507C18626032682A42FCD13268024332601A6882431A60039A083203AC52
:2007600022802288029CA242DED3C00719680143196004B0F0BDC046142002402301674548
:20078000AB89EFCDFB83000010B5054C0548606000F00AF80020A0600720206010BDC0463C
:2007A00010E000E07F3E0000FF20000603490A6882430320800710180860704720ED00E026
:2007C00070B5002917D00D4D00220D4B03E0521C8A4225460BD0845C6C40082502E0344698
:2007E0006D1EF4D06608E407F9D05E40F7E7E04300BA000C70BD002070BDC046FFFF0000A5
:200800000884000009480168032211430160100507490A6882430A60012002050B681343C1
:200820000B6080024A6982434A6170473410024000040050F0B5B5B0009316460D4607467E
:2008400009ACB0212046FFF772FD80213846224600F0C2F8012E08D0002E4BD109A90A22E7
:20086000284600F069F835B0F0BD009E002E41D00020089007900690059028786978090244
:200880000818A978EA78120251180904081801902879697909020818A979EA7912025118CA
:2008A000090408180290287A697A09020818A97AEA7A12025118090408180390287B697B7E
:2008C00009020818A97BEA7B1202511809040818049009A90A22284600F02EF81024284622
:2008E00031462246234600F067F801A930462246FFF7BEFC35B0F0BD10B581B003796A4675
:20090000537003781370037A9370037BD37001235C1A03231C40145D04710224641A1C40D3
:20092000145D04725C1A1C40145D047349421940515C017001B010BDF0B581B016460C4612
:20094000054610010918284600F016F8022E08D3761EF7B238012118284600F0E7F8012F87
:20096000F6D80020215C2A5C4A402A54401C1028F8D101B0F0BD000010B5044600200A5C2E
:20098000235C53402354401C1028F8D1601C0121FFF7B2FFA01C0221FFF7AEFFE01C03218A
:2009A000FFF7AAFF0020A949225C8A5C2254401C1028F9D110BDC04610B5884200D81346BB
:2009C000002B08D00A780478544004705B1E401C491C002BF6D110BDF0B589B01346079245
:2009E0000D460146EA081846FFF742FC68090190C1B288001C30C0B20490059188426DD9E4
:200A000000200390059C019F3B463CE008AD284602961E4600F06CF86878314B185C68702A
:200A2000A878185CA870E878185CE870039AD0B22CA1085C2978595C414029700198361837
:200A40003546029E521C03920598201A8000079B195C18184278120251188278C07800026F
:200A60008018000440180899414006981954080CB070080EF070080A70707F1CFCB20498D4
:200A8000A0422B462AD9A50007982E18301F01784278120251188278C078000280180004A7
:200AA00040180890D8B2F9B281420695AED005981D460828C8D1072020400428C4D108A874
:200AC0000178074A515C01704178515C41708178515C8170C178515CC170B5E709B0F0BD67
:200AE0001611000801020408102040801B3600000178427802708278C37883704270C170C7
:200B0000704770B500231C4645B2ED09154046006E4001250D406D4205406B40651C49085A
:200B2000072C30462C46EFD3D8B270BDF0B58FB00024025D0B5D53400BAA1355641C102CE6
:200B4000F7D1029000260BA88119CD788A780A9213466B400093805D4A7807920146044685
:200B600008905140019108465840C1B209201B273A460397FFF7C5FF069020460A994840FB
:200B8000C1B2042420463A46FFF7BBFF099007986840C1B220463A46FFF7B3FF044606985B
:200BA000444027466F4008984540E9B202200590039D2A46FFF7A5FF7840029989190491EA
:200BC000C870099F06994F4009970A9847400098C1B205982A46FFF794FF78400499887050
:200BE00007994C400A984140C9B2059D2846039F3A46FFF786FF6040049948700898099C44
:200C000044400198C1B228463A46FFF77AFF604002998855361D102E95D1029C601C01219C
:200C2000FFF76AFEA01C0221FFF766FEE01C0321FFF762FE0020054923461A5C8A5C1A5406
:200C4000401C1028F9D10FB0F0BDC046161200082D480168491C01607047C046B0B52A495B
:200C60000A680C4BD2180F4B1C68A4060CD40C689442F9D91C6800220121A40706D55C682B
:200C8000022525435D6001E09A68002102700846B0BDC0468813000002490A685206FCD550
:200CA000C86070471C38014070B501468C4803680122134303600F239B04052425072E687D
:200CC0009E432E60E3042E681E432E6011231B016E6A1E436E629203C3681343C360064859
:200CE00000F016F90549C8602003886008680D2202430A6070BDC0460024F4000038014062
:200D0000014900220A607047600000207047000010B5054C2046FFF7F3FF0448044A2146AA
:200D2000FFF74FFA10BDC046760800200D0D000800000008FEE770478AB0FFF791FCFFF78A
:200D400023FD67480168012739430160FFF75AFDB902644A1068019108431060624C63A129
:200D60000E222046FFF734FA4542454100280AD105A90020887388810790069005900F22E4
:200D80002046FFF791FC4B200002FFF78DFFF8020290812000010490039707E0BA20FFF768
:200DA0007BFFC220FFF778FF039F3D4609A800260670FFF753FF002803D0E807F6D1FFF709
:200DC00059FC01208002474A11688143116009A80078BA283D46E9D109A8FFF73FFF002887
:200DE0003D46E3D109A80078FB2801D1FFF742FC09A80078BF283D46D8D1404D28464049AA
:200E0000FFF795FA0498871C03E07F1E6D1C002F16D0F00714D12846FFF720FF0028BDD1DB
:200E20002878BA28F1D105AC002020702046FFF715FF21784A1E91410E4306430028E4D054
:200E4000F007ABD1049D2D4E705B000404BA029910313046FFF7B4FC84429FD10024089488
:200E6000079406940594274F3119012205AB3846FFF7E0FC1034A4B2AC42F5D33488002095
:200E80003080B01C02990E31FFF79AFC210409BAC22581421BD1F078B178090208181A49D3
:200EA000884214D10F4A1068019908431060706800BA3B21C9028842039F09D813494018A3
:200EC00010363146029AFFF7EFFBC12500E0039FBA20FFF7E1FE2846FFF7DEFE3D4665E7B3
:200EE0003410024014040050F0FF01087A6572644067656E657261746F72000064000020CC
:200F00001208000006110008717A00000018000843088B421AD3002203098B4279D3030A34
:200F20008B425ED3030B8B4242D3030C8B4227D30902FF2212BA030C8B4202D31212090215
:200F400003D0030B8B4233D31AE0D3E0411A8041401C704703460B4371D443088B42F5D345
:200F6000002203098B4254D3030A8B4239D3030B8B421DD3030C8B4202D394466EE0090AB2
:200F8000C30B8B4201D3CB03C01A5241830B8B4201D38B03C01A5241430B8B4201D34B0340
:200FA000C01A5241030B8B4201D30B03C01A5241C30A8B4201D3CB02C01A5241830A8B4298
:200FC00001D38B02C01A5241430A8B4201D34B02C01A5241030A8B4201D30B02C01A524173
:200FE000CDD2C3098B4201D3CB01C01A524183098B4201D38B01C01A524143098B4201D399
:201000004B01C01A524103098B4201D30B01C01A5241C3088B4201D3CB00C01A52418308C2
:201020008B4201D38B00C01A524143088B4201D34B00C01A5241411A524110007047CA0FE5
:2010400000D04942031000D34042534000229C4603098B422DD3030A8B4212D38901FC22F6
:2010600012BA030A8B420CD3890192118B4208D3890192118B4204D3890137D0921100E031
:201080008909C3098B4201D3CB01C01A524183098B4201D38B01C01A524143098B4201D305
:2010A0004B01C01A524103098B4201D30B01C01A5241C3088B4201D3CB00C01A5241830822
:2010C0008B4201D38B00C01A5241D9D243088B4201D34B00C01A5241411A00D20146524121
:2010E000104663465B1000D34042704763465B1000D3404201B50021004201D0C9430846CD
:20110000C046C04602BDC878EA3C37AA588C8C1CE15D66A8B0BD637C777BF26B6FC53001E5
:20112000672BFED7AB76CA82C97DFA5947F0ADD4A2AF9CA472C0B7FD9326363FF7CC34A549
:20114000E5F171D8311504C723C31896059A071280E2EB27B27509832C1A1B6E5AA0523B96
:20116000D6B329E32F8453D100ED20FCB15B6ACBBE394A4C58CFD0EFAAFB434D338545F91B
:20118000027F503C9FA851A3408F929D38F5BCB6DA2110FFF3D2CD0C13EC5F974417C4A707
:2011A0007E3D645D197360814FDC222A908846EEB814DE5E0BDBE0323A0A4906245CC2D3DB
:2011C000AC629195E479E7C8376D8DD54EA96C56F4EA657AAE08BA78252E1CA6B4C6E8DD17
:2011E000741F4BBD8B8A703EB5664803F60E613557B986C11D9EE1F8981169D98E949B1EE0
:2012000087E9CE5528DF8CA1890DBFE6426841992D0FB054BB1652096AD53036A538BF405B
:20122000A39E81F3D7FB7CE339829B2FFF87348E4344C4DEE9CB547B9432A6C2233DEE4C87
:20124000950B42FAC34E082EA16628D924B2765BA2496D8BD12572F8F66486689816D4A40B
:201260005CCC5D65B6926C704850FDEDB9DA5E154657A78D9D8490D8AB008CBCD30AF7E4D3
:201280005805B8B34506D02C1E8FCA3F0F02C1AFBD0301138A6B3A9111414F67DCEA97F21D
:2012A000CFCEF0B4E67396AC7422E7AD3585E2F937E81C75DF6E47F11A711D29C5896FB719
:2012C000620EAA18BE1BFC563E4BC6D279209ADBC0FE78CD5AF41FDDA8338807C731B11210
:2012E00010592780EC5F60517FA919B54A0D2DE57A9F93C99CEFA0E03B4DAE2AF5B0C8EB4B
:20130000BB3C83539961172B047EBA77D626E169146355210C7D00002C13000800000020EE
:0C132000800E0000FC00000845F3FFFFF9
:2018000088360020B5190008BD190008BF1900080000000000000000000000000000000056
:20182000000000000000000000000000C11900080000000000000000C3190008915A0008EF
:20184000C719000800000000C7190008C7190008C7190008C7190008C7190008D136000809
:2018600000000000C7190008C7190008C7190008C7190008C7190008C719000800000000F8
:20188000315B0008815B0008C7190008C7190008C7190008C7190008C7190008953C00086F
:2018A000F53D0008C7190008C7190008CD6000082D610008C719000800F002F800F04FF84A
:2018C0000CA030C8083824182D18671EA246AB4654465D46AC4201D100F041F87E460F3E0E
:2018E000B6460FCC0126334200D0FB1A3343A246AB461847FCFF00001C000100103A02D3AB
:2019000078C878C1FAD8520701D330C830C101D504680C607047000000230024002500266F
:20192000103A01D378C1FBD8520700D330C100D50B60704710B5642902D100F059F810BD36
:20194000002010BD1FB501F029FB0400002000210EF08AFB401C60601FBD10B510BD01F06E
:20196000CBFA1146FFF7EEFF09F0E6F901F0ECFA03B4FFF7F2FF03BC05F0B2FA70B505464B
:201980000C46164602E00FCC0FC5103E102EFAD2082E02D303CC03C5083E042E07D301CCEF
:2019A00001C5361F03E021782970641C6D1C761EF9D270BD0748804707480047FEE7FEE7EC
:2019C000FEE7FEE7FEE7FEE704480549054A064B70470000215B0008B91800088824002059
:2019E00088360020882600208826002070470000F7B5002575291068009914A611D0C04695
:201A0000C046002802DA404211A608E0009909688A0701D50FA602E0490704D50EA6012590
:201A200001E0C046C046009F0024243704E001F007F830313955641C0028F8D12B4632467E
:201A40002146009800F02DFCFEBD0000000000002D0000002B000000200000000FB400B5C3
:201A60008DB010A909900B900020C04300910A9000200C90074878440690074878446A46D6
:201A800007900F9909A800F029FE0DB008BC04B018470000870C0000A10C00000EB504465E
:201AA00015460E4612A000F0C1FF204600F0BEFF15A000F0BBFF304600F0B8FF14A000F0E2
:201AC000B5FF6C460020E0720A20A0720A3407E00A21284600F0D4F930310546641E2170B8
:201AE000002DF5DC204600F0A1FF00F095FF00002A2A2A20617373657274696F6E20666111
:201B0000696C65643A2000002C2066696C6520002C206C696E652000401ECAB24178401CBE
:201B20008A4202D00029F9D100207047034670B502460B439B070FD10E4CE60100E008C2CC
:201B400008C91D1B9D433542F9D0D9B21170521C00290DD01B0AF8E70B78491C1370521CFF
:201B6000002B05D00B78491C1370521C002BF3D170BD00000101010130B5441C03E00178CB
:201B8000401C00290DD08107F9D10B4BDD0104C8D11A91432940FAD0001B0A0603D0C01EC3
:201BA00030BD001B30BD0A0401D0801E30BD0902FCD0401E30BD0000010101010346F0B5B2
:201BC0000B439B072DD1244DEF01042A29D308C810C95E1B9E43121F3E4017D0D8B2E1B2D6
:201BE000401A3106014310D198B2A1B2401A310401430AD118022102000A090A401A3102FD
:201C0000014302D1180E210E401AF0BDA342DCD018BA21BA884201D90120F0BD0020C0437E
:201C2000F0BD002A01D10020F0BD03780C78401C491C002B0DD0A3420BD1521E09D00378E1
:201C40000C78401C491C002B03D0A34201D1521EEBD1181BF0BD000001010101421E53784F
:201C6000521C002BFBD10B78491C1370521C002BF9D17047F8B5042A2CD3830712D00B78B1
:201C8000491C0370401C521E83070BD00B78491C0370401C521E830704D00B78491C03705B
:201CA000401C521E8B079B0F05D0C91ADF002023DE1B08C90AE0FFF761FEF8BD1D4608C950
:201CC000FD401C46B4402C4310C0121F042AF5D2F308C91A521EF0D40B78491C0370401C43
:201CE000521EEAD40B78491C0370401C012AE4D409780170F8BDD2B210B513029A1813044E
:201D00009A1800F00EF810BD01E004C0091F0429FBD28B0701D50280801CC90700D00270EF
:201D2000704700290BD0C30702D00270401C491E022904D3830702D50280801C891EE3E725
:201D40000022EEE70022DFE7F8B507460B4639461943890713D1164CE601042A0FD302CBE4
:201D60000D1B8D43354202D102C0121FF5E7CBB20370401C521E002B13D0090AF7E7002A6D
:201D800014D01978521E5B1C0170401C002908D0002A0BD01978521E5B1C0170401C0029A6
:201DA000EDD1002A02D01146FFF7CAFF3846F8BD0101010182078B079A423FD170B5920F4F
:201DC0000AD0032402780B78401C491C002A33D09A4231D12042F5D1214EF40104C808C910
:201DE000951B9543254018D19A420FD104C808C9951B9543254010D19A4207D104C808C995
:201E0000951B9543254008D19A42E7D012BA1BBA01209A4200D2404270BD12BA1BBA2DBAC2
:201E200018241000E0401900E140401A05D12E00E64002D1083CF4D1D01A70BD02780B7888
:201E4000401C491C002A09D09A4207D102780B78401C491C002A01D09A42EFD0D01A704715
:201E600001010101002203098B4273D3030A8B4258D3030B8B423CD3030C8B4221D312E06C
:201E800003460B437FD4002243088B4274D303098B425FD3030A8B4244D3030B8B4228D305
:201EA000030C8B420DD30902FF2212BA030C8B4202D31212090265D0030B8B4219D300E0B2
:201EC000090AC30B8B4201D3CB03C01A5241830B8B4201D38B03C01A5241430B8B4201D32C
:201EE0004B03C01A5241030B8B4201D30B03C01A5241C30A8B4201D3CB02C01A5241830AC8
:201F00008B4201D38B02C01A5241430A8B4201D34B02C01A5241030A8B4201D30B02C01AE9
:201F20005241CDD2C3098B4201D3CB01C01A524183098B4201D38B01C01A524143098B428A
:201F400001D34B01C01A524103098B4201D30B01C01A5241C3088B4201D3CB00C01A52412A
:201F600083088B4201D38B00C01A524143088B4201D34B00C01A5241411A00D20146524192
:201F8000104670475DE0CA0F00D04942031000D3404253409C46002203098B422DD3030ADE
:201FA0008B4212D38901FC2212BA030A8B420CD3890192118B4208D3890192118B4204D39C
:201FC00089013AD0921100E08909C3098B4201D3CB01C01A524183098B4201D38B01C01A1F
:201FE000524143098B4201D34B01C01A524103098B4201D30B01C01A5241C3088B4201D316
:20200000CB00C01A524183088B4201D38B00C01A5241D9D243088B4201D34B00C01A524115
:20202000411A00D201465241104663465B1001D34042002B00D54942704763465B1000D3B0
:20204000404201B50020C046C04602BD7047704770470000F0B5FF252D04C609C209FF277E
:2020600004462E400137CB093E4348402A402B400746002A6BD0002B69D0AA4267D0AB4298
:2020800065D0002800DA32460125ED0529432C4309022002090AD21A4B0C7F24E31A434CEC
:2020A000000A7C44E35C7D242404121914145B00A218884201D3521C00E0400049420C46DD
:2020C0005C4324115C43DB016415E318040A5C43C502200D0C4644436419250A5D43230351
:2020E000EC0C0D46654300030019EB184C42A34201D35B18401CD4052018002B07D05B004A
:20210000C91804D3401C002901D1400840003F2189048A4209D3002A08DC1106090F04D082
:20212000032149074018C00FC007F0BD01224100120689187F2252069142F6D20521490769
:20214000C84201D59010F0BDFF20C005F0BD002F00DA32461648AA4207D2AB4205D219023E
:20216000090E17D0F80FC007F0BDFF2563002D06AB42F9D84900A942F6D8AB4201D1A942C2
:20218000F2D0A94201D1002101E061004908D0050843F0BD1102090EFBD0FF200243D00511
:2021A000F0BD0A460146104654E700009EE000000000C07F0102C21504D00123DB0719437D
:2021C000002A0ADB9E239A1A02D40846D0407047FF2241001206914201D900207047C017BB
:2021E000C04370471F22030C02D10F2200041CD0030E01D10002083A030F01D10001121FA4
:20220000830F01D18000921E002801DB4000521ED2055118021251181922904004D3491C72
:20222000002801D14908490008467047C10FC90700D04042012292071143D3E70121890797
:20224000D0E74146016049464160514681605946C160714601611430F0C069460160001D3D
:2022600001B5C046C04606BC964601C10020704704000D00A06AC046C046616A8D4622007E
:20228000280000D10120116888465168894691688A46D1688B4611698E461432F0CA70477D
:2022A0007047FFB504460D4681B0243000902168880604D51022E0699143216000E0012040
:2022C000A84201DD471B00E000270498A1697A191018081AA0612078C00602D42046C046A9
:2022E000C046002608E003986268A168805D9047206A401C761C206204988642F3DB2078E4
:20230000C0060AD52046C046C04606E06268A16830209047206A401C206238467F1E00281B
:20232000F4DC07E000986268A168405D9047206A401C206228466D1E0028F3DC2046C04643
:20234000C0462078000602D5022005B0F0BD0120FBE7FFB51C460025ED4385B0002000902B
:2023600001909F685E68A16906986D1C88470290216A88470028F6D10298401C0CD003202F
:2023800040028643002F19DD700614D502982B2809D02D280FD103E00020C04309B0F0BD47
:2023A000012080020643A16906986D1C88477F1E002F029002DD0298302803D00798002868
:2023C00028D024E00120A169400206436D1C06987F1E8847002F029003DD782805D0582822
:2023E00003D00798002810D011E00798002801D010280CD10120A169400286436D1C069868
:202400007F1E88470290102000E008200790C017039016E00A20F9E70120039B400206433B
:20242000079A019900987F1E00F01EFB029AD3178018594101910090A16906986D1C884749
:202440000290002F06DD0799029800F02EFB00280290E1DAE16906988847B00502D40120AD
:20246000C0439BE7F00710D1700610D5700505D50098019B002241429A4101E0019A00998C
:202480002068031D2360006806C0284686E72068011D21600068019A0099F5E7FFB51D4652
:2024A0000027FF4383B05C68002001909E68A96904987F1C88470090296A88470028F6D10C
:2024C0000098401C0CD0032040028443002E19DD600614D500982B2809D02D280FD103E0B1
:2024E0000020C04307B0F0BD012080020443A96904987F1C8847761E002E009002DD00988A
:20250000302803D00598002825D035E00120A96940020443761E04987F1C8847002E0090AD
:2025200003DD782805D0582803D00598002810D022E00598002801D010281DD10120A9695D
:2025400040028443761E04987F1C88470090102002E0082000E00A2005900DE00121059AC1
:2025600049020C430199761E514308180190A96904987F1C88470090002E05DD0599009860
:2025800000F093FA0028E9DAE96904988847A00502D40120C043A5E7E00722D1600611D5C5
:2025A0006005019800D5404229680A1D2A600968220501D5087014E0220701D5088010E033
:2025C00008600EE02868011D29600068210502D50199017005E02107019901D5018000E020
:2025E000016038467EE7FFB5144683B00020002600905068019091699768049888470C992E
:2026000005460698084305D009E0A1690498761C88470546216A284688470028F5D1681C3C
:2026200003D00198C00704D017E00020C04307B0F0BD2068011D2160006800900DE0019870
:20264000C00704D1009805700098401C0090A169761C04987F1E88470546002F1CDD681CB2
:202660001AD0069800280FD0E817C00E4019411140098A000699400151182A1A0968012061
:2026800090400142DBD107E00C980028D7D12846216A88470028D2D0E169049888470C9835
:2026A000002807D1002E05DD0198C00702D1009800210170A068B84204DD0C98002804D02A
:2026C000002F02D00120C043B1E73046AFE7000002685118137801601846704710B5D16067
:2026E00005497944516105497944116200211161114600F0E9F910BDEBFFFFFFAD0300007E
:202700004268002A08D001680B78491C002B03D0521E06C0184670470121C160881E7047D3
:202720004268002A0BD0C3680168002B07D183688B4204D0491E521C06C000207047002035
:20274000C0437047FFB5144687B0002001905068039097680020029006460490059091695E
:2027600008988847109905460A98084305D009E0A1690898761C88470546216A284688472D
:202780000028F5D1681C03D00398C00704D02CE00020C0430BB0F0BD2068011D2160006898
:2027A000019022E004AA6846E9B200F05DFB411C07D0801C09D0002002900398C00707D0B3
:2027C0000DE0E1690898884746E00120029007E068460188019801800198801C01907F1EDF
:2027E000A1690898761C88470546002F1CDD681C1AD00A9800280FD0E817C00E40194111CC
:2028000040098A000A99400151182A1A0968012090400142C6D107E010980028C2D1284660
:20282000216A88470028BDD0E169089888470298002811D11098002806D1002E04DD0398DB
:20284000C00701D101990880A068B84204DD1098002804D0002F02D00120C0439AE730461A
:2028600098E7FFB5144685B0002000905068019096680020029005460390916906988847A8
:20288000109907460898084305D009E0A16906986D1C88470746216A384688470028F5D186
:2028A000781C03D00198C00704D01CE00020C04309B0F0BD2068011D21600068009012E0E7
:2028C0000198C00709D1B9B2009802AA00F0EDFA411C34D0009908180090A1696D1C06985D
:2028E000761E88470746002E14DD781C12D00898002807D03B460F9A0E9900F0A5FA00286C
:20290000DED107E010980028DAD13846216A88470028D5D0E169069888471098002806D1A3
:20292000002D04DD0198C00701D100990870A068B04204DD1098002804D0002E02D00120A6
:20294000C043B5E72846B3E7FFB5144683B000273D465068019091699668049888470090A9
:202960000E990698084305D009E0A16904986D1C88470090216A009888470028F5D1009803
:20298000401C03D00198C00704D014E00020C04307B0F0BD2068011D216007680BE001983F
:2029A000C00702D100983880BF1CA1696D1C0498761E88470090002E15DD0098401C12D03A
:2029C0000698002807D0009B0D9A0C9900F03CFA0028E4D107E00E980028E0D1216A0098E7
:2029E00088470028DBD0E169049888470E98002805D1002D03DD0198C00700D13880A068DE
:202A0000B04204DD0E98002804D0002E02D00120C043BDE72846BBE710B5002000F066FA34
:202A2000FEF79BFF012004F05BFA10BD10B5044602E0641C04F055FA20780028F9D110BDC5
:202A400001468008081A02091018020A1018020C1018C008820012185200891A01E0401C42
:202A60000A390A29FBD270474343514330B55C18010C130C0D4692B25D4380B251432C197B
:202A8000054655430A0C09044D1962415843010C00044019514130BD10B5044600F04CFA5E
:202AA0000068005DC007C00F10BD3A2800D23038202302469A43412A01D31046373888421C
:202AC00001D30020C0437047F3B50C468FB000200C90012000260E9008460C300390626986
:202AE000039801219047051E2ED0252D2DD0216A8847002818D06269039801219047216A7E
:202B000088470028F7D16269411E0398904700E0761CA1690F988847216A88470028F7D11E
:202B2000E1690F988847DAE7A1690F988847A842074601D1761CD2E7E1690F9888477F1CE5
:202B400002D10C98002877D06BE16269039800273D46394690472A280CD162690398012126
:202B60009047012506E00A214F433F18303FEBD410200543626903980121904701463039A9
:202B80000A2903D2AC498F42DEDCECE7E90600D4AA4F6C280AD04C2810D0682824D06A2846
:202BA0002ED074280CD07A280AD00DE062690398012190476C2823D004211CE020200543A7
:202BC0006269039801219047A760652865604FD026DC582839D01ADC452849D012DC2528DC
:202BE00034D04128B0D143E06269039801219047682802D008210D43E6E70120C002DEE715
:202C00000220DCE7462833D047289DD130E05B2870D061282CD063286CD0642894D161E030
:202C20006F284FD009DC662822D0672820D0692826D06E2817D12EE0EFE070284DD07328C8
:202C40006FD075284ED078280DD154E0A1690F9888472528054600D16CE7E1690F988847CC
:202C60006D1C00D16DE7DCE00A224CE00A2252E0012023466A460F99C043C046C046C5E09E
:202C800040212846234608436060A80701D5002239E000223FE0E80700D020E72068011D84
:202CA00021600068290501D5067018E7290701D5068014E7A90703D5F117066041600EE79F
:202CC00006600CE740212846234608436060A80701D5082217E008221DE059492846084033
:202CE000606016E040212846234608436060A807BCD5B9E715E04021284608436060A8077D
:202D000007D52346102201200F99C043FFF721FB7CE01022234601200F99C043FFF7BEFBEC
:202D200074E0002163280B460191009102910D9102D05B2807D03BE0E80601D40120A060C3
:202D40000120009034E0E06801210D906269039890475E2807D101200190E06801210D9053
:202D60006269039890472169002906D10B4604AA8F00491C0829D351FADB002851D021699C
:202D8000002926D00298401C029062690398012190475D28F1D10198002808D0002004AB7E
:202DA0008100401C5A58D24308285A50F8DB04AB2069002820791CD04007029A00980D9BBA
:202DC0000092224602901F480F991DD5FFF7BCFD1CE0C117C90E09184A114909930004AAFD
:202DE0009A184901411A13680120884003431360CBE74007224613480F9902D5FFF7A2FC90
:202E000004E0FFF7F0FB01E0FFF72BFD00280ADA401C06D10E98002803D00020C04311B02A
:202E2000F0BD0C98FBE7E90702D10C99491C0C91361800200E9052E6CCCCCC0CFFFFFF7FC5
:202E4000F1F7FFFFFEFFFFFF10B509E00488801C9C4205D1002A01D0002010BD012010BD31
:202E6000491EF3D2104610BDF8B516460C46054600F062F80368FF200230C05C012805D03D
:202E8000185D00280ED001202C80F8BDFF333246214604331868C71868460023B847009925
:202EA0002980F8BD0020C043F8BDF8B516460C46054600F041F80368FF200230C05C01280C
:202EC00007D0FF2C0FD8185D00280CD001202C70F8BDFF333246214608331868C718284605
:202EE0000023B847F8BD0020C043F8BD10B500F039F800F031F810BD754600F04BF8AE4675
:202F0000050069465346C008C000854618B020B5FEF75AFD60BCB64600260027C0C5C0C5B9
:202F2000C0C5C0C5C0C5C0C5C0C5C0C5403D490849008D467047000010B500F02FF8001DD9
:202F400010BD00BF25D1000010B50446C046C0462046FEF70DFD10BD10B5002801D003F0F1
:202F6000BFFF10BD10B5002102A000F01BF8012010BD0000534947414252543A2041626ED6
:202F80006F726D616C207465726D696E6174696F6E00000000487047B0000020004870477E
:202FA000D000002070B505460C460A2000E06D1C03F097FF002D06D028780028F7D102E0CE
:202FC000641C03F08EFF002C02D020780028F7D10A2003F086FF70BDB0B582B01D4D2878FB
:202FE00002281CD0012822D000282CD1EC4869460A220A6048604020B14A105A4221515A87
:20300000090409184420125A0120002300F068F9032400281AD12878401C287016E001F068
:203020005DF80024204600F039FA2C700EE01120094900F0B7F90324002807D107480178F2
:20304000491C017002E0002028700324204602B0B0BDC04610010020D92F000817000020D6
:2030600010B582B0164C2078012809D000281FD1012000F013FA01F045F82078401C207075
:20308000DD4869460A220A60486040208C4B185A4221595A0904091844201A5A46201B5A7E
:2030A000012000F01DF9002804D0032002B010BD032000E000200021217002B010BDC046F1
:2030C0001101002010B5044600202062204604F059F92520205C2421605410BDF0B581B004
:2030E0000C4606460D20094F394600F0ADF80546002807D1388800F04BF83080388800F0FB
:203100004AF82080284601B0F0BDC04614030020F0B581B00C4606460F20094F394600F05A
:2031200093F80546002807D1388800F0D3F83080388800F0C9F82080284601B0F0BDC046AB
:20314000160300207F2189010840704780B582B0FFF7F8FF0346C64869460A220A60486075
:20316000574801894289120451188289012000F0B7F802B080BDC04680B504480121017008
:2031800030480021017000F0A3FF80BDFC130020000A800170470006000C704780B582B0B5
:2031A00000F014F80346B24869460A220A604860A020434A105AA221515A09040918A420CC
:2031C000125A012000F08CF802B080BD80B53221322800D808460CF04FFE4006400C80BDDF
:2031E000B0B582B0174C20780021172803D0FF2803D1052022E0084620E0C100304A535CB0
:20320000002B17D09A486B460A251D605860505A53185988090409189A88DB88012000F0EB
:203220005FF801460320052907D0002907D12178491C03E0411C032000E0FF21217002B023
:20324000B0BDC0468D0F0020B0B582B00C4688496A460A2313605160C00019490A5A0818DE
:20326000418809048918FF22914382880120064D2B4600F077FE002801D002B0B0BD2988C5
:20328000218002B0B0BDC04618030020B0B582B0774B6C460A2525606360C000084B1C5A22
:2032A000181843881B041C19064D5540C3880B432B4082880120214600F012F802B0B0BD28
:2032C000F8060108FFFF00002D2189010006800C401870472D218901000A800140187047FE
:2032E000F0B583B015462B4A138002AA13802A4E3278D20710D15E4A6B460A241C605A60BB
:20330000AAB2244B00F02EFE05283BD0002830D13078401C30702DE0099A089B6C46236039
:203320006260FF27B943AAB21C4C234600F01AFE052827D000281CD1290AC9B2002911D083
:2033400000250A462B4602AF7F5D655DBD4200D1521E5B1CDDB28D42F5D3110604D03178C7
:20336000491C03E0377004E00021C9433170052805D03078C0B2FF2803D0062806D305206A
:2033800000E000200021317003B0F0BD032003B0F0BDC0461C0300201E0300201A030020C5
:2033A00061F8000870B582B02E4C2268002A03D08A4202D004201BE021602B498A692B4D37
:2033C0002A6001222A700B4B18808A8BAA80296827486D460A262E606860022000F0C2FD6F
:2033E000052801D0002803D10021216002B070BD02B070BD2003002061F80008F0B583B0F7
:203400000C46184E3168002904D0914203D0042003B0F0BD3260C00013490A58134B1A604C
:203420000818828800271F709A80196810486B460A251D60586002200E4D2B4600F092FD37
:20344000052807D000280AD1288820803760384603B0F0BD0848208000203060052003B028
:20346000F0BDC04658030020840101085003002061F8000844030020FEFF000080B508F02B
:2034800081F904480449016002F0F2FA03F06CFD002080BD000000200090D0030F210A0460
:2034A00005490B6893430B60002804D0052040040A6802430A6070470004005080B581695A
:2034C00001220A43826103F067FC80BD70B515460E460446806901218843A061204603F0B8
:2034E0005BFC2846304300280CDB1020205EB04208DD1220205EA84204DD09208101204674
:2035000003F028FC70BD00002521425C0F211140083907290CD800207944097949008F4432
:2035200008030A0E1114171A10481F3880B27047808A80B270470120800280B270470A48A9
:2035400080B270471F2080B27047064880B27047034880B270471F20C0431F3080B2704775
:20356000FF0700001FF80000E0FF00001FF8FFFFB0B530380022452800D9A7E00B78840077
:2035800001A52C59A746C046A1360008A1360008A1360008A1360008A1360008A1360008D3
:2035A000A1360008A1360008CD360008CD360008CD360008CD360008CD360008CD3600080B
:2035C000CD360008CD360008CD360008CD360008AD360008B1360008CD360008CD360008CF
:2035E000CD360008CD360008CD360008CD360008CD360008CD360008CD360008CD36000873
:20360000CD360008CD360008CD360008CD360008CD360008CD360008CD360008B53600086A
:20362000CD360008CD360008CD360008CD360008CD360008CD360008CD360008CD36000832
:20364000CD360008CD360008CD360008CD360008BB360008CD360008CD360008CD36000824
:20366000CD360008CD360008CD360008CD360008CD360008CD360008CD360008CD360008F2
:20368000CD360008CD360008CD360008CD360008CD360008CD360008CD360008BF360008E0
:2036A000F0241C402043082404430AE0DF2402E0F02400E0EF241C4003E0202400E0102457
:2036C0001C43E0B2984201D00C70FF2250B2B0BD80B50120800607490860074801682022B4
:2036E0000A430260416880220A43426002F032FF80BDC046180400500C18024080B501462D
:2037000002483022FEF720FB80BDC0466403002070B50D460446207901263146814029420E
:2037200008D002F0A1FC002807D0052807D003280CD116E0401C207109E0207904E0207935
:203740008640216831432160401C20712079C0B20628E0D30021217120682160002800D098
:203760000520C0B270BD10B50023002A06D09C000C59844202DC5B1C9342F8D3D8B210BD8A
:2037800080B50120C1020348FEF7DAFA02480021016080BD7C0700207807002084B000205D
:2037A0000390C7433E4C3F4D019704E03C4C204605F04CFF3B4D06F047F83848394605F0FB
:2037C000A3FF05F0F1FF0646204605F032FF2D68002D13D15FE0278225686468304F3846A6
:2037E00005F034FF2046A84705F0DEFF0646384605F01FFF2B480568002D4CD02A4800689A
:203800000290019B2C46039A278A78071AD4B80709D4A168964202D2914202D312E091428F
:2038200001D3B1420ED9002808D4A068801B984204D202990CF020FB039A03466469AC4230
:20384000E2D125E0F80710D0E16800290DD0B80708D48819A568461B3046FEF703FB681AED
:203860008019A06004208743B5E76069A0420BD0A16981616069A16948610027A542AAD1AE
:20388000606908490860A6E7002706480760A2E71F4603968AE70396019F87E77C240020DE
:2038A0006C1000207C100020441B0020F0B585B00446008A40210291884320826068026BFD
:2038C00003A920469047002875D003AAD0880F210140D18065686E88F20727D01822AA5ED6
:2038E0000192042203AFBA5E1427EF5F2B46162500935D5FBD4208DD019B9A4211DD1A213C
:20390000009D695E8A4256DB07E0019B9A4208DA1A21009D695E8A424DDC0E2108400146B3
:2039200002E001200143009D03A8C180B0052DD4F00508D503A8C088C00704D1208903A94B
:203940000880608966E0E769002F68D0384604F0F0FF0190384604F0E7FF034670073FD4DC
:203960001E46384604F0E3FF87214900884224D0B42833462AD05A2832D103A84188039AFB
:203980004280C943019A5118018029E003A8C088E289424001211140208A820706D4002942
:2039A000C6D002210843208205B0F0BD0222904320820029BCD105B0F0BD03A84188039A3D
:2039C0000180D14333467118418009E00398C0430199081803A908804888C043181848804F
:2039E000208A40071BD503A8008800B2002805DB0199884205DB0846481E00E0002003A955
:203A00000880022003A9085E002805DB984206DB581E03A9488002E003A800214180208A24
:203A2000810601D5223500E01C350421695E012917DB0A22A25E02232F4603ADEB5E9E1A22
:203A400076430823E35E2D882DB2ED1A6D43751949438D423D4604D291B29AB203AB59809E
:203A60001A80C10716D00222A95E012912DB1423E35E03ADAA5ED21A52431223E35E2D88E0
:203A80002DB2EB1A5B43D21849438A4202D901218843208203A8C288E089114681439043AC
:203AA000CB0703D010231A4303ABDA80012506462E40002E04D003AAD38820271F43D780DF
:203AC00087B288070AD00398608203A84088A08205F06AFEA061208A28432082BF072ED059
:203AE000208AC1072BD0A843208205F05DFEA169451AA5614B208000019005F099FD85423F
:203B00000DD8002F04D503A8C18880220A43C280002E04D003A8C188029A1143C1806068A4
:203B20004088C0070BD0A5690198C83005F080FD854204D303A8C18880220A43C2801948E6
:203B4000002105F041FC00280DD00546154E03AA2846214601F082FE3046294605F034FC62
:203B600005460028F3D10021204605F02DFC00280CD0054603AA2846214601F06FFE2046D4
:203B8000294605F021FC05460028F3D10398208103A8418861810499A181C088E08105B0BE
:203BA000F0BDC046CC03002010B509490978094A1368094A1478FE2222401B0601D4022381
:203BC0001943022A01D004221143C9B2405C10BD1C040020100000501600002010B5044649
:203BE000806A002803D005F0C5FC0020A06210BDF0B585B00446806A002848D0E06900257F
:203C0000294604F0E3FE06461227E05F2221615E814209DD204607F0CDFC608C801B608460
:203C2000E15F00B28842F5DC2420205C252160542562A06901252843A061A16A226B20461D
:203C400006F0D6FC668C208C002804D0E069002104F0BCFE8619E25F30B2824214DD102043
:203C6000205E04900C20205E0390A368E789E18A6846921B12B202604160B81902B218460A
:203C80000399049B04F010FCA069A843A06105B0F0BD0000F0B54D4841698A0718D54C4A9A
:203CA0005379002B06D05B1E5371DBB2D218927842620DE01379002B0AD01478002C07D1C7
:203CC000444C25686E1C26602C7844625B1E1371012293024C062ED44C0748D40C0652D4BD
:203CE0008C0660D4CC0665D4194209D083613D4B1A703A4B04241C703B4B1C78641C1C706A
:203D00008B050AD553028361364B1A70334B04241C70364B1C78641C1C70C9050AD51102DD
:203D20008161304802702D480421017030480178491C0170F0BD264C25780468002D06D0BA
:203D400005681C4205D0940325432C460CE0950309E0FF242404A543056004681E4D25430E
:203D60000560550304682C4304604C07B6D5046A184D2E68771C2F603470154C25796D1EB0
:203D800025710C06ACD5124C2479012C01D06E4C00E06C4C0568254005601404056825438B
:203DA00005608C069ED5202484610C4C00252570CC0699D510248461084C04252570084C9F
:203DC00025786D1C2570194290D199E704540040870F00207810002000040101800F002041
:203DE000630300207E0F0020610300205D0300205F030020F0B5504841698A0718D54F4A0C
:203E00005379002B06D05B1E5371DBB2D218927842620DE01379002B0AD01478002C07D165
:203E2000474C25686E1C26602C7844625B1E1371012293024C062ED44C074DD40C0657D44E
:203E40008C0665D4CC066AD4194209D08361414B1A703E4B03241C703F4B1C78641C1C70F3
:203E60008B050AD5530283613A4B1A70374B03241C703A4B1C78641C1C70C9050AD5110271
:203E800081613448027031480321017034480178491C0170F0BD294D2E780468002E06D040
:203EA00006681C4205D094032643344611E095030EE006604124A4020668264306602C791D
:203EC000022C03D31406056825430560550304682C4304604C07B1D5046A194D2E68771C1D
:203EE0002F603470154C25796D1E25710C06A7D5124C2479012C01D0134C00E0114C0568DF
:203F00002540056014040568254305608C0699D5202484610D4C00252570CC0694D51024DA
:203F200084610A4C03252570094C25786D1C257019428BD194E7C04604580040810F0020F5
:203F400074100020FFFFFFFEFFFF00FF7F0F0020620300207C0F0020600300205C030020E5
:203F60005E030020F0B583B0504E3578062D19D8AC0001A73C59A746953F0008B13F0008CF
:203F8000CB3F0008E73F0008F53F000829400008514000084848006846490860681C307088
:203FA00003247FE00020307005F062F9012479E04048026840490B689A1A0324032A71D3B3
:203FC0006A1C3270096801606CE005F05FF9042851D801218140192001424CD03078401C7A
:203FE000307003245EE0324802210170681C3070032457E0304C24682E4D2C6094B2240AA9
:204000006D46D2B21CC52D4A155C2D4A125C48B22C4B1C5C0B0C2846214606F043FC307809
:20402000401C307003243DE005F030F9042813D0002815D105F016F900282AD01C48017802
:20404000491E0170080629D004203070032429E0681C3070052425E006203070032421E04D
:204060001448006814490968081A03241F2819D30620307016E00F4800680F490968081ACC
:2040800003241F280ED305F0F3F83078401C307008E03078801C3070002403E03078401C76
:2040A00030700324204603B0F0BDC046B0030020B8030020B403002038040020200801085B
:2040C00023080108F017010880B500F001F880BD0148002101707047B903002010B50120ED
:2040E0004105064A13680B431360054B1C6884431C6010688843106010BDC0463C100240C3
:204100000054004080B506F03BFC80BDB0B5044605464035284605F09FFA002806D005F00E
:2041200029FA284605F098FA0028F8D1204602F0A5FCB0BDF0B583B0044682864286018697
:20414000876938071DD415461020205E1238884213DCE0690021009104F038FC801C01B2C1
:204160001220265EB01E00B2019002910BF0A6FEA16B7A0707D4814205DC2046294600F075
:204180007AF803B0F0BD132D0CDCE06B01280299F7DB401AC1178843E063204602F0FCFDB3
:2041A00003B0F0BD30461438A8420CDDF00F30184210E06B954217DA01280199E1DB884215
:2041C00023DC009822E0029A51430198081AE16B8142D6DA8918814200DC0846E063204665
:2041E00002F0DAFD03B0F0BD029B4B43019D591B8842C6DA6A009A1A904200DA4119E16387
:20420000204602F0C9FD03B0F0BD401AE063204602F0C2FD03B0F0BDF0B581B00446007E6E
:20422000000726D51546A08E91B2884221D007B2E66BE069002104F0C9FB791B7118E16368
:204240001222A25E801CA36B4343981C821A9142084600DB501E002801DB914202DBC117B4
:204260008843E063A586E06B864202D0204602F093FD01B0F0BD70B50D460446C0690021CE
:2042800004F0A4FBE16B4A19801C01B210460BF015FE002825DB0546A06B854221DA206C5D
:2042A000002817D0A26901210A402B46002A04D18688002B04D08E4303E0002B02D106E063
:2042C0000E4386805B1E00680028EFD102E082884A408280204602F05FFD2046294607F0C6
:2042E0009FF970BD80B5037E1B0712D53023C35E591ACB17C918594004290ADC3221415EF2
:20430000891ACB17C9185940042902DC1146FFF7B2FF80BD70B504F08FFE164C16490822C7
:204320000023204601F024F8144E306004F03AFE0546308801B2204600F0A2FE284670BD82
:20434000B0B504F079FE0B480B490822002301F00FF80A4D286004F025FE0446002802D166
:2043600004F0AEFE0446288801B2024800F088FE2046B0BD50060020200600204806002033
:2043800010B5234C2078062818D8C0467844007940008744030A161D262D32001E48016859
:2043A00080220A4302600120207006F0F9FC002829D11B48FFF7F8FB207024E0002020705E
:2043C00021E01548016880220A4302600320207006F0E6FC002816D11048FFF7E5FB20706D
:2043E00011E0FEF7F9FD00280DD1052020700AE00848FFF7D9FB207005E0FEF731FE002861
:2044000001D100202070074800780749087010BD170000200008010810180240F00701080C
:20442000F8070108160000203404002070B5244C2278012A18D0002A1BD1224D2978012657
:2044400033468B40034226D0084601F099FC0321052827D0002819D12878401C2870207883
:20446000401C2070C8B270BD501C20700321C8B270BD0020207013490A78132A08D30870C4
:20448000114A11681060002900D00521C8B270BD0321C8B270BD501C2070481C287003212B
:2044A000C8B270BD2878421C2A702278521C227086400548026832430260C8B270BDC04622
:2044C000C9030020C8030020A40F0020F0B581B00E490E5C142070430D4A17182648007848
:2044E000085C80003C580B4D28462146FFF710F90028F9D1B0003C58064D28462146FFF7C4
:2045000007F90028F9D1002001B0F0BDE8070108180301089803002080B506F0EDFA002022
:20452000C04380BD10B56D20002104F0A7FC002811D0044660684088800702D5208A400600
:2045400002D52046FFF7B2F96D20214604F096FC04460028EED110BDB0B5074D2A78002981
:2045600001D1824300E00243072414402046FFF7ADFF2C70B0BDC046E803002000220A6052
:20458000024608CA002B02D01368104600E0134619600160704700000248002101604160FC
:2045A0007047C046F413002001460068002801D002680A607047000010B582B03C4C2078CD
:2045C000052830D878440079400087440230154428560020694608600D21384A0B2301F057
:2045E000ADFB01460320052950D0002943D12178491C217002B010BD0020694608600D21AB
:204600002E4A0B2301F09AFB01460320052941D0002930D12178491C217002B010BD00206D
:20462000207002B010BD00202070032023E001206946086000200C21214A0B2301F07EFB0D
:2046400001460320052929D0002914D12178491C217002B010BD00201749164A01F0A0FA42
:204660000146032005291DD0002904D12178491C217002B010BD02B010BD0E480021018032
:204680000D4801802170052002B010BD0521217002B010BD0521217002B010BD05212170EC
:2046A00002B010BD2178891C217002B010BDC046FD0300204A040020C2030020E9030020A8
:2046C0002200002010B5304C2078032815D8C0467844007940008744012A183905202F4948
:2046E0002B4AFEF78BFE01460320052946D000293DD12178491C217010BD642814D0652889
:2047000032D100202070052010BD01202149204AFEF774FE01460320052929D0002926D1E7
:204720002178491C217010BD0020207010BD00201949174AFEF762FE01460320052920D0E0
:20474000002914D12178491C217010BD02200F490F4AFEF753FE0146032005290BD000293A
:2047600005D16421217010BD00202070032010BD6521217010BD6521217010BD6521217001
:2047800010BD6521217010BDFE0300209E0F0020A1AD0008E6130020A00F00209C0F002071
:2047A00080B5012002F006FA80BD0000024800780249085C7047C046170000207C03010887
:2047C000B0B5A048007800280FD03B4C207807280FD8C0467844007940008744030D1A3A2E
:2047E0003F514D5201202070B0BD334800210170B0BD00202070B0BD04200121FFF7ACFEEF
:2048000008F02EFA00F024FC02F0B4FC02202070B0BD00F015FC1E480078002803D00420A9
:204820000021FFF799FE1C4908681A4A1060814A13681B1A194DAB4203D31368184D5B1929
:204840000B601168081AC0087C2819D803202070B0BD00F0F5FB04202070B0BD00F0F0FBF9
:204860000C48006873490968081A7D21C900884206D902202070B0BD05480078002803D03E
:20488000B0BD02202070B0BD07202070B0BDC0461D0400204404002040040020D10700007D
:2048A00030F8FFFF04480078801E042801D30020704701207047C0460E1B002070470000BB
:2048C000B0B5804D2878092836D8C046784400794000874404340D421D5F697B822D59484A
:2048E0000078002800D195E0022028700020B0BD022001242146FFF72FFE00F0ADF84E488F
:2049000004700A2004F03AFF032028700020B0BD49480024047003F033FA05287CD000289A
:204920007CD146480068E243454905F035FA75E0012028700020B0BD002028706AE0424836
:204940000188002959D03F490978002955D000210180022028700020B0BD00F0BFF8364817
:204960000078012807D1FFF79DFF002803D003F001FA042028703348007801214140324877
:2049800002880A43002A45D005212970002101800020B0BD00F05AF802200021FFF7DCFDBF
:2049A000012028700020B0BD2048006820490978002901D0072129701E490968081AC0087A
:2049C0007C2827D8012028700020B0BD1648016820220A4302600820287014480068144955
:2049E0000978002905D013490968081AC0087C2810D8092028700020B0BD0C4800680D4995
:204A00000968081A7D21C900884203D9062028700020B0BD0020B0BD032028700A2004F045
:204A2000ADFE0020B0BDC0460C180240480300201E040020380400205E0400201007002010
:204A40000C0600205F0400206A05002080B504F07BFD002080BD000070B5FEF791FE04F077
:204A6000D1FD11A003F0D2FF05F0E8FD0F480024214605F0E9FD0E4E30680E4903F0A0FB83
:204A800002F08AFC02F0AAFCC34D284604F0D2FC284605F02BF830680221322203F0B6FB8D
:204AA00003F068F9204670BD55313100DC040108AC030020FFFF0000024800780249085C31
:204AC0007047C0460D1B00208303010880B5024809F0FCFF002080BDE9B10008F0B583B0F8
:204AE000AD480A21029104F043FCAC4D286001880122540222464032914214D140680028EB
:204B000005D1A748006805F037FBA6490880A648006829684968814205D1A448006805F050
:204B2000F3F802F05BFCA2480178012909D1002505709E4800689F4E32789F4905F058FD29
:204B400035709E4800689E490968081A9D4E711C88420AD9974D2A78002A06D093480068FA
:204B6000954905F045FD00202870974F3888204216D03888954901403980894E3068944996
:204B800009880024E24305F03DFB9248056830688C4E05F009FB01462846224605F098FDB5
:204BA000388800072BD58C4800688CA100252A4605F08EFD8B4800688BA12A4605F088FD5F
:204BC000844800688AA12A4605F082FD8C4800688C4C21462A4605F07BFD8B480068214698
:204BE0002A4605F075FD89480570894805708948057089480570894805708948057038887A
:204C0000400709D538880421884338807248006884A1002205F05CFD3888400623D5388892
:204C20004021884338806C4800683988C90601D484A100E080A1002205F04AFD3888800744
:204C400011D56848006883A10024224605F040FD604805685248006805F0A6FA0146284613
:204C6000224605F035FD7D480168B14200D88FE000210160684A1078002802D0401E1070A9
:204C800010E03B21117065480278002A01D0511E07E0017062480178002901D0491E00E0FA
:204CA000632101705E4800780190029D29460BF0E3F807466A4E30705848007800902946B0
:204CC0000BF0DAF80446F07053480678304629460BF0D2F8624A90716F430199C91B5170FC
:204CE0006C430099091B11716843301AD071104614460AF011FD424800680022214605F068
:204D0000E7FC434A1078002802D0401E107010E03B2111703D480278002A01D0511E07E0A6
:204D200001703C480178002901D0491E00E063210170384800780190029D29460BF09CF8A9
:204D40000746484E307031480078009029460BF093F80446F0702E480678304629460BF0DC
:204D60008BF8404A90716F430199C91B51706C430099091B11714543701BD0711046144642
:204D80000AF0CAFC204800680022214605F0A0FC002003B0F0BDC0464407002080100020C8
:204DA000100700208C100020F4060020F806002061040020FD13002068040020980F0020C0
:204DC00064040020E60300003C060020FFFD00008E10002004070020FC060020496E697465
:204DE000204F4B000007002053746F70000000004E6F742073656C65637465640000000092
:204E000008070020671801080C070020501B0020511B00204F1B0020EB050020EA050020E8
:204E2000E9050020436F6E6669672E20506C65617365207761697400436F6E666967204FCC
:204E40004B000000436F6E666967206661696C656400000053746172740000008810002066
:204E60000D00002019000020F0B581B061480078012801D101B0F0BD6F4D2878032800D91C
:204E800083E0810001A251588F46C0469D4E0008934F0008A54E0008D94E0008401C28700C
:204EA00001B0F0BD012420462146FFF755FB05F0DDFD06F07DFD544E3088042101433180A9
:204EC00003F05CF830884027384330803088C0066CD42C7001B0F0BD47480168474A91422D
:204EE00005D347490A68521C0A60002101604548C068434C216881422BD30AF09FF9002638
:204F0000266006F055FD02F0B3F93F48008880051DD53E4801883E4C2088401C82B28A4202
:204F200000D3304620803B49088080B23A490988884201D106F07CFC2088FFF701FA06F09D
:204F40009BFB06F0B3FB05F04FFE05F0AFFE05F04BFE2D48018809078CD5018808229143FF
:204F6000018001881022914301800188022291430180018880229143018001240021204672
:204F8000FFF7EAFA2C7001B0F0BD0020287001B0F0BD1D480188C90700D16BE7022129708A
:204FA000018801229143018001B0F0BD19480088174C20801849088006F03AFC2088FFF7F3
:204FC000BFF906F059FB06F071FB05F00DFE05F06DFE0AF033F930888021014331803088E1
:204FE0000221014331800320287030883843308001B0F0BD00140020CC050020E70300008E
:20500000D0050020B41300203C060020200400208E1000208C1000209010002080B505F0AA
:2050200025FD05480021017080BDC046024800780249085C7047C0466C0500208D030108D4
:2050400080B502F0CBFC0AF0E7F9002080BD0000B0B582B00024684604600A21064B20467C
:20506000224602F083FC054D287002F099FA2870204602B0B0BDC046603B0000E305002022
:20508000B0B50D460446416E5048B84A914211D15C21615C00290CD02046294607F066F8A7
:2050A000002807DB2046294607F048F8002801DBB0BD18302063B0BD01684A6E4348AB4B8F
:2050C0009A4206D15C228A5C002A01D000207047183008637047C046006B704710B5044646
:2050E000426E3A48EF4B9A420AD15C22A25C002A05D0204607F03AF8002801DB10BD18306A
:20510000206310BDF0B581B00446406EF44988420AD15C20205C00280BD01448401C206359
:205120000020C04301B0F0BD1048C01C206301B0F0BDE068002812D0254642350026374602
:205140002E80B9B2204606F0E3FE00280AD17F1CB8B2E1688142F3D8002001B0F0BD00207C
:2051600001B0F0BD0148206301B0F0BDD5D8FFFF70B582B00E460446406ED949884218D184
:205180005C20205C002818D0154601AA2046314606F0BCFF002815DB2046314606F0E6FFA3
:2051A00001988189204632462B4609F0A7FF02B070BDCC48206302B070BDCA48183020632C
:2051C00002B070BD206302B070BDC046D8D8FFFFF0B585B00E460446406EC149884225D1EA
:2051E0005C20205C002825D01F46029204AA2046314606F08BFF002820DB2046314606F0A0
:20520000B5FF049EB068411C00D10020029D022F17D0012F01D1B1694D19002D14DB8542B6
:2052200015DDB061224D253525633EE0204D103525633AE01E4D2835256336E00546206374
:2052400033E04519002DEADA194D25632DE0681EFB210AF011FE0027002D03DC38467128FC
:2052600003D208E080B2712805D3713880B27C210AF002FE471CBAB2308A904210D0F088A9
:2052800003A96B4619600121C90301430023204607F0C6FF002806DB049807820399C181B5
:2052A0000498856101E020630546284605B0F0BDC8D8FFFFF0B585B01E4617460D46044617
:2052C000006E049020460C305C210191FCF73AFDA868A0606868606028682060049820661F
:2052E00001218802E060049108023818206267620A9F30463946FCF723FD032130460840F5
:205300000B9A00280391029203D00421081A3F1A36180C9DA6622C2138460AF0ADFDE06275
:20532000029B1846039A1040002803D00421081A2D1A1B18049E63649543680B00D07503CD
:20534000A564204606F0ECFBCC486066204607F0DDFF002806DB0D98019966546065002007
:2053600005B0F0BD206305B0F0BDC04615030920F0B587B00F460446406EC04988420ED1C4
:205380005C20205C00280ED01D4616463846FCF7F3FB11280BD3A4482063434D25E0A24DE7
:2053A0000C35256321E0A04D243525631DE0039506A920463A4606F01FFE002813DB05AA53
:2053C0002046394608F00AFC054604213046084000280DD1002D0BDA0698415E204606F00B
:2053E000ADFE256301E00546206328B207B0F0BD002D1FD000282AD08B482230854226D16C
:20540000029104A90022204607F090FD00283FDB04A8018805A86A46012313605060002302
:2054200020463A4608F05EFB002831DB0220864302990EE04420304044280AD10698415E35
:20544000204606F07BFE7848851D2563CDE7002DC2DB0F4605A80188069A6846039B036035
:205460002046334608F0B8FE00280DDBB00706D5069800210A4608F0F7FF002804DB06985B
:20548000002181618588B0E705460698C15FA5E7054606980299415E204606F04FFE25637C
:2054A000A3E7C04615030920CCD80000416EDC4B994209D15C21415C00290AD000219160BD
:2054C0009180106010467047D6490163002210467047D44918310163002210467047C0468D
:2054E00015030920D8D8FFFF80B507F035FB0249884200D1002080BDEDD8FFFFF0B589B07D
:205500000C46054600685C21415C002915D0AA68A98807AB6F467B6108AB3B61FC60002607
:20552000BE600E4B7B603E60042307F0E3FB002807D02968086334460CE00A490163002443
:2055400008E00898A8800798401CA8602088044901402180204609B0F0BDC04661F0000896
:20556000FF7F0000F0D8FFFF70B584B00E460446406EAB4988420BD15C20205C00280BD0AD
:205580003046FCF7F9FA11280AD3274D256348E0254D0C35256344E0234D2435256340E0A5
:2055A00003A9002520462A4606F026FD002836DB02AA2046314608F011FB002808D0064619
:2055C00004200399095E204606F0B8FD002E23DB02A80188039A6846056020462B4608F0B5
:2055E000FBFD002808D0064604200399095E204606F0A4FD002E0FDB03980122294608F006
:2056000033FF00280DD0064604200399095E204606F094FD002E04DA2663354601E020637F
:205620000546284604B070BDCCD8FFFFF0B581B00446406E7A4988421ED15C20205C0028C4
:205640001AD025465C35E06A002813D0A06A061D00273088002808D001B2204606F086FD71
:20566000308801B2204606F069FD2C367F1CE06A8742EED30020287001B0F0BD15030920D5
:20568000F0B585B016460546406E654A904213D15C20285C002812D01C4604AA284606F0F8
:2056A00035FD002800DAB2E00499888BC2060AD45C48C41C2C63ACE05A4C2C63A9E0594CCC
:2056C00018342C63A5E0C00704D08868421C00D1002088618B69086A002806D128461F466F
:2056E00006F0EAFA3B46049908620498818BCA070ED083685A1C00D10023026A002A07D02F
:205700001F46138AD268D2183B46974200D8134689066FD4076A45218A00114614398C4233
:2057200052DA0292002F23D0FA68934203930CD3398A51188B4208D819190191029BD318B6
:20574000143B01999942039B20D97978029B59436B6C1B69591814313B8A07F055FA07465B
:205760000498016A284606F0BBF9039B002F53DB049928461F4606F042FA3B4604990862E5
:20578000002803D0C360086A002101820498016A002930D0C8681F1A487802994143686C89
:2057A00000694018C019143031462246FCF762FA3A190498016A0B8A9A4200D313460B8259
:2057C00081690919816124E0002F13D079784A43696C09698918143103933B8AFA6807F066
:2057E00013FA07460498016A284606F079F9039B002F11DB049831461A46234607F004FAE8
:20580000002804DB04998A6912198A6100E028630446204605B0F0BD2F633C46F9E7C04664
:2058200015030920D8D8FFFFF0B581B004463C2529460AF021FB06462946FCF713FB064F62
:205840007970E120010120460AF016FB38707543601BB87001B0F0BD4C1B0020F0B581B02D
:2058600016460D46044603F097FDF188F0220A4000281CD0002A14D1E268002A11D1227ABE
:2058800012070ED42A89338893420AD16A897388934206D10F220B461340EF891740BB42B4
:2058A0002CD0A268CB070AD152070AD50FE0E06802430120C0031043E06001B0F0BD920713
:2058C00005D40A06120F19D0227AD20716D06A68528801231A401B02D2180280328842804B
:2058E00072888280B288C280E268114301810021E160E969C160204603F0C2FD01B0F0BDC5
:20590000F0B585B007460820385EC117890E41188D11002D00D1012529010A22BA5E511A3F
:20592000CA0F8918491004916901401AC10F4018401003900F4C60882188A288E3886E46FB
:205940006B431BB233600C4B73606A4313B26943039A891809B26843049A801802B23846E5
:2059600002F0A2FD0834034880308442E3D305B0F0BDC04692030108FFFF000010B50C4CC2
:205980002078012806D0002807D109F06DFD002806D010BDFEF7F4FC10BD0020207010BD13
:2059A0000448002101702078401C207010BDC046220400201700002080B505480021017021
:2059C00004F0DEFFFEF780FBFDF7D6FB80BDC0461C04002080B5FFF729FBFFF76DF8FEF79F
:2059E000E5FE80BDF0B581B01E48016801220A4302601D48002101604160032399020522A0
:205A0000120714688C431460FF24250217490E68AE430E600D46643D2E6820273E432E604F
:205A20000D46583D2E683E432E6005683D4305609B0315689D43156022060B6893430B603B
:205A40000A46603A136880242343136054390A6822430A6001682143016001F059FA01B073
:205A6000F0BDC04634100240801802406418024010B5054C0548606000F074FD0020A060B1
:205A80000720206010BDC04610E000E0FFF9000010B5194A1068401C106018490868401C2B
:205AA000086017490B685B1C0B6016490B6820211940002902D01268134B1A60134A138818
:205AC0008B4201D1124B19801180124A1388104C248814809C43104A138823431380002917
:205AE00001D10E4908600D490968401A9249884200D210BD00F080FD380400202C04002097
:205B00006404002010000050480300202404002026040020280400206A0500203004002071
:205B20000120C006014908607047C04608ED00E00E480168C90717D00121C94301600C48E1
:205B40000168491E01600B480088000603D40A490020086006E008480168491C01600748CD
:205B60000068401C054908607047C04610040040481B00203C06002088100020CC0500200C
:205B800080B505480168C90705D00121C943016002480068804780BD10100040F0130020AD
:205BA000F0B583B00D465F4E3178032913D814468A0001A39A589746C95B0008DF5B000888
:205BC000335C0008775C0008574800220270481C30700326A3E00020307003269FE00022E6
:205BE000694602920A6001274F4EFF233946324600F0A4F8052867D000286BD17078B178B5
:205C000009020818F17809044018327912068018464A10600326300508407905884202D070
:205C2000390588426CD13F4801460078401C087075E0002769460F6002213B4EFF23324625
:205C400000F07CF8052847D000284BD17078B17809020918354A116003260146314003291E
:205C600048D10007800F032850D12E4801460078401C087053E0002769460F6003262A4A0B
:205C8000FF23314600F05AF805282DD0002846D1254802464078917809020818D1780904C9
:205CA0004118127912068A18204B1A60204A02400A20504328800803800D32214143218040
:205CC000184807703E462AE000262E8026801548067024E0032622E000262E802680114810
:205CE00006701CE003261AE000262E8026800D48067014E02F8027800A4807703E460EE045
:205D0000029E2E8026800748067008E040000949085A2880CD482080002602480670304635
:205D200003B0F0BD8E0F00206D050020B0050020FF030000D404010888130000F0B583B089
:205D40001446C9000C4A555A5218518809044919FF25A9439288089DFF2B02D01B02D2B2FD
:205D6000D218064B6E460A273760736029432346FEF7F8F803B0F0BD1204010861F80008FF
:205D8000B0B512281DD84000784480884000874412001A00210024002C00330039003C001B
:205DA0003F00440057007E009100A900BF00C800D300E600EE00012100200246FDF766FA45
:205DC000B0BD0520B0BD0120C10305200022FDF75DFAB0BDFDF704FAB0BD93480088C8282E
:205DE00000D3C820FDF7DAF9B0BD0120C20305200021FDF74BFAB0BD002001220146FDF764
:205E000045FAB0BDFEF7D8FBB0BDFEF75BFCB0BD92489449FDF762F9B0BD82490020086022
:205E20008C490A8884490978002A0A4600D002467D4B1B88002B00D01146874A1170B0BD9F
:205E4000864801887C48027801208229014600D311467F4B6533704C24889C4200D8114699
:205E60006B4A1368DA05920F00D001467A4A11700020590608D46C490988002904D07549BA
:205E80000988002900D0A5E002211170B0BD6549002008606F490A8867490978002A0A46B7
:205EA00000D00122604B1B88002B00D011466A4A1170B0BD58480188654A0020914202469A
:205EC00001D35D490A7863490B880321002B0B4600D01346544A1288002A00D019465E4A85
:205EE0001170B0BD4A4801780020490672D44E490A88643A4B490B686433934200DC1A467E
:205F00000A60002A5FDB494B9A4263DD0B60B0BD3F480078400654D442480088FDF73EF981
:205F2000B0BD3C4800883C490988490801F000FF3B4908600020B0BD3548006801063BD41D
:205F400034490988344A12880A43344909881143002931D0C005800F38D00020B0BD3748DA
:205F60003F49FDF7D5F8334901220A70B0BD2848016800202E4A11422CD12E490A78012A6D
:205F800028D12D480078FE220240022A23D1224802882E4C01200023A242024600D81A4683
:205FA000264C2488264DAC4200D818461040264A1070244A107027E019200001FDF7C6F80B
:205FC000B0BD0020B0BD00200860B0BD14480088FDF7BCF8B0BD012816D818480088184A78
:205FE00090420ED90F4802680320C301543B01209A42034600DC0023124A12781A430240E7
:2060000000E000221048027000200870B0BDC046A40F0020A00F0020E61300209E0F002021
:206020004C030020C4030020C2030020540B0000800002005C04002016000020E213002079
:20604000701700005D0400205F04002088130000082000004A04002018000020DC1300203D
:20606000E0130020DE13002010B505280DD8C0467844007940008744020B11171D23012049
:2060800009F080F90024204610BD0524204610BD012009F00BF90024204610BD012009F04C
:2060A00049F90024204610BD0024204609F042F9204610BD0024204609F0F8F8204610BDB0
:2060C0000024204609F05EF9204610BD80B514484168090604D5014618390968090612D493
:2060E000416889060ED5014618390968890609D581680822114381600168114301600A4857
:206100000068804780BD816820220A438260016810220A43026003480068804780BDC046B2
:2061200018380140EC130020E81300201848011F096889062AD5016808220A43026040682B
:2061400014490870144A1178144B5854491C117013480278022A0BD0012A0ED0002A15D19D
:20616000C9B2422912D3012101701048017070470C4800680C49086008E0C9B2082905D35C
:206180000221017009480121017070477047C0462044004060040020FD130020680400202F
:2061A0006805002064040020980F00206104002070B50D4604464F48214603F063FA0A481C
:2061C0000026E660206102202A5E288801B2204600F020F806202A5E0420295E204600F0A8
:2061E00035F9F04370BDC0460300030070470000B0B504460020C1433D4D284603F084FA12
:206200003C48214603F051FA284603F070FAB0BD70477047F0B583B017460D4604468668EF
:20622000304602F086FB0290304602F07DFB1221625ED119814200DD871A39B200230029AE
:2062400000DC1F4601931021615E4E19029B9E4200DD5D1A3E46C01B2EB2002E00DC019D5A
:2062600000B2029B5B1B1BB2994201DC824208DD994200DB1946824200DB0246204600F0D9
:20628000E5F8A8B2A189814203D1B8B2E189814204D0607E800703D4E781A58103B0F0BD71
:2062A00000262046314604F049FA304600F082FCE781A581F143204604F040FA03B0F0BD0A
:2062C00070B504460020C143094D284603F01CFA084E3046214603F0E8F93046214603F087
:2062E000D1F9284603F003FA204600F055FD70BD740700204C040020F0B58BB0044685697E
:2063000051482840A061A80507D56068C168002978D0204688470BB0F0BD280400D490E083
:2063200010200A90205E09900E200790205E05900C27E05F049012200890265EA56803F050
:206340001DFD69460E60486028460499059A099B02F0AAF8002003F017FD002871D00546A1
:206360000120460206970496A869304243D0A868A16888423FD1E35F0A99615ECA18E95F26
:206380008A4238DD079FE65F089AA25E039692190992049EEF5F0597099ABA42069F2ADDD9
:2063A0000A9AAA5E099252189A4224DB089AAB5E059A02939A18039B9A421CDB6A68D7683E
:2063C000002F02D02846B84714E089B20391059989B2059109998FB202998BB2EA8A69463F
:2063E0001BB20B604A60039909B2059A12B23BB202F05AF8069F284603F0C6FC0546002895
:20640000B2D11EE028041CD51020205E0A900E20235E0C20225E1220265EA168E78A68465D
:20642000C0C0084611461A460A9B02F03DF8E80107D460680169002903D0204688470BB029
:20644000F0BD0BB0F0BDC046FF3FFFFEF0B581B016460D4604468768384602F06AFA0C2127
:20646000615E4A19824200DD451A28B203210091032800DC009D384602F056FA0E21615E19
:206480008A19824200DD461A30B2032800DC009E36B2A9B2208A884203D1B1B2628A8A422B
:2064A00005D02FB2617E890703D46682278201B0F0BD00B2874203DB1220205E86420FDA37
:2064C00000252046294604F039F9284600F072FB66822782E943204604F030F901B0F0BD33
:2064E00066822782204600F057FC01B0F0BD00000120400603490860BFF34F8FBFF36F8FA9
:206500007047C04680E100E001200006104908607047C046012000040D4908607047C04638
:206520000120C0050A4908607047C0460120C006074908607047C046012040040449086087
:206540007047C04601200007014908607047C04600E100E001200004014908607047C04692
:2065600000E200E0FF20000603490A6882430320800710180860704720ED00E01248016810
:20658000C0220A433F218A430260704714480168C0220A433F218A4302607047FF20000627
:2065A00003490A6882430120C00710180860704714E400E0FF20000603490A688243012088
:2065C000800710180860704718E400E0FF20000203490A6882430120C00310180860704742
:2065E00010E400E00348016840220A43BF218A43026070471CE400E0BFF34F8F0348044996
:206600000160BFF34F8F00BFFDE7C0460CED00E00400FA0510B5CF4C2168814200D010BD3B
:206620006720002102F014FC206010BD10B511484088C00703D10F48002102F033FC7D20AC
:20664000C00003F09BF86720002102F017FC00280BD004460021204601F0B2FD67202146E5
:2066600002F00CFC04460028F4D121480121017010BDC04654020108B0B504460020E08389
:2066800062772377616125462035284602F0E1FF284602F0CEFF204602F058FA0446284636
:2066A00002F0D4FF2046B0BDB0B582B004460820235E0A20205E69460860002520462946FF
:2066C0002A4602F039F92046294601F079FD08480078002802D12046FFF712F99D48016872
:2066E000002901D002B0B0BD046002B0B0BDC046B806002010B5054C2068002804D002F08E
:206700001DFC20680028FAD110BDC046C405002080B5024802F09DFF80BDC046BC060020F7
:20672000B0B5074D2C46A088C00702D0204602F0C5FE1034284630308442F4D3B0BDC04640
:20674000C0060020B0B582B00446002001905E48007800280BD05F48056801A8411B204621
:2067600018302A1DFBF786FA6519B8350CE0594800680321C943091AA268A2185518021D15
:2067800001A92846FBF776FA6069019001A8281A4E49096800290AD0CA0703D0019A136875
:2067A0001B181360019A121D01924908F4D16169803101914649096800290AD0CA0703D00C
:2067C000019A13681B181360019A121D01924908F4D102B0B0BDC04680B582B03848006816
:2067E00001A901600830FBF72CFD02B080BDC04610B5334C2068A8302060FFF7EDFF2068B8
:20680000A838206010BDC046F0B5D9B02C4C04A820607A482B494161FFF7EAFFFFF7DCFFEB
:206820002268A82011581468002302910394A14201D8194600E00121234C217010582349E3
:206840000B6023490B60039E351A2920C043B032800001460195009050581468001BA842C2
:206860001CD1202B194D00D3194D50182C68202B1F4601D31F46203F0121B9400C432C6007
:20688000056802980399884202D9AE4202D902E0AE4200D335462E46019D0099121D5B1C74
:2068A000282BD9D10648006800680299039A914201D8301A00E0801B0649086059B0F0BDA7
:2068C00084100020B00F00200C1B0020900F0020940F0020081B0020B0B515460C4640695E
:2068E000FBF7AFFC002800D0B0BD002D10D0204618306061FBF7A5FC002806D04048006899
:20690000C1680069884702F07FFF2046FFF71AFF60690121FBF7ACFC80B500F007F880BD4B
:2069200080B500F009F880BD7047000080B51C4802F0B2FF80BDC04680B502200449085EB4
:20694000002804DB03480168014802F0ABFA80BDB4020108AC03002010B582B0C16141680F
:206960004B881B0703D5038A20241C4304828B6A1146984700280FD0094802F094FFFF2469
:2069800000280AD11920694608600022D3430448044902F09FFF00E0002460B202B010BDAE
:2069A000CC0300202545000880B5018A04220A430282FCF77BFF80BD80B50120C1020248B2
:2069C00002F08CFD80BDC0467C07002080B5FFF7F3FF00F001F880BD10B5FDF7DDFD074C2D
:2069E00018200021022206C420606160A160083CFFF70AFF0248046010BDC04650100020CA
:206A00005804002010B5074800210124224602F06BFE054802F01DFE204602F009FE0349D8
:206A2000086010BD7C2400206C100020441B0020B0B582B01D461446432292026B461A60CE
:206A400022462B4600F0C8F9002811D0E168002900D1084901622169002900D169694162B3
:206A600061698162A169002901D103490968C16202B0B0BD661801080800002010B50446A7
:206A800001200102A06902468A43A261810406D5212109028843A061206A02F06BFD2046EE
:206AA00002F058FC10BD0000B0B5094C204602F0C1FC0849002520462A4602F0C9FCE843C6
:206AC00002F0DEFE01460322204602F007FCB0BD14070020F199000880B5417E890702D58C
:206AE000426A816A904780BD80B500F0BBF980BD70B500281BD00E4604460025294603F078
:206B00001DFE304600F056F8F34800680068C1682046884760688168002901D0204688475D
:206B2000A069A561C00402D5204602F023FD70BDB0B582B08468204601F0FBFE0546204682
:206B400001F0F2FE69460860002120460A462B4601F0F2FE022000F02DF8DB4802F0C7FD04
:206B600002B0B0BD70B582B00446407E800718D5012046020025E943D34802F0C5FDA06991
:206B8000304210D01020235E0E20225E0C20215E1220255EA0686C46256001F0CDFEFF25C5
:206BA00004E0002502E02046FFF7C2FF68B202B070BDC046F0B583B00646804C207800281E
:206BC0006ED0012E07D0002E0BD10020C143BE4802F09AFD05E0BC48002102F095FD0028FE
:206BE0005ED02078C00702965CD12078800755D521204402714802460078FD21014011701A
:206C0000002003F0C1F8002830D00546A8692040A04225D110202B5E0E202A5E0C20295ECA
:206C200012202E5EA8686F463E6001F085FEAA4800680068016928468847AE68304601F0D9
:206C400078FE0746304601F06FFE6946086000213046029E0A463B4601F06EFE012E0AD018
:206C6000284603F091F805460028CFD1534800788007BFD412E0284603F086F800280DD014
:206C8000054680692040A042F5D14C48024600780221014311708E4802F00AFE012E4ED956
:206CA00003B0F0BD2120470201972078FE2101402170002003F068F8002833D00546A869CF
:206CC00038400124A103884226D110202B5E0E202A5E0C20295E12202E5EA8686F463E606F
:206CE00001F02AFE7C4800680068016928468847AE68304601F01DFE0746304601F014FEE2
:206D00006946086000213046029E0A463B46019F01F012FE012E0AD0284603F035F80546D1
:206D20000028CCD1254C2078C007BED15DE723480146007820430870654802F0B9FD6248E7
:206D400002F0D5FC03B0F0BD80B500F0A1F8FFF7ABFE80BDF0B581B00C4605460D4800218D
:206D600002F032FB002812D006460A4F304602F013FB002804D045600480304602F080FBC7
:206D80003846314602F020FB06460028EED101B0F0BDC046316A000880B581698A050BD529
:206DA00001229203114381610448017802220A430270474802F07CFD80BDC046FF030020DE
:206DC00080B5454A1268126892689047002801D00020C04380BDC046F0B581B01E46074644
:206DE000069D002902D00C468D610BE00092706802F07CFB00282AD004460120000305431F
