:020000040800F2
:10180000D0150020791900088119000883190008F3
:1018100000000000000000000000000000000000C8
:101820000000000000000000000000008519000812
:10183000000000000000000087190008E51E0008F5
:101840008B190008000000008B1900088B19000894
:101850008B1900088B1900088B1900088B190008D8
:10186000000000008B1900088B1900088B19000874
:101870008B1900088B1900088B1900080000000064
:101880008B1900088B1900088B1900088B190008A8
:101890008B1900088B1900088B1900088B19000898
:1018A0008B1900088B1900088B1900088B19000888
:1018B0008B1900088B19000800F002F800F030F8CE
:1018C0000CA030C8083824182D18671EA246AB4655
:1018D00054465D46AC4201D100F022F87E460F3EF0
:1018E000B6460FCC0126334200D0FB1A3343A24642
:1018F000AB461847FC1B00000C1C00000023002412
:1019000000250026103A01D378C1FBD8520700D336
:1019100030C100D50B6070471FB51FBD10B510BD9D
:1019200000F0CAF91146FFF7F7FF00F0ADFE00F036
:10193000E2F903B4FFF7F2FF03BC00F041FE000040
:1019400070B505460C46164602E00FCC0FC5103E9A
:10195000102EFAD2082E02D303CC03C5083E042E63
:1019600007D301CC01C5361F03E021782970641C20
:101970006D1C761EF9D270BD0748804707480047A6
:10198000FEE7FEE7FEE7FEE7FEE7FEE7044805495F
:10199000054A064B70470000F51E0008B9180008FC
:1019A000D00F0020D0150020D0110020D011002031
:1019B0007047000030B5441C03E00178401C00294A
:1019C0000DD08107F9D10B4BDD0104C8D11A914329
:1019D0002940FAD0001B0A0603D0C01E30BD001BF0
:1019E00030BD0A0401D0801E30BD0902FCD0401E6B
:1019F00030BD000001010101F8B5042A2CD3830792
:101A000012D00B78491C0370401C521E83070BD068
:101A10000B78491C0370401C521E830704D00B78BE
:101A2000491C0370401C521E8B079B0F05D0C91A1E
:101A3000DF002023DE1B08C90AE0FFF781FFF8BDA5
:101A40001D4608C9FD401C46B4402C4310C0121F5F
:101A5000042AF5D2F308C91A521EF0D40B78491C97
:101A60000370401C521EEAD40B78491C0370401CC2
:101A7000012AE4D409780170F8BD01E004C0091F0F
:101A80000429FBD28B0701D50280801CC90700D036
:101A90000270704700290BD0C30702D00270401CAF
:101AA000491E022904D3830702D50280801C891EA7
:101AB000E3E70022EEE70022DFE70000024670B510
:101AC0000A4392072AD11E4DEE0104C808C9541BCF
:101AD0009443344017D0D0B2D9B2401A2106014302
:101AE00010D190B299B2401A210401430AD11002D8
:101AF0001902000A090A401A2102014302D1100EFC
:101B0000190E401A70BD9A42DFD010BA19BA884235
:101B100001D9012070BD0020C04370BD02780B7850
:101B2000401C491C002A09D09A4207D102780B7840
:101B3000401C491C002A01D09A42EFD0D01A70BD37
:101B400001010101002203098B422CD3030A8B42BD
:101B500011D300239C464EE003460B433CD40022A5
:101B600043088B4231D303098B421CD3030A8B42B7
:101B700001D394463FE0C3098B4201D3CB01C01A85
:101B8000524183098B4201D38B01C01A5241430950
:101B90008B4201D34B01C01A524103098B4201D33E
:101BA0000B01C01A5241C3088B4201D3CB00C01AAB
:101BB000524183088B4201D38B00C01A5241430823
:101BC0008B4201D34B00C01A5241411A00D2014648
:101BD0005241104670475DE0CA0F00D049420310E1
:101BE00000D3404253409C46002203098B422DD330
:101BF000030A8B4212D38901FC2212BA030A8B42D8
:101C00000CD3890192118B4208D3890192118B4226
:101C100004D389013AD0921100E08909C3098B42AB
:101C200001D3CB01C01A524183098B4201D38B01EE
:101C3000C01A524143098B4201D34B01C01A524191
:101C400003098B4201D30B01C01A5241C3088B42D6
:101C500001D3CB00C01A524183088B4201D38B00C1
:101C6000C01A5241D9D243088B4201D34B00C01A4B
:101C70005241411A00D201465241104663465B1060
:101C800001D34042002B00D54942704763465B10A8
:101C900000D3404201B50549002802DC491C084038
:101CA00000E00846C046C04602BD00BFFFFFFF7F00
:101CB0007047704770477047754600F025F8AE468C
:101CC000050069465346C008C000854618B020B5D7
:101CD000FFF75CFE60BCB64600260027C0C5C0C545
:101CE000C0C5C0C5C0C5C0C5C0C5C0C5403D490808
:101CF00049008D46704710B50446C046C046204690
:101D0000FFF717FE10BD00000048704700000020DC
:101D1000FEB51E4617460D460446006D029020464D
:101D20000C304C210191FFF7C6FE20460ECD0EC0AF
:101D300001218802E06002982065029108023818AB
:101D400020626762089F30463946FFF7B2FE63485B
:101D50006065032535400420401B002D009000D015
:101D60003F1A28213846FFF7EDFEE062002D01D032
:101D700000983618A662204601F046F8002806D4DE
:101D80000B980199029A625460640020FEBD2063A2
:101D9000FEBDC046F0B585B00F460446406D4F49C4
:101DA00088420ED14C20205C00280DD01D461646DE
:101DB0003846FFF7FFFD112809D31E4820631E4D4A
:101DC00035E01C4D0C3531E01A4D24352EE00295DE
:101DD00004A920463A4600F0EDFD002819D403AAD4
:101DE0002046394601F0AEF8002815D41620864367
:101DF00003A80188049A029800902046334601F017
:101E000003F905460498002D0BD4002181618588D3
:101E10000DE0054620630AE0054604200499095EAA
:101E200001E00421415E204600F070FE256328B2E7
:101E300005B0F0BDCCD8FFFFCCD80000F8B51646F1
:101E40000546406D254A904211D14C20285C00285F
:101E50000FD01C466A46284600F042FE204F00285C
:101E600034D40098818B090708D4BC1C03E01C4CB7
:101E700001E01B4C18342C632046F8BD8268012C0D
:101E800004DB511C02D115372F6324E081690B1943
:101E9000934204D22246334601F0FEF80FE0541A72
:101EA000012CF0DB2246334601F0F6F839461531B5
:101EB000884204D10098816909198161DCE7002812
:101EC00004D4009881690919816101E028630446FE
:101ED0001537BC42D0D10024CEE7C04615030920F7
:101EE000D8D8FFFF02480168491C01607047C0460E
:101EF000CC0F00200120C006424908607047C04650
:101F000070B501210B062C4802689A4302604A060C
:101F100004681442FCD10C04056825430560274C75
:101F20000568641C02D04E043540F9D0002C01D065
:101F3000244C00E0224CC5682543C56004681C435E
:101F4000046003681342FCD00907C2680A43C260F8
:101F50001D490A6802231A430A607F210902826828
:101F60008A438260816819438160416B07220A437A
:101F700042631648042181610168154A0A400260E3
:101F8000052109070B68134A13400B601523DB0179
:101F900004681C43046084681C4384600F231B0393
:101FA000046A9C430462036A0362501C0A68024389
:101FB0000A60094870BDC046001002400000F0FFF2
:101FC00002080220031002200020024000040050FA
:101FD00015F0DFFFFFFFFF3F0090D00380B5EFF368
:101FE000108072B606494868421C06D00A6882F31F
:101FF0000888044A1160804780BD00F0EFF8C046B1
:102000000038000808ED00E0F0B587B001900292BA
:10201000D00700D0D7E00D460120039006046B4F97
:1020200038683042FCD17D2084003868400307D5F1
:102030000A2000F0C7FA641E2004F6D100F0CEF8A2
:102040007868002805D5384608386149016061493B
:10205000016039686048014339607A6802210A43A7
:102060007A603F22D200019B1B0A13407C68944394
:10207000E2187A607A6832437A603A683242FCD178
:102080003A6802433A6078688843786006A900207D
:10209000088006A90988029A914200D38EE07968E7
:1020A000039A1143796006A90A8805905219D279DA
:1020B0000492049A1302059C0493120E23029A18A8
:1020C00005920A88049B059C0594521992791A433B
:1020D0000492049A1302059C0493120E23029A1888
:1020E00005920A88049B059C0594521952791A435B
:1020F0000492049A1302059C0493120E23029A1868
:1021000005920A88049B059C0594521912791A437A
:102110000492049A1302059C0493120E23029A1847
:1021200005920A88049B059C05945219D2781A439B
:102130000492049A1302059C0493120E23029A1827
:1021400005920A88049B059C0594521992781A43BB
:102150000492049A1302059C0493120E23029A1807
:1021600005920A88049B059C0594521952781A43DB
:102170000492049A1302059C0493120E23029A18E7
:1021800005920A88049B059C0594AA5C1A43049254
:10219000059A049B0988019C0B5109194A6039680A
:1021A0003142FCD13968039A11433960796891430F
:1021B00079600699083106AA11806AE70398C0077A
:1021C00079680143796007B0F0BDC0461020024035
:1021D00023016745AB89EFCDFB830000BFF34F8F31
:1021E000034804490160BFF34F8F00BFFDE7C046BD
:1021F0000CED00E00400FA05F0B5B5B01D4616463A
:102200000091074609ACB0212046FFF754FC80211D
:102210003846224600F098F8012E07D0002E25D12E
:1022200009A90A22009800F041F81FE0002D1DD0F6
:102230002C460020089007900690059001AE1027CC
:102240003046009D29463A46FFF7D6FB09A90A22E7
:10225000284600F02BF8284621463A463B4600F037
:1022600063F8204631463A46FFF7C6FB35B0F0BD6D
:1022700018B503796A46537003781370037A937024
:10228000037BD37001235C1A03231C40145D04718B
:102290000224641A1C40145D04725C1A1C40145D14
:1022A000047349421940515C017018BD70B516465F
:1022B0000C46054610010918284600F015F8F0B242
:1022C000012807D9761EF0B200012118284600F037
:1022D000E1F8F4E70020102805D0215C2A5C4A4090
:1022E0002A54401CF7E770BDB0B504460020102802
:1022F00005D00A5C235C53402354401CF7E7601C64
:102300000121AD4DA847A01C0221A847E01C0321D4
:10231000A8470020A949102804D0225C8A5C2254D6
:10232000401CF8E7B0BDC04610B5884208D8134637
:1023300006E00A78047854400470491C401C5B1E77
:10234000002BF6D110BD0000F0B58BB013460D4642
:102350000146EA0809931846FFF74EFB6909C8B21F
:10236000059080001C30C0B20390002002900D4602
:1023700001910491E9B2039888426BD98A000998C7
:1023800007921718381F027843781B029A1883782F
:10239000C0780002C01800048018020E060C030A60
:1023A000049CE4B2A142089719D1DBB22A4C0A92EC
:1023B000E35C2A46029DECB228A73F5D5F40264CB5
:1023C0000A9BE35C0693019BD3180493C0B2205C84
:1023D0000A90F0B2235C6D1C0295154614E0059C32
:1023E000082C0ED107240C40042C0AD11A4CA25CF4
:1023F0000A92F2B2A25C0692DAB2A35CC0B2275C87
:1024000002E0069607460A920598081A8000099C81
:10241000215C20184278120251188278C07800029C
:102420008018000440180A990906069AD2B21204CC
:102430005118DAB212028918FAB289184140079885
:102440002154080C089A9070080ED070080A507039
:102450006D1C8FE70BB0F0BDF032000801020408DC
:10246000102040801B36000070B500231C46072B4F
:102470000DD845B2ED09154046006E4001250D40CE
:102480006D4205406C405B1C49083046EFE7E0B206
:1024900070BD0000F0B58FB009900020102807D063
:1024A000099A125C0B5C53400BAA1354401CF5E7CD
:1024B0000021102967D00BA80A910A994118CE78FB
:1024C0008F783B460597734002930A9A805C4A785E
:1024D0000692014604460790514003910846584031
:1024E000C1B209201B252A46324B9847314B049034
:1024F00020467840C1B2042420462A461F46984709
:10250000089006987040C1B220462A46B847044653
:10251000049844402746774007984640F1B2022687
:1025200030462A46234B984778400A99099A511811
:102530000191C870089F04994F400897059847403B
:102540000298C1B230462A461A4B98477840019FFC
:10255000B8700698444005994840C1B230462A46B2
:10256000144B9847604078700798089C4440039843
:10257000C1B230462A460F4B98470A996040099AE3
:102580005054091D95E7099D681C01210A4CA0477C
:10259000A81C0221A047E81C0321A04700200749EE
:1025A000099B102804D01A5C8A5C1A54401CF8E776
:1025B0000FB0F0BD6924000871220008F033000854
:1025C000FEE7000081B005490A6800920A68009B96
:1025D0001B189A42FAD301B07047C046CC0F0020B6
:1025E00070B500251E4C00F03FF8FF2803D10A20EB
:1025F000FFF7E8FFF7E780070AD46D1CA54207D86C
:1026000000F088F9062000F0BBF900F069F9EAE76C
:1026100000F080F9C72000F0B3F900F061F900255F
:10262000104EA8087D2809D201208002316841405F
:1026300031603220FFF7C6FF6D1CF2E7002500F085
:1026400013F8FF2803D13220FFF7BCFFF7E7C007DC
:1026500005D03220FFF7B6FF3235A542EFD970BD65
:10266000B80B0000140400501CB500F053F905200D
:1026700000F086F9002000F083F901AC207000F032
:102680002FF920781CBD0000F0B58FB0814D284691
:1026900018388149016062B6FFF732FC7F488049F3
:1026A0004160FF2109062A688A430324A1075118C3
:1026B000296000258560072101607A480068400391
:1026C00000D5E5E000F036F9774801682143016064
:1026D0002005764A116881431160012000900005B1
:1026E000116801431160506971490840506100F060
:1026F00037FA0E956F4A10790DA9087050790CA918
:10270000087090790BA908706B4C6CA108262046C4
:10271000324601952B46FFF73DFB01460EAA0423E6
:1027200020460391FFF78AFB002801D5FFF756FCEE
:102730000EA8007840B20028039A04D4FFF74EFC9C
:1027400000200FB0F0BD0DA800780EA94978814295
:102750000BD10CA800780EA98978814205D10BA86D
:1027600000780EA9C9788142E8D0564F564D584C92
:10277000114602960129E1DB4C4B58694C4A104046
:102780005861BB1D4C482A46FFF758FB012864DB03
:102790002878BA2802D06878BF285ED100260A9629
:1027A000099608960796B6B2B81C864208D2A819B0
:1027B000811C012207AB4948FFF71EFD1036F2E7E6
:1027C00069880020688049BA06AA11803F49029EA4
:1027D000B8420ED02A18127951403246002A06D04B
:1027E0004B08C90700D063401946521EF6E7401C4B
:1027F000EEE7C84340BA05A90880A88840BA04AAF1
:102800001080098806A802880020914222D104A9DC
:102810000988304A91421DD1E97909042A891204B4
:1028200012BA5118AA79120689183B22D202914293
:1028300010D8009EB0021D4B5A6902435A612648C7
:10284000081829461231F202FFF7DEFB0198401CFE
:1028500001903046039900288CD10198000600D1E0
:102860006CE70020C043286068600EAC6078287177
:10287000A0786871E078A87108220E482946FFF711
:10288000C3FB2078C00700D158E7FFF7A9FE55E742
:10289000FFF7A4FC20ED00E00018000810E000E0C5
:1028A000FFF90000102002403410024000040050E4
:1028B000FFFBFFFFF8FF01087408002066772E6217
:1028C000660000000E08000060000020FFFF00000E
:1028D00008840000717A000000380008E032000827
:1028E00081B0334801680906FCD40121C903104AAC
:1028F000116001684905890F01D04168F9E77D2021
:1029000000900098002802D00098401EF8E701B01F
:102910007047C04626480168C904890FFBD1016889
:102920000906FCD40120C007014908607047C04671
:1029300018000050012041060E4A1160BFF34F8F6E
:10294000BFF36F8F00030C490A6802430A600B480B
:10295000002101604160C121890002680A430260D0
:102960001721090242680A434260016840220A4373
:102970000260704780E100E04010024000300140FA
:102980000B490A68520600D54A680A689207FCD5C6
:1029900008710868C007FCD008790A681206FCD4E0
:1029A0000022042A02D24B68521CFAE77047C04644
:1029B00008300140F0B587B00D4604461F20C743DC
:1029C000002A03910094059217D0104600F0B6F843
:1029D0000490A36AE46A194624312246002A10D0E2
:1029E00078004018008C002804D10888022801D300
:1029F000401E08802831521EF0E7A36AE46A0020D6
:102A0000049038461F300690029319462031042066
:102A10000190C043061D0022944219D0780040184E
:102A2000808C002811D10598002803D00868049BE9
:102A3000984223D0B0B28B888342154600D3069DBE
:102A4000834200D3334606951E462831521CE3E7E5
:102A5000069F781C0ED028207843029E34180599D2
:102A6000002909D03118086A2031049A9042039D48
:102A700008D01CE019482CE0039D23E0CC19174630
:102A8000039D029E282078433218938C002B0ED091
:102A90000697908924320109009F39830F21014054
:102AA000481EF8610C48834209D2181D08E00498BA
:102AB00008602820784330180199818402E0001DC5
:102AC0001080069F2C60282078433018791C818064
:102AD000002007B0F0BDC046FBFF0000E9D8FFFFB3
:102AE00010B50346144801290DDB2C241C5F8C42D1
:102AF00009DB28244C43996A6118283911608988B8
:102B0000002901D0002010BD801C10BD02460A48DB
:102B100001290DDB2C23D35E8B4209DB28234B4399
:102B2000916A591824390A88002A02D000200880A6
:102B30007047801C7047C046E6D8FFFF10B50022E2
:102B40000649102A08D8835C002B05D021244C4369
:102B50005C40521C2146F4E7084610BD05150000F4
:102B600010B588B00E480421016000240794069433
:102B70000C480590FFF7B4FE3220FFF723FD0394C5
:102B80000920C00102900848019080200090074869
:102B900005A9074A074BFFF7BBF808B010BDC046B0
:102BA000180400509D320008CC0800207408002052
:102BB000CC0D00204C0D0020F0B595B01746C26832
:102BC0001190056A0F2F08DB491C8CB2A24208D96C
:102BD00008462103079100270AE0080307900846EA
:102BE00006E05907002000290790074600D59FE01E
:102BF0000E900F2454431F9810901E9E1D980C9009
:102C00001C980B901B9814901A981290042018404E
:102C10000490022018400A90012003400F93039073
:102C200000020990002005950D96012C7EDB0028FE
:102C30007CD1F817400E3818C2117F2188434042DA
:102C400013900020002856D1002A54DC069210026E
:102C50000799401811990B680A6A089009999847D2
:102C6000109A1399791849006D1800283CD10E2F3D
:102C70003ADC1399C9197F2936DC0F98002803D054
:102C80002888129988422AD10D9900290E9800D0DF
:102C90000880002A00D017601499002944D00A99AE
:102CA0000029129900D129880B9A00920C9A01925E
:102CB00082B211983B46149EB0471F494118012922
:102CC00037D8B749491C8842109A08D1119803682F
:102CD000026A089809999847109A002829D4AD1CCF
:102CE000641E7F1C0020C0E7139980391391069A57
:102CF000521C059DA6E71199C9680E9A521C0E92A6
:102D000092B20027914200D80E97914201D80797BE
:102D100004E0039B1B03079EF6180796914284D894
:102D20000499002981D003E0002002E0002800D4AB
:102D30009B4815B0F0BDC04657270000F0B58BB0DA
:102D4000044609A803800AAE3280E269258B07AFEA
:102D5000059708AF04970396002B00D11846029000
:102D6000104801900091012320462946FFF724FFD7
:102D700001468B48814201D0084600E046300028D9
:102D80000DD4109A08A90988002A05D00D01079BC7
:102D90005D196D1C158000E0079BE36121830BB07A
:102DA000F0BDC046A92D00087CB50C46110159188C
:102DB0004D1C29040B0A066805216A461846B047CF
:102DC000002820D468460088A0421BD10798694695
:102DD00049880088814215D16846007983220240E3
:102DE000802A0FD1002905D121B2002902D5402126
:102DF000084007D006990020002904D0AAB209880B
:102E0000914200D17E487CBDF0B58DB004460CA93E
:102E1000002008800121069109020891794F079747
:102E2000064680B2E16881423CD900030899401807
:102E3000001F236802210AAA9847002867D40AA81D
:102E400000883649884202D10CA8008807E007981C
:102E500080B26C4988422DD10CA8008807900003ED
:102E600008994018801E2368022109AA9847002863
:102E70004DD40C98401C0CA90880B2B209A909884D
:102E80008A42324600D80A465E4B994200D0164626
:102E9000BAB28A423A4600D30A465A4B9942C0D047
:102EA0001746BEE7380408D1B0B25649884204D16B
:102EB00000200CE03A4D2F352AE0B8B2B1B2081A22
:102EC0000699C903884201DB781C00E0701C079A50
:102ED0004221605290B24B49884202D0304D273592
:102EE00016E000256563A563E5630BA805900CA8B3
:102EF00004900395029508480190009520462946C4
:102F00002A462B46FFF758FE2549884200D0054641
:102F100028460DB0F0BDC046212F0008290400004E
:102F2000002906D0374A914205D1002B07D1343011
:102F300002E03C3000E038300168491C0160304854
:102F40007047C04670B588B015460446C269068B06
:102F500006A8059007A804900023039302910F4848
:102F60000190009320463146FFF726FE01460C48AB
:102F7000814201D0084600E0463000280CD407A961
:102F80000988002D05D00B01069AD3185B1C2B80F5
:102F900000E0069AE261218308B070BDA52F000809
:102FA000A8D8FFFFB0B588B0154C002905D0154D45
:102FB000A94202D009B2002902D4204608B0B0BD0F
:102FC00011015918491C03680804000A1E216A46A9
:102FD0009847002812D4684640880028EDD16846FA
:102FE0000079C2210140C029E7D10C9869460D3112
:102FF000FEF764FD0028E0D10024DEE70446DCE7AC
:10300000AAD8FFFFFFFF0000F0B58BB01D461446A5
:103010000E460746036808021E2103AA98470028A7
:1030200030D4300900033107C90E0818801E3B68F0
:103030000221019502AD2A469847A681276000210A
:1030400061612182E6810199A1830599A1602988A6
:103050000DB2E5800F4A03A90B79D90703D11906F0
:1030600003D4093211E0511C10E099070CD4D11D92
:10307000002D0BD50424234008D103A94988002939
:1030800000D01046014601E00832114608460BB058
:10309000F0BDC046E3D8FFFFF0B591B009931446E8
:1030A0000D460746FB2128460491FEF74BFD3946A5
:1030B000064662193B680020C4430B935B6A1F46B7
:1030C0001E370197039308330293069407940C91DB
:1030D00008920D95AA4200D8DBE0B7B2712F01D259
:1030E000002506E0384671387C21FEF72BFD0C994F
:1030F000451CACB2079880B2A04249D0002C04D045
:10310000088AA04205D1C88900E088890EA90880F4
:103110000FE0C8880EA900910121C90301430023D3
:103120000B982246FFF70AFE002800D5B1E00EA852
:1031300000880B990B684A6A00020121090298472E
:10314000002800D5A5E003980179C80700D084E0E5
:10315000080600D484E0880700D584E04E480B3090
:10316000490700D595E006210C9A515E069B9942CD
:1031700000DD8EE003998878C97809020818A0421A
:1031800000D084E00D98506115820E98D08107958B
:10319000002C0A960ED0B0B2712805D3713F7C2165
:1031A0003846FEF7CFFC0F4608997800029A1518AA
:1031B0000D9F04E0780001990D180D9F0899CC1B14
:1031C0003846049E3146FEF7BDFC0A46701A84421A
:1031D00000D304460C988068C01B844200D3044688
:1031E000002C099F42D02888069989B2884240D095
:1031F000010741D001218903884240D805920B99EB
:103200000B68060205250FAA304629469847002874
:103210003FD40FA80079C1071FD1010620D581072F
:1032200021D440072DD50A9880B20FA94988814240
:103230002AD12E43059830180B990B6821463A463F
:103240009847002825D40D9D65190C994D613F19AB
:1032500009970A9E761C089A3BE70F48401D18E024
:103260000D480D3015E00C480C3012E00A480E30C5
:103270000FE00948801C0CE00748401C09E00648A4
:1032800007E00548801D04E00348C01C01E0024837
:10329000001D11B0F0BDC046DFD8FFFFF8B51446E1
:1032A0000D460646FFF736FB0B200C4FB847300C97
:1032B000C0B2B847300AC0B2B847F0B2B847002031
:1032C000B847002D06D00020FFF75AFB2070641C81
:1032D0006D1EF6E7FFF704FB0020F8BD812900080A
:1032E000C878EA3C37AA588C8C1CE15D66A8B0BD52
:1032F000637C777BF26B6FC53001672BFED7AB76B3
:10330000CA82C97DFA5947F0ADD4A2AF9CA472C05D
:10331000B7FD9326363FF7CC34A5E5F171D83115CA
:1033200004C723C31896059A071280E2EB27B275EB
:1033300009832C1A1B6E5AA0523BD6B329E32F8463
:1033400053D100ED20FCB15B6ACBBE394A4C58CF5B
:10335000D0EFAAFB434D338545F9027F503C9FA82F
:1033600051A3408F929D38F5BCB6DA2110FFF3D2FD
:10337000CD0C13EC5F974417C4A77E3D645D1973B1
:1033800060814FDC222A908846EEB814DE5E0BDBAB
:10339000E0323A0A4906245CC2D3AC629195E479E2
:1033A000E7C8376D8DD54EA96C56F4EA657AAE083C
:1033B000BA78252E1CA6B4C6E8DD741F4BBD8B8AD7
:1033C000703EB5664803F60E613557B986C11D9E3D
:1033D000E1F8981169D98E949B1E87E9CE5528DFB4
:1033E0008CA1890DBFE6426841992D0FB054BB16E0
:1033F00052096AD53036A538BF40A39E81F3D7FB6A
:103400007CE339829B2FFF87348E4344C4DEE9CBB3
:10341000547B9432A6C2233DEE4C950B42FAC34E28
:10342000082EA16628D924B2765BA2496D8BD125DE
:1034300072F8F66486689816D4A45CCC5D65B69282
:103440006C704850FDEDB9DA5E154657A78D9D8426
:1034500090D8AB008CBCD30AF7E45805B8B3450646
:10346000D02C1E8FCA3F0F02C1AFBD0301138A6B60
:103470003A9111414F67DCEA97F2CFCEF0B4E67390
:1034800096AC7422E7AD3585E2F937E81C75DF6E3E
:1034900047F11A711D29C5896FB7620EAA18BE1BA4
:1034A000FC563E4BC6D279209ADBC0FE78CD5AF44A
:1034B0001FDDA8338807C731B11210592780EC5F90
:1034C00060517FA919B54A0D2DE57A9F93C99CEFEC
:1034D000A0E03B4DAE2AF5B0C8EBBB3C83539961ED
:1034E000172B047EBA77D626E169146355210C7D2B
:1034F0000035000800000020D0150000FC1800086E
:04000005080018B91E
:00000001FF
